:02000002B0004C
:1040000000400B008CC40B00000006000C000502F1
:084010000401810C0000000016
:04401800B0BB0B002E
:1040200009480A49884208B505D0094A824202D0A7
:10403000121A07F0C3FB0748074A0021121A07F0BB
:10404000E5FB014808BD00BF00DC0320ECC30B000A
:1040500078DC032078DC0320EDE7032070B5074E01
:10406000074C06F035F8A41BA4080025AC4200D18B
:1040700070BD56F8043B98470135F7E7B0C30B0015
:10408000D4C30B0001F016B808B501F06DF8BDE817
:10409000084005F0D5BF03F071BE03F06FBE03F01A
:1040A00075BE000008B5034A00210C2003F0A2FDF4
:1040B000FEE700BFC5780B000078B0FA80F0400939
:1040C00070470123037070477047037C13F00803A7
:1040D0001EBFC36A406A1B1A002BACBF18466FF0A4
:1040E0000040704730B5114D2C68D4F804355B01A1
:1040F00003F4FF5294F808351343B4F80025A2F2F4
:10410000BC7243EA422303802868D0F80C35D0F80B
:104110001025DB02520102F4FF5203F4FF23134384
:1041200090F8142543EA52030B8030BD84DC032051
:10413000704710B510210446FFF7B1FF204610BDAF
:1041400010B534210446FFF7AAFF204610BD1030F9
:1041500002F0BABA07B501220DF10701103001F0E3
:10416000C0FF01280CBF9DF807004FF0FF3003B0DF
:104170005DF804FB103002F041B9103002F05FB876
:1041800000B58BB01346002201920A4600F23C4172
:1041900001A802F047FA0BB05DF804FB07B5012255
:1041A0008DF8071010300DF1070102F08DFA03B001
:1041B0005DF804FB0EB403B503AB002153F8042BE8
:1041C000019305F0CCFA02B05DF804EB03B0704740
:1041D00073B5044608462279A36832B1A3B90B49E6
:1041E00002B0BDE8704005F08BB9094A267B094D45
:1041F0000949647B012E18BF2946CDE900140749FF
:10420000FFF7D8FF02B070BD054AEFE7D5BB0B0042
:1042100044BE0B00D1BB0B00CDBB0B00EBBB0B00B6
:10422000C4BB0B000EB400B58CB00DAA4FF0200C2F
:1042300052F8041B0392CDE900120023016804AA7E
:104240001E20CDE904C303F0DDFC0CB05DF804EBE7
:1042500003B070470EB400B58CB00DAA4FF0200C1F
:1042600052F8041B0392CDE900120023016804AA4E
:104270002820CDE904C303F0C5FC0CB05DF804EBC5
:1042800003B0704700B58BB00A460023014601A871
:10429000019302F0F0F80BB05DF804FB40B1037835
:1042A00013F0700303D0034B1860012070471846C9
:1042B000704700BF84E60320F0B58BB00023019364
:1042C0000B782F2B0446174600F23C460FD14B7853
:1042D0006BB9304602F0C8F82146304601F0FBFECB
:1042E00018B117B13046FFF7D9FF0BB0F0BD0A4641
:1042F0000023314601A802F0BEF80028F5D09DF851
:10430000043013F0700FF0D001AC0FCC35460FC560
:104310000FCC0FC523682B60E3E7000037B540F2F0
:1043200005736422038080F864240923384A83706B
:10433000C0F8742400230122364DC372A0F8403423
:1043400080F86E3480F87824C0F87C34A0F880348B
:104350002978BFF35B8F114004460BD128460191A9
:10436000FFF7AAFE019928B12B4805F043FA284629
:10437000FFF7A7FE284BC4F8703404F5916001F0F4
:104380001CFB41F20533A4F89434244904F29C4008
:1043900005F09BFB224904F2AC4005F096FB00219E
:1043A00004F2BC4001F058FC1E4B04F2C24203F17F
:1043B000100153F8040B42F8040B8B42F9D1192277
:1043C000C4F8D82404F2E44200231749C4F8D434D2
:1043D000C4F8DC34A4F8E034116004F59D6213499C
:1043E0001160134904F59E620020C2E9000104F542
:1043F000A0620020002142E9020184F8183520461D
:1044000084F81935C4F81C350523237003B030BD7A
:1044100010BF0B0078DC03207CDC032044BE0B00C3
:1044200008BC0B0044BF0B0033335340000048422C
:104430000000F87F13B5044605F046FD05F03AFD8F
:104440000028F9D00334204601F0B5FC68B905F026
:104450003BFD1C4905F067F805F036FD0368DB6994
:1044600098470A2003F0CAFCFBE7204601F0A5FCB0
:1044700068B905F029FD144905F055F81349144AA7
:10448000684601F031FC6946204601F0B7FC204641
:1044900001F091FC05F018FD0E4905F031F805F02A
:1044A00013FD0A221021044605F049F8204605F0C4
:1044B0002EF805F009FD084902B0BDE8104005F0EE
:1044C00032B800BF1CBC0B002EBC0B0063BC0B0041
:1044D0005ABC0B006FBC0B007ABC0B00F0B52DED85
:1044E000028B04469FB00021007805F061FE05F0C4
:1044F000EBFC724905F004F8052003F07FFC704BDB
:1045000011932546002304F264468DF848306D4B24
:104510001393012715F8042BADF8507011AB04F577
:104520008E61304602F094FF002800F0A98066609A
:1045300004F58866304601F097FF3946284602F0B8
:1045400031FE0146002800F095802946304601F0F2
:10455000C2FD002800F094803046FFF79FFE00283F
:1045600000F08E80012005F04DFE05F034F947F291
:104570005D7005F025F9002702465349009705466E
:104580006846ADF8047003F011FC284606F0A6FB5F
:1045900041EC100B05F04CFF4C49B0EE408AF0EEB8
:1045A000608A304601F0B5FF4FF47A7305970693A1
:1045B000089744F20223464F444A0497314608A81C
:1045C00001F059FF9DF82030CBB1002D6CDA2D2180
:1045D00004A804F099FF69420A2204A804F0AFFF7E
:1045E00004A804F094FF3B4904A804F09CFF3A4956
:1045F00004A804F098FF394904A804F094FF08A81F
:1046000001F032FF00254FF47A7313932F4A02957D
:104610002B46314615A8ADF80C50129515951197FB
:1046200001F029FF9DF85430002B3FD0B0EE480A2E
:10463000F0EE680A05F07CFE294B51EC100B0022CD
:1046400006F000FA06F064FE02A90246064615A826
:1046500001F047FD013E02AA6B460121AE4225DD75
:1046600012F8017B13F8010B874218BF84F8DC14A1
:104670000135F3E7284602F095FD00287FF465AF89
:1046800018491948FFF7E6FD012384F8DC3494F853
:10469000DF347BB105F018FC14491FB0BDEC028B70
:1046A000BDE8F04004F03FBF294695E715A801F0AA
:1046B000DBFEECE705F008FC0D49EEE787BC0B00DC
:1046C00010BF0B0080F0FA028CBC0B008FBC0B00FB
:1046D00024BF0B00A3BC0B00CBBC0B00F1BC0B0038
:1046E0000000F03F9ABC0B00A8E6032030BE0B0090
:1046F00036BE0B0030B585B000F5916405F0B0FD15
:1047000067210246204601F06CF928B905F0DCFB70
:10471000564904F008FFFEE705F0D6FB544904F0C3
:1047200002FF0021204601F09DF905F0CDFB514923
:1047300004F0E6FE204601F0A3F9032808D8DFE8DC
:1047400000F00220242805F0BFFB4B4904F0D8FEFE
:1047500005F0BAFB494904F0E6FE0221204601F0CB
:10476000B4F905F0B1FB464904F0CAFE204601F059
:1047700095F9072816D8DFE800F0105D6165696DCE
:10478000717505F0A1FB3F49E0E705F09DFB3E494F
:10479000DCE705F099FB3D49D8E705F095FB3C497E
:1047A00004F0AEFE05F090FB3A4904F0BCFE032194
:1047B000204601F0B8F905F087FB374904F0A0FE68
:1047C00005F082FB0546204601F096F90A220146D3
:1047D000284604F0B4FE284604F099FEB3EE0E0A13
:1047E0000121204601F0D6F905F06EFB2B4904F0BB
:1047F00087FE05F069FB01210546204601F0AAF974
:104800000221284604F09CFF0023CDE901330093E8
:10481000012319461A46204601F0E0F901212046FD
:1048200001F0CEF805F050FB1D4905B0BDE8304061
:1048300004F083BE05F048FB1A49B1E705F044FBDC
:104840001949ADE705F040FB1849A9E705F03CFB25
:104850001749A5E705F038FB1649A1E705F034FB39
:1048600015499DE705F030FB144999E709BD0B0098
:1048700039BD0B0048BD0B005FBD0B006BBD0B00CD
:1048800071BD0B0062BD0B0065BD0B0068BD0B0068
:104890008BBD0B0095BD0B009BBD0B00BDBD0B0080
:1048A000DABD0B008DBD0B008FBD0B0091BD0B0061
:1048B00039BE0B002DBE0B00D3BB0B0093BD0B000C
:1048C00010B504464FF4FA6003F098FA60780121BD
:1048D00005F07FFC41F2883003F090FA6078002107
:1048E000BDE8104005F075BCF0B597B009AD0646BF
:1048F00028460C4601F0FFFA95E803000346C4F889
:10490000BC04A4F8C014C2B2C1F30720C9B202911A
:10491000190E0191C3F3074102F5FA62C3F30723AD
:10492000039000912846184903F040FA04F2AC477E
:10493000294605A805F0C9F805A9384605F01BF970
:1049400005A805F077F894F8BC3403F5FA63C4F8C9
:10495000003594F8BD34C4F8043594F8BE34C4F876
:10496000083594F8BF34C4F80C3594F8C034C4F852
:10497000103594F8C134C4F814353946304605F082
:10498000EFF8304617B0F0BDF9BD0B007FB5044617
:1049900005F09AFA294904F0B3FD05F061FC68219D
:1049A00003F018FB05F05CFC0368FF219B68984747
:1049B00005F056FC03680F219B68984705F050FCF2
:1049C00003F00FFB0546B0B921466846FFF78CFFA0
:1049D000684605F02FF840F24C4094F8C16403F0AB
:1049E0000DFA684601F087FA9DF80530B34204BF1E
:1049F000012384F8DC3494F8BC343BB9012384F8F7
:104A0000DE3405F061FA0E4904F08DFD4DB105F07C
:104A10005BFA0C4904F087FD012384F8DC3404B010
:104A200070BD94F8DE34002BF9D105F04DFA06493B
:104A300004B0BDE8704004F076BD00BF17BE0B00A7
:104A40001FBE0B002FBE0B0035BE0B000000000088
:104A500008B5212005F0D6FB06F040F904A3D3E900
:104A6000002306F0A5F906F09BFC00EE100A08BD35
:104A70009402C1D2AF63523F38B50446FFF7E8FF56
:104A800004F2E443D3ED007AB4EEE70AF1EE10FA53
:104A900044BF012384F8E03405F016FA094904F014
:104AA0002FFD05F011FA05462046FFF7D1FF022140
:104AB000284604F02BFE05F007FABDE8384002490D
:104AC00004F01EBD3BBE0B0042BE0B0070B5044699
:104AD00088B00D46FFF7AEFCE01C01F06CF96846AB
:104AE00003F0DCF8009BC4F8983430493048FFF7F5
:104AF00099FB642003F082F9214604A8FFF7F4FE35
:104B000004A804F097FF2B4904A804F0DEFF04F288
:104B1000AC4104A805F08EF801682548FFF782FB38
:104B200004F29C4604A804F085FF2946304605F0AF
:104B300008F8D4F89C141E48FFF774FB02230022E7
:104B4000314604A805F0C2F81B4904A805F093F803
:104B5000054604A804F06EFF0DB32046FFF7CAFD1A
:104B600005F0B2F9154904F0DEFC154803F046F9EA
:104B7000144B20461C60FFF7B1FC2046FFF706FFF0
:104B8000114B124A1A602046FFF776FF2046FFF7C6
:104B900097FE684604F04EFF012008B070BD05F096
:104BA00093F90B4904F0BFFCE2E700BF45BE0B00E0
:104BB000A8E6032059BE0B002BBC0B0067BE0B0000
:104BC000E093040084DC032080E60320E5400B0032
:104BD00073BE0B0070B58AB0044608460191FFF71A
:104BE00037FF01998DED000A01F2AC4506A8FFF7E9
:104BF0007BFE06A9284604F0BEFF134E06A804F06B
:104C000019FF294602A804F0ABFF314602A805F0BF
:104C10001DF89DED000A0546062106A804F0C5FF13
:104C200006A9284605F006F8314605F00FF80146BA
:104C3000204604F095FF06A804F0FCFE02A804F04C
:104C4000F9FE20460AB070BD9BBE0B0000000000BC
:104C500007B588B20021019005F0AAFA019805F085
:104C6000D1FA06F03BF806A3D3E9002306F0A0F83A
:104C700041EC100B03B05DF804FB00BFAFF3008004
:104C80006666666666664A3F70B52DED068B92B025
:104C90000446084613210190FFF7DAFF0198B0EEB1
:104CA00040AAF0EE60AA1221FFF7D2FF0198B0EE01
:104CB000409AF0EE609A1121FFF7CAFF234EB0EE42
:104CC000408AF0EE608A0621B0EE4A0AF0EE6A0AE7
:104CD00002A804F084FF02A906A804F041FF3146AF
:104CE00006A804F0B3FFB0EE490AF0EE690A0546E3
:104CF00006210AA804F073FF0AA9284604F09AFFC7
:104D0000314604F0A3FFB0EE480AF0EE680A05460B
:104D100006210EA804F063FF0EA9284604F08AFFBE
:104D20000146204604F01CFF0EA804F083FE0AA8EA
:104D300004F080FE06A804F07DFE02A804F07AFECE
:104D4000204612B0BDEC068B70BD00BF9BBE0B00B1
:104D5000F8B500F5886719490446051D3846FFF780
:104D600091FA064640BB154901222846FFF708FA8A
:104D7000324612492846FFF79FFAD4F8981438466D
:104D8000FFF780FA0646B8B9D4F8981401222846ED
:104D9000FFF7F6F9D4F8981428463246FFF78CFA54
:104DA00007493846FFF76EFA30B928460449BDE88E
:104DB000F8400122FFF7E4B9F8BD00BF9DBE0B002B
:104DC000D0BE0B0070B5054690B0043000220E46F0
:104DD0001A490190FFF770FAD5F89814019800224B
:104DE000FFF76AFA164901980022FFF765FA0024D6
:104DF0004FF47A73CDE90443124B039305F5A46293
:104E000044F2022305F5886107A8079401F033FBFB
:104E10009DF81C304BB1316803A804F084FB07A84F
:104E200001F022FB204610B070BD05F04DF8064998
:104E300004F079FB4FF0FF30F5E700BF9DBE0B009B
:104E4000D0BE0B0024BF0B00A6BE0B0030B58DB04A
:104E500004460D4668461B4904F037FE08A8A847DB
:104E600008A9684604F087FE08A804F0E3FD21467F
:104E700004A8FFF7AFFE04A908A804F071FE694674
:104E800008A804F0D7FE0146684604F05AFE08A8B8
:104E900004F0D0FD04A804F0CDFD694608A804F094
:104EA0005FFE08A92046FFF78DFF08A804F0C2FDA9
:104EB00005F00AF8044904F036FB684604F0BAFD30
:104EC0000DB030BD44BE0B00B2BE0B002DE9F04367
:104ED000044695B0FFF73CFF201D58490190002281
:104EE000FFF7EAF9D4F898140198DFF86481544F79
:104EF0000022FFF7E1F9002252490198FFF7DCF99F
:104F000004F0E2FF504904F00EFB504904A804F0FD
:104F1000DCFD01224E4902A802F048FF04A910A8B6
:104F200004F01EFE02A90CA804F0CFFD0CA910A8E5
:104F300004F080FE04F5A465414904F087FE0023D7
:104F40000D22294604F0A9FE0CA804F073FD10A858
:104F500004F070FD012604F5886929464846FFF7EC
:104F600091F900B301363246414602A802F01EFF15
:104F700004A910A804F0F4FD02A90CA804F0A5FDF2
:104F80000CA910A804F056FE394604F05FFE002379
:104F90000D22294604F081FE0CA804F04BFD10A858
:104FA00004F048FDD9E704F08FFF2A4904F0A8FA7D
:104FB00004F08AFF294604F0B6FA274910A804F045
:104FC00084FD0CA802F06AFE0CA910A804F032FEC1
:104FD000014608A804F0C4FD0CA804F02BFD10A89D
:104FE00004F028FD08A910A804F0BAFD10A9204675
:104FF000FFF7E8FE10A804F01DFD18490CA804F006
:1050000064FD04F29C410CA804F014FE014610A8B3
:1050100004F0A6FD10A92046FFF7D4FE10A804F066
:1050200009FD0CA804F006FD08A804F003FD04A87F
:1050300004F000FD15B0BDE8F08300BF9DBE0B007D
:1050400095BC0B00D0BE0B00BEBE0B00D5BE0B0046
:10505000D9BE0B00DEBE0B00EABE0B00F1BE0B009A
:105060007047006A0368DB68184700000A4B10B5F8
:105070000446036003F064FB214603F09CFD04F04A
:1050800023FF04F011FF2046044B40F8043B03F0DB
:105090002DFC204610BD00BFACBF0B0094BF0B0021
:1050A00010B50446FFF7E2FF20462421FEF7F7FF84
:1050B000204610BD1FB5104C1049204604F063FD7A
:1050C00021460F4C684604F04BFD69462046FFF729
:1050D000FDFC684604F0AEFC04F0F6FE094904F05D
:1050E00022FA2046FFF7F2FE0021092004B0BDE8B5
:1050F000104005F05DB800BF88DC032054BF0B00F2
:1051000098DC03205CBF0B0038B5144D14490446ED
:105110002846FFF79BFE42F2107002F06FFE104926
:105120002846FFF793FE42F2107002F067FE0C492A
:105130002846FFF78BFE42F2107002F05FFE04F08B
:10514000C3FE084904F0EFF94EF660206043A0F575
:10515000EA40BDE83840303802F050BE98DC032009
:10516000B1510B0073BF0B000A20FFF7CDBF000049
:1051700010B50D4B0022044618681A6005F09EFD1C
:1051800007A3D3E9002305F013FE06F009F9062171
:1051900000EE100A204604F008FD204610BD00BFB6
:1051A0009A9999999999204058E6032000000000A7
:1051B00030B58DB0324902230022044608A804F01D
:1051C00085FD304908A804F056FD054608A804F0FE
:1051D00031FC45B19FED280B0621204604F0FFFC71
:1051E00020460DB030BD2849684604F06EFC2649C3
:1051F00004A804F06AFC08A82449FFF745FD08A9A3
:1052000004A804F0B8FC08A804F014FC20492148C4
:10521000FFF708F804F058FE049904F084F908A890
:10522000FFF7A6FF08A9684604F0A5FC08A804F04B
:1052300001FC19491748FEF7F5FF04F045FE0099F7
:1052400004F071F904A908A804F08AFC134908A81D
:1052500004F0FCFC694604F0EDFC0146204604F035
:105260007FFC08A804F0E6FB04A804F0E3FB684612
:1052700004F0E0FBB4E700BF000000000000F03FD6
:1052800088DC03202BBC0B0044BE0B0098DC032001
:105290007DBF0B00A8E6032084BF0B009BBE0B0064
:1052A00070B5D0E900531426044606FB0356AE42FF
:1052B00004D0284604F0BEFB1435F8E7206802F05D
:1052C00065FD204670BD8842F8B504460D46164679
:1052D00016D9904215D2A2F11406751AA1F114073D
:1052E0002C44B7421CD02CB13146204604F01EFCA1
:1052F000337C2374304604F09DFB143E143CF0E7ED
:105300000ED0B5420CD02CB12946204604F00EFC3C
:105310002B7C2374284604F08DFB14351434F0E7FD
:10532000F8BD2DE9F0410023C0E9003383604F68E8
:105330009F4204460E4623DD4FF0140808FB07F099
:1053400002F01CFD0546D8B1D4E9001208FB021298
:10535000FFF7B9FF206802F019FD2560A760D6E9C4
:10536000007308FB0378B84508D03946284604F096
:10537000F7FB3B7C2B7414371435F4E773686360D8
:105380002046BDE8F081000070B53B4B3B4A9A6077
:1053900000248EB0C3E90044032002F04BFC2146F8
:1053A000012002F057FCCDE90244049404F08CFD86
:1053B00002A9064605A8324DFFF7B3FF05A908A8C4
:1053C000FFF7AFFF2F4B2B6008A90BA8FFF7A9FF32
:1053D0000BAA1E21281D03F0D1FC0BA8FFF760FFCC
:1053E00008A8FFF75DFF284B2B602E6205A8FFF78A
:1053F00057FF264B2B6004F067FD4FF4165104F065
:105400004FFD03F09DF9294603F08EFB02A8204DC5
:10541000FFF746FF01211F48FEF780FF6423C5F810
:1054200060341D4B6C60C5F83C44C5F86844C5F851
:105430007034C5F87844A5F87C440123174C85F8EE
:1054400074342178BFF35B8F19400BD12046019152
:10545000FEF732FE019928B1114804F0CBF920463D
:10546000FEF72FFE0E4B0F490F48C5F86C340EB0F7
:10547000BDE8704004F029BB4CE603200000FFFFAC
:105480005CE6032094BF0B00D8C00B00ACBF0B0040
:10549000C8E1032098DC032010BF0B0078DC032058
:1054A0007CDC032044BE0B0088DC032030B50025E3
:1054B000C0E9001542819DF810109DF80C2045614F
:1054C00041738273037330BD7FB504464089A37A6C
:1054D0008DF80C30000A8DF80D0020680D46164638
:1054E00040B1637B019303AB0093012300F0E2F82A
:1054F00004B070BD60680028FAD0227A22B903F0A7
:105500007F038DF80C3003E0022A09D0012A0AD06B
:10551000637B0093324603AB294600F0E8F9E7E7E6
:1055200063F07F03EDE703F07F0343F04003E8E718
:10553000F0B40B4602B9027B042A14D800F10F051F
:10554000436184182946844209D0877BDEB227B99B
:105550002E701B0A0135013CF5E7A673F9E72046DA
:10556000F0BCFFF7B1BF0020F0BC704730B50B4670
:105570004189847A85B0054600688DF80C40090A97
:105580008DF80D1040B10021CDE900216A7B03A9FF
:1055900000F0E2F805B030BD68680028FAD0297A3A
:1055A00021B964F07F048DF80C4003E0022909D092
:1055B00001290AD0FF21CDE900216A7B03A900F06F
:1055C000C8F9E7E704F07F04EDE764F03F04EAE799
:1055D00038B500F10F05027B29460446FFF7C6FFE8
:1055E00078B1227B294622440020A2420BD003023C
:1055F000A07B20B9907B1843013A0131F5E7087888
:10560000F9E74FF0FF3038BD10B50160027143710A
:1056100010BD10B504460068FFF7DAFF22790123B8
:1056200093406279013BD040184010BD70B50446EC
:1056300000680E46FFF7CCFF2379617901229A407A
:10564000531E03FA01F520EA05053340206803FAEA
:1056500001F12943027BBDE87040FFF769BF42605A
:105660000022027220220170C260704710B5037AD6
:10567000044653B12178606802F0A8FC606802F02B
:10568000B0FCB0FA80F0400910BD012100F003F831
:105690000028EFD1F8E738B5044640680D4602F01F
:1056A00063FC0120207225B12046BDE83840FFF799
:1056B000DDBF38BD2DE9F843DDE908961F46C36814
:1056C000154632449A420446884602D90020BDE875
:1056D000F8830178406802F079FC7EB9606803685D
:1056E0002A46DB68414698478542EFD160683946D3
:1056F00002F073FCB0FA80F04009E8E7B9F1000F5E
:10570000ECD0606803683246DB68494698478642B9
:10571000DCD1E3E72DE9F0411546C268AA42044610
:105720000E4614D301784068EAB202F03AFC854292
:105730000DD100271FFA87F8454507F1010709D960
:10574000606803685B69984706F80800F2E7002084
:10575000BDE8F0810120FBE773B51D460023CDE9CC
:1057600000339DF81C30069E0446FFF7A3FF40B1AE
:10577000012332462946204602B0BDE87040FFF7BB
:10578000C9BF02B070BD00002DE9F04F04460068AB
:1057900085B00D4640B10023009313460A4604F03D
:1057A000D5F805B0BDE8F08F237BA068484FB7FB64
:1057B000F0F7002B0B780CBF4FF0010B4FF0800B74
:1057C0001BEA030F01EB02030CBF4FF001094FF07E
:1057D0000009FFB20393039BAB42E2D095F800A00F
:1057E0005E464FF0000817B1384602F06BF8637B55
:1057F00013F0FD0F41D194F910305A1C0FD01AEA62
:10580000060114BF012300234B4508D06369606A79
:105810001A6800292CD002431A604FF00109A169CF
:10582000E36A0A6813430B6017B1384602F04AF87E
:1058300094F91130013306D0E3691A68A36A1A4259
:1058400018BF46EA0808A169E36A0A6822EA030366
:105850000B6094F91130013318BF85F80080237B69
:10586000002B32D17600F6B2002EBCD10135B2E762
:1058700022EA00021A608946D1E7A169E36A0A6850
:1058800013430B6017B1384602F01CF894F910303E
:10589000013308D06369616A1A681AEA060F14BFF7
:1058A0000A438A431A60A169E36A0A6822EA030389
:1058B0000B6094F911300133CBD0E3691A68A36A05
:1058C0001A4218BF46EA0808C3E77608CCE700BFCB
:1058D00020A1070007B501228DF807100DF107017F
:1058E000FFF752FF9DF8070003B05DF804FB2DE9B8
:1058F000F041044600680E4617461D4610B1616827
:1059000003F0B0FF94F90E00002180B204F061FCB6
:10591000069B05EB0308454508D13744B7420BD039
:1059200016F8011B2046FFF7D5FFF7E715F8011B16
:105930002046FFF7CFFFEEE794F90E00012180B279
:1059400004F047FC206808B103F072FF0120BDE8B5
:10595000F0812DE9F041044600689DF81C800E4658
:1059600017461D4610B1616803F07CFF94F90E00E4
:10597000002180B204F02DFC3744BE420AD1069BC0
:10598000EE18AE420CD041462046FFF7A3FF05F8C3
:10599000010BF6E716F8011B2046FFF79BFFECE72B
:1059A00094F90E00012180B204F013FC206808B1C4
:1059B00003F03EFF0120BDE8F081402303707047F3
:1059C00013B500230C46022281686846FFF71CFECF
:1059D0002CB901216846FFF729FE02B010BD002155
:1059E000F8E7F0B504468BB01020CDE90221FEF7B0
:1059F00052FB054618B1DDE90221FFF730FE656074
:105A000028460021FFF747FE054630B30127022351
:105A100061682022CDE9007704A8FFF747FD04A8BC
:105A2000FFF7D6FD2378B3EB102F19D11820FEF71E
:105A300032FB064638B100230093616801973B466C
:105A40000622FFF733FD8021A66000223046FFF7D3
:105A50006FFD01212046FFF7B3FF28460BB0F0BDD4
:105A60000025FAE713B505230C4602228168684633
:105A7000FFF7CAFD21466846FFF7D8FD02B010BD0A
:105A800007B50523816802226846FFF7BDFD684619
:105A9000FFF7BFFDC0B203B05DF804FB00B5012302
:105AA0008BB0CDE900330522416804A8FFF7FEFC66
:105AB0000423032204A902A8FFF7A6FD02A8FFF70A
:105AC000A8FDC0B20BB05DF804FB10B501238AB08D
:105AD000CDE900330C460522416804A8FFF7E6FC37
:105AE0000423032204A902A8FFF78EFD214602A881
:105AF000FFF79CFD0AB010BD00B501238BB0CDE9C6
:105B000000330522416804A8FFF7D0FC00230322DC
:105B100004A902A8FFF778FD02A8FFF77AFDC0B23A
:105B20000BB05DF804FB10B501238AB0CDE900335A
:105B30000C460522416804A8FFF7B8FC00230322A5
:105B400004A902A8FFF760FD214602A8FFF76EFD39
:105B50000AB010BD00B54B1E032B89B014D8012329
:105B6000CDE900330F310223CAB2416802A8FFF722
:105B70009DFC02A8FFF72CFD03B200EE103ABAEE2E
:105B8000CE0A09B05DF804FB9FED010AF9E700BFFA
:105B90000000C07F10B54B1E032B10EE104A88B0DA
:105BA00017D80123CDE900330F31CAB2022341686F
:105BB00002A8FFF77BFC204605F0A2F80022064B66
:105BC00005F0F6F805F0A4FB002201B202A8FFF7E9
:105BD000AFFC08B010BD00BF000030402DE9F0431D
:105BE0001E4689B04B1E032B9DF840709DF84480E3
:105BF0009DF8489014461DD80123CDE90033CA1DF5
:105C0000D2B2416802A8FFF751FC2146B9F1000F5A
:105C100001D044F00201B8F1000F01D041F00401BD
:105C20000EB141F008010FB141F01001002202A8AD
:105C3000FFF77EFC09B0BDE8F08303784078303B85
:105C4000DBB20A2B28BF002303EB8303303800EBC1
:105C50004300C0B270470000214BF0B50B443C2418
:105C6000B3FBF4F104FB1133B1FBF4F204FB1211AA
:105C7000017118214371B2FBF1F301FB1322C270D1
:105C800000229BB2027040F26D164FF693640278C8
:105C900012F003050BBF37464FF4B6770121002100
:105CA0009F4205DA611A0B4401329BB20270EEE7A3
:105CB00001220C4E42704178721812F8012C1DB965
:105CC000022904BF0132D2B29A4294B204D81B1BFB
:105CD00001319BB24170EEE701338370F0BD00BF2C
:105CE00080BC92C7BCBF0B0030B50D4685B00446E2
:105CF0000868496801AB03C32889A97A188099709C
:105D00000DF10D00FFF799FF9DF804302070413B25
:105D1000122B16D8DFE803F032151546153015158D
:105D2000150A151539444215151540009DF8053022
:105D3000612B1FD09DF806306E2B0CBF0623072366
:105D4000637002A8FFF779FFA0701068516801AB7B
:105D500003C301A8FFF771FFE0700DF10700FFF723
:105D60006CFF20710DF10A00FFF767FF607120469C
:105D700005B030BD0123E3E70223E1E79DF80630DB
:105D8000722B0CBF04230823DAE79DF80630722B30
:105D90000CBF03230523D3E70923D1E70A23CFE769
:105DA0000B23CDE70C23CBE708B504F059FA02F03A
:105DB000DBF8012008BDFFF7F7BF08B504F050FA83
:105DC000682102F007F904F04BFA036802219B688E
:105DD000984704F045FA02F004F904F041FA012270
:105DE000682102F0F0F804F03BFA03685B69984719
:105DF00000F0E000E03818BF012008BD38B50D46BE
:105E000004F02EFA682102F0E5F804F029FA03689C
:105E100003219B68984704F023FA69790A24B1FBAF
:105E2000F4F303EB430301EB43010368C9B29B683E
:105E3000984704F015FA2979B1FBF4F303EB430317
:105E400001EB43010368C9B29B68984704F008FA64
:105E5000E978B1FBF4F303EB430301EB430103687F
:105E6000C9B29B68984704F0FBF9A978B1FBF4F339
:105E700003EB430301EB43010368C9B29B689847F6
:105E800004F0EEF9036800219B68984704F0E8F9F4
:105E90006978B1FBF4F303EB430301EB43010368BF
:105EA000C9B29B68984704F0DBF929780368B1FB15
:105EB000F4F404EB440401EB44019B68C9B2984735
:105EC00004F0CEF902F08DF804F0CAF9682102F06E
:105ED00081F804F0C5F9036802219B68984704F033
:105EE000BFF9036800219B68984704F0B9F9BDE841
:105EF000384002F076B82DE9F843044604F0B0F9D2
:105F0000682102F067F804F0ABF9036803219B688D
:105F1000984704F0A5F902F064F804F0A1F907220B
:105F2000682102F050F804F09BF903685B69984718
:105F300000F07F09C0F30210A0EB800009EB4000E5
:105F40005FFA80F904F08CF903685B699847C0F345
:105F50000315A5EB850500EB450000F0FF0504F0F7
:105F60007FF903685B699847C0F30316A6EB8606C2
:105F700000EB460000F0FF0604F072F903685B696D
:105F80009847C0F30317A7EB870700EB470000F023
:105F9000FF0704F065F903685B69984704F060F94E
:105FA00003685B699847C0F30318A8EB880800EB07
:105FB000480000F0FF0804F053F903685B69984754
:105FC000C0F30313A3EB830300EB4300207084F8BA
:105FD0000180A770E670257184F805902046BDE821
:105FE000F88338B504460D462422002105F00EFC46
:105FF000A560EB79102B03D0202B06D0002038BDF4
:10600000202301202370A070F9E74023F9E710B5A1
:106010000446243000F0B6FF28B104F50C70BDE84A
:10602000104000F0AFBF10BD8378016943F0040356
:10603000837000F11002806801F05AB82DE9F04138
:10604000017811F02005044603D000263046BDE853
:10605000F0814269174B9A42F7D2FFF7E5FF0646F7
:106060000028F2D02169A06800F0D7FF0746A06899
:1060700005223946243000F0ADFF80460028E4D0E8
:1060800029464FF4007205F0C1FB0125A3681A7977
:10609000AA4209D918684246E91901F00AFB00280A
:1060A000D3D00135EDB2F1E7636903EB42236361BD
:1060B000CCE700BF00FE1F0010B5044680680A460A
:1060C0002430A16900F086FF20B1A38803F00F03FC
:1060D00000EB431010BD03780BB9FFF782BF00201F
:1060E00070472DE9F74F0378044688461546002B84
:1060F0005DD08278D1075AD51A072DD5C369426978
:106100009B1A9D4228BF1D462E464FF0000904F100
:10611000100B002E00F08F8022786369A06897062C
:10612000C3F3080A4FEA53211FD5006A0144A0684F
:10613000BAF1000F42D1B6F5007F3FD3C36A99424E
:106140003CD0B6F5806F52D20068424601F028FA82
:1061500068B34FF4007744E09B06D5D583681A896D
:106160004369C3EB42139BB2CBE790F8059009EA71
:106170000109BAF1000F08D1B9F1000F05D15BB9DF
:1061800051064CBF036A236A23612169A06800F0AD
:1061900044FF09EB0001CAE721695A4600F043FFBA
:1061A000002804DBF1D1237813F0700F43D163781A
:1061B00043F0020363704FF0FF303DE0CAF5007713
:1061C000B7424FF0000200F1240028BF374600F02C
:1061D00001FF0028EBD000EB0A013A46404605F0EB
:1061E000EDFA63693B44B8446361F61B91E722789A
:1061F00092064FEA562A06D40279A2EB0902D2B2DD
:10620000924528BF924699424FEA4A2708D2A06891
:1062100053460068424601F00BFA0028E1D1C6E778
:1062200053448B42F3D92430019100F0ABFE019925
:106230000028ECD1BBE7A81B03B0BDE8F08F73B515
:1062400001220DF10701D0E904560446FFF749FF8A
:1062500001280ABF9DF807004FF0FF30C4E904563B
:1062600002B070BD37B5436913F4F07F0446C3F341
:10627000431500D099B901220DF107012046FFF71F
:1062800030FF40B2012802D0002003B030BD636966
:106290001F33A0686361303000EB4510F5E7203311
:1062A000F7E72DE9F0410278076904460D4662B12F
:1062B0004069884202D019B921616561012006E078
:1062C000160706D5E3698B420BD227610020BDE893
:1062D000F081910605D5A3681B89B5EB431FECD966
:1062E000F3E7D4F808C09CF80660431E06F10901E4
:1062F0006E1ECB40CE40B34200D898B953064CBF77
:10630000DCF82030236A236104F11008002ED4D079
:106310002169A068424600F086FE002806F1FF369B
:10632000F4DCD2E7F61AEFE7F8B50F460446154657
:10633000002124221E4605F069FAB868A060A580F5
:1063400005F00F053B6AE3606A0100EB451595F81F
:106350003B301F0744D403F01703237095F83B101C
:1063600011F0180F04BF43F0080323709DF8183094
:10637000E37006F00303012B2CD0022B28D07BBB4B
:1063800071052DD40123A370A1788B0704D5237840
:10639000DF0625D4DD0723D4B31123F07F0306F0F5
:1063A00008052B430B43A370C36AA3618318B3F89A
:1063B0004420B3F84A1041EA0241720513D559B995
:1063C000A37843F00403A370730410D40120F8BD34
:1063D0000323D8E70223D6E700F0C5FE0028EFD15B
:1063E00000202070F3E72162DB6CE361ECE7E169F8
:1063F0002046FFF756FF0028E8D1F1E738B50378CB
:1064000004460BB9012038BD83785A0723D50121F2
:10641000FFF752FE054628B9637843F00103637025
:106420000020F0E70378E52BF6D023781B0744BF64
:10643000E369C361236A4383638C8382094B1B68CE
:106440002BB100F11601183098472B8B6B82A37883
:1064500023F00403A370A068FFF7D9FD0028DBD068
:10646000D0E700BF80E6032010B50446FFF7C6FF63
:106470000023237010BDF0B593B01F46002309938D
:106480000378019206460C4613B1002013B0F0BD0C
:106490000029FAD00B7813F0700FF6D013782F2B59
:1064A00012D1019A13782F2B02D101320192F8E711
:1064B000A1681BB93046FFF70EFEE7E709A8FFF712
:1064C00090FD0028E1D009AC019801AA03A900F0D1
:1064D000FBF90028D9D0019B1B789BB1002303AAAC
:1064E0002146304600F084FB0028CED035460FCD43
:1064F00009AC0FC40FCD0FC42B6823603046FFF7E3
:10650000B3FFE0E73B4603AA2146304600F070FBAC
:10651000BCE700B58BB000230A4601930146012376
:1065200001A8FFF7A8FF10B101A800F0ABFA0BB06B
:106530005DF804FBF0B5044689B00E4611B90020A1
:1065400009B0F0BD0B7813F0700FF8D040F60223BD
:1065500000F04EFB0028F2D001271025A77025700F
:106560002046FFF76BFD0028E9D023692362002154
:106570002046FFF796FE2046FFF740FF0028DED0BA
:1065800039462046FFF798FD0028D8D06A46C572E4
:10659000034600F1200C154618685968174603C7D2
:1065A000083363453A46F7D14FF02033216AA0689B
:1065B000CDF80130CDF80530ADF8093000F02DFDF3
:1065C0000146A0680122243000F004FD03460028A3
:1065D000B5D02E228DF80020AC4607460DF1200ED6
:1065E000624603CA724538607960944607F108072D
:1065F000F6D12E228DF80120326AADF81A20110C46
:10660000ADF814102A46203308AE154603CDB54226
:10661000186059602A4603F10803F6D1A068FFF715
:10662000F6FC8DE7F0B593B01F460023099303787D
:10663000019206460C4613B1002013B0F0BD0029AC
:10664000FAD00B7813F0700FF6D013782F2B0DD1F2
:10665000019A13782F2B02D101320192F8E7A16839
:1066600009A8FFF7BEFC0028E6D009AC019801AAF2
:1066700003A900F029F90028DED0019B1B78E3B1C3
:10668000002303AA2146304600F0B2FA58B135463D
:106690000FCD09AC0FC40FCD0FC42B68236030465B
:1066A000FFF7E2FEE1E7002FC6D003AA21463046FD
:1066B000FFF740FF0028EAD1BEE703AA2146304693
:1066C000FFF738FFB9E700002DE9F0470378894666
:1066D0001907044617465BD583789A0758D51B07D8
:1066E00051D46369DB43BB4252D3B84604F1100A6C
:1066F0006669B8F1000F00F09180A0684379C6F395
:10670000080513EA56260ED16DB92169002946D035
:10671000524600F088FC00283ADB04D12046FFF7FF
:1067200083FC002834D02169A06800F076FC311881
:10673000A06815B9B8F5007F3FD2C5F5007646458B
:1067400028BF4646002D36D16269E3699A4234BFBC
:1067500001220522243000F03DFCC8B12844324615
:106760004946354405F02AF8B5F5007F04D1A06804
:10677000243000F007FC58B1636933446361B144CD
:10678000A8EB0608B4E7C169FFF78BFD0028A8D184
:10679000637843F0010363704FF0FF3050E0236AE9
:1067A0003BB92046FFF740FC0028F1D02369236263
:1067B000B9E72361B7E70122CCE7B8F5806FC26A79
:1067C0001BD390F804C0ACEB0606F3B24FEA582E88
:1067D000734528BF734691424FEA432607D31A44B4
:1067E0008A4282BF4FF0FF3280F82450C262A5680F
:1067F0004A46286800F0D3FFBDE7914202BF4FF040
:10680000FF3380F82450C362A3684A46186800F03A
:1068100050FF0028BCD04FF40076ADE7E269A378C2
:10682000B24204D2E66143F00403A37003E0084AD5
:106830001268002AF7D194F90230002B02DB3846A7
:10684000BDE8F0872046FFF7D9FD0028F7D19FE784
:1068500080E60320042904D800EB4100B0F80100D1
:1068600070470A299BBF01F1FF3100EB4100013164
:10687000C08884BF00EB410080887047411E00F152
:106880000A030020420842EAC01011F8012F52FA10
:1068900080F08B42C0B2F5D1704738B5CB68044662
:1068A0000D4623B9BDE838408968FFF714BC24229F
:1068B000002104F0ABFF102301202370A070AB680F
:1068C000A360EB68236238BD2DE9F047064610F857
:1068D000013B202BFAD06A4D8E600024335DC3B19A
:1068E0002F2B16D05C2B02D10020BDE8F087A3F13E
:1068F0002200C0B21D2803D825FA00F0C007F3D447
:1069000003F0BF003C28EFD0203B5E2BECD80134D5
:10691000E4E733191846074610F8015B202DFAD03A
:106920002F2DF8D017604CB113F8012D2E2A01D06D
:10693000202A01D1013CF6E7FF2CD5DC4FF02033B3
:10694000C1F811304C60C1F80D304B614FF00008B8
:1069500016F808302E2B01D0202B02D108F10108A7
:10696000F6E7B8FA88F04009651E6B1C02D0735D2B
:106970002E2B14D14FF0000907274A46CA464FF084
:10698000080EA04568DA16F80830202B03D02E2B0D
:1069900007D1A84512D0002008F10108F1E7013D18
:1069A000E3E7222B08D07C2B06D0A3F12A0CBCF104
:1069B000050F0AD82D2B12D0A8455BD10A2F4AD03B
:1069C0000A2708224FF0100EE6E7A3F13A0CBCF1BB
:1069D000050FF1D9A3F15B0CBCF1020FECD9A3F1C7
:1069E000210CBCF15D0FE7D8A845E7D0BA4230D8FA
:1069F000A3F1610CBCF1190F1AD8203B4EEA09092A
:106A0000DBB25FFA89F902F1010C5FFA8CFC0A44EF
:106A1000BCF1060F537301D881F80CC06246BBE786
:106A2000A84518DCA8460A2708224FF0100EB2E746
:106A3000A3F1410CBCF1190F98BF4EEA0A0AE2E734
:106A40000B7B0120087019447E234B7331238B7319
:106A50004BE70A2FE4D100204B7B202B3FF444AFBF
:106A60000028EDD01AEA090F18BF4FF0020981F88B
:106A700000903AE7BA42ECD800205F23C3E700BF9A
:106A8000010100312DE9F0418AB000230193037820
:106A9000190704460AD583789A0707D5016A39B9D8
:106AA00001212046FFF708FB054638B9002048E0E1
:106AB000806800F058FB0028F2D1F7E7FFF7DEFE10
:106AC000E5272F70002306462370A068FFF79FFA82
:106AD0000028EBD0E378002B33D0214601A8FFF744
:106AE000DCFE0028E2D00125E3785FFA85F8434513
:106AF000DCD3A188491B490101A8FFF7D2FB00287C
:106B0000D4D0002101A8FFF7ADFB0028CED0C37A76
:106B10000F2BCBD1027802F01F034345C6D1437B34
:106B2000B342C3D10770A16891F8243043F0010348
:106B300081F82430530605F10105D5D5A068FFF78B
:106B400066FA0AB0BDE8F0812DE9F84391F80C909F
:106B500006460C4602257E2701F10D086168A268F1
:106B60006B189BB21144914206D012F8010B03EB53
:106B7000431343409BB2F6E7B9F1030F28BF4FF030
:106B8000030909F10402D2B203F00F01A018013A7F
:106B90000929D2B294BF30313731914541734FEA60
:106BA0001313F1D104EB090300215F733046FFF7A3
:106BB00078FB01213046FFF755FB014628B9707874
:106BC000B0FA80F04009BDE8F88303786BB1C37A6E
:106BD0001B07EED40B22404604F0E0FD0028E8D16C
:106BE0000135ADB2642DB9D1EDE70120EBE700002E
:106BF0002DE9F04F2DED028B8BB0174607900693D1
:106C00000C4629B900200BB0BDEC028BBDE8F08F1B
:106C10000B7813F0700FF5D0079B1B78002BF1D188
:106C20005368059313789D071FBF059B0C330D22F6
:106C3000B3FBF2F31ABF0133DBB20123002120467C
:106C40000393FFF72EFB07F10D034FF0000B08EE47
:106C5000103ADA465D465E46CDF810B0D946636913
:106C600001212046C3F34F18FFF7FCFA0346002822
:106C700071D16378002BC5D1069B9A05C2D503F06C
:106C80000303013B012BBDD8049B002D08BF4346E5
:106C90000493039B9D42C0F0F180B9F1000F40F0D6
:106CA0000A81049B20465901FFF7FBFA0028A9D06E
:106CB000039B03F1FF395FFA89F94E464FF0000A52
:106CC0004FF00F08002E00F00D8100212046FFF745
:106CD000C9FA0546002895D0A26892F824304E459E
:106CE00043F001030CBF46F0400BB34682F824305A
:106CF00080F800B080F80B8080F80CA007F10D0040
:106D0000FFF7BCFD85F81AA0687385F81BA00BF08F
:106D10001F030D22013BD7F808C0534300220599F9
:106D2000994240F2D0801CF80310042A5FFA82FED8
:106D300002F1010000F2CD8005EB4202A2F8011041
:106D40000D2803F101030246E9D1013EF6B2B9E78D
:106D50004FF0010983E70278E52A00D07AB9049957
:106D6000002D08BF4146049103998D423CBF013577
:106D7000EDB2002A80D0E52A05D100266FE70399FD
:106D80008D4238BF00252E2AF7D0D97A0F294AD153
:106D900016BB12F040063FF462AF02F01F0693F8F4
:106DA0000DB0B2460D220AF1FF3802FB08F8059A31
:106DB0004245E2D9A2EB08020892002202EB080148
:106DC00009911846D1B2FFF745FD08998A420DD1C5
:106DD000002818BF002642E70AF1FF3A5FFA8AFA54
:106DE0005245CAD15A7B5A45DCD0C6E7FF28C4D8E1
:106DF0005FFA80FEAEF141011929B9689CBF0EF11E
:106E000020005FFA80FE08460999415CA1F1410C1F
:106E1000BCF1190F9CBF2031C9B27145ADD101320F
:106E20000D2ACBD11BE70807A7D45EB1BAF1010F39
:106E30007FF4E8AE1846FFF721FD58457FF4E2AE37
:106E4000B1460EE018EE101A0B22184604F0A6FC0C
:106E500000287FF404AF97F8009019F001097FF43F
:106E600077AF069B19053FF5CDAE069B0798CDF889
:106E7000009042462146FFF757FAC4E6002120461B
:106E8000FFF7F0F9A0B96378002B7FF4BBAE204682
:106E9000FFF7D4F800283FF4B5AEA3681B79012BA7
:106EA0003FF6FBAE039B1035EDB2AB42EFD8F4E6F4
:106EB0000135EDB2EDE639462046FFF745FE0028E4
:106EC0007FF4EFAE9EE614BF4FF0FF31002189B290
:106ED0002BE7BEF10A0F94BF05EB420205EB40021F
:106EE00091802DE731462046D4F81480FFF7BAF997
:106EF000054600283FF486AE2022314604F086FC89
:106F0000D7F80D302B60D7F811306B60B7F815301B
:106F10002B81FB7DAB723B7803F018032B730F4B77
:106F20001B689BB105F10E0105F1100098472B8AF3
:106F30006B822B83EB89EB82A26892F8243043F0BA
:106F40000103C8F34F1882F824308EE721232B74F5
:106F500028236B740823AE73EB73E8E780E6032005
:106F600013B50446084659B1019104F0ECFC2368BE
:106F70000199DB680246204602B0BDE81040184780
:106F800002B010BD37B50378DA07044620D5436850
:106F9000816800F10C021868019200F08AFB019AE6
:106FA000054618B90025284603B030BD23789B0755
:106FB00004D4237823F001032370F4E7D4E90130EB
:106FC00019690144186800F074FB0028F1D1E9E761
:106FD0000125E8E770B583688B4204460E461546E6
:106FE00009D0FFF7CFFF08B9002070BD6B070AD5A5
:106FF00000232370A660227805F003052046154380
:1070000000F80C5BF1E7636804F10C021868314684
:1070100000F0C6FA0028EBD1E6E78379406902392F
:10702000994008447047012970B505460C4616463C
:1070300002D84FF0FF3070BDC3698B42F9D3C379DA
:10704000202B16D18169022201EBD41100F50C70BE
:10705000FFF7C0FF0028ECD004F07F0450F8243084
:1070600023F07043EA699A4226BF33600120002072
:10707000E1E7102BDDD1C1F3072381690222194416
:1070800000F50C70FFF7A6FF0028D2D0E4B230F86C
:107090001430E7E7012938B50C46154601D8002021
:1070A00038BDC3698B42FAD3C379202B0FD18169D4
:1070B000032201EBD41100F50C70FFF78BFF0028C1
:1070C000EDD004F07F0440F824500120E8E7102BB5
:1070D000E5D1C1F3072381690322194400F50C703F
:1070E000FFF778FF0028DAD0E4B220F81450ECE77C
:1070F0002DE9F341C4688C4205460E46904601D303
:10710000012701E00C460027EB690134A34202D2BB
:10711000C7B9EC68F4E7A64214D001AA2146284674
:10712000FFF781FF00280DDBEED0019B002BEBD198
:1071300007B1EC606FF0704221462846FFF7AAFFC6
:10714000074620B90027384602B0BDE8F08116B9DD
:10715000C8F80040F7E7224631462846FFF79AFF75
:107160000028F5D1EEE773B5002305460C460193E0
:1071700001AA21462846FFF756FF061E10DB002213
:1071800021462846FFF786FF50B1EB68A34224BF93
:1071900004F1FF34EC60019C002EE9D102B070BD17
:1071A0000020FBE7012370B50022C3604FF0FF33DE
:1071B0000446C27100F12406806280F82420C36274
:1071C000C0F8340280F83022C0F838320D46B9B128
:1071D000042901D9002070BD11463046FFF7FAFEA0
:1071E0000028F7D000EB051393F8AE315B06F1D120
:1071F00005F11B0100EB0110D0F80650002DE9D07D
:10720000002229463046FFF7E5FE0028E2D0B0F81C
:107210000B30B3F5007FDDD1037C022BDAD1C389BB
:10722000002BD7D0417B21714B1E63710023A371CA
:1072300009260123994207D0013ECBD0A2795B00F9
:107240000132DBB2A271F5E7C18A01B9416A21615D
:10725000C3892B44A361B0F81120228103EB4103C1
:107260002362B0F81110490101F2FF1103EB512321
:107270006361B0F8132002B9026AE91AA3791144D4
:10728000D9404B1CE36140F6F473994202D80C23B9
:10729000E3719FE74FF6F473994285BFC36A236297
:1072A00010232023E371012095E700F0CBBA00F012
:1072B000AEBA000070B50E4E0D46144600F00AFB43
:1072C0003368C01A0B4B984208D900F00BFB0A4BED
:1072D000186000F0DBFC00F0FDFA306000F002FB0B
:1072E00080B2401BA042D4BF0020012070BD00BF6F
:1072F00088E60320A086010028E7032038B5057A38
:1073000004464DB9406800F06BFA63682946187D61
:1073100002F05FFF0123237238BD10B5037A0446E3
:107320006BB143680121187D02F053FF6068FF21B3
:10733000FFF7BBFF606800F067FA0023237210BDFF
:10734000F8B504460D46164600F0CCFA87B26068E0
:10735000FFF7ADFFFF2860720ED14FF47A72394605
:107360002046FFF7A7FF0028F1D0552320462370C1
:10737000FFF7D3FF0020F8BDFE2801D05023F5E72A
:1073800060683246294600F047FA607208B160230F
:10739000ECE76068FFF78BFF6068FFF788FF01206C
:1073A000E9E770B504460E4600F09CFA85B2324615
:1073B00029462046FFF77EFF30B96068FFF777FF68
:1073C000FF28F4D1012070BD0020FCE7F7B5037A57
:1073D000019204460D460BB9FFF790FF25B14FF41B
:1073E00096712046FFF7DDFF606845F04001FFF72A
:1073F0005CFF032601AFB95D6068FFF756FF013EF1
:10740000F9D2002D60680CBF95218721FFF74DFF51
:107410006068FFF74CFF0B256068FFF748FF030625
:10742000607203D5013D15F0FF05F5D103B0F0BD45
:1074300070B504460D46164637210022FFF7C6FFF9
:10744000324629462046BDE87040FFF7BFBF000026
:107450002DE9F041002505720570857241600446F2
:1074600090461E4600F03EFA41460746606800F02E
:10747000BBF96368494A1D720125DA601D82204606
:10748000FFF73CFF63682946187D02F0A2FE0A253B
:107490006068FF21013DFFF708FF15F0FF05F7D1F8
:1074A00063682946187D02F094FE0A2500221146E1
:1074B0002046FFF78BFF0128804618D0013D15F0CC
:1074C000FF0507D1202320462370FFF726FF002069
:1074D000BDE8F0816068FD21FFF7E7FE4FF4027818
:1074E0006068FFF7E4FEB8F10108F9D1DEE74FF478
:1074F000D57208212046FFF769FF052814D184F8CA
:107500000A800025BFB22A4629212046FFF790FFB6
:107510000246D8B14FF4FA6239462046FFF7CAFE58
:107520000028F0D04323CEE704256068FFF7BFFEB4
:10753000013D15F0FF056072F7D1AA2804D102239E
:10754000A3724FF08045DDE72523BCE7A37A022B29
:1075500018D13A212046FFF739FF08B13723B2E7A7
:107560006068FFF7A4FE00F0C000C02804BF03233A
:10757000A3726068FFF79BFE6068FFF798FE606883
:10758000FFF795FE2046FFF7C8FE63683079B168C3
:10759000B2891A821872D960012099E790D003004D
:1075A00038B5837A032B18BF490215460A461121C4
:1075B0000446FFF70BFF30B1302323702046FFF75E
:1075C000ACFE00250BE029464FF400722046FFF781
:1075D000B7FE05460028F1D02046FFF79EFE28465C
:1075E00038BD10B5837A032B0A4618BF4A02122110
:1075F0000446FFF7EBFE30B1312320462370FFF73E
:107600008CFE002010BD0120FCE710B500220C21EB
:107610000446FFF7DBFE30B1282320462370FFF736
:107620007CFE002010BD2046FFF777FE0120F9E721
:10763000F8B5044616461F46FFF7D3FF68B100258C
:10764000ABB29F4206EB452109D94FF400722046A8
:10765000FFF776FE01350028F2D10020F8BD204664
:10766000BDE8F840FFF7D1BF38B50446154640687D
:10767000FFF71BFE4FF400726068294600F0E6F841
:107680006068FF21FFF711FE6068FF21FFF70DFE24
:107690006068FFF70CFE607200F01F00052806D03E
:1076A000572320462370FFF738FE002038BD012005
:1076B000FCE770B5837A032B18BF490215460A46CA
:1076C00018210446FFF782FE064630B132232370AC
:1076D0002046FFF722FE00251FE02A46FE21204615
:1076E000FFF7C2FF0028F3D04FF4FA612046FFF7FE
:1076F00058FE054608B95A23E9E732460D212046CF
:10770000FFF764FE08B12923E1E76068FFF7CFFDCA
:107710000028F8D12046FFF700FE284670BD13B5BB
:1077200001914FF4FA610446FFF73BFE019A30B92C
:107730005B2323702046FFF7F0FD002005E0FC21CD
:107740002046FFF791FF0028F4D002B010BD10B51D
:10775000837A032B0A4618BF4A0219210446FFF711
:1077600035FE30B1332320462370FFF7D6FD0020CD
:1077700010BD0120FCE738B54FF4FA610446FFF76D
:1077800010FE054630B9562323702046FFF7C5FD8D
:10779000284638BD6068FD21FFF787FDF5E7F8B59D
:1077A000044616461F46FFF7D2FF70B10025BD42C2
:1077B00006EB4521204604D0FFF7B1FF28B1013583
:1077C000F5E7BDE8F840FFF7D6BF2046FFF7A5FD77
:1077D0000020F8BD014B01221A7070478CE603208F
:1077E000011D006802F03EB810B50446017500683E
:1077F00002F00AF8207D012102F0DAFC207D01214F
:10780000BDE8104002F0E5BC006802F011B8006865
:10781000FF2102F095B8000037B51346074A0092E1
:107820000025074C006825700A46294602F08EF8AC
:107830002378002BFCD0002003B030BDD5770B009F
:107840008CE60320006802F07BB8000037B51346D1
:10785000064A00920025064C006825702A4602F070
:1078600075F82378002BFCD003B030BDD5770B0022
:107870008CE6032008B5024B1B685B6C019308BDC6
:107880004802030008B5024B1B689B6C019308BDBE
:107890004802030008B5024B1B68DB6C019308BD6E
:1078A0004802030008B5024B1B685B6D019308BDDD
:1078B0004802030008B5024B1B685B68019308BDD2
:1078C0001802030008B5024B1B68DB68019308BD72
:1078D0001802030008B5024B1B681B69019308BD21
:1078E0001802030008B5024B1B685B69019308BDD1
:1078F0001802030008B5024B1B685B68019308BDC2
:107900002C02030008B5024B1B689B68019308BD5D
:107910002C02030008B5024B1B68DB68019308BD0D
:107920002C02030008B5024B1B681B69019308BDBC
:107930002C02030008B5024B1B681B6B019308BDAA
:107940002C02030008B5024B1B68DB68019308BDDD
:107950002802030008B5024B1B689B69019308BD10
:107960002802030008B5024B1B68DB69019308BDC0
:107970002802030008B5024B1B681B6A019308BD6F
:107980002802030008B5024B1B685B6A019308BD1F
:107990002802030008B5024B1B689B6A019308BDCF
:1079A0002802030008B5024B1B68DB6A019308BD7F
:1079B0002802030008B5024B1B681B6B019308BD2E
:1079C0002802030008B5024B1B685B6B019308BDDE
:1079D0002802030008B5024B1B681B6C019308BD0D
:1079E0002802030008B5024B1B681B6D019308BDFC
:1079F0002802030008B5024B1B685B69019308BDB0
:107A00006402030008B5024B1B689B68019308BD24
:107A10006802030008B5024B1B68DB68019308BDD0
:107A20006802030008B5024B1B681B68019308BD80
:107A30003002030008B5024B1B685B69019308BD67
:107A40003002030008B5024B1B68DB69019308BDD7
:107A50003002030008B5024B1B681B6A019308BD86
:107A60003002030008B5024B1B685B6A019308BD36
:107A70003002030008B5024B1B689B6A019308BDE6
:107A80003002030008B5024B1B689B6B019308BDD5
:107A90003002030008B5024B1B68DB6B019308BD85
:107AA0003002030008B5024B1B681B6C019308BD34
:107AB0003002030008B5024B1B685B6C019308BDE4
:107AC0003002030008B5024B1B689B68019308BD98
:107AD0003C02030008B5024B1B68DB68019308BD3C
:107AE0003C02030008B5024B1B681B69019308BDEB
:107AF0003C02030008B5024B1B685B69019308BD9B
:107B00003C02030008B5024B1B689B69019308BD4A
:107B10003C02030008B5024B1B68DB69019308BDFA
:107B20003C02030008B5024B1B681B6A019308BDA9
:107B30003C02030008B5024B1B689B6A019308BD19
:107B40003C02030008B5024B1B68DB6A019308BDC9
:107B50003C02030008B5024B1B681B6C019308BD77
:107B60003C02030008B5024B1B681B68019308BD6B
:107B70004C02030008B5024B1B685B68019308BD0B
:107B80004C02030008B5024B1B689B68019308BDBB
:107B90004C02030008B5024B1B681B69019308BD2A
:107BA0004C02030008B5024B1B685B69019308BDDA
:107BB0004C02030008B5024B1B689B69019308BD8A
:107BC0004C02030008B5024B1B68DB69019308BD3A
:107BD0004C02030008B5024B1B681B6A019308BDE9
:107BE0004C02030008B5024B1B685B6A019308BD99
:107BF0004C02030008B5024B1B685B6B019308BD88
:107C00006002030008B5024B1B685B6D019308BD61
:107C10006002030008B5024B1B68DB6E019308BDD0
:107C20006002030008B5024B1B681B6F019308BD7F
:107C30006002030008B5024B1B685B68019308BD36
:107C40002002030008B5024B1B685B69019308BD65
:107C50002002030008B5024B1B68DB6A019308BDD4
:107C60002002030008B5034B1B68D3F8883001934A
:107C700008BD00002002030008B5034B1B68D3F8C1
:107C80009430019308BD00002002030008B5024BA8
:107C90001B689B68019308BD4402030008B5024BB2
:107CA0001B68DB69019308BD4402030008B5024B61
:107CB0001B68DB6B019308BD4402030008B5024B4F
:107CC0001B685B68019308BD4002030008B5024BC6
:107CD0001B689B68019308BD4002030008B5024B76
:107CE0001B68DB68019308BD4002030008B5024B26
:107CF0001B681B69019308BD4002030008B5024BD5
:107D00001B685B69019308BD4002030008B5024B84
:107D10001B689B69019308BD4002030008B5024B34
:107D20001B68DB69019308BD4002030008B5024BE4
:107D30001B681B6A019308BD4002030008B5024B93
:107D40001B681B6B019308BD4002030008B5024B82
:107D50001B685B6B019308BD4002030008B5024B32
:107D60001B681B6C019308BD4002030008B5024B61
:107D70001B685B6C019308BD4002030008B5024B11
:107D80001B681B68019308BD1C02030008B5024B69
:107D90001B685B68019308BD1C02030008B5024B19
:107DA0001B689B68019308BD1C02030008B5024BC9
:107DB0001B68DB68019308BD1C02030008B5024B79
:107DC0001B685B6A019308BD1C02030008B5024BE7
:107DD0001B68DB6B019308BD1C02030008B5024B56
:107DE0001B681B6C019308BD1C02030008B5024B05
:107DF0001B685B6C019308BD1C0203000021FFF7A8
:107E000021BF10B54368013B0446436063B9036872
:107E10009B689847A368013BA3602BB92368204661
:107E2000DB68BDE81040184710BD70B5D0E90053BD
:107E3000044605EB0316AE4204D0284601F0FAFDD5
:107E40001035F8E72068FFF7A1FF204670BD10B598
:107E50000446006808B1FFF7D4FF204610BD0000BB
:107E6000024800230360FFF705BD00BF90E6032032
:107E7000002240681146FFF759BF002240681146B2
:107E8000FFF764BF40680022FFF758BF4068002238
:107E900081F00101FFF742BF002340681A461946EE
:107EA000FFF734BF002340681A461946FFF726BF84
:107EB000002240681146FFF719BF002240681146B2
:107EC000FFF704BF406800220221FFF707BF00232D
:107ED00040681A46FFF7F2BE024B03225A60024A7C
:107EE0001A60704794E60320D0BF0B007047F8B5C6
:107EF000064615460C468F18BC4206D0336814F867
:107F0000011B9B6830469847F6E72846F8BD007C81
:107F10000022FFF72FBD007C0021FFF733BD007C5E
:107F20000021FFF737BD007C0021FFF73BBD007C3F
:107F30000021FFF73FBD10B514210446FCF7AFF850
:107F4000204610BD10B54FF47A7304460846002150
:107F5000C4E90113034B236020741146FFF73AFD77
:107F6000204610BD0CC00B000023007C1A461946A9
:107F7000FFF7E8BC7FB500221423CDE90122ADF85C
:107F800004300B788DF808304B680393CB6804936A
:107F9000007C0B7A059301A9FFF724FD07B05DF87B
:107FA00004FB1FB5003B8DF800104FF064010391F6
:107FB00018BF0123694601928DF80830FFF7DAFFF8
:107FC00005B05DF804FB0123FFF7EBBF007C002246
:107FD000FFF7C0BCC9B2FFF7F9BF007C0022FFF772
:107FE000C1BC0121FFF7F9BF704710B51821044645
:107FF000FCF755F8204610BDF0B5037D062B8DB07B
:108000000E4600F104074FF0000412D000F10805FD
:1080100015F8011D0A22304601F091FAAF420444DE
:1080200019D0002CF4D02E21304601F06DFA044412
:10803000EEE72F236A4639460A208DF80040FFF705
:10804000D9FC684603F07FFC33680246DB6869466A
:1080500030469847044620460DB0F0BD10B5054B9C
:108060000446112240F8043B002103F0CFFB2046D8
:1080700010BD00BF34C00B000346074A10B543F8DB
:10808000042B01F1100251F8044B43F8044B9142C8
:10809000F9D10A781A7010BD34C00B0010B59DF8E4
:1080A000084044EA032343EA024242EA016104230E
:1080B0004160037510BD000007B5064B0360CB7827
:1080C00000938B784A780978FFF7E8FF03B05DF8F2
:1080D00004FB00BF34C00B0000F11003012213F8B1
:1080E000101C0129184608D153F8041C02EB410268
:1080F000013A03F11003F2D17047022904BF53F88B
:10810000041C5218F4E70EB4F0B588B000AF07F1C4
:108110003405102155F8042B7A6004462B46781854
:10812000FD60FFF74BFE0F287A681AD900F10803AB
:1081300023F007036E46ADEB030D411C2B4668464A
:10814000FD60FFF73BFE021E04DD236869469B6865
:1081500020469847B5462037BD46BDE8F04003B0FD
:1081600070470028F7D0236802469B6807F110018A
:1081700020469847EFE738B50B6803604D684368C1
:108180009D42044608D015B16B6801336B6060688E
:1081900008B1FFF736FE656038BD07B503688DF896
:1081A00007109B6801220DF10701984703B05DF8A5
:1081B00004FB0B461146002210B5C0E9002204461C
:1081C00083600BB9204610BDFFF7D5FFFAE783683F
:1081D000EBB11A78032A1AD8DFE802F00417021B61
:1081E0000520704702685B685268D05C2D2812D069
:1081F000A0F13003092B0ED974280ED066280CD0BC
:10820000A0F16E0358425841704706207047002085
:10821000704704207047032070470220704710B554
:108220000446FFF7D4FF02280ED0C31EDBB2012B99
:1082300014D82268A36850685B68BDE810400A2221
:108240000021184403F044BC2268A36852685B68AC
:10825000D05CA0F174035842584110BD0020FCE7E7
:1082600038B50023C0E9003304460E48C4E90203D0
:10827000A9B10B78032B06D08BB9136858684B68EB
:10828000C35C6E2B07D013684D6858688B68284410
:108290005B1BA060E36011462046FFF76CFF2046A1
:1082A00038BD00BF44BE0B0038B500250B46C0E901
:1082B0000055C0E90255C0E90455044611464BB1CA
:1082C0001A78012A06D103F11002DB68826043614B
:1082D000FFF751FF204638BD10B54369044663B12E
:1082E0008068E060013B1030A0602061636113B1E1
:1082F000FFF7F2FEA060012000E0184610BD10B5A7
:108300007D210446FFF749FF01232371204610BD5C
:1083100008B50379012B02D0022B04D008BD2C2113
:10832000FFF73BFFFAE73A21FAE710B50446FFF7FB
:10833000EFFF20467B21FFF730FF0023237120460B
:1083400010BD000013B504460191FFF7E1FF23685B
:10835000019ADB6803492046984701232046237190
:1083600002B010BD8CBC0B0013B504460191FFF7A1
:10837000CFFF2368019ADB68034920469847012311
:108380002046237102B010BD40C00B002DE9F0471C
:108390000D46222190460446FFF7FFFEDFF8A49029
:1083A000A8442F464745BA463DD017F8016B222E08
:1083B00006D05C2E04D0304603F0E8F90028F1D155
:1083C0002368AAEB05029B682946204698475C2152
:1083D0002046FFF7E2FE0D2E0AD8072E1CD9A6F183
:1083E0000803052B18D8DFE803F00D0F111713153C
:1083F000222E01D05C2E0FD131462046FFF7CDFE54
:108400003D46CFE76221F8E77421F6E76E21F4E7F5
:108410006621F2E77221F0E723683246DB684946BD
:1084200020469847ECE7BD4205D023687A1B9B683D
:1084300029462046984722212046FFF7AEFEBDE898
:10844000F08700BF43C00B0013B50446CDE90021FF
:10845000FFF75EFF2046DDE90021FFF797FF0223CB
:108460002046237102B010BD13B50446CDE90021AA
:10847000FFF74EFF2046DDE90021FFF787FF0123CC
:108480002046237102B010BD80680368DB6818477E
:108490007047084611B10B685B6818477047704712
:1084A00070477047704738B504460D4600682E2166
:1084B00003F02DFA2368C31A2B6023B1037803B1AC
:1084C000013023682060184638BD10B50C210446E1
:1084D000FBF7E5FD204610BD10B504210446FBF76F
:1084E000DEFD204610BD10B504210446FBF7D7FD84
:1084F000204610BDFFF7CEB908B503F012FAB0FA66
:1085000080F0400908BD704710B50C4601F0DCFC56
:10851000844210D001F0E4FE844205D101F0E0FE77
:10852000BDE8104001F067BC2CB1236820465B68B1
:10853000BDE81040184710BD0B6803604B684360EE
:1085400013B15A6801325A60704713B504460846A1
:10855000019103F0F8F901990246204602B0BDE806
:108560001040FFF781BF13B504460846019103F0A0
:10857000EAF923680199DB680246204602B0BDE8AB
:108580001040184707B503688DF80710DB68012213
:108590000DF10701984703B05DF804FB0EB403B575
:1085A00003AB002153F8042B006A019301F0D7F8C4
:1085B00002B05DF804EB03B070470A6802604A68D5
:1085C00042600022C0E9022210B502618C6884601A
:1085D000CC68C4600C698A60CA6004610A6110BD1D
:1085E0002DE9F74FD0E900844FF0140A00930AFBFD
:1085F00004F4184BA41017465C434546002C21DDBB
:1086000066100AFB06F005EB00093A46B9F804B01B
:10861000285801915F4528BF5A4603F09CF900286D
:1086200001994FF001030BD15F4503D1009A1370FC
:108630003446E3E7FCD9A61B09F11405013EF7E730
:10864000F9DBF5E7A5EB08050248AD10684303B078
:10865000BDE8F08FCDCCCCCC7FB50369057E019110
:1086600003B3F9B1002600F10C04039603A901A895
:10867000FFF719FF0146A8B10DF10B03039A8DF81E
:108680000B602046FFF7ACFF9DF80B3053B1236819
:10869000142404FB0034083434F9023C002BA8BF36
:1086A000DDB2E3E7284604B070BD000010B5094C08
:1086B0002378BFF35B8FDB0709D42046FBF7FCFC74
:1086C00028B12046FBF7FDFC034803F059F80348A6
:1086D00010BD00BFA0E603209F840B0000DC032038
:1086E00010B5094C2378BFF35B8FDB0709D4204614
:1086F000FBF7E2FC28B12046FBF7E3FC034803F05C
:108700003FF8034810BD00BFA4E6032007850B0017
:1087100004DC032038B500250446C0E90055C0E953
:1087200004558560856140F8245FFFF7A3F8FFF7E3
:10873000BDFFE061FFF7D4FF25732062204638BDFE
:1087400010B50A4C2378BFF35B8FDB070CD42046AF
:10875000FBF7B2FC40B10648FFF7DCFF2046FBF711
:10876000B0FC044803F00CF8014810BD9CE603205F
:10877000ACE60320958C0B00024A03490348002312
:10878000FFF750BA798A0B00058A0B0085890B0028
:1087900000231A4619461846FFF744BA37B58D68C4
:1087A00004466846FFF7C8FE6A4629462046FFF79A
:1087B0007BFD01A8FFF74BFB204603B030BD37B56A
:1087C000CD6804466846FFF7B7FE6A46294620464C
:1087D000FFF746FD01A8FFF73AFB204603B030BD86
:1087E00037B50D6904466846FFF7A6FE6A46294676
:1087F0002046FFF7DEFC01A8FFF729FB204603B067
:1088000030BD000070B58AB00D46014604A8FFF7E0
:10881000C5FF144E04A8FFF75FFDE8B104A9684640
:10882000FFF7CDFF02983146FFF766FE044610B110
:108830002C1E18BF012401A8FFF709FB002CE9D06A
:1088400004A96846FFF7CCFF6846FFF7E8FC2860FC
:1088500001A8FFF7FCFADDE705A8FFF7F8FA0AB070
:1088600070BD00BF49C00B0037B50C462046134908
:10887000154603F056F850B901F026FB4FF4165197
:1088800001F00EFB03B0BDE8304001F01DBB0C4908
:10889000204603F046F878B94FF4165301A928464C
:1088A0000193FFF7AFFF01F01BFD019901F0A0FA62
:1088B00001F016FD03B030BD0020FBE74EC00B00F9
:1088C00055C00B0070B5D0E900531426044606FBD2
:1088D0000356AE4205D005F10800FFF7F3FF14354B
:1088E000F7E72068FFF752FA204670BD10B504463E
:1088F0000C30FFF7E7FF2046FFF797FA204610BD40
:1089000010B5044B044640F8043BFFF7EFFF204648
:1089100010BD00BF94BF0B0010B50446FFF7F0FF79
:1089200020462421FBF7BBFB204610BD10B5034BAE
:1089300003600446FFF7E4FF204610BDF0C00B00C3
:1089400010B50446FFF7F2FF20462421FBF7A7FBF2
:10895000204610BD0022C0E9002210B582600C68DC
:1089600004604C6844608C680A604A6084608A6075
:1089700010BD10B5036804461868FEF793FF204643
:1089800010BD00002DE9F04F87B0804603931C4BCB
:108990005B68C3F30803894616466BB9FFF7D0FE40
:1089A000044600F12403406A0593FFF7A3FD237BEF
:1089B0002BB105A8FFF7DDFF07B0BDE8F08F01235D
:1089C0002373D4E900535FFA89F905EB830AAA45BA
:1089D00012D055F8047B3146381DFFF73DFE814526
:1089E000F5D33B68039A0092D3F808B04A46334661
:1089F00041463846D847EAE700232373D9E700BF4A
:108A000000ED00E02DE9F74F9B461A4B5B68C3F37E
:108A100008038046894616466BB9FFF791FE044667
:108A200000F12403406A0193FFF764FD237B2BB11F
:108A300001A8FFF79EFF03B0BDE8F08F0123237369
:108A4000D4E90053F6B205EB830A55450ED055F82C
:108A5000047B5946381DFFF7FFFD8642F5D33B687E
:108A60004A46DB68414638469847EEE700232373C1
:108A7000DEE700BF00ED00E02DE9F341164B5B6837
:108A8000C3F3080305460F461BBBFFF759FE00F171
:108A900024030446406A0193FFF72CFDD4E90063E8
:108AA000462406EB8308B04509D101A8FFF761FF12
:108AB000A542B4BF0020012002B0BDE8F08156F805
:108AC000040B39460430FFF7C7FD8442A8BF0446B3
:108AD000E9E70020F0E700BF00ED00E0F8B5D0E9DD
:108AE00001539D4204460E460DDB6F1C002F0068AB
:108AF00004DDB900FFF752F918B9F8BDFFF746F9E0
:108B000000202060A7602768626807EB850192005B
:108B1000A2EB8502081D02F05FFE47F8256063683E
:108B2000013363600120E8E737B500F12403044610
:108B3000406A01930D46FFF7DDFCD4E9003203EBF8
:108B40008202934219460BD00968A94203F104033B
:108B5000F7D101A8FFF70DFF0025284603B030BD6F
:108B600029462046FFF7BAFF05460028F1D0636882
:108B7000012B01D1FFF700FE01A8FFF7FAFEECE799
:108B800070B50446D0E900020B4600EB8202824237
:108B90000FD001461D6851F8046BAE4207D1521A3E
:108BA00002F01AFE6368013B6360012070BD084655
:108BB000EDE70020FAE71FB500F124030446406A00
:108BC00001910393FFF796FC01A92046FFF7D8FF18
:108BD00018B163680BB9FFF7DBFD03A8FFF7C9FE07
:108BE00004B010BD70B5D0E904561823044603FB49
:108BF0000656AE4215D005F110012046FFF7C0FF22
:108C000063680BB9FFF7C4FDE06929690368DB6895
:108C10009847696919B1206A0368DB689847183575
:108C2000E7E7D4E90453182606FB0356AE4204D006
:108C3000284600F0FFFE1835F8E70023636170BD99
:108C400073B50446FFF7A4FD04F12403606A0193A1
:108C5000FFF750FC2046FFF7C5FF01A8FFF789FE8C
:108C6000606A08B1FEF70EFED4E90453182606FB2D
:108C70000356AE4204D0284600F0DCFE1835F8E773
:108C80002069FFF783F82068FFF780F8204602B0DC
:108C900070BD00000148FFF7D3BF00BFACE6032062
:108CA0008842F8B504460D46164615D9904214D2AE
:108CB000A2F11406751AA1F114072C44B7421AD078
:108CC0001CB131462046FFF778FC06F10800FFF79B
:108CD000F9FD143E143CF1E70DD0B5420BD01CB1A8
:108CE00029462046FFF769FC05F10800FFF7EAFD79
:108CF00014351434F1E7F8BD8842F8B504460D4642
:108D0000164614D9904213D2A2F11006751AA1F199
:108D100010072C44B74218D01CB13146204600F051
:108D200005FF304600F086FE103E103CF2E70CD006
:108D3000B5420AD01CB12946204600F0F7FE28466D
:108D400000F078FE10351034F2E7F8BD70B50E1E55
:108D5000054611DD3001FFF711F8044658B1D5E999
:108D6000001201EB0212FFF7C7FF2868FFF70EF8A9
:108D70002C60AE60012070BD0024F6E72DE9F04FB5
:108D8000904695B000230391D8F804100A93462228
:108D90009942C0E90033C0E90233C0E90433CDE9A8
:108DA00008330446027623DCD8E90057142303FB7A
:108DB0000757AF423BD029460BA800F0B7FE0BA9DE
:108DC0000FA8099E00F0B2FEDDE9091399421BDAF3
:108DD000089B099A03EB061603EB0212314606F1D3
:108DE0001000FFF789FFEEB9099B0133099311E0E9
:108DF00008A8FFF7ABFF0028D6D108A8FFF715F8A1
:108E0000204615B0BDE8F08F013108A8FFF79EFF9E
:108E10000028DDD10FA800F00DFE0BA800F00AFE1F
:108E20001435C6E70FA9304600F080FEDCE70026C7
:108E3000CDE90B660D964FF01409DDE908239E423B
:108E40007CDA3301D35806930BB90136F5E70023DA
:108E5000079309FB06F302930BAD07A906A8FFF7DA
:108E600022FB82460028F0D04FF000038DF8173027
:108E70000146079A0DF117032846FFF7B1FB9DF84D
:108E800017700190002F4AD1BDF81C30ADF840306A
:108E9000CDE911774FF6FF73CDF83CA0ADF8423025
:108EA0001397D5E90132934217DB03F1010ABAF1B6
:108EB000000F30DD09FB0AF0FEF760FF834660B368
:108EC000D5E9001209FB0212FFF7EAFE2868FEF757
:108ED0005DFFC5F800B0C5F808A02B68019A09FB32
:108EE000023A6A68514609FB02320AF11400FFF7A0
:108EF000D7FEBAF1000F03D00FA95046FFF75DFB74
:108F00006B6801336B6011A8FFF7DCFC3FB10BA865
:108F1000FFF7D8FC71E7BB46D8E70127F3E7019BD1
:108F20002D6809FB0355069B1B782BB9D8F8003038
:108F3000029A13441B7CEB8008358EE7216822607F
:108F400062686360A36809920A9A0A93E368A26060
:108F50000B9A0B932369E2600C9A0C93636922616C
:108F60000D9A0D93039B089162612376CFE7000071
:108F7000F0B5044687B00D462646194668461746A2
:108F8000FCF7CFF90B4B46F8043B694603A8FCF706
:108F9000C8F903AA39463046FFF7F0FE03A8FCF7EC
:108FA0007FF96846FCF77CF9034B23602046256275
:108FB00007B0F0BD94BF0B00D8C00B00F0B50F4652
:108FC00085B01D490A9C384616461D4602F0A9FC8C
:108FD000C0B9A4B1294601A8FFF7BCFC1749242059
:108FE00001F0A2F9054630B101AB32462146FFF748
:108FF000BFFF134B2B6001A8FCF752F92C4620460B
:1090000005B0F0BD0F49384602F08BFC90B9002C3A
:10901000F5D0294601A8FFF79DFC0849242001F05E
:1090200083F905460028E6D001AB32462146FFF71A
:109030009FFFE0E70024E2E75DC00B0038C20B00B1
:10904000F0C00B0061C00B00014B024A1A60704770
:10905000A8E6032072C00B002DE9F047089DD0F868
:10906000209004460E461746984600F02DFF814595
:109070004CD02B79190704D56A6954492046FFF76B
:109080008DFAB8F1000F0DD05B212046FFF77AFA78
:1090900041462046FFF767FA23684D49DB68022204
:1090A000204698472B79DA0723D5D5F808802F2159
:1090B000404602F077FC08B100F101084146204625
:1090C000FFF751FA2B799B0708D53A212046FFF785
:1090D00059FAEA683F492046FFF760FA2A7923687F
:1090E00012F0040FDB6814BF3B493C4902222046C2
:1090F00098472B7958071DD529690B461A4613F84E
:10910000010B60B1202808D11946F7E7344800F078
:1091100066F90028ADD0BDE8F0872828EED1236895
:10912000521ADB682046984723682E49DB680422E0
:109130002046984700213846FEF76CFD0146204640
:10914000FFF711FA23682549DB6802222046984779
:109150001EB131462046FFF706FA2B7913F0300F87
:109160002CD023682049DB680222204698472B79BF
:10917000D9060AD523681D49DB680722204698478F
:10918000AA691B492046FFF709FA2B799A0611D5DF
:10919000DB0605D523681049DB6802222046984784
:1091A00023681449DB6820460A229847E96920466B
:1091B000FFF7D9F95D212046FFF7E4F923680E494E
:1091C000DB6820460222BDE8F047184776C00B0056
:1091D0007DC00B008CBC0B0004BF0B0082C00B00D9
:1091E000D4E6032080C00B0085C00B0088C00B00B4
:1091F00090C00B0093C00B009EC00B002DE9F04304
:1092000085B0D0F820900C9C05460F4690461E462F
:1092100000F05AFE814505D1494800F0E0F80028E9
:1092200040F08A802B6A474A01924FF0000901A85A
:1092300003938DF80890FFF778F849464046FEF70B
:10924000E9FC41498046012201A8FFF7FDF84146AB
:10925000FFF77BF93FB13D49012201A8FFF7F4F880
:109260003946FFF772F93EB13949012201A8FFF7EB
:10927000EBF83146FFF769F92379DF070ED5A668C9
:109280002F21304602F08EFB00B1461C31490122ED
:1092900001A8FFF7D9F83146FFF757F923799E0760
:1092A00007D52D49022201A8FFF7CEF8E168FFF7A4
:1092B00049F82379580714D5266933461F4613F811
:1092C000012B2AB1202A01D11E46F7E7282AF5D121
:1092D0002249022201A8FFF7B7F8BA1B3146FFF76F
:1092E000C3F82379190707D51D49012201A8FFF703
:1092F000ABF86169FFF738F82379DA0608D504225C
:1093000018490DEB0200FFF79FF8A169FFF71AF863
:1093100023799B0607D51449062201A8FFF794F884
:10932000E169FFF712F901A8FEF7E9FF286A0F4982
:1093300003680222DB68984705B0BDE8F08300BFF0
:10934000D4E60320C0C00B0053C00B00A1C00B002B
:10935000ABC20B0072C10B00A3C00B00A6C00B0078
:1093600098BC0B00A9C00B00AEC00B009EC00B0048
:10937000002340681A46FEF7A1BC40680022022183
:10938000FEF7ACBC002240681146FEF79FBC0022ED
:1093900040681146FEF7AABC002340681A461946E9
:1093A000FEF7ACBC002340681A461946FEF7AEBC77
:1093B00040680021FEF7D2BC40680021FEF7D6BC11
:1093C0004068002281F00101FEF7A8BC406800223D
:1093D000FEF7B4BC002240681146FEF7B7BC00227D
:1093E00040681146FEF7A2BC2DE9F04395B0144643
:1093F0000D460746FEF732FE00211C220DA8009103
:1094000002F004FA40230C9320466B460CAA00217C
:10941000FEF700FB044600284BD102460121686894
:10942000FEF764FC0221804622466868FEF75EFC77
:10943000009E81462146002E3BD0002939D1736819
:10944000022B03D00A2B11D0F669F4E7B8F1000F14
:10945000FAD0716906A8043107ADFEF72DFE0FCDD5
:109460003C1D0FC42B6823704146EDE7B9F1000F96
:10947000EAD07469102201A802F0C8F906238DF819
:10948000143001AD04F108031834186859682A46ED
:1094900003C20833A3421546F7D101A906A807ADB8
:1094A000FEF7EAFD0FCD3C1D0FC42B682370494623
:1094B000CAE70098FEF7A6FA384615B0BDE8F08373
:1094C000024B034A1A6000225A607047D4E6032018
:1094D00038C10B00F8B506460D468F180024BD4272
:1094E0000CD0336815F8011B9B6830469847031E63
:1094F00001DB1C44F3E7002C08BF1C462046F8BDE6
:1095000008B5FDF72DFD08BD03689B68184738B501
:109510000D210546FFF7F8FF0A2104462846FFF70C
:10952000F3FF204438BD38B50546FDF719FD044664
:109530002846FFF7ECFF204438BDFFF7F4BF30B5F5
:109540008BB00023012A8DF8243098BF0A2209AC81
:109550000D46B1FBF2F101FB125303F0FF03092B9F
:1095600094BF30333733DBB2AA4204F8013DEFD960
:109570002146FDF7F5FC0BB030BD00002DE9F74F9B
:1095800055EC104B06460F4610EE102A10EE100A4E
:109590002B46294601F0A6FE40B153493046FDF75F
:1095A000DFFC8246504603B0BDE8F08F25F000494D
:1095B0004E4B4FF0FF322046494601F093FE48B92A
:1095C0004A4B4FF0FF322046494601F06DFE08B984
:1095D0004749E3E7474B4FF060422046294601F0F8
:1095E00077FE08B14449D9E7444B4FF0604220462A
:1095F000294601F04FFE0028F4D100220023204626
:10960000294601F047FED0B12D213046FFF77CFFFF
:1096100005F1004382461D463949DFF8EC904FF0D2
:10962000000B00204FF000085FFA8BF39F4208D92F
:1096300042464B4601F0E6FC0BF1010BF4E7824693
:10964000EAE722462B4601F0FDF90D46044601F0FB
:1096500087FE804601F032FB02460B462046294633
:1096600001F0EEF90A2204460D4630464146FFF766
:1096700066FF8244002F95D02249DFF88C90304657
:10968000FDF76EFC4FF000088244002F8AD042465E
:109690004B462046294601F08BFB04460D4601F05F
:1096A00037FEB0F1000B1CDA2D213046FFF72CFFFE
:1096B000CBF1000103460A2230460193FFF73FFF3A
:1096C000019B18448244584601F008FB02460B46B1
:1096D0002046294601F0B4F9013F04460D46FFB289
:1096E000D3E759460023E6E76CC10B00FFFFEF7F8D
:1096F00070C10B00FFFFEF4174C10B00FFFFEFC112
:109700000000E03FC9BC0B000000244038B504460F
:1097100010EE100ACDB201F0F3FA41EC100B29461D
:109720002046BDE83840FFF729BF38B5C9B2054625
:10973000FFF724FF04462846FFF7E9FE204438BD22
:1097400038B5044610EE100A0D4601F0D9FA41EC86
:10975000100B29462046BDE83840FFF7E6BF2DE94B
:10976000F04186B000AF05460E46381D1421144660
:109770003B60FEF723FB13280ED8391D2846FDF762
:10978000EFFB04461EB12846FFF7C1FE0444204605
:109790001837BD46BDE8F08100F1080323F0070348
:1097A000E846ADEB030D2246411C3B686846FEF7D8
:1097B00005FB69462846FDF7D3FB0446C546E1E7AD
:1097C00010B5044628B102F057F890FBF4F303FB00
:1097D0001404204610BD02F021B80000014B002205
:1097E0009A607047DCE603200021FEF763B9002190
:1097F000FEF758B910B5044608462170FEF722F965
:1098000000236360204610BD13B504460078FFF7BF
:10981000EEFF58B9207801904FF6FF71FEF702F97C
:10982000019802B0BDE81040FFF7DEBF02B010BDE6
:109830000078FFF7D9BF0000400830B51860002459
:1098400018688842E5B206D90134082C02D04008D5
:109850001860F5E70725024B5B5D137030BD00BF54
:1098600078C10B002DE9F04306468FB000780C4616
:10987000FFF7BDFF00281BDB35781422002109A863
:1098800001F0C4FF0B23002209A92846ADF82430BB
:10989000FEF7E8F89DF82D3013B19DF82C5055B126
:1098A0000027B946B846012523795DB1C3B1002030
:1098B0000FB0BDE8F083DDF830809DF834909DF85E
:1098C0003570F1E7002B35D1A368434508D18DF8F9
:1098D00020908DF82170BDF82020A3899A42E6D00F
:1098E0000023A1688DF80F300A9804AB0DF10F0228
:1098F000FFF7A2FF217985B989B9A36843450ED343
:109900008DF820908DF82170BDF82020A3899A420F
:1099100005D1049B434502D1C9E70029F9D10023B1
:109920000193637B00939DF80F20237B3078FEF733
:10993000B1F8BCE7CDE900552B462A460121F5E7F1
:1099400008B50078FEF776F8C0B208BD30B587B02C
:1099500004460A9D00950078FEF78CF83DB9207802
:1099600002A9FEF78FF89DF81430DB07F7D407B093
:1099700030BD00002DE9F14F57EC106B80460C46CE
:1099800010EE100A00220023394601F083FC28B1B2
:1099900007F100431F462D2304F8013B00234FF03D
:1099A00001090A22D9B2884503D902FB09F901331A
:1099B000F8E7484601F092F932463B4601F0F8F9E3
:1099C00006460F4601F054FD8A4605468B4601F0D7
:1099D000B9F902460B463046394601F031F8144BCE
:1099E000002201F06BFC10B101354AF1000B4A4630
:1099F0002846D317594601F023FD01231546214679
:109A00000A2200F0D6FAB8F1000F0ED0204601F07D
:109A10009AFF2E23211823540A2243460131284657
:109A200001B0BDE8F04F00F0C4BA01B0BDE8F08F5E
:109A30000000E03F10B504460068FEF7A7F9204695
:109A400010BD10B50446006808B1FEF79FF9002369
:109A5000C4E90133236010BD38B504460D460068E3
:109A60000131FEF79BF910B1C4E90005012038BDB2
:109A700010B50368044623B143688B4201D301202B
:109A800010BD2046FFF7E8FF0028F9D0A368002B9F
:109A9000F5D122681370F2E737B50D4611460192F1
:109AA0000446FFF7E5FF019A28B92046FFF7C9FFF2
:109AB000204603B030BDA2602946206801F07EFE3A
:109AC0002268A3680021D154F2E7002313B5C0E94E
:109AD000003304468360037341B10846019101F0ED
