:02000004080AE8
:1000000000000A08D80D0A080000060006000501D5
:080010000402FD0800000000DD
:04001800000C0A08C6
:10001C0009480A4908B5884205D0094A824202D0EB
:10002C00121A00F03DFD0748074A0021121A00F091
:10003C0045FD064808BD00BF00000020440D0A081D
:10004C006C0000206C000020B5050020B5050020D8
:10005C0070B500F0DDFC0025054E064CA41BA40871
:10006C00A54200D170BD56F8043B98470135F7E71F
:10007C00240D0A08400D0A0800F011B808B500F06C
:10008C000FF8BDE8084000F07BBC00F039B90078EF
:10009C00B0FA80F040097047012303707047704735
:1000AC0008B500F079FB4FF4614100F05BFB00F008
:1000BC0073FB044900F045FABDE808404FF47A7030
:1000CC0000F02EB9140C0A0808B5024B1B685B68CB
:1000DC00019308BD9C01060808B5024B1B685B69BF
:1000EC00019308BD9C01060808B5024B1B689B696F
:1000FC00019308BDC401060808B5024B1B685B6A76
:10010C00019308BDC401060808B5024B1B689B6A25
:10011C00019308BDC401060808B5024B1B68DB6AD5
:10012C00019308BDC401060808B5024B1B681B6B84
:10013C00019308BDC401060808B5024B1B685B6B34
:10014C00019308BDC401060808B5024B1B681B6C63
:10015C00019308BDC401060808B5024B1B681B6857
:10016C00019308BDD801060808B5024B1B685B68F3
:10017C00019308BDD801060808B5024B1B681B6922
:10018C00019308BDD801060808B5024B1B685B69D2
:10019C00019308BDD801060808B5024B1B689B6982
:1001AC00019308BDD801060808B5024B1B68DB6932
:1001BC00019308BDD801060808B5024B1B681B6AE1
:1001CC00019308BDD801060808B5024B1B689B6C4F
:1001DC00019308BDC001060808B5024B1B685B689B
:1001EC00019308BDA401060808B5024B1B685B69A6
:1001FC00019308BDA401060808B5034B1B68D3F88E
:10020C009030019308BD0000A401060808B5034B0B
:10021C001B68D3F89C30019308BD0000A4010608AC
:10022C0008B5024B1B68DB6B019308BDCC010608BB
:10023C0008B5024B1B685B68019308BDC801060832
:10024C0008B5024B1B689B68019308BDC8010608E2
:10025C0008B5024B1B68DB68019308BDC801060892
:10026C0008B5024B1B681B69019308BDC801060841
:10027C0008B5024B1B685B69019308BDC8010608F1
:10028C0008B5024B1B689B69019308BDC8010608A1
:10029C0008B5024B1B68DB69019308BDC801060851
:1002AC0008B5024B1B681B6A019308BDC801060800
:1002BC0008B5024B1B681B6B019308BDC8010608EF
:1002CC0008B5024B1B685B6B019308BDC80106089F
:1002DC0008B5024B1B681B6C019308BDC8010608CE
:1002EC0008B5024B1B685B6C019308BDC80106087E
:1002FC0008B5024B1B681B68019308BDA0010608DA
:10030C0008B5024B1B685B68019308BDA001060889
:10031C0008B5024B1B685B6C019308BDA001060875
:10032C000021FFF761BF704710B50446182100F09B
:10033C00AFFB204610BDF8B50E46002400F10807AF
:10034C00051D17F8011D0A22304600F004F9AF42D2
:10035C00044401D12046F8BD002CF2D02E213046A9
:10036C0000F0E0F80444ECE710B50446044B11220D
:10037C00002140F8043B00F0A1FB204610BD00BF5B
:10038C00200C0A080346074A10B543F8042B01F168
:10039C00100251F8044B914243F8044BF9D10A78FE
:1003AC001A7010BD200C0A08024AC0E90021042270
:1003BC0002757047200C0A0810B59DF8084044EAF5
:1003CC000324042344EA024444EA016444600375B0
:1003DC0010BD000037B5044D05609DF81850009510
:1003EC00FFF7EAFF03B030BD200C0A08014B024AAC
:1003FC001A6070476C0000202C0C0A08002340681F
:10040C001A46FFF715BF002202214068FFF720BFF4
:10041C00002240681146FFF713BF002240681146C6
:10042C00FFF71EBF002340681A461946FFF720BF8E
:10043C00002340681A461946FFF722BF0021406886
:10044C00FFF746BF00214068FFF74ABF0022406813
:10045C0081F00101FFF71CBF00224068FFF728BFA5
:10046C00002240681146FFF72BBF0022406811465E
:10047C00FFF716BF70B515468EB0044608A8FFF7F7
:10048C0073FF1122002103A800F018FB0026284658
:10049C0000F040FB0A4B009681B25B68284603AA29
:1004AC00FFF792FE30B131462046FFF77DFF204624
:1004BC000EB070BD204603A9FFF764FFF7E700BF3D
:1004CC00F0040020024B034A1A6000225A60704765
:1004DC0070000020380C0A08F8B506460D460024BA
:1004EC008F18BD420CD0336830469B6815F8011B41
:1004FC009847031E01DB1C44F3E7002C08BF1C4685
:10050C002046F8BD70B505460C46084649B100F0CA
:10051C0001FB2B68024621462846BDE87040DB688B
:10052C00184770BD03689B68184738B50D21054600
:10053C00FFF7F8FF0A2104462846FFF7F3FF204493
:10054C0038BD38B50546FFF7DDFF04462846FFF7F2
:10055C00ECFF204438BD0023012A98BF0A2230B595
:10056C008BB00C468DF8243009A92546B4FBF2F467
:10057C0004FB1253DBB2092B94BF30333733DBB29D
:10058C00AA4201F8013DF0D9FFF7BCFF0BB030BD1A
:10059C000022014B9A607047780000200222002054
:1005AC00044B1A60044B054A1860988098719A6045
:1005BC00FFF712BE94000020880000200000FFFF0F
:1005CC00024B1A68024B1A60704700BF00000020F3
:1005DC0098000020704741747047704708B5007C44
:1005EC00FFF7B2FD20EAE07008BD08B5007CFFF70C
:1005FC008BFD20EAE07008BD08B5007CFFF794FD88
:10060C0040EAE07008BD08B5007CFFF785FD40EAC4
:10061C00E07008BD007CFFF78FBD70B5467C0446CA
:10062C000D462EB12946207CBDE87040FFF764BD15
:10063C00007CFFF789FD0028F4DC304670BD10B556
:10064C000446142100F024FA204610BD4FF0000C93
:10065C0010B50446084611464FF47A72C4E901C23B
:10066C00044A20742260012262741A46FFF73CFD92
:10067C00204610BD900C0A0838B50C4D2978BFF3F4
:10068C005B8F11F001040FD12846FFF700FD58B124
:10069C002146074B074A0848FFF7D8FF2846FFF7C3
:1006AC00FBFC064800F0F6F9034838BD9C0000201E
:1006BC0024010020A0000020A8010020E7050A0862
:1006CC00417470477047704708B50021007CFFF7F4
:1006DC0063FD40EAE07008BD08B50121007CFFF71E
:1006EC005BFD40EAE07008BD08B5007CFFF74CFDEF
:1006FC0020EAE07008BD08B5007CFFF73DFD20EA5C
:10070C00E07008BD38B50446007C0D46FFF73CFD93
:10071C00002801DC607C28B12946207CFFF744FDD1
:10072C0020EAE07038BD007CFFF746BD10B50446EA
:10073C00142100F0ADF9204610BD704710B54FF4F0
:10074C007A73044608460021C4E90113044B207453
:10075C002360012311466374FFF7FEFC204610BD95
:10076C00C00C0A080022007CFFF7FEBC10B5044642
:10077C001422002100F0A2F9054B20466360054BC2
:10078C00E36040F2011323818123238210BD00BF5B
:10079C00EC010020ED02002030B50E4D87B001A811
:1007AC00FFF7E4FF2978BFF35B8F11F001040ED142
:1007BC002846FFF76CFC50B1214601AA0648FFF70A
:1007CC00BDFF2846FFF768FC044800F063F90248B7
:1007DC0007B030BDBC010020C4010020D1060A08BE
:1007EC0010B504461422002100F068F9054B204690
:1007FC006360054BE36040F2011323818123238264
:10080C0010BD00BF6E0300206F04002010B50E4C0D
:10081C0086B001A8FFF7E4FF2378BFF35B8FDB07FB
:10082C000ED42046FFF733FC50B1012101AA074832
:10083C00FFF784FF2046FFF72FFC054800F02AF94C
:10084C00024806B010BD00BFC0010020D801002036
:10085C0047070A08002240681146FFF701BDF0B5B2
:10086C00154689B011220E460446002103A800F05B
:10087C0025F9284600F04EF9002781B27368284606
:10088C00009703AAFFF7A0FC30B139462046FFF7CA
:10089C008BFD204609B0F0BD204603A9FFF772FD81
:1008AC00F7E7002240681146FFF7FABC00224068C7
:1008BC001146FFF705BD00224068FFF7F9BC002286
:1008CC00406881F00101FFF7E3BC002340681A4641
:1008DC001946FFF7D5BC002340681A461946FFF7A6
:1008EC00C7BC002240681146FFF7AABC00220221B7
:1008FC004068FFF7ADBC002340681A46FFF798BC70
:10090C000422024B5A60024A1A607047F00400201D
:10091C00F00C0A08014B1860704700BF040000205F
:10092C0008B5134B43B1FFF737FF03681B699847B2
:10093C00002801DDAFF300800E4B43B1FFF79CFEA6
:10094C0003681B699847002801DDAFF300800A4B50
:10095C000BB1AFF30080094B43B1FFF757FF0368AE
:10096C001B699847002801DDAFF3008008BD00BF6C
:10097C00000000000000000000000000000000006B
:10098C0008B5FFF7CDFFFFF7A7FB014B186008BDBB
:10099C00000500200548064A08B5121A054900F062
:1009AC007FF8054B054A1A6008BD00BF00400240A5
:1009BC0004400240400D0A08004002401E1C279AC9
:1009CC00002307B51A466FF077010093FFF71EFC62
:1009DC0003B05DF804FB000007B543880A2B08D070
:1009EC00502B0BD1094B1B684BB103B05DF804EBDA
:1009FC001847FFF7E5FF03B05DF804FB00231A4628
:100A0C006FF077010093FFF701FCF4E7FC04002082
:100A1C00002110B51148FFF77BFC114B1A68114BE4
:100A2C009A420CBF012200220F4B1A7001D0FFF723
:100A3C00B1FFFFF749FB044600F048F80B4B13B12C
:100A4C002046AFF3008000210848FFF7E9FBBDE822
:100A5C00104000210648FFF7CFBB00BF21090A0850
:100A6C00004002401E1C279AF804002000000000E1
:100A7C00E5090A08002307B51A46194600930348EE
:100A8C00FFF7A8FC03B05DF804FB00BF04050020D1
:100A9C00FFF7FBBA002301461A46184600F042B88D
:100AAC000A44914200F1FF3300D1704710B511F8A0
:100ABC00014B914203F8014FF9D110BD034602449A
:100ACC00934200D1704703F8011BF9E738B50D4B81
:100ADC0004461D68AB6B7BB91820FFF709FC0A4A6A
:100AEC000A4BA863C0E90023094B012283600B2346
:100AFC0083810023C0E904230022AB6B1C615A6183
:100B0C0038BD00BF040000200E33CDAB34126DE6AF
:100B1C00ECDE0500034613F8012B002AFBD1181A52
:100B2C00013870472DE9F843DFF8BC800646D8F849
:100B3C0000001F460D46914600F058F8264B1C68E5
:100B4C0034B9264C1C60264B13B11B68C4F8883092
:100B5C0063681F2B07DDD8F8000000F049F84FF050
:100B6C00FF30BDE8F8835EB3D4F8880088B91D4B1C
:100B7C0023B9D8F8000000F03AF8F0E74FF484708D
:100B8C00FFF7B6FB0028F4D00023C0E94033C4F8CB
:100B9C00880001226368022E40F8239002FA03F2C7
:100BAC0000EB8301D0F8003143EA0203C0F80031B6
:100BBC00C1F8807002BFD0F804311A43C0F8042188
:100BCC006368D8F800005A1C0233626044F8235062
:100BDC0000F00EF80020C4E7A80500201C0500203A
:100BEC0000000000FD020A086800002070477047F2
:100BFC00704700001D000A085D000A0885000A08FD
:100C0C0089000A080000000048692100000000006B
:100C1C000000000043030A0833030A0835030A08DE
:100C2C0061707000000000000000000009040A0858
:100C3C0013040A081D040A0827040A0831040A08C8
:100C4C003D040A0849040A0851040A0859040A0810
:100C5C0065040A086D040A0877040A0881040A0866
:100C6C0025592D256D2D25645425483A254D3A25B9
:100C7C0053257A0061736374696D65000000000090
:100C8C0000000000E1050A084B060A0827060A08BE
:100C9C00E5040A08F7050A0813060A0805060A08F7
:100CAC0021060A08E3050A08E9050A080000000005
:100CBC0000000000D3060A0839070A0811070A08C1
:100CCC00E5040A0803070A08D5060A08E5060A0817
:100CDC0033070A08F5060A08CD060A0800000000CA
:100CEC000000000003090A08F9080A08EF080A08BE
:100CFC0061080A08E3080A08D7080A0849040A0820
:100D0C0051040A08CB080A08C3080A08B9080A08DB
:100D1C00AF080A086B080A08F9030A08D1040A0884
:100D2C009D050A08A9050A08CD050A080D090A0837
:040D3C00810A0A0816
:040D400000000000AF
:100D4400800C0A08080000200000000000000000D9
:100D5400000000000000000000000000000000008F
:100D6400000000000000000000000000000000007F
:100D7400000000000000000000000000000000006F
:100D8400000000000000000000000000000000005F
:100D9400000000000000000000000000000000004F
:0C0DA4000000000000000000AD05002071
:100DB000FFFFFFFF00000102030405060708090A00
:100DC0000B0C0D0E0F101112131415161718191AFB
:080DD0001B1C1D1E1F20280042
:040DD8007856341203
:04000005080A001CC9
:00000001FF
