:02000002D0002C
:1040000000400D006CD40D000000FD080C00030002
:084010000000000000000000A8
:04401800A4C90D002A
:1040200009480A49884208B505D0094A824202D0A7
:10403000121A08F0DBFA0748074A0021121A08F0A2
:10404000FDFA014808BD00BFBCDA0320BCD30D0057
:1040500044DB032048DB0320F1E7032070B5074E63
:10406000074C06F05BFEA41BA4080025A54200D166
:1040700070BD56F8043B98470135F7E78CD30D0027
:10408000B0D30D0001F01ABA08B501F085F9BDE80A
:10409000084006F0FBBD04F0BFB804F0BDB804F062
:1040A000C3B8000008B5034A00210C2003F0D6FF76
:1040B000FEE700BF0D7D0D000078B0FA80F04009EA
:1040C00070470123037070477047037C13F00803A7
:1040D0001EBFC36A406A1B1A002BACBF18466FF0A4
:1040E0000040704730B5124D2C68D4F81C355B0188
:1040F00003F4FF5294F820351343B4F81825A2F2C4
:10410000BC7243EA422303802868D0F82435D0F8F3
:104110002825DB02520102F4FF5203F4FF2313436C
:10412000D0F82C25C2F3460213430B8030BD00BFEC
:1041300054DB0320704710B51021044606F0DCFE66
:10414000204610BD10B53421044606F0D5FE2046A9
:1041500010BD103002F0BEBC07B501220DF1070101
:10416000103002F0B7F901280CBF9DF807004FF09E
:10417000FF3003B05DF804FB103002F03BBB1030A1
:1041800002F056BA07B501228DF8071010300DF174
:10419000070102F09FFC03B05DF804FB0EB403B509
:1041A00003AB002153F8042B019306F03CF802B056
:1041B0005DF804EB03B0704773B5044608462279F6
:1041C000A36832B1A3B90B4902B0BDE8704005F055
:1041D000FBBE094A267B094D0949647B012E18BFA5
:1041E0002946CDE900140749FFF7D8FF02B070BD9A
:1041F000054AEFE7C9C90D0057CB0D00C5C90D0031
:10420000C1C90D00DFC90D00B8C90D000368C9B2EE
:104210009B6818470EB410B58DB00FAA016852F80C
:10422000044B039200232020CDE90403CDE9004292
:104230001E2004AA03F022FF0DB0BDE8104003B019
:1042400070470EB410B58DB00FAA016852F8044B38
:10425000039200232020CDE90403CDE90042282069
:1042600004AA03F00BFF0DB0BDE8104003B0704787
:1042700000B58BB00A460023014601A8ADF8043012
:1042800002F0F5FA0BB05DF804FB000040B10378D2
:1042900013F0700303D0034B1860012070471846D9
:1042A000704700BF70E50320F0B58BB00023ADF878
:1042B00004300B782F2B0446164600F23C4715D1EC
:1042C0004B789BB9384602F0CBFA2146384602F0CB
:1042D000E8F818B9002630460BB0F0BD0EB901263B
:1042E000F9E73846FFF7D2FF0646F4E70A4600230F
:1042F000394601A802F0BBFA0028EBD09DF8043043
:1043000013F0700FE6D001AC0FCC3D460FC50FCCBB
:104310000FC523682B60002EE1D03846FFF7B6FFAB
:10432000D9E700B58BB013460022ADF804200A4649
:1043300000F23C4101A802F07BFB0BB05DF804FBEE
:1043400030B585B0194B009313798DF8043093681C
:10435000029300F58C659389ADF80C3004460A464B
:104360006B4600F26C41284603F072FA10B9002047
:1043700005B030BD256004F23C45284602F070FAD5
:104380000121204603F012F9014648B12146284692
:1043900002F087F80028EAD02846FFF777FFE7E722
:1043A000204603F003F90028F0D1E0E748CD0D00E6
:1043B00037B540F20573038064220223837080F8CE
:1043C00068240823414A8380C0F87824002301220E
:1043D0003F4DC373A0F8443480F8723480F87C24D5
:1043E000C0F88034A0F884342978BFF35B8F114083
:1043F00004460BD128460191FFF75EFE019928B1D2
:10440000344805F05BFF2846FFF75BFE314BC4F8EC
:10441000743404F28C4001F08CFC04F29C401022B5
:104420000021C4F8980408F009F9012384F8AC3499
:10443000294BC4F89C3441F213230025A4F8B0346E
:10444000112384F8B234254984F8A05404F5976008
:1044500006F099F8224904F5996006F094F8294687
:1044600004F59B6001F0F6FD1E4B04F2DE4203F101
:10447000100153F8040B42F8040B8B42F9D11922B6
:10448000C4F8F42404F5A06200231749C4F8F034FA
:10449000C4F8F834A4F8FC34116004F2045213494F
:1044A0001160134904F5A1620020C2E9000104F57E
:1044B000A26200200021C2E90001204684F83035C4
:1044C00084F83135C4F8343503B030BD48CD0D0023
:1044D00048DB03204CDB03201000030057CB0D000A
:1044E000FCC90D007CCD0D00333353400000484221
:1044F0000000F87F30B585B0044606F005FB5E4944
:1045000005F075FD06F0D4FC04F28C4402466721E8
:10451000204601F022FC20B906F0F6FA574905F0D2
:1045200066FD06F0F1FA564905F061FD00212046CE
:1045300001F082FC06F0E8FA524905F045FD2046FC
:1045400001F088FC032808D8DFE800F002202428C6
:1045500006F0DAFA4C4905F037FD06F0D5FA4B497A
:1045600005F045FD0221204601F0AEFC06F0CCFA34
:10457000474905F029FD204601F08FFC072816D891
:10458000DFE800F0105D6165696D717506F0BCFAD9
:104590004049E0E706F0B8FA3F49DCE706F0B4FA34
:1045A0003E49D8E706F0B0FA3D4905F00DFD06F0AA
:1045B000ABFA3C4905F01BFD0321204601F0B2FC9B
:1045C00006F0A2FA384905F0FFFC06F09DFA054610
:1045D000204601F090FC0A220146284605F013FD12
:1045E000284605F0F8FCB3EE0E0A0121204601F042
:1045F000D1FC06F089FA2D4905F0E6FC06F084FAB4
:1046000001210546204601F0A5FC0221284605F0BF
:10461000FBFD0023CDE901330093012319461A461F
:10462000204601F0DBFC0121204601F085FB06F06D
:104630006BFA1F4905B0BDE8304005F0E2BC06F05A
:1046400063FA1C49B1E706F05FFA1B49ADE706F0D3
:104650005BFA1A49A9E706F057FA1949A5E706F0E7
:1046600053FA1849A1E706F04FFA17499DE706F0FB
:104670004BFA164999E700BF10CA0D001CCA0D007D
:104680004CCA0D005BCA0D0072CA0D007ECA0D0037
:1046900084CA0D0075CA0D0078CA0D007BCA0D00D2
:1046A0009ECA0D00A8CA0D00AECA0D00D0CA0D00EA
:1046B000EDCA0D00A0CA0D00A2CA0D00A4CA0D00CB
:1046C0004CCB0D0040CB0D00C7C90D00A6CA0D0094
:1046D00037B50446019106F017FA019905460A22FA
:1046E00005F091FC284605F076FC0199A08803B0FE
:1046F000BDE8304006F093BB10B504464FF4FA60B5
:1047000003F0C2FD6078012106F089FB41F2883098
:1047100003F0BAFD60780021BDE8104006F07FBBD1
:10472000F0B597B009AD064628460C4601F0E1FD0C
:1047300095E803000346C4F8D804A4F8DC14C2B218
:10474000C1F30720C9B20291190E0191C3F30741C9
:1047500002F5FA62C3F30723039000912846184933
:1047600003F072FD04F59967294605A805F00BFFD3
:1047700005A9384605F05DFF05A805F0B9FE94F8D7
:10478000D83403F5FA63C4F8183594F8D934C4F86A
:104790001C3594F8DA34C4F8203594F8DB34C4F8C6
:1047A000243594F8DC34C4F8283594F8DD34C4F8A2
:1047B0002C353946304605F031FF304617B0F0BD94
:1047C0000CCB0D007FB5044606F09EF9274905F095
:1047D000FBFB06F06DFB682104F0ECF806F068FBCB
:1047E000FF21FFF713FD06F063FB0F21FFF70EFD1E
:1047F00006F05EFB04F0E5F80546B0B921466846D0
:10480000FFF78EFF684605F073FE40F24C4094F8C7
:10481000DD6403F039FD684601F06BFD9DF805305D
:10482000B34204BF012384F8F83494F8D8343BB978
:10483000012384F8FA3406F067F90D4905F0D7FB37
:104840004DB106F061F90B4905F0D1FB012384F865
:10485000F83404B070BD94F8FA34002BF9D106F0A6
:1048600053F9054905F0C3FBF3E700BF2ACB0D0060
:1048700032CB0D0042CB0D0048CB0D0000000000F4
:1048800008B5212006F0E4FA07F050F904A3D3E9B3
:10489000002307F0B5F907F0ABFC00EE100A08BDE5
:1048A0009402C1D2AF63523F38B50446FFF7E8FF28
:1048B00004F5A063D3ED007AB4EEE70AF1EE10FA46
:1048C00044BF012384F8FC3406F01EF9094905F0C1
:1048D0007BFB06F019F905462046FFF7D1FF0221C0
:1048E000284605F077FC06F00FF9BDE8384002498C
:1048F00005F06ABB4ECB0D0055CB0D0070B58AB0EC
:10490000044608460191FFF7BBFF01998DED000AAF
:1049100001F5996506A8FFF703FF06A9284605F0EB
:1049200088FE134E06A805F0E3FD294602A805F00F
:1049300075FE314602A805F0E7FE9DED000A05462A
:10494000062106A805F08FFE06A9284605F0D0FE30
:10495000314605F0D9FE0146204605F05FFE06A867
:1049600005F0C6FD02A805F0C3FD20460AB070BDE3
:1049700058CB0D00F8B5054606F0C6F8164905F007
:1049800023FB06F0C1F805F28C470646384601F0D5
:104990006FFA44001DD52D21304605F019FB614208
:1049A0000A22304605F02FFB06F0AEF80B4905F061
:1049B0001EFB384601F022FA384601F059FA400051
:1049C00007F0B4F805F5A165C5E9000141EC100B4D
:1049D000F8BD2146E4E700BF5ACB0D0060CB0D00C7
:1049E00010B50446002190F8B00406F007FA94F8D8
:1049F000B104002106F002FA94F8B2040021BDE8E7
:104A0000104006F0FBB900002DE9F041054690B0DA
:104A100091F8B0040C4606F01BFA804694F8B104F5
:104A200006F016FA074694F8B20406F011FA0646A4
:104A3000404607F07BF830A3D3E9002307F0E0F805
:104A40002F4BDFF8C080002207F0DAF841EC100BA2
:104A50000621684605F021FE694604A805F0DEFD42
:104A6000414604A805F050FE0446384607F05EF8BB
:104A700021A3D3E9002307F0C3F8214B002207F05C
:104A8000BFF841EC100B062108A805F006FE08A9A6
:104A9000204605F02DFE414605F036FE0446304620
:104AA00007F044F814A3D3E9002307F0A9F8144B46
:104AB000002207F0A5F841EC100B06210CA805F028
:104AC000ECFD0CA9204605F013FE0146284605F032
:104AD000A5FD0CA805F00CFD08A805F009FD04A82B
:104AE00005F006FD684605F003FD284610B0BDE858
:104AF000F08100BFAFF300806666666666664A3F77
:104B000000408F4058CB0D00F8B500F244471849DB
:104B1000044600F108053846FFF7AAFB064630BBFD
:104B2000134901222846FFF7FCFB3246104928466C
:104B3000FFF7BAFBD4F8B4143846FFF799FB0646E2
:104B4000A8B9D4F8B41401222846FFF7EAFBD4F838
:104B5000B41432462846FFF7A7FB06493846FFF74C
:104B600087FB20B9034901222846FFF7DAFBF8BD8D
:104B700064CB0D008BCB0D0070B5054600F1080429
:104B80008EB0002220460E461A49FFF78DFBD5F85D
:104B9000B41400222046FFF787FB17490022204665
:104BA000FFF782FB4FF47A730393144B01930024B5
:104BB00044F2022305F5A76205F2444105A8ADF8C9
:104BC0001440029401F053FE9DF814304BB131684B
:104BD00001A805F00CFA05A801F042FE20460EB02F
:104BE00070BD05F091FF064905F001FA4FF0FF3066
:104BF000F5E700BF64CB0D008BCB0D005CCD0D0045
:104C00006DCB0D0030B58DB004460D4668461B498E
:104C100005F0B9FC08A8A84708A9684605F009FDF1
:104C200008A805F065FC214604A8FFF767FE04A963
:104C300008A805F0F3FC694608A805F059FD0146EF
:104C4000684605F0DCFC08A805F052FC04A805F055
:104C50004FFC694608A805F0E1FC08A92046FFF7CB
:104C60008BFF08A805F044FC05F04EFF009905F005
:104C7000BEF9684605F03CFC0DB030BD57CB0D00C9
:104C80002DE9F043044693B004F10805FFF73CFF1B
:104C90005749DFF87081574F00222846FFF704FB81
:104CA000D4F8B41400222846FFF7FEFA0022524935
:104CB0002846FFF7F9FA05F027FF504905F097F964
:104CC0004F4902A805F05FFC01224E49684603F0F7
:104CD000BBFA02A90EA805F0A1FC69460AA805F0D6
:104CE00052FC0AA90EA805F003FD04F5A765414989
:104CF00005F00AFD00230D22294605F02CFD0AA827
:104D000005F0F6FB0EA805F0F3FB012604F244497A
:104D100029464846FFF7ACFA00B301363246414611
:104D2000684603F091FA02A90EA805F077FC6946DF
:104D30000AA805F028FC0AA90EA805F0D9FC3946F6
:104D400005F0E2FC00230D22294605F004FD0AA827
:104D500005F0CEFB0EA805F0CBFBD9E705F0D4FE9D
:104D6000294905F031F905F0CFFE294605F03FF954
:104D700026490EA805F007FC0AA803F0D5F90AA9F0
:104D80000EA805F0B5FC014606A805F047FC0AA8E8
:104D900005F0AEFB0EA805F0ABFB06A90EA805F0CA
:104DA0003DFC0EA92046FFF7E7FE0EA805F0A0FB8C
:104DB00017490AA805F0E7FB04F597610AA805F072
:104DC00097FC01460EA805F029FC0EA92046FFF726
:104DD000D3FE0EA805F08CFB0AA805F089FB06A8F7
:104DE00005F086FB02A805F083FB13B0BDE8F08355
:104DF00064CB0D0068CC0D008BCB0D0079CB0D0082
:104E000090CB0D0094CB0D0099CB0D00A5CB0D00E0
:104E1000ACCB0D00F8B505460C4616464AB90368FA
:104E2000C9B29B6898470746284605F0D4F838442D
:104E3000F8BD00290CDA0A2A0AD12D2105F0C8F89C
:104E400061420746F2B2284605F0DDF80744EBE779
:104E500021460027F6E70000F0B5044685B0394842
:104E60000E463949FFF7D6F994F8AC3404F5936748
:104E7000002B4ED0012384F8A034D4F89834DB689A
:104E8000DBB19A88012A06D09B68F9E79B68A3B139
:104E90009A88012AFAD19A89022AF7D101229A73B3
:104EA00094F8AC34002B34D0D4F89834DB68E3B1F8
:104EB0009A88042A41D09B68F9E72449102006F01B
:104EC0001DF8054600283AD01022002107F0B6FB55
:104ED000D4F8A8241E4B2B60AA6001230222AB80C9
:104EE000AA81AB73C4F8A854DAE71849102006F079
:104EF00005F8054618B31022002107F09FFB144B5C
:104F00002B600423AB80D4F8A834C4F8A854C5E9B6
:104F10000236394601A805F08DFC0E490948FFF715
:104F200079F905F0F1FD0A223146FFF773FF019888
:104F300008B103F079F905B0F0BDDE60E9E784F867
:104F4000AC54E6E79CE50320C2CB0D0088D10D00F0
:104F500010000300CCCB0D0013B5044605F0D4FDC2
:104F600005F0C8FD0028F9D005F0CEFD0634224931
:104F700005F03DF8204601F01CF968B905F0C4FDC4
:104F80001E4905F034F805F0BFFD0368DB6998475A
:104F90000A2003F079F9FBE7204601F00CF968B923
:104FA00005F0B2FD164905F022F81649164A684682
:104FB00001F098F86946204601F01EF9124A11499D
:104FC000684601F08FF86946204601F015F9204641
:104FD00001F0EFF805F098FD0C4904F0F5FF05F03D
:104FE00093FD0A221021FFF715FF05F08DFD0849FA
:104FF00004F0FDFF02B010BDD7CB0D00E6CB0D00D5
:10500000F8CB0D002DCC0D0024CC0D0039CC0D00BB
:1050100044CC0D00F0B52DED028B9FB00146054646
:1050200011A8FFF77DFB11A805F062FA5D4B5E4AFF
:105030001A600021287805F0E1FE05F065FD5B4966
:1050400004F0C2FF052003F01FF92846584B1193C6
:105050000026584B10F8081B8DF84860012411AA4F
:105060001393ADF85040FFF76BF998B95249534884
:10507000FFF7E7F885F8F84495F8FB34002B00F0CB
:105080008C8005F041FD4E4904F0B1FF1FB0BDEC2E
:10509000028BF0BD204605F0DBFE05F000F947F27B
:1050A0005D7005F0F1F847490096024604466846EF
:1050B000ADF8046003F0C8F8204606F037FD41EC77
:1050C000100B06F0B1F805F244473F49B0EE408AB4
:1050D000F0EE608A384601F019FC4FF47A73ADF8AF
:1050E000206005960693394E374A049644F202230F
:1050F000394608A801F0BBFB9DF8203083B10A2295
:10510000214604A8FFF786FE314904A804F06FFF8A
:10511000304904A804F06BFF2F4904A804F067FF8E
:1051200008A801F09DFB00244FF47A731393264ADC
:1051300002942346394615A8ADF80C40ADF854400A
:105140001294119601F093FB9DF854300BB3B0EE1E
:10515000480AF0EE680A05F0E7FF204B51EC100B0F
:10516000002206F097FB06F0FBFF02AF0646024660
:10517000394615A801F0AEF9013E0123A64208DD2B
:10518000395D1DF80420914218BF85F8F8340134C8
:10519000F4E715A801F064FB6EE705F0B5FC1049D3
:1051A00072E700BF6CE50320E5400D0051CC0D0017
:1051B00048CD0D0080F0FA0256CC0D009CE503208E
:1051C00043CB0D005FCC0D0062CC0D005CCD0D001B
:1051D0006DCC0D0095CC0D00BBCC0D000000F03F58
:1051E00049CB0D0070B5044688B00D464148424990
:1051F000FFF710F80121072005F000FE2046FFF719
:10520000ABFE002204A8CDE90422ADF8182003F07B
:1052100005FB3A48002213461146406802F0C4FFDD
:1052200003F010F903F09EF9A01D00F0C2FF6846DC
:1052300002F07AFF009BC4F8B43431492D48FEF7E0
:10524000E9FF642003F020F8214604A8FFF768FA7C
:1052500004A805F04DF92B4904A805F094F904F5CC
:10526000996104A805F044FA01682248FEF7D2FFCC
:1052700004F5976604A805F03BF92946304605F089
:10528000BEF9D4F8B8141B48FEF7C4FF022300226D
:10529000314604A805F078FA1B4904A805F049FA3C
:1052A000054604A805F024F9D5B12046FFF722F9F8
:1052B000A088012105F0A2FD144B20461C60FFF7D9
:1052C000A9FE2046FFF77EFA2046FFF7EDFA2046BA
:1052D000FFF712FA684605F00BF9012008B070BD1F
:1052E00005F012FC0A4904F082FE2046FFF778FB25
:1052F000E2E700BF9CE50320D3CC0D002CE70320A0
:10530000F3CC0D0007CD0D00F5CB0D0054DB0320D1
:1053100015CD0D007047006A0368DB681847000070
:1053200010B5084C02F002FD2268801A064A126885
:10533000904281BF054A13680133136002F0F6FC06
:10534000206010BD44E50320BCDA032040E50320C3
:105350000A4B10B50446036003F0FAFE214604F040
:10536000F8F805F0D1FB05F0BFFB2046044B40F8F0
:10537000043B03F0DBFF204610BD00BF1CCE0D0038
:1053800004CE0D0010B50446FFF7E2FF20462421AD
:1053900005F0B2FD204610BD30B5334885B001217F
:1053A000FFF796F9314902230022684605F0ECF92F
:1053B0002F49684605F0BDF90446684605F098F89F
:1053C00054B12C482C49FEF725FF2C4B1B684EF698
:1053D0006020584302F058FF294C0121072005F0B6
:1053E0001EFD20684FF47A75684302F04DFF254991
:1053F0001D48FFF707FC2068684302F045FF21497C
:105400001948FFF7FFFB2068684302F03DFF1D4984
:105410001548FFF7F7FB0021072005F000FD1248B3
:105420000021FFF755F9114902230022684605F0D3
:10543000ABF90F49684605F07CF90546684605F06A
:1054400057F81DB110490B48FEF7E4FE0F4B2168D9
:105450001A680F4B04484B434EF6602101FB0231A2
:10546000FFF7FAFC05B030BD68DB032058DB0320F2
:10547000F5CB0D009CE503208CCD0D00C4DA032094
:10548000C0DA03205D550D0098CD0D00C8DA032069
:1054900048F4FFFF07B500230222009306494FF0AE
:1054A000FF33104603F092FA0221084603B05DF87C
:1054B00004EB05F0A3BC00BF21530D001FB5144C35
:1054C0001449204605F0BDF82146134C684605F006
:1054D000A5F869462046FFF785FE684605F008F8FE
:1054E00005F012FB0D4904F082FD2046FFF7C8FBD2
:1054F0000021022005F082FC21466846FFF710F9E2
:10550000684604F0F5FFFFF7C5FF04B010BD00BF0B
:1055100058DB0320A6CD0D0068DB0320E2CD0D0093
:1055200010B50D4B0022044618681A6006F0EEFA1A
:1055300007A3D3E9002306F063FB06F059FE06211A
:1055400000EE100A204605F08EF8204610BD00BF80
:105550009A9999999999204040E5032030B58DB0EA
:10556000274902230022044608A805F00DF9254921
:1055700008A805F0DEF8054608A804F0B9FF4DB10B
:105580002148FFF7F7F90621204605F086F8204666
:105590000DB030BD1D49684604F0F5FF1B4904A855
:1055A00004F0F1FF08A81849FFF72EFA08A904A88B
:1055B00005F03FF808A804F09BFF08A8FFF7B0FF2C
:1055C00008A9684605F035F808A804F091FF04A979
:1055D00008A805F023F80E4908A805F095F86946D3
:1055E00005F086F80146204605F018F808A804F0F2
:1055F0007FFF04A804F07CFF684604F079FFC6E74B
:1056000058DB0320F5CB0D0068DB032057CB0D00E2
:1056100058CB0D0070B5D0E900531426044606FBA4
:105620000356AE4204D0284604F062FF1435F8E772
:10563000206802F0F9FD204670BD8842F8B50446A6
:105640000D46164616D9904215D2A2F11406751AC7
:10565000A1F114072C44B7421CD02CB1314620468E
:1056600004F0C2FF337C2374304604F041FF143E43
:10567000143CF0E70ED0B5420CD02CB129462046A0
:1056800004F0B2FF2B7C2374284604F031FF14355C
:105690001434F0E7F8BD2DE9F0410023C0E90033F0
:1056A00083604F689F4204460E4623DD4FF0140886
:1056B00008FB07F002F0B0FD0546D8B1D4E90012AE
:1056C00008FB0212FFF7B9FF206802F0ADFD25606C
:1056D000A760D6E9007308FB0378B84508D03946BF
:1056E000284604F09BFF3B7C2B7414371435F4E7F9
:1056F000736863602046BDE8F081000070B53E4BE2
:105700003E4A9A6000248EB01C609C809C710320ED
:1057100002F0CCFC2146012002F0D8FCCDE9024485
:10572000049405F0F1F902A9064605A8344DFFF7E7
:10573000B2FF05A908A8FFF7AEFF324B2B6008A9FE
:105740000BA8FFF7A8FF0BAA1E21281D04F05BF889
:105750000BA8FFF75FFF08A8FFF75CFF2A4B2B6041
:105760002E6205A8FFF756FF284B2B6005F0CCF9F9
:105770004FF4165105F0B4F903F0EAFC294603F0A2
:10578000D4FF02A8FFF746FF01212148214DFEF773
:105790000FFE214B642283F86024204AC3F8702452
:1057A0000122DC71A3F83C4483F86A44C3F87844CE
:1057B000A3F87C4483F874242978BFF35B8F1140ED
:1057C0001C460BD128460191FEF776FC019928B1C1
:1057D000134804F073FD2846FEF773FC104BC4F821
:1057E0006C3402F0A3FA0F4B0F4918600F4804F015
:1057F000CAFE0EB070BD00BF34E503200000FFFFFD
:1058000048E5032004CE0D00F8CF0D001CCE0D009E
:1058100068DB032048DB0320B0E0032048CD0D0007
:105820004CDB032044E5032057CB0D0058DB03205D
:1058300030B50025C0E9001542819DF810109DF893
:105840000C20456141738273037330BD7FB50446FC
:105850004089ADF80C00C3B220680D46164640B131
:10586000637B019303AB0093012300F0DFF804B0E6
:1058700070BD60680028FAD0227A22B903F07F0355
:105880008DF80C3003E0022A09D0012A0AD0637B8C
:105890000093324603AB294600F0E5F9E7E763F0F1
:1058A0007F03EDE703F07F0343F04003E8E7F0B444
:1058B0000B4602B9027B042A14D800F10F0543619C
:1058C00084182946844209D0877BDEB227B92E701E
:1058D0001B0A0135013CF5E7A673F9E72046F0BC49
:1058E000FFF7B4BF0020F0BC704730B50B4685B061
:1058F0004189ADF80C1005460068CCB240B10021DA
:10590000CDE900216A7B03A900F0E2F805B030BDC3
:1059100068680028FAD0297A21B964F07F048DF8EC
:105920000C4003E0022909D001290AD0FF21CDE96A
:1059300000216A7B03A900F0C8F9E7E704F07F04BF
:10594000EDE764F03F04EAE738B500F10F05027BAC
:1059500029460446FFF7C9FF78B1227B2946224435
:105960000020A2420BD00302A07B20B9907B1843F9
:10597000013A0131F5E70878F9E74FF0FF3038BD1B
:1059800010B501600271437110BD10B50446006886
:10599000FFF7DAFF2279012393406279013BD0407F
:1059A000184010BD70B5044600680E46FFF7CCFFE6
:1059B000237901229A40531E627903FA02F520EA04
:1059C000050503EA0601206891402943027BBDE8F2
:1059D0007040FFF76CBF426000220272202201700B
:1059E000C260704710B5037A044653B121786068ED
:1059F00002F0DCFF606802F0E4FFB0FA80F04009DA
:105A000010BD012100F003F80028EFD1F8E738B508
:105A1000044640680D4602F097FF0120207225B130
:105A20002046BDE83840FFF7DDBF38BD2DE9F8431B
:105A3000DDE908961F46C368154632449A4204467B
:105A4000884602D90020BDE8F8830178406802F05A
:105A5000ADFF7EB9606803682A46DB684146984717
:105A60008542EFD16068394602F0A7FFB0FA80F0B6
:105A70004009E8E7B9F1000FECD0606803683246EE
:105A8000DB6849469847B042DCD1E3E72DE9F041B5
:105A90001546C268954204460E4614D801784068FF
:105AA000EAB202F06EFF85420DD100271FFA87F897
:105AB000454507F1010709D9606803685B699847A4
:105AC00006F80800F2E70020BDE8F0810120FBE7BE
:105AD00073B51D460023CDE900339DF81C30069EAA
:105AE0000446FFF7A3FF40B1012332462946204672
:105AF00002B0BDE87040FFF7C9BF02B070BD000042
:105B00002DE9F04F0446006885B00D4640B10023F2
:105B1000009313460A4604F079FC05B0BDE8F08F07
:105B2000237BA068484FB7FBF0F7002B0B780CBF26
:105B30004FF0010B4FF0800B1BEA030F01EB020348
:105B40000CBF4FF001094FF00009FFB20393039B14
:105B5000AB42E2D095F800A05E464FF0000817B1C6
:105B6000384602F0D3F8637B13F0FD0F41D194F96E
:105B700010305A1C0FD01AEA060114BF012300236B
:105B80004B4508D06369606A1A6800292CD002432B
:105B90001A604FF00109A169E36A0A6813430B60B8
:105BA00017B1384602F0B2F894F91130013306D03B
:105BB000E3691A68A36A1A4218BF46EA0808A1698D
:105BC000E36A0A6822EA03030B6094F91130013397
:105BD00018BF85F80080237B002B32D17600F6B207
:105BE000002EBCD10135B2E722EA00021A608946D4
:105BF000D1E7A169E36A0A6813430B6017B138461D
:105C000002F084F894F91030013308D06369616AB6
:105C10001A681AEA060F14BF0A438A431A60A16978
:105C2000E36A0A6822EA03030B6094F91130013336
:105C3000CBD0E3691A68A36A1A4218BF46EA08087B
:105C4000C3E77608CCE700BF20A1070007B5012213
:105C50008DF807100DF10701FFF752FF9DF80700BF
:105C600003B05DF804FB2DE9F041044600680E46E0
:105C700017461D4610B1616804F054FB94F90E00FC
:105C8000002180B205F0CBF8069B05EB03084545E3
:105C900008D13744B7420BD016F8011B2046FFF756
:105CA000D5FFF7E715F8011B2046FFF7CFFFEEE71A
:105CB00094F90E00012180B205F0B1F8206808B116
:105CC00004F017FB0120BDE8F0812DE9F041044606
:105CD00000689DF81C800E4617461D4610B161688D
:105CE00004F020FB94F90E00002180B205F097F833
:105CF0003744BE420AD1069BEE18AE420CD0414654
:105D00002046FFF7A3FF05F8010BF6E716F8011B85
:105D10002046FFF79BFFECE794F90E00012180B2CB
:105D200005F07DF8206808B104F0E3FA0120BDE831
:105D3000F08140230370704713B500230C46022204
:105D400081686846FFF71CFE2CB901216846FFF701
:105D500029FE02B010BD0021F8E7F0B504468BB073
:105D60001020CDE90221FEF796F9054618B1DDE9CC
:105D70000221FFF730FE656028460021FFF747FE4D
:105D8000054618B9002528460BB0F0BD01270223AF
:105D900061682022CDE9007704A8FFF749FD04A837
:105DA000FFF7D2FD2378B3EB102FEBD11820FEF7CD
:105DB00072F9064638B100230093616801973B46AB
:105DC0000622FFF735FDA660002280213046FFF74E
:105DD0006EFD01212046FFF7AFFFD4E707B5002392
:105DE000816802226846FFF7CBFD6846FFF7CDFDCC
:105DF000B0FA80F0400903B05DF804FB10B588B03C
:105E00000446FFF7EBFF90B10123CDE90033616851
:105E10000223002202A8FFF70BFD02A8FFF794FD62
:105E200003B200EE103ABAEECE0A08B010BD9FEDF4
:105E3000010AFAE70000C07F13B505230C460222D1
:105E400081686846FFF79CFD21466846FFF7AAFD7A
:105E500002B010BD07B50523816802226846FFF72E
:105E60008FFD6846FFF791FDC0B203B05DF804FBFB
:105E700000B5012389B0CDE90033032341681A46F8
:105E800002A8FFF7D5FC02A8FFF75EFD030248BF9A
:105E900040F07F4009B05DF804FB00B501238BB0F2
:105EA000CDE900330522416804A8FFF7C1FC0423B3
:105EB000032204A902A8FFF763FD02A8FFF765FD0E
:105EC000C0B20BB05DF804FB10B501238AB0CDE978
:105ED00000330C460522416804A8FFF7A9FC0423FF
:105EE000032204A902A8FFF74BFD214602A8FFF7F1
:105EF00059FD0AB010BD00B501238BB0CDE90033C8
:105F00000522416804A8FFF793FC0023032204A99B
:105F100002A8FFF735FD02A8FFF737FDC0B20BB0AE
:105F20005DF804FB10B501238AB0CDE900330C46BF
:105F30000522416804A8FFF77BFC0023032204A983
:105F400002A8FFF71DFD214602A8FFF72BFD0AB0AE
:105F500010BD000000B54B1E032B89B014D80123DF
:105F6000CDE9003301F10F020223416802A8FFF7D7
:105F70005FFC02A8FFF7E8FC03B200EE103ABAEEAD
:105F8000CE0A09B05DF804FB9FED010AF9E700BFF6
:105F90000000C07F10B54B1E032B10EE104A88B0D6
:105FA00017D80123CDE9003301F10F020223416824
:105FB00002A8FFF73DFC204605F0CAFD0022064B73
:105FC00005F01EFE06F0CCF8002201B202A8FFF791
:105FD0006EFC08B010BD00BF000030402DE9D0437A
:105FE0001E4688B04B1E032B9DF838709DF83C80F0
:105FF0009DF8409014461CD80123CDE90033CA1DFA
:10600000416802A8FFF714FC2146B9F1000F01D046
:1060100044F00201B8F1000F01D041F004010EB1CB
:1060200041F008010FB141F01001002202A8FFF772
:106030003EFC08B0BDE8D08303784078303BDBB24B
:106040000A2B28BF002303EB8303303800EB430007
:10605000C0B27047214A3C230A44F0B5B2FBF3F4C6
:10606000B4FBF3F103FB1422427103FB114318222A
:106070000371B1FBF2F302FB1312C27000229BB258
:10608000027040F26D164FF69364027812F0030529
:106090000BBF37464FF4B677012100219F4205DA46
:1060A000611A0B4401329BB20270EEE701220C4EE2
:1060B00042704178721812F8012C1DB9022904BFF0
:1060C0000132D2B29A4294B204D81B1B01319BB266
:1060D0004170EEE701338370F0BD00BF80BC92C712
:1060E0002CCE0D0030B50D4685B0044608684968D1
:1060F00001AB03C32889A97A188099700DF10D00AE
:10610000FFF79AFF9DF804302070413B122B16D800
:10611000DFE803F03215154615301515150A15156B
:1061200039444215151540009DF80530612B1FD0EC
:106130009DF806306E2B0CBF06230723637002A860
:10614000FFF77AFFA0701068516801AB03C301A884
:10615000FFF772FFE0700DF10700FFF76DFF207190
:106160000DF10A00FFF768FF6071204605B030BDF1
:106170000123E3E70223E1E79DF80630722B0CBF11
:1061800004230823DAE79DF80630722B0CBF0323A3
:106190000523D3E70923D1E70A23CFE70B23CDE774
:1061A0000C23CBE708B504F083FE02F0CDFB012001
:1061B00008BDFFF7F7BF08B504F07AFE682102F0CA
:1061C000F9FB04F075FE036802219B68984704F010
:1061D0006FFE02F0F6FB04F06BFE0122682102F074
:1061E000E2FB04F065FE03685B69984700F0E0009D
:1061F000E03818BF012008BD38B50D4604F058FE40
:10620000682102F0D7FB04F053FE036803219B686A
:10621000984704F04DFE69790A24B1FBF4F303EBCF
:10622000430301EB43010368C9B29B68984704F03C
:106230003FFE2979B1FBF4F303EB430301EB430188
:106240000368C9B29B68984704F032FEE978B1FB55
:10625000F4F303EB430301EB43010368C9B29B680A
:10626000984704F025FEA978B1FBF4F303EB430350
:1062700001EB43010368C9B29B68984704F018FE1C
:10628000036800219B68984704F012FE6978B1FB0F
:10629000F4F303EB430301EB43010368C9B29B68CA
:1062A000984704F005FE29780368B1FBF4F404EB89
:1062B000440401EB44019B68C9B2984704F0F8FD1F
:1062C00002F07FFB04F0F4FD682102F073FB04F0A0
:1062D000EFFD036802219B68984704F0E9FD03681D
:1062E00000219B68984704F0E3FDBDE8384002F0C8
:1062F00068BB2DE9F843044604F0DAFD682102F09A
:1063000059FB04F0D5FD036803219B68984704F00E
:10631000CFFD02F056FB04F0CBFD0722682102F00E
:1063200042FB04F0C5FD03685B69984700F07F09F4
:10633000C0F30210A0EB800009EB40005FFA80F987
:1063400004F0B6FD03685B699847C0F30315A5EB3D
:10635000850500EB4500C5B204F0AAFD03685B6942
:106360009847C0F30316A6EB860600EB4600C6B2BC
:1063700004F09EFD03685B699847C0F30317A7EB21
:10638000870700EB4700C7B204F092FD03685B6922
:10639000984704F08DFD03685B699847C0F30318C4
:1063A000A8EB880800EB48005FFA80F804F080FD55
:1063B00003685B699847C0F30313A3EB830300EB07
:1063C0004300207084F80180A770E670257184F87E
:1063D00005902046BDE8F88310B50446243000F04F
:1063E000D5FF28B104F50C70BDE8104000F0CEBF19
:1063F00010BD8378016943F00403837000F110023B
:10640000806801F079B800002DE9F041017811F0C1
:106410002005044603D000263046BDE8F0814269DD
:10642000174B9A42F7D2FFF7E4FF06460028F2D056
:106430002169A06800F0F5FF0746A06805223946EB
:10644000243000F0CBFF80460028E4D029464FF4EA
:10645000007206F0F3F80125A3681A79AA4209D957
:1064600018684246E91901F024FB0028D3D0013511
:10647000EDB2F1E7636903EB42236361CCE700BF50
:1064800000FE1F0010B5044680680A462430A1694A
:1064900000F0A4FF20B1A38803F00F0300EB43102A
:1064A00010BD70B5047805460E464CB9242221462D
:1064B00006F0C4F8AE60F379102B03D0202B07D080
:1064C000002004E0202301242B70AC70204670BD16
:1064D0004023F8E72DE9F74F037804468846154630
:1064E000002B5DD08278D1075AD51A072DD5C36904
:1064F00042699B1A9D4228BF1D462E464FF0000957
:1065000004F1100B002E00F08F8022786369A068E0
:106510009706C3F3080A4FEA53211FD5006A0144C6
:10652000A068BAF1000F42D1B6F5007F3FD3C36A2D
:1065300099423CD0B6F5806F52D20068424601F0D5
:106540002FFA68B34FF4007744E09B06D5D58368F3
:106550001A894369C3EB42139BB2CBE790F80590CD
:1065600009EA0109BAF1000F08D1B9F1000F05D10C
:106570005BB951064CBF036A236A23612169A06895
:1065800000F04FFF09EB0001CAE721695A4600F00D
:106590004EFF002804DBF1D1237813F0700F43D1B4
:1065A000637843F0020363704FF0FF303DE0CAF5BB
:1065B0000077B7424FF0000200F1240028BF3746B1
:1065C00000F00CFF0028EBD000EB0A013A464046F1
:1065D00006F00CF863693B44B8446361F61B91E72D
:1065E000227892064FEA562A06D40279A2EB0902D3
:1065F000D2B2924528BF924699424FEA4A2708D222
:10660000A06853460068424601F012FA0028E1D122
:10661000C6E753448B42F3D92430019100F0B6FE13
:1066200001990028ECD1BBE7A81B03B0BDE8F08FAF
:1066300073B501220DF10701D0E904560446FFF7B6
:1066400049FF01280ABF9DF807004FF0FF30C4E959
:10665000045602B070BD37B5436913F4F07F0446A9
:10666000C3F3431500D099B901220DF1070120466B
:10667000FFF730FF40B2012802D0002003B030BD48
:1066800063691F33A0686361303000EB4510F5E7A4
:106690002033F7E72DE9F0410278076904460D46FB
:1066A00062B14069884202D019B921616561012057
:1066B00006E0160706D5E3698B420BD2276100205E
:1066C000BDE8F081910605D5A3681B89B5EB431F92
:1066D000ECD9F3E7D4F808C09CF80660431E06F135
:1066E00009016E1ECB40CE40B34200D898B9530684
:1066F0004CBFDCF82030236A236104F11008002E1F
:10670000D4D02169A068424600F091FE002806F12D
:10671000FF36F4DCD2E7F61AEFE7F8B50F46164677
:106720000021242204461D4605F088FFB868A060B9
:10673000A68000F1300206F00F063B6AE3607101AB
:1067400002EB4616F37A1F0746D4431893F83B3002
:1067500003F017032370F27A12F0180F04BF43F00E
:10676000080323709DF81830E37005F00303012B34
:106770002CD0022B28D07BBB6A052DD40123A3701B
:10678000A278930704D52378DF0625D4DE0723D427
:10679000AB1123F07F0305F0080633431343A370C6
:1067A000C36AA3614318B3F84420B3F84A1041EA1E
:1067B00002416A0513D559B9A37843F00403A370C5
:1067C0006B0410D40120F8BD0323D8E70223D6E7D9
:1067D00000F0CDFE0028EFD100202070F3E7216209
:1067E000DB6CE361ECE7E1692046FFF753FF00282B
:1067F000E8D1F1E738B5037804460BB9012038BD7C
:1068000083785A0723D50121FFF73CFE054628B9B6
:10681000637843F0010363700020F0E70378E52B11
:10682000F6D023781B0744BFE369C361238C4383FD
:10683000638C8382094B1B682BB100F11601183061
:1068400098472B8B6B82A37823F00403A370A06876
:10685000FFF7C2FD0028DBD0D0E700BF6CE50320C6
:1068600010B50446FFF7C6FF0023237010BDF0B536
:1068700093B01F460023ADF82430037801920646FA
:106880000C4613B1002013B0F0BD0029FAD00B78EC
:1068900013F0700FF6D013782F2B12D1019A1378C2
:1068A0002F2B02D101320192F8E7A1681BB93046C3
:1068B000FFF7F7FDE7E709A8FFF7F3FD0028E1D0B0
:1068C00009AC019801AA03A900F0F0F90028D9D079
:1068D000019B1B789BB1002303AA2146304600F0A0
:1068E0007BFB0028CED035460FCD09AC0FC40FCDB1
:1068F0000FC42B6823603046FFF7B2FFE0E73B464A
:1069000003AA2146304600F067FBBCE700B58BB018
:1069100000230A46ADF804300146012301A8FFF721
:10692000A6FF10B101A800F0A1FA0BB05DF804FBBE
:106930002DE9F041044688B00E4619B9002008B090
:10694000BDE8F0810B7813F0700FF7D040F602230A
:1069500000F042FB0028F1D001271025A770257018
:106960002046FFF751FD0028E8D02369236200216B
:106970002046FFF78FFE2046FFF73CFF0028DDD0C2
:1069800039462046FFF77EFD03460028D6D06F46E5
:10699000C572024600F1200E3D4610685168BC46A3
:1069A000ACE80300083272456746F6D1B3F81480AC
:1069B0005F8B20220123EA5401330B2BFBD1216A88
:1069C000A06800F02EFD0146A0680122243000F0EE
:1069D00005FD03460028B1D02E22ADF81A708DF8BF
:1069E0000020ADF81480AC4607460DF1200E62463B
:1069F00003CA724538607960944607F10807F6D1FA
:106A00002E228DF80120326AADF81A20110CADF853
:106A10001410203308AE2A4603CAB24218605960E7
:106A2000154603F10803F6D1A068FFF7D5FC86E709
:106A3000F0B593B01F460023ADF8243003780192DF
:106A400006460C4613B1002013B0F0BD0029FAD061
:106A50000B7813F0700FF6D013782F2B0DD1019A0D
:106A600013782F2B02D101320192F8E7A16809A80F
:106A7000FFF717FD0028E6D009AC019801AA03A989
:106A800000F014F90028DED0019B1B78E3B100234D
:106A900003AA2146304600F09FFA58B135460FCD83
:106AA00009AC0FC40FCD0FC42B6823603046FFF72D
:106AB000D7FEE1E7002FC6D003AA21463046FFF7F4
:106AC00037FF0028EAD1BEE703AA21463046FFF788
:106AD0002FFFB9E72DE9F0470378894619070446E7
:106AE00017465BD583789A0758D51B0751D463693D
:106AF000DB43BB4252D3B84604F1100A6669B8F1D1
:106B0000000F00F09180A0684379C6F3080513EAEE
:106B100056260ED16DB92169002946D0524600F0A3
:106B200086FC00283ADB04D12046FFF762FC0028EF
:106B300034D02169A06800F074FC3118A06815B940
:106B4000B8F5007F3FD2C5F50076464528BF4646DA
:106B5000002D36D16269E3699A4234BF01220522D1
:106B6000243000F03BFCC8B1284432464946354445
:106B700005F03CFDB5F5007F04D1A068243000F09D
:106B800005FC58B1636933446361B144A8EB06085E
:106B9000B4E7C169FFF77EFD0028A8D1637843F010
:106BA000010363704FF0FF3050E0236A3BB9204689
:106BB000FFF71FFC0028F1D023692362B9E72361A6
:106BC000B7E70122CCE7B8F5806FC26A1BD390F813
:106BD00004C0ACEB0606F3B24FEA582E734528BF4B
:106BE000734691424FEA432607D31A448A4282BF32
:106BF0004FF0FF3280F82450C262A5684A462868E8
:106C000000F0CDFFBDE7914202BF4FF0FF3380F8A7
:106C10002450C362A3684A46186800F04AFF00285F
:106C2000BCD04FF40076ADE7E269A378B24204D25B
:106C3000E66143F00403A37003E0084A1268002AE7
:106C4000F7D194F90230002B02DB3846BDE8F0871B
:106C50002046FFF7CFFD0028F7D19FE76CE5032022
:106C6000411E00F10A030020420842EAC01011F858
:106C7000012F52FA80F08B42C0B2F5D1704738B57F
:106C8000CB6804460D4623B9BDE838408968FFF754
:106C900008BC2422002105F0D1FC10230120237020
:106CA000A070AB68A360EB68236238BD2DE9F047A4
:106CB000064610F8013B202BFAD06B4D8E60002465
:106CC000335DC3B12F2B16D05C2B02D10020BDE861
:106CD000F087A3F12200C0B21D2803D825FA00F0E6
:106CE000C007F3D403F0BF003C28EFD0203B5E2B5D
:106CF000ECD80134E4E733191846074610F8015B75
:106D0000202DFAD02F2DF8D017604CB113F8012D9B
:106D10002E2A01D0202A01D1013CF6E7FF2CD5DC38
:106D20004C6001F10D0301F11802202003F8010B62
:106D30009342FBD14FF0000816F808302E2B01D0FB
:106D4000202B02D108F10108F6E7B8FA88F04009D3
:106D5000651E6B1C02D0735D2E2B14D14FF0000901
:106D600007274A46CA464FF0080EA04569DA16F8CA
:106D70000830202B03D02E2B07D1A84512D000209D
:106D800008F10108F1E7013DE3E7222B08D07C2B55
:106D900006D0A3F12A0CBCF1050F0BD82D2B13D074
:106DA000A8455CD10A2F4BD0A8460A2708224FF0ED
:106DB000100EE5E7A3F13A0CBCF1050FF0D9A3F1F1
:106DC0005B0CBCF1020FEBD9A3F1210CBCF15D0F00
:106DD000E6D8A845E6D0BA4230D8A3F1610CBCF1A0
:106DE000190F1AD8203B4EEA0909DBB25FFA89F97C
:106DF00002F1010C5FFA8CFC0A44BCF1060F5373DC
:106E000001D881F80CC06246BAE7A84518DCA8464C
:106E10000A2708224FF0100EB1E7A3F1410CBCF194
:106E2000190F98BF4EEA0A0AE2E70B7B01200870AF
:106E300019447E234B7331238B7348E70A2FE4D127
:106E400000204B7B202B3FF441AF0028EDD01AEA05
:106E5000090F18BF4FF0020981F8009037E7BA42D6
:106E6000ECD85F230020C3E7010100312DE9F04198
:106E70008AB00023ADF804300378190704460AD518
:106E800083789A0707D5016A39B901212046FFF7AF
:106E9000F9FA054638B9002048E0806800F067FB41
:106EA0000028F2D1F7E7FFF7DBFEE5262E7000237E
:106EB00007462370A068FFF78FFA0028EBD0E3782D
:106EC000002B33D0214601A8FFF7D9FE0028E2D0DD
:106ED0000125E3785FFA85F84345DCD3A188491B97
:106EE000490101A8FFF7D6FB0028D4D0002101A852
:106EF000FFF7B1FB0028CED0C37A0F2BCBD102789D
:106F000002F01F034345C6D1437BBB42C3D1067089
:106F1000A16891F8243043F0010381F8243053062E
:106F200005F10105D5D5A068FFF756FA0AB0BDE80E
:106F3000F0812DE9F84391F80C9006460C460225A5
:106F40007E2701F10D086168A2686B189BB211449D
:106F5000914206D012F8010B03EB431343409BB25E
:106F6000F6E7B9F1030F28BF4FF0030909F1040256
:106F7000D2B203F00F01A018013A0929D2B294BF8E
:106F800030313731914541734FEA1313F1D104EB9E
:106F9000090300215F733046FFF77CFB0121304677
:106FA000FFF759FB014628B97078B0FA80F0400924
:106FB000BDE8F88303786BB1C37A1B07EED40B22CC
:106FC000404605F005FB0028E8D10135ADB2642D3F
:106FD000B9D1EDE70120EBE72DE9F04F2DED028B64
:106FE00089B09046069005930C4629B9002009B057
:106FF000BDEC028BBDE8F08F0B7813F0700FF5D06D
:10700000069B1B78002BF1D15368049313789907E2
:107010001CBF049B03F10C074FF0000118BF0D23A8
:1070200020461DBFB7FBF3F70137FFB20127FFF77B
:1070300031FB08F10D02002308EE102A9B461D4685
:107040001E4603939A466269079301212046C2F3C4
:107050004F19FFF700FB079B00286ED16378002BC8
:10706000C4D1059B9A05C1D503F00303013B012B55
:10707000BCD8039B002D08BF4B460393BD42C0F014
:107080000381BAF1000F40F01B81039B2046590198
:10709000FFF700FB0028A9D0013F5FFA87FA5646A8
:1070A0004FF000090F27002E00F02181002120461B
:1070B000FFF7D1FA0546002898D0A26892F824304C
:1070C000564543F001030CBF46F0400BB34682F82F
:1070D000243080F800B0C77280F80C9008F10D00E1
:1070E000FFF7BEFD0BF01F0B687385F81A9085F84B
:1070F0001B900BF1FF3B0D22D8F808C002FB0BF2EE
:1071000000230499914240F2E3801CF80210042B02
:107110005FFA83FE03F1010000F2E08005EB430318
:10712000A3F801100D2802F101020346E9D1013E46
:10713000F6B2B8E74FF0010A85E70278E52A00D0F9
:107140007AB90399002D08BF4946BD4238BF0135C1
:10715000039138BFEDB2002A83D0E52A04D100267E
:1071600071E7BD4238BF00252E2AF8D0C17A0F2919
:107170005DD13EBB12F040063FF465AF02F01F0642
:10718000437BB3460BF1FF324FF00D0E0EFB02FEB8
:10719000049A7245E3D9A2EB0E0207924FF0000C5D
:1071A000BCF1040F0CEB0E095FFA8CF214D800EB63
:1071B0004C02B2F8012007998C451BD1002A18BF58
:1071C000002640E70BF1FF3B5FFA8BFB5A45C6D127
:1071D000427B9A42D6D0C2E70A2A95BF0CF1FF3211
:1071E0000CF1010200EB420200EB420294BFD28894
:1071F0009288E0E7FF2AB2D8D2B2A2F14101192960
:10720000D8F8081011F8091098BF2032A1F14109EF
:1072100098BFD2B2B9F1190F9CBF2031C9B29142C7
:107220009DD10CF1010CBCF10D0FB9D10BE70A0790
:1072300095D466B1BBF1010F03937FF4D7AEFFF78E
:107240000FFD039B98427FF4D1AEB2460FE018EEDB
:10725000101A0B22079305F0BBF9079B00287FF457
:10726000F2AE98F800A01AF0010A7FF463AF059B14
:1072700019053FF5BBAE059B0698CDF800A04A4620
:107280002146FFF74AFAB2E600212046FFF7E3F96C
:1072900098B96378002B7FF4A9AE2046FFF7B4F8C5
:1072A00000283FF4A3AEA3681B79012B3FF6E9AE9B
:1072B0001035EDB2AF42F0D8E3E60135EDB2DDE6D0
:1072C00041462046FFF735FE00287FF4DEAE8DE60E
:1072D00014BF4FF0FF31002189B218E7BEF10A0F49
:1072E00094BF05EB430305EB400399801AE7314651
:1072F00020466769FFF7AFF9054600283FF476AEF0
:107300002022314605F09AF9434653F80D2F2A60A2
:107310005A686A601A892A819B7AAB7298F80030A1
:1073200003F018032B730F4B1B689BB105F10E0183
:1073300005F1100098472B8A6B822B83EB89EB8237
:10734000A26892F8243043F00103C7F34F1982F882
:10735000243090E721232B7428236B740823AE7309
:10736000EB73E8E76CE5032013B50446084659B112
:10737000019105F0ECF923680199DB68024620468B
:1073800002B0BDE81040184702B010BD37B5037811
:10739000DA07044620D54368816800F10C021868BA
:1073A000019200F086FB019A054618B9002528468F
:1073B00003B030BD23789B0704D4237823F0010366
:1073C0002370F4E7D4E9013019690144186800F02A
:1073D00070FB0028F1D1E9E70125E8E770B5836883
:1073E0008B4204460E46154609D0FFF7CFFF08B979
:1073F000002070BD6B070AD500232370A660227899
:1074000005F003052046154300F80C5BF1E76368BF
:1074100004F10C021868314600F0C2FA0028EBD1E2
:10742000E6E78379406902399940084470470129A9
:1074300070B505460C46164602D84FF0FF3070BDB9
:10744000C3698B42F9D3C379202B16D181690222FB
:1074500001EBD41100F50C70FFF7C0FF0028ECD051
:1074600004F07F0450F8243023F07043EA699A4214
:1074700026BF336001200020E1E7102BDDD18369B6
:10748000C1F307210222194400F50C70FFF7A6FF93
:107490000028D2D0E4B230F81430E7E7012938B53B
:1074A0000C46154601D8002038BDC3698B42FAD37B
:1074B000C379202B0FD18169032201EBD41100F590
:1074C0000C70FFF78BFF0028EDD004F07F0440F82C
:1074D00024500120E8E7102BE5D18369C1F307218F
:1074E0000322194400F50C70FFF778FF0028DAD06A
:1074F000E4B220F81450ECE72DE9F341C4688C4263
:1075000005460E46904601D3012701E00C460027B0
:10751000EB690134A34202D2C7B9EC68F4E7A64292
:1075200014D001AA21462846FFF781FF00280DDB71
:10753000EED0019B002BEBD107B1EC606FF07042F5
:1075400021462846FFF7AAFF074620B900273846FC
:1075500002B0BDE8F08116B9C8F80040F7E722464E
:1075600031462846FFF79AFF0028F5D1EEE773B5BC
:10757000002305460C46019301AA21462846FFF741
:1075800056FF061E10DB002221462846FFF786FF25
:1075900050B1EB68A34224BF04F1FF34EC60019CBE
:1075A000002EE9D102B070BD0020FBE7012370B5C9
:1075B0000022C3604FF0FF330446C27100F124067D
:1075C000806280F82420C362C0F8340280F8302240
:1075D000C0F838320D46B9B1042901D9002070BD78
:1075E00011463046FFF7FAFE0028F7D000EB0513EE
:1075F00093F8AE315B06F1D105F11B0100EB0111EF
:10760000D1F80650002DE9D0002229463046FFF778
:10761000E5FE0028E2D0B0F80B30B3F5007FDDD1F5
:10762000037C022BDAD1C389002BD7D0417B217197
:107630004B1E63710023A37109260123994207D0D1
:10764000013ECBD0A2795B000132DBB2A271F5E73B
:10765000C18A01B9416A2161C3892B44A361B0F891
:107660001120228103EB41032362B0F8111049017C
:1076700001F2FF1103EB51236361B0F8132002B94B
:10768000026AE91AA3791144D9404B1CE36140F620
:10769000F473994202D80C23E3719FE74FF6F47319
:1076A000994285BFC36A236210232023E37101201E
:1076B00095E7000070B50E4E0D46144600F02EFB07
:1076C0003368C01A0B4B984208D900F02FFB0A4BC5
:1076D000186000F021FD00F021FB306000F026FB77
:1076E00080B2401BA042D4BF0020012070BD00BF6B
:1076F00074E50320A08601003CE7032038B5057A35
:1077000004464DB9406800F06BFA63682946187D5D
:1077100003F085FB0123237238BD10B5037A0446BC
:107720006BB143680121187D03F079FB6068FF218C
:1077300000F088FA606800F067FA0023237210BD39
:10774000F8B504460D46164600F0F0FA87B26068B8
:1077500000F05DFAFF2860720ED14FF47A7239465C
:107760002046FFF7A7FF0028F1D0552320462370BD
:10777000FFF7D3FF0020F8BDFE2801D05023F5E726
:1077800060683246294600F047FA607208B160230B
:10779000ECE7606800F03BFA606800F038FA01201E
:1077A000E9E770B504460E4600F0C0FA85B23246ED
:1077B00029462046FFF77EFF30B9606800F027FABF
:1077C000FF28F4D1012070BD0020FCE7F7B5037A53
:1077D000019204460D460BB9FFF790FF25B14FF417
:1077E00096712046FFF7DDFF606845F0400100F02C
:1077F00029FA032601AFB95D606800F023FA013E63
:10780000F9D2002D60680CBF9521872100F01AFA8B
:10781000606800F0FCF90B25606800F0F8F90306D9
:10782000607203D5013D15F0FF05F5D103B0F0BD41
:1078300070B504460D46164637210022FFF7C6FFF5
:10784000324629462046BDE87040FFF7BFBF000022
:107850002DE9F041002505720570857241600446EE
:1078600090461E4600F062FA41460746606800F006
:10787000BBF96368494A1D720125DA601D82204602
:10788000FFF73CFF63682946187D03F0C8FA0A2514
:107890006068FF21013D00F0D5F915F0FF05F7D133
:1078A00063682946187D03F0BAFA0A2500221146BA
:1078B0002046FFF78BFF0128804618D0013D15F0C8
:1078C000FF0507D1202320462370FFF726FF002065
:1078D000BDE8F0816068FD2100F0B4F94FF4027852
:1078E000606800F094F9B8F10108F9D1DEE74FF4CF
:1078F000D57208212046FFF769FF052814D184F8C6
:107900000A800025BFB22A4629212046FFF790FFB2
:107910000246D8B14FF4FA6239462046FFF7CAFE54
:107920000028F0D04323CEE70425606800F06FF90B
:10793000013D15F0FF056072F7D1AA2804D102239A
:10794000A3724FF08045DDE72523BCE7A37A022B25
:1079500018D13A212046FFF739FF08B13723B2E7A3
:10796000606800F054F900F0C000C02804BF032391
:10797000A372606800F04BF9606800F048F9606835
:1079800000F045F92046FFF7C8FE63683079B1681A
:10799000B2891A821872D960012099E790D0030049
:1079A00038B5837A032B18BF490215460A461121C0
:1079B0000446FFF70BFF30B1302323702046FFF75A
:1079C000ACFE00250BE029464FF400722046FFF77D
:1079D000B7FE05460028F1D02046FFF79EFE284658
:1079E00038BD10B5837A032B0A4618BF4A0212210C
:1079F0000446FFF7EBFE30B1312320462370FFF73A
:107A00008CFE002010BD0120FCE710B500220C21E7
:107A10000446FFF7DBFE30B1282320462370FFF732
:107A20007CFE002010BD2046FFF777FE0120F9E71D
:107A3000F8B5044616461F46FFF7D3FF68B1002588
:107A4000ABB29F4206EB452109D94FF400722046A4
:107A5000FFF776FE01350028F2D10020F8BD204660
:107A6000BDE8F840FFF7D1BF38B504461546406879
:107A700000F0E8F84FF400726068294600F0E6F87C
:107A80006068FF2100F0DEF86068FF2100F0DAF89E
:107A9000606800F0BCF8607200F01F00052806D096
:107AA000572320462370FFF738FE002038BD012001
:107AB000FCE770B5837A032B18BF490215460A46C6
:107AC00018210446FFF782FE064630B132232370A8
:107AD0002046FFF722FE00251FE02A46FE21204611
:107AE000FFF7C2FF0028F3D04FF4FA612046FFF7FA
:107AF00058FE054608B95A23E9E732460D212046CB
:107B0000FFF764FE08B12923E1E7606800F07FF821
:107B10000028F8D12046FFF700FE284670BD13B5B7
:107B200001914FF4FA610446FFF73BFE019A30B928
:107B30005B2323702046FFF7F0FD002005E0FC21C9
:107B40002046FFF791FF0028F4D002B010BD10B519
:107B5000837A032B0A4618BF4A0219210446FFF70D
:107B600035FE30B1332320462370FFF7D6FD0020C9
:107B700010BD0120FCE738B54FF4FA610446FFF769
:107B800010FE054630B9562323702046FFF7C5FD89
:107B9000284638BD6068FD2100F054F8F5E7F8B5D7
:107BA000044616461F46FFF7D2FF70B10025BD42BE
:107BB00006EB4521204604D0FFF7B1FF28B101357F
:107BC000F5E7BDE8F840FFF7D6BF2046FFF7A5FD73
:107BD0000020F8BD014B01221A70704778E50320A0
:107BE000011D006802F09EBB10B5044601750068D7
:107BF00002F06EFB207D012103F000F9207D0121C0
:107C0000BDE8104003F00BB9006802F072BB0068D9
:107C1000FF2102F0F5BB000037B51346074A00927A
:107C20000025074C006825700A46294602F0EEFB45
:107C30002378002BFCD0002003B030BDD57B0D0095
:107C400078E50320006802F0DBBB000037B513467F
:107C5000064A00920025064C006825702A4602F06C
:107C6000D5FB2378002BFCD003B030BDD57B0D00B5
:107C700078E5032008B5024B1B689B68019308BD9B
:107C80007802030008B5024B1B68DB68019308BD4E
:107C90007802030008B5034B1B68D3F898300193B2
:107CA00008BD00007802030008B5034B1B68D3F839
:107CB000F030019308BD00007802030008B5024BC4
:107CC0001B685B6C019308BD4802030008B5024BBA
:107CD0001B689B6C019308BD4802030008B5024B6A
:107CE0001B68DB6C019308BD4802030008B5024B1A
:107CF0001B685B6D019308BD4802030008B5024B89
:107D00001B685B68019308BD1802030008B5024BAD
:107D10001B68DB68019308BD1802030008B5024B1D
:107D20001B681B69019308BD1802030008B5024BCC
:107D30001B685B69019308BD1802030008B5024B7C
:107D40001B685B68019308BD2C02030008B5024B59
:107D50001B689B68019308BD2C02030008B5024B09
:107D60001B68DB68019308BD2C02030008B5024BB9
:107D70001B681B69019308BD2C02030008B5024B68
:107D80001B689B69019308BD2C02030008B5024BD8
:107D90001B68DB69019308BD2C02030008B5024B88
:107DA0001B681B6B019308BD2C02030008B5024B36
:107DB0001B68DB68019308BD2802030008B5024B6D
:107DC0001B689B69019308BD2802030008B5024B9C
:107DD0001B68DB69019308BD2802030008B5024B4C
:107DE0001B681B6A019308BD2802030008B5024BFB
:107DF0001B685B6A019308BD2802030008B5024BAB
:107E00001B689B6A019308BD2802030008B5024B5A
:107E10001B68DB6A019308BD2802030008B5024B0A
:107E20001B681B6B019308BD2802030008B5024BB9
:107E30001B685B6B019308BD2802030008B5024B69
:107E40001B681B6C019308BD2802030008B5024B98
:107E50001B681B6D019308BD2802030008B5024B87
:107E60001B685B69019308BD6402030008B5024BFF
:107E70001B689B68019308BD6802030008B5024BAC
:107E80001B68DB68019308BD6802030008B5024B5C
:107E90001B681B68019308BD3002030008B5024B44
:107EA0001B685B69019308BD3002030008B5024BF3
:107EB0001B68DB69019308BD3002030008B5024B63
:107EC0001B681B6A019308BD3002030008B5024B12
:107ED0001B685B6A019308BD3002030008B5024BC2
:107EE0001B689B6A019308BD3002030008B5024B72
:107EF0001B689B6B019308BD3002030008B5024B61
:107F00001B68DB6B019308BD3002030008B5024B10
:107F10001B681B6C019308BD3002030008B5024BBF
:107F20001B685B6C019308BD3002030008B5024B6F
:107F30001B681B68019308BD3C02030008B5024B97
:107F40001B689B68019308BD3C02030008B5024B07
:107F50001B68DB68019308BD3C02030008B5024BB7
:107F60001B681B69019308BD3C02030008B5024B66
:107F70001B685B69019308BD3C02030008B5024B16
:107F80001B689B69019308BD3C02030008B5024BC6
:107F90001B68DB69019308BD3C02030008B5024B76
:107FA0001B681B6A019308BD3C02030008B5024B25
:107FB0001B689B6A019308BD3C02030008B5024B95
:107FC0001B68DB6A019308BD3C02030008B5024B45
:107FD0001B681B68019308BD4C02030008B5024BE7
:107FE0001B685B68019308BD4C02030008B5024B97
:107FF0001B689B68019308BD4C02030008B5024B47
:108000001B681B69019308BD4C02030008B5024BB5
:108010001B685B69019308BD4C02030008B5024B65
:108020001B689B69019308BD4C02030008B5024B15
:108030001B68DB69019308BD4C02030008B5024BC5
:108040001B681B6A019308BD4C02030008B5024B74
:108050001B685B6A019308BD4C02030008B5024B24
:108060001B685B6B019308BD6002030008B5024BFF
:108070001B681B6D019308BD6002030008B5024B2D
:108080001B685B6D019308BD6002030008B5024BDD
:108090001B68DB6E019308BD6002030008B5024B4C
:1080A0001B681B6F019308BD6002030008B5024BFB
:1080B0001B685B68019308BD2002030008B5024BF2
:1080C0001B685B69019308BD2002030008B5024BE1
:1080D0001B68DB6A019308BD2002030008B5034B4F
:1080E0001B68D3F88830019308BD0000200203000C
:1080F00008B5034B1B68D3F89430019308BD00000A
:108100002002030008B5034B1B68D3F8A830019385
:1081100008BD00002002030008B5024B1B689B68E5
:10812000019308BD4402030008B5024B1B68DB69DC
:10813000019308BD4402030008B5024B1B68DB6BCA
:10814000019308BD4402030008B5024B1B685B6C39
:10815000019308BD4402030008B5024B1B685B682D
:10816000019308BD4002030008B5024B1B689B68E1
:10817000019308BD4002030008B5024B1B68DB6891
:10818000019308BD4002030008B5024B1B681B6940
:10819000019308BD4002030008B5024B1B685B69F0
:1081A000019308BD4002030008B5024B1B689B69A0
:1081B000019308BD4002030008B5024B1B68DB6950
:1081C000019308BD4002030008B5024B1B681B6AFF
:1081D000019308BD4002030008B5024B1B681B6BEE
:1081E000019308BD4002030008B5024B1B685B6B9E
:1081F000019308BD4002030008B5024B1B681B6CCD
:10820000019308BD4002030008B5024B1B685B6C7C
:10821000019308BD4002030008B5024B1B681B68B0
:10822000019308BD1C02030008B5024B1B685B6884
:10823000019308BD1C02030008B5024B1B689B6834
:10824000019308BD1C02030008B5024B1B68DB68E4
:10825000019308BD1C02030008B5024B1B685B6A52
:10826000019308BD1C02030008B5024B1B68DB6BC1
:10827000019308BD1C02030008B5024B1B685B6C30
:10828000019308BD1C0203000021FFF717BF7047D0
:10829000064B994210B500F10C0405D0084602F0D7
:1082A00031FE002808BF0024204610BDE0CE0D009E
:1082B00010B53021044602F01FFE204610BDFBF72A
:1082C000EEBE10B5036804469B689847A368013B5F
:1082D000A3602BB923682046DB68BDE8104018472F
:1082E00010BD000010B500230370044B044618684D
:1082F000FFF7F4FC01232370204610BD80E5032026
:1083000010B5037804461BB1024B1868FFF7EEFC6A
:10831000204610BD80E50320002242600260827189
:10832000704708B582798B799A4206D1062204F00B
:108330004FF9B0FA80F0400908BD0020FCE710B505
:10834000D0E9063203EBC2029342184606D0046815
:1083500024888C4203F10803F6D110BD0020FCE70D
:1083600038B50024046005463020FBF794FE034630
:1083700088B10122C0E90122094A02604FF6FF726A
:1083800082810E30FFF7C8FFC3E90644C3E9084401
:10839000C3E90A44DC826B600C332B60284638BD8D
:1083A000CCCE0D00096851F8022F02604A68426085
:1083B00070471FB50B4601681A68098812889142F8
:1083C0000CD101466846FFF7EDFF02A81946FFF7FA
:1083D000E9FF02A96846FFF7A4FF00B9002005B035
:1083E0005DF804FB10B504463420FBF754FE01464B
:1083F00068B10023C0E90033C0E90233C0E90433A7
:10840000C0E90633C0E90833C0E90A3303632160D9
:1084100019B90A4A0A20FFF721FE0020FFF72AFCBB
:1084200020B1064A00210A20FFF718FE21680448FF
:108430000022FFF739FC204610BD00BF0D7D0D0066
:10844000C5860D0010B50A4C2378BFF35B8FDB07A0
:108450000CD42046FBF730FE40B10648FFF7C2FFC0
:108460002046FBF72EFE044804F0ACF8014810BD8E
:108470007CE5032084E5032001850D000B68036083
:1084800013B15A6801325A60704710B5044600684B
:1084900028B14368013B43600BB9FFF712FF204648
:1084A00010BD70B5D0E90053044605EBC306AE42DB
:1084B00004D0281DFFF7E9FF0835F8E72068FFF72B
:1084C000B3FE204670BD70B5D0E90053044605EBFD
:1084D000C306AE4204D0281DFFF7D7FF0835F8E7E2
:1084E0002068FFF7A1FE204670BD10B50446243079
:1084F000FFF7E9FF04F11800FFF7D3FF10BD0000FC
:1085000070B50F4B1C68D4B1D4E9065305EBC30614
:10851000AE4204D0281DFFF7B8FF0835F8E7A06980
:10852000FFF782FE04F10C00FFF7CDFF2046FFF7B6
:10853000B8FF20463421BDE8704002F0DDBC70BDBC
:1085400084E5032070B5D0E90053044605EBC3066B
:10855000AE4204D0281DFFF798FF0835F8E7002346
:10856000636070BD37B5054601A8FFF7BBFE00206C
:10857000FFF788FB041E04DB28681830FFF7E2FFD2
:10858000002401A8FFF7BCFE204603B030BD88429E
:10859000F8B506460C46154618D9904217D2A2F1F6
:1085A0000805A1F10807691A4418AF4220D02E1D12
:1085B00034B120462B6840F8043B3146FFF75EFF9C
:1085C0003046FFF762FF083D083CEEE710D0AC42B2
:1085D0000ED0271D36B13046236840F8043B39469B
:1085E000FFF74CFF3846FFF750FF08340836EEE738
:1085F000F8BD2DE9F041D0E900430546884604EB7B
:10860000C307A7421AD041462046FFF7D2FE0646CE
:1086100008B90834F5E79CB1201DFFF736FFD5E90E
:10862000003204F1080103EBC2022046FFF7AFFF5E
:108630006B68013B6B603046BDE8F0810026FAE7CD
:108640002646F8E7F7B5044651F8043B476800931F
:1086500001A8FFF713FFD4E901639E4212DB013644
:10866000002E2CDDF000FFF7D7FD054608B3D4E956
:10867000001201EBC202FFF78AFF2068FFF7D4FD6A
:108680002560A6602668626806EBC70506EBC20295
:10869000294605F10800FFF77AFF35B1009B46F83F
:1086A000373001A9281DFFF7E9FE636801336360D5
:1086B000012501A8FFF7E9FE284603B0F0BD00251B
:1086C000DBE700002DE9F04104468EB003A80D461B
:1086D000FFF708FE2368032B07D0042B48D003A81C
:1086E000FFF70EFE0EB0BDE8F08104A8FFF738FEDC
:1086F000049B22891A806268049952F8083FC1F8E5
:1087000002305368C1F8063007A8049B069305A9F8
:10871000FFF7B4FE06A905F11800FFF793FF044622
:1087200007A8FFF7B2FE202306938CB9334B3449D8
:1087300000933220234606AA0794FFF797FC049B78
:1087400021461888FFF7A6FA05A8FFF79EFEC6E7A0
:108750002C4A009200232A49079306AA0120FFF71A
:1087600085FC6B6A002BEFD0E96A04A89847EBE719
:1087700021892846FFF7E3FD06460028AFD00468AC
:10878000D4E906314FF6FF72228003EBC101994212
:1087900003D053F8080B4280F9E7D4E9037307EBE1
:1087A000C308B84504D0381DFFF76FFE0837F8E757
:1087B00000232361D4E9067307EBC308B84504D04E
:1087C000381DFFF762FE0837F8E70023E361638195
:1087D000AB6A13B1296B3046984700232022CDE9BC
:1087E0000623094A0092064906AA0120FFF73EFC2B
:1087F000314605F11800FFF7FCFE70E75FCE0D0073
:1088000038CE0D0085CE0D00A2CE0D00024800230B
:108810000360FFF753BA00BF80E503201FB50C23A8
:10882000ADF8043003688DF80630037A8DF8073010
:10883000436802930021437AADF80D1001A88DF82A
:108840000F108DF80C30FFF77FFC05B05DF804FBCE
:10885000002240681146FFF7B7BC0022406811466D
:10886000FFF7C2BC40680022FFF7B6BC4068002298
:1088700081F00101FFF7A0BC002340681A461946A9
:10888000FFF792BC002340681A461946FFF784BCE4
:10889000002240681146FFF777BC0022406811466D
:1088A000FFF762BC406800220221FFF765BC00238D
:1088B00040681A46FFF750BC024B03225A60024A36
:1088C0001A60704788E50320F0CE0D007047F8B5B8
:1088D000064615460C468F18BC4206D0336814F87D
:1088E000011B9B6830469847F6E72846F8BD007C98
:1088F0000022FFF773BA007C0021FFF777BA007CF3
:108900000021FFF77BBA007C0021FFF77FBA007CD3
:108910000021FFF783BA10B51421044602F0ECFAE7
:10892000204610BD10B54FF47A7304460846002166
:10893000C4E90113034B236020741146FFF77EFA4C
:10894000204610BD2CCF0D000023007C1A4619468E
:10895000FFF72CBA7FB500221423CDE90122ADF830
:1089600004300B788DF808304B680393CB68049380
:10897000007C0B7A059301A9FFF768FA07B05DF850
:1089800004FB1FB5003B8DF800104FF0640103910C
:1089900018BF0123694601928DF80830FFF7DAFF0E
:1089A00005B05DF804FB0123FFF7EBBF007C00225C
:1089B000FFF704BAC9B2FFF7F9BF007C0022FFF746
:1089C00005BA0121FFF7F9BF004700002DE9FF417B
:1089D00000241D460F4690460646FFF7D7F9A542EC
:1089E0004FF00403ADF80D408DF80C308DF80F40BA
:1089F000A2BF9DF828308DF80E3003AC07490094D3
:108A000043463A463046A8BF8DF80D50FFF7B6F9F9
:108A1000B0FA80F0400904B0BDE8F081C9890D00CA
:108A2000704710B51821044602F066FA204610BDC2
:108A3000F0B5037D062B8DB00E4600F104074FF014
:108A4000000412D000F1080515F8011D0A22304675
:108A500001F0D9FAAF42044419D0002CF4D02E21F1
:108A6000304601F0B5FA0444EEE72F236A46394652
:108A70000A208DF80040FFF7F1F9684603F067FE21
:108A800033680246DB68694630469847044620460C
:108A90000DB0F0BD10B5054B0446112240F8043B63
:108AA000002103F0CBFD204610BD00BF54CF0D00C8
:108AB0000346074A10B543F8042B01F1100251F8A0
:108AC000044B43F8044B9142F9D10A781A7010BD57
:108AD00054CF0D0010B59DF8084044EA032343EA43
:108AE000024242EA016104234160037510BD13B5DF
:108AF000CB7800938B784A780978FFF7EBFF02B0C8
:108B000010BD00F11003012213F8101C01291846B2
:108B100008D153F8041C02EB4102013A03F110039F
:108B2000F2D17047022904BF53F8041C5218F4E72D
:108B30000EB4F0B588B000AF07F13405102155F838
:108B4000042B7A6004462B467818FD60FFF784FBFF
:108B50000F287A681AD900F1080323F007036E463C
:108B6000ADEB030D411C2B466846FD60FFF774FB1F
:108B7000021E04DD236869469B6820469847B54677
:108B80002037BD46BDE8F04003B070470028F7D05D
:108B9000236802469B6807F1100120469847EFE7DB
:108BA00010B5036804469B689847A368013BA3601F
:108BB0002BB923682046DB68BDE81040184710BD7C
:108BC00007B503688DF807109B6801220DF10701B6
:108BD000984703B05DF804FB38B50B6803604D6837
:108BE00043689D4204460CD015B16B6801336B603D
:108BF000606828B14368013B43600BB9FFF7D0FFC1
:108C00006560204638BD0B461146002210B5C0E90C
:108C10000022044683600BB9204610BDFFF7DCFF3D
:108C2000FAE78368EBB11A78032A1AD8DFE802F072
:108C30000417021B0520704702685B685268D05C0D
:108C40002D2812D0A0F13003092B0ED974280ED094
:108C500066280CD0A0F16E03584258417047062098
:108C6000704700207047042070470320704702209F
:108C7000704710B50446FFF7D4FF02280ED0C31E7C
:108C8000DBB2012B14D82268A36850685B68BDE88A
:108C900010400A220021184403F014BE2268A36881
:108CA00052685B68D05CA0F174035842584110BD13
:108CB0000020FCE738B50023C0E9003304460E4825
:108CC000C4E90203A9B10B78032B06D08BB9136852
:108CD00058684B68C35C6E2B07D013684D685868A2
:108CE0008B6828445B1BA060E36011462046FFF7B9
:108CF00073FF204638BD00BF57CB0D0038B50025A7
:108D00000B46C0E90055C0E90255C0E904550446C8
:108D100011464BB11A78012A06D103F11002DB6823
:108D200082604361FFF758FF204638BD10B54369A4
:108D3000044663B18068E060013B1030A0602061B0
:108D4000636113B1FFF7DDFEA060012000E018466B
:108D500010BD10B57D210446FFF732FF01232371BA
:108D6000204610BD08B50379012B02D0022B04D098
:108D700008BD2C21FFF724FFFAE73A21FAE710B5E6
:108D80000446FFF7EFFF20467B21FFF719FF002382
:108D90002371204610BD000013B504460191FFF772
:108DA000E1FF2368019ADB680349204698470123C5
:108DB0002046237102B010BD5FCC0D0013B50446F0
:108DC0000191FFF7CFFF2368019ADB680349204632
:108DD000984701232046237102B010BD60CF0D00DB
:108DE0002DE9F0410D4617462221DFF8A080044608
:108DF0002F44FFF7E5FE2946BD422A4638D015F834
:108E0000016B222E03D05C2E01D01F2EF4D82368D4
:108E1000521A9B68204698475C212046FFF7D0FEF7
:108E20000D2E0AD8072E1CD9A6F10803052B18D839
:108E3000DFE803F00D0F11171315222E01D05C2E61
:108E40000FD131462046FFF7BBFE2946D4E7622109
:108E5000F8E77421F6E76E21F4E76621F2E7722164
:108E6000F0E723683246DB68414620469847ECE746
:108E70008D4204D023686A1A9B68204698472221B5
:108E80002046FFF79DFEBDE8F08100BF63CF0D00D7
:108E900013B50446CDE90021FFF764FF2046DDE964
:108EA0000021FFF79DFF02232046237102B010BD71
:108EB00013B50446CDE90021FFF754FF2046DDE954
:108EC0000021FFF78DFF01232046237102B010BD62
:108ED00080680368DB6818477047084611B10B6863
:108EE0005B6818477047704770477047704738B5E0
:108EF00004460D4600682E2103F00DFC2368C31ABA
:108F00002B6023B1037803B1013023682060184639
:108F100038BD10B50C21044601F0EEFF204610BD0F
:108F200010B50421044601F0E7FF204610BD10B53E
:108F30000421044601F0E0FF204610BD08B503F00F
:108F4000F4FBB0FA80F0400908BD704710B50C463C
:108F500001F0DAFD844210D001F04AFD844205D1CF
:108F600001F046FDBDE8104001F03FBD2CB1236883
:108F700020465B68BDE81040184710BD13B5044695
:108F80000846019103F0E3FB01990246204602B036
:108F9000BDE81040FFF78CBF13B5044608460191A9
:108FA00003F0D5FB23680199DB680246204602B036
:108FB000BDE81040184707B503688DF80710DB6857
:108FC00001220DF10701984703B05DF804FB0EB4D0
:108FD00003B503AB002153F8042B006A019301F0A1
:108FE00022F902B05DF804EB03B070472DE9F74FAA
:108FF000D0E900954FF0140808FB05F50093AB107D
:10900000184D17465D434C46002D23DD6E1008FBBE
:1090100006F004EB000A3A46BAF804B02058019171
:109020005F4528BF5A4603F09AFB0199012378B99E
:109030005F4503D1009A13703546E5E78CBF0120E8
:1090400000200028F8D0AE1B0AF11404013EF3E71B
:10905000C00FF6E7A4EB09040248A410604303B074
:10906000BDE8F08FCDCCCCCC7FB50369067E0191F5
:109070000BB301B3002500F10C04039503A901A86B
:10908000FFF735FF0146B0B10DF10B03039A8DF8E0
:109090000B502046FFF7AAFF9DF80B305BB1246808
:1090A000142303FB004000F10804B0F90630002B44
:1090B000A8BFDEB2E2E7304604B070BD10B5094C7F
:1090C0002378BFF35B8FDB0709D42046FAF7F4FF60
:1090D00028B12046FAF7F5FF034803F073FA034876
:1090E00010BD00BF94E50320E78E0D00CCDA03200D
:1090F00010B5094C2378BFF35B8FDB0709D42046FA
:10910000FAF7DAFF28B12046FAF7DBFF034803F04D
:1091100059FA034810BD00BF98E503204B8F0D009E
:10912000D0DA032038B500250446C0E90055C0E96F
:1091300004558560856140F8245FFEF7BFFDFFF7A9
:10914000BDFFE061FFF7D4FF25732062204638BDE4
:1091500010B50A4C2378BFF35B8FDB070CD4204695
:10916000FAF7AAFF40B10648FFF7DCFF2046FAF7FE
:10917000A8FF044803F026FA014810BD90E503203B
:10918000A0E5032031960D00024A0349034800235D
:10919000FEF784BFB9940D0045940D00C5930D00F2
:1091A00000231A4619461846FEF778BF37B50D69F1
:1091B00051F8043B0093044601A8FFF75FF96A46A3
:1091C00029462046FFF71FFD01A8FFF75EF920465C
:1091D00003B030BD37B58D6851F8043B00930446A9
:1091E00001A8FFF74BF96A4629462046FFF786FD9E
:1091F00001A8FFF74AF9204603B030BD37B5CD6866
:1092000051F8043B0093044601A8FFF737F96A467A
:1092100029462046FFF74EFD01A8FFF736F9204604
:1092200003B030BD70B58AB00D46014604A8FFF703
:10923000D1FF144E04A8FFF779FDE8B104A96846F0
:10924000FFF7DCFF02983146FFF778FE044610B1C5
:109250002C1E18BF012401A8FFF717F9002CE9D034
:1092600004A96846FFF7A2FF6846FFF702FD2860E1
:1092700001A8FFF70AF9DDE705A8FFF706F90AB02C
:1092800070BD00BF69CF0D0037B50C4620461249AE
:10929000154603F04AFA48B901F036FC4FF416516E
:1092A00001F01EFC01F030FC03B030BD0B4920463C
:1092B00003F03BFA70B94FF4165301A92846019305
:1092C000FFF7B0FF01F094FB019901F08BFB01F077
:1092D0008FFBE9E70020E7E76ECF0D0075CF0D00AB
:1092E00070B5D0E900531426044606FB0356AE427F
:1092F00005D005F10800FFF7F3FF1435F7E7206804
:10930000FEF792FF204670BD70B5D0E900530446C9
:1093100005EB0316AE4204D0284601F0E9F81035FB
:10932000F8E72068FEF780FF204670BD10B50446C0
:109330000C30FFF7D5FF2046FFF7E6FF204610BDB3
:1093400010B5044B044640F8043BFFF7EFFF2046FE
:1093500010BD00BF04CE0D0010B50446FFF7F0FFAE
:109360002046242101F0C8FD204610BD10B5034B56
:1093700003600446FFF7E4FF204610BD10D00D0047
:1093800010B50446FFF7F2FF2046242101F0B4FD9A
:10939000204610BD0022C0E9002210B582600C6892
:1093A00004604C6844608C680A604A6084608A602B
:1093B00010BD10B5036804461868FEF797FC2046F8
:1093C00010BD00002DE9F04F87B0804603931C4B81
:1093D0005B68C3F30803894616466BB9FFF7B8FE0E
:1093E000044600F12403406A0593FEF777FC237BD3
:1093F0002BB105A8FFF7DDFF07B0BDE8F08F012313
:109400002373D4E900535FFA89F905EB830AAA456F
:1094100012D055F8047B3146381DFFF725FE8145F3
:10942000F5D33B68039A0092D3F808B04A46334616
:1094300041463846D847EAE700232373D9E700BFFF
:1094400000ED00E02DE9F74F9B461A4B5B68C3F334
:1094500008038046894616466BB9FFF779FE044635
:1094600000F12403406A0193FEF738FC237B2BB103
:1094700001A8FFF79EFF03B0BDE8F08F012323731F
:10948000D4E90053F6B205EB830A55450ED055F8E2
:10949000047B5946381DFFF7E7FD8642F5D33B684C
:1094A0004A46DB68414638469847EEE70023237377
:1094B000DEE700BF00ED00E02DE9F341164B5B68ED
:1094C000C3F3080305460F461BBBFFF741FE00F13F
:1094D00024030446406A0193FEF700FCD4E90063CC
:1094E000462406EB8308B04509D101A8FFF761FFC8
:1094F000A542B4BF0020012002B0BDE8F08156F8BB
:10950000040B39460430FFF7AFFD8442A8BF044680
:10951000E9E70020F0E700BF00ED00E070B5044689
:10952000D0E900020B4600EB8202824207D00146DE
:109530001D6851F8046BAE4203D00846F5E70020E1
:1095400070BD521A03F060F86368013B636001204C
:10955000F6E71FB500F124030446406A0191039326
:10956000FEF7BCFB01A92046FFF7D8FF18B16368DE
:109570000BB9FFF715FE03A8FFF71BFF04B010BDE2
:1095800070B5D0E904561823044603FB0656AE42D4
:1095900015D005F110012046FFF7C0FF63680BB935
:1095A000FFF7FEFDE06929690368DB689847696990
:1095B00019B1206A0368DB6898471835E7E7D4E9F2
:1095C0000453182606FB0356AE4204D0284600F08A
:1095D0008FFF1835F8E70023636170BD73B504464B
:1095E000FFF7DEFD04F12403606A0193FEF776FBCA
:1095F0002046FFF7C5FF01A8FFF7DBFE606A08B150
:10960000FEF764FBD4E90453182606FB0356AE426A
:1096100004D0284600F06CFF1835F8E72069FEF703
:1096200003FE2068FEF700FE204602B070BD000079
:109630000148FFF7D3BF00BFA0E503208842F8B57B
:1096400006460C46154627D9904226D2A2F11405AB
:109650006C1AA1F1140704440026AF423DD0A4B116
:109660002B682360AB88A380B5F90630E380C4E99A
:1096700002662661AB68A360AE60E368EA68E260F8
:10968000EB6023692A6922612B6105F10800FFF76D
:1096900027FE143D143CE0E71FD00027AC421CD04D
:1096A000A6B123683360A388B380B4F90630F38091
:1096B000C6E902773761A368B360A760F368E26820
:1096C000F260E360336922693261236104F10800CA
:1096D000FFF706FE14341436E0E7F8BDF8B5D0E91C
:1096E00001539D4204460E4617460DDB0135002D01
:1096F000006804DDA900FEF79FFD18B9F8BDFEF76C
:1097000093FD00202060A5602568626805EB860156
:109710009200A2EB8602081D02F076FF45F8267043
:109720006368013363600120E8E737B500F1240383
:109730000446406A01930D46FEF7D0FAD4E90031A1
:1097400003EB810083421A460BD01268AA4203F150
:109750000403F7D101A8FFF72CFE0025284603B02B
:1097600030BD2A462046FFF7B9FF05460028F1D054
:109770006368012B01D1FFF707FD01A8FFF719FE70
:10978000ECE78842F8B504460D46164614D99042D7
:1097900013D2A2F11006751AA1F110072C44B7429A
:1097A00018D01CB13146204600F01EFF304600F0B4
:1097B0009FFE103E103CF2E70CD0B5420AD01CB11F
:1097C0002946204600F010FF284600F091FE103593
:1097D0001034F2E7F8BD70B50E1E054611DD3001FC
:1097E000FEF71AFD044658B1D5E9001201EB02124A
:1097F000FFF7C7FF2868FEF717FD2C60AE60012059
:1098000070BD0024F6E72DE9F04F914697B0002394
:109810000391D9F804100C9346229942C0E9003311
:10982000C0E90233C0E90433CDE90A3304460276C5
:1098300023DCD9E90057142303FB0757AF423BD081
:1098400029460DA800F0D0FE0DA911A80B9E00F02E
:10985000CBFEDDE90B1399421BDA0A9B0B9A03EB53
:10986000061603EB0212314606F11000FFF789FFDE
:10987000EEB90B9B01330B9311E00AA8FFF7ABFF86
:109880000028D6D10AA8FFF73FFD204617B0BDE853
:10989000F08F01310AA8FFF79EFF0028DDD111A843
:1098A00000F026FE0DA800F023FE1435C6E711A92E
:1098B000304600F099FEDCE70026CDE90D660F96F4
:1098C00037464FF0140ADDE90A239E4280F2978062
:1098D0003301D35808930BB90136F4E70AFB06F3BA
:1098E000099702930DAD09A908A8FFF700FB83466D
:1098F0000028F1D00146099A8DF81F700DF11F0361
:109900002846FFF773FB9DF81F800190B8F1000F08
:1099100066D1BDF82430ADF84830CDE913884FF654
:10992000FF73CDF844B0ADF84A30CDF85480D5E996
:10993000013293421ADB03F1010BBBF1000F4ADD48
:109940000AFB0BF0FEF768FC0490002845D0D5E92F
:1099500000120AFB0212FFF771FE049B28680493B1
:10996000FEF762FC049B2B60C5F808B0019BD5F89C
:1099700000B06A680AFB03F30BEB030101F114006A
:109980000AFB02B204910593FFF758FE0499A9B1AE
:10999000059B119A4BF80320BDF848308B80BDF928
:1099A0004A30CB80C1E902770F61139B8B60149B17
:1099B0001397CB60159B14970B6115976B68013358
:1099C0006B6013A8FFF78CFCB8F1000F08D00DA84E
:1099D000FFF786FC56E74346C0E74FF00108F0E783
:1099E000019B2D680AFB0355089B1B782BB9D9F8FE
:1099F0000030029A13441B7CEB80083573E7216822
:109A0000226062686360A3680B920C9A0C93E3680F
:109A1000A2600D9A0D932369E2600E9A0E9363691A
:109A200022610F9A0F93039B0A9162612376CEE71E
:109A30007FB50546094B45F8043B04460E4601A890
:109A40001146FBF728FE01AA31462846FFF7DBFE48
:109A500001A8FBF7DFFD204604B070BD04CE0D0069
:109A6000F0B50F4687B026490C9C384616461D4671
:109A700002F05BFE00BBE4B129466846FFF78AFCB2
:109A80002049242001F03AFA054670B1694603A83E
:109A9000FBF701FE03AA31462846FFF7C9FF03A8DA
:109AA000FBF7B8FD184B2C622B606846FBF7B2FD44
:109AB0002C46204607B0F0BD1449384602F035FE6A
:109AC000E0B9002CF5D029466846FFF763FC0D4944
:109AD000242001F013FA05460028E6D0694603A8C1
