:020000023000CC
:1000000000F003202102030065020300E1760300F3
:10001000690203008D770300D17703000000000020
:100020000000000000000000000000001958080057
:1000300071020300000000003958080051590800FF
:1000400019CE070077020300512808002127080075
:100050006D2708003DC7070065C3070019E00700CA
:10006000C5F70700D9F70700EDF70700770203008F
:1000700077020300CDDE070077020300770203005A
:100080004526080009DF0700D9D407000528080025
:10009000DDF50700E3F507004539080077020300A6
:1000A000770203007702030001F8070015F8070044
:1000B00099D4070035C907000000000000000000C7
:1000C00077020300A9D40700B9D40700B9270800B4
:1000D000B5B804000DC507007702030059210800D8
:1000E00085C6040069DC0700A98109000000000042
:1000F00000000000C9D407000000000031EA07003A
:1001000000000000000000000000000000000000EF
:1001100000000000000000000000000000000000DF
:1001200000000000000000000000000000000000CF
:1001300000000000000000000000000000000000BF
:1001400000000000000000000000000000000000AF
:10015000000000000000000000000000000000009F
:10016000000000000000000000000000000000008F
:10017000000000000000000000000000000000007F
:10018000000000000000000000000000000000006F
:10019000000000000000000000000000000000005F
:1001A000000000000000000000000000000000004F
:1001B000000000000000000000000000000000003F
:1001C000000000000000000000000000000000002F
:1001D000000000000000000000000000000000001F
:1001E000000000000000000000000000000000000F
:1001F00000000000000000000000000000000000FF
:100200000000030084120B00000099080C0003009A
:080210000000000000000000E6
:100220000C490D4A0D4B9B1A03DD043BC858D050B6
:10023000FBDC0A490A4A0020521A02DD043A8850BF
:10024000FCDC52F0ADFB07F069FB16F07BFA07F01F
:100250001DFD000058080B00005E0020D86600203D
:10026000AC880120FEE7FEE7FEE7FEE7FEE7FEE7DB
:10027000FEE7FEE7FEE7FEE781F0004102E000BF97
:1002800083F0004330B54FEA41044FEA430594EA56
:10029000050F08BF90EA020F1FBF54EA000C55EA91
:1002A000020C7FEA645C7FEA655C00F0E2804FEA62
:1002B0005454D4EB5555B8BF6D420CDD2C4480EA44
:1002C000020281EA030382EA000083EA010180EA74
:1002D000020281EA0303362D88BF30BD11F0004FC2
:1002E0004FEA01314FF4801C4CEA113102D04042F8
:1002F00061EB410113F0004F4FEA03334CEA133333
:1003000002D0524263EB430394EA050F00F0A7804A
:10031000A4F10104D5F1200E0DDB02FA0EFC22FA45
:1003200005F2801841F1000103FA0EF2801843FA39
:1003300005F359410EE0A5F120050EF1200E012A2A
:1003400003FA0EFC28BF4CF0020C43FA05F3C01868
:1003500051EBE37101F0004507D54FF0000EDCF1E1
:10036000000C7EEB00006EEB0101B1F5801F1BD38A
:10037000B1F5001F0CD349085FEA30004FEA3C0C8E
:1003800004F101044FEA445212F5800F80F09A8084
:10039000BCF1004F08BF5FEA500C50F1000041EB88
:1003A000045141EA050130BD5FEA4C0C404141EB8C
:1003B0000101013C28BFB1F5801FE9D291F0000F87
:1003C00004BF01460020B1FA81F308BF2033A3F136
:1003D0000B03B3F120020CDA0C3208DD02F1140C2D
:1003E000C2F10C0201FA0CF021FA02F10CE002F168
:1003F0001402D8BFC2F1200C01FA02F120FA0CFC61
:10040000DCBF41EA0C019040E41AA2BF01EB0451A9
:10041000294330BD6FEA04041F3C1CDA0C340EDCA7
:1004200004F11404C4F1200220FA04F001FA02F3EA
:1004300040EA030021FA04F345EA030130BDC4F1A8
:100440000C04C4F1200220FA02F001FA04F340EA9D
:100450000300294630BD21FA04F0294630BD94F04E
:10046000000F83F4801306BF81F480110134013D35
:100470004EE77FEA645C18BF7FEA655C29D094EAA6
:10048000050F08BF90EA020F05D054EA000C04BF24
:100490001946104630BD91EA030F1EBF002100200F
:1004A00030BD5FEA545C05D14000494128BF41F0AE
:1004B000004130BD14F580043CBF01F5801130BD12
:1004C00001F0004545F0FE4141F470014FF000009D
:1004D00030BD7FEA645C1ABF194610467FEA655C4E
:1004E0001CBF0B46024650EA013406BF52EA0335F0
:1004F00091EA030F41F4002130BD00BF90F0000FDE
:1005000004BF0021704730B54FF4806404F1320419
:100510004FF000054FF0000150E700BF90F0000FD2
:1005200004BF0021704730B54FF4806404F13204F9
:1005300010F0004548BF40424FF000013EE700BFC9
:1005400042004FEAE2014FEA31014FEA02701FBF59
:1005500012F07F4393F07F4F81F06051704732F08B
:100560007F4208BF704793F07F4F04BF41F40021E2
:10057000704730B54FF4607401F0004521F0004140
:100580001CE700BF50EA010208BF704730B54FF0CA
:1005900000050AE050EA010208BF704730B511F0CB
:1005A000004502D5404261EB41014FF4806404F103
:1005B00032045FEA915C3FF4D8AE4FF003025FEA89
:1005C000DC0C18BF03325FEADC0C18BF033202EB0D
:1005D000DC02C2F1200300FA03FC20FA02F001FA67
:1005E00003FE40EA0E0021FA02F11444BDE600BF0A
:1005F00070B54FF0FF0C4CF4E06C1CEA11541DBFB9
:100600001CEA135594EA0C0F95EA0C0F00F0DEF883
:100610002C4481EA030621EA4C5123EA4C5350EA68
:10062000013518BF52EA033541F4801143F48013B9
:1006300038D0A0FB02CE4FF00005E1FB02E506F04A
:100640000042E0FB03E54FF00006E1FB03569CF09F
:10065000000F18BF4EF0010EA4F1FF04B6F5007FA5
:1006600064F5407404D25FEA4E0E6D4146EB060617
:1006700042EAC62141EA55514FEAC52040EA5E50A0
:100680004FEACE2EB4F1FD0C88BFBCF5E06F1ED84A
:10069000BEF1004F08BF5FEA500E50F1000041EB81
:1006A000045170BD06F0004646EA010140EA02002E
:1006B00081EA0301B4EB5C04C2BFD4EB0C0541EA50
:1006C000045170BD41F480114FF0000E013C00F365
:1006D000AB8014F1360FDEBF002001F0004170BD89
:1006E000C4F10004203C35DA0C341BDC04F11404A2
:1006F000C4F1200500FA05F320FA04F001FA05F22E
:1007000040EA020001F0004221F0004110EBD370FA
:1007100021FA04F642EB06015EEA430E08BF20EA26
:10072000D37070BDC4F10C04C4F1200500FA04F3C9
:1007300020FA05F001FA04F240EA020001F000415B
:1007400010EBD37041F100015EEA430E08BF20EACE
:10075000D37070BDC4F1200500FA05F24EEA020E16
:1007600020FA04F301FA05F243EA020321FA04F045
:1007700001F0004121FA04F220EA020000EBD370FC
:100780005EEA430E08BF20EAD37070BD94F0000FFC
:100790000FD101F00046400041EB010111F4801F30
:1007A00008BF013CF7D041EA060195F0000F18BFE1
:1007B000704703F00046520043EB030313F4801F1D
:1007C00008BF013DF7D043EA0603704794EA0C0FD7
:1007D0000CEA135518BF95EA0C0F0CD050EA4106ED
:1007E00018BF52EA4306D1D181EA030101F000416A
:1007F0004FF0000070BD50EA410606BF1046194692
:1008000052EA430619D094EA0C0F02D150EA01369D
:1008100013D195EA0C0F05D152EA03361CBF1046DE
:1008200019460AD181EA030101F0004141F0FE417D
:1008300041F470014FF0000070BD41F0FE4141F401
:10084000780170BD70B54FF0FF0C4CF4E06C1CEA01
:1008500011541DBF1CEA135594EA0C0F95EA0C0FB6
:1008600000F0A7F8A4EB050481EA030E52EA033571
:100870004FEA013100F088804FEA03334FF0805592
:1008800045EA131343EA12634FEA022245EA1115BF
:1008900045EA10654FEA00260EF000419D4208BF70
:1008A000964244F1FD0404F5407402D25B084FEA1D
:1008B0003202B61A65EB03055B084FEA32024FF4C9
:1008C00080104FF4002CB6EB020E75EB030E22BF26
:1008D000B61A754640EA0C005B084FEA3202B6EBE6
:1008E000020E75EB030E22BFB61A754640EA5C0095
:1008F0005B084FEA3202B6EB020E75EB030E22BF25
:10090000B61A754640EA9C005B084FEA3202B6EB25
:10091000020E75EB030E22BFB61A754640EADC00E4
:1009200055EA060E18D04FEA051545EA16754FEA46
:1009300006164FEAC30343EA52734FEAC2025FEA64
:100940001C1CC0D111F4801F0BD141EA00014FF0F3
:1009500000004FF0004CB6E711F4801F04BF0143C4
:100960000020B4F1FD0C88BFBCF5E06F3FF6AFAEE0
:10097000B5EB030C04BFB6EB020C5FEA500C50F170
:10098000000041EB045170BD0EF0004E4EEA1131F3
:1009900014EB5C04C2BFD4EB0C0541EA045170BDFA
:1009A00041F480114FF0000E013C90E645EA060E3E
:1009B0008DE60CEA135594EA0C0F08BF95EA0C0F6C
:1009C0003FF43BAF94EA0C0F0AD150EA01347FF4B4
:1009D00034AF95EA0C0F7FF425AF104619462CE78B
:1009E00095EA0C0F06D152EA03353FF4FDAE1046EE
:1009F000194622E750EA410618BF52EA43067FF43F
:100A0000C5AE50EA41047FF40DAF52EA43057FF4CE
:100A1000EBAE12E74FF0FF3C06E000BF4FF0010CD9
:100A200002E000BF4FF0010C4DF804CD4FEA410C3D
:100A30007FEA6C5C4FEA430C18BF7FEA6C5C1BD00A
:100A400001B050EA410C0CBF52EA430C91EA030F8B
:100A500002BF90EA020F0020704710F1000F91EAE8
:100A6000030F58BF994208BF90422CBFD8176FEAB6
:100A7000E37040F0010070474FEA410C7FEA6C5C84
:100A800002D150EA013C07D14FEA430C7FEA6C5C8B
:100A9000D6D152EA033CD3D05DF8040B704700BFB7
:100AA0008446104662468C461946634600E000BF05
:100AB00001B5FFF7B7FF002848BF10F1000F01BDD7
:100AC0004DF808EDFFF7F4FF0CBF012000205DF8A2
:100AD00008FB00BF4DF808EDFFF7EAFF34BF012027
:100AE00000205DF808FB00BF4DF808EDFFF7E0FFC0
:100AF00094BF012000205DF808FB00BF4DF808ED11
:100B0000FFF7CEFF94BF012000205DF808FB00BF77
:100B10004DF808EDFFF7C4FF34BF012000205DF859
:100B200008FB00BF4FEA410C7FEA6C5C02D150EA3F
:100B3000013C0AD14FEA430C7FEA6C5C02D152EAD5
:100B4000033C02D14FF0000070474FF001007047A6
:100B50004FEA410212F5001215D211D56FF47873E5
:100B6000B3EB625212D94FEAC12343F0004343EA88
:100B7000505311F0004F23FA02F018BF4042704763
:100B80004FF00000704750EA013005D111F00040ED
:100B900008BF6FF0004070474FF00000704700BF83
:100BA0004A0011D212F5001211D20DD56FF47873EC
:100BB000B3EB62520ED44FEAC12343F0004343EA41
:100BC000505323FA02F070474FF00000704750EA8C
:100BD000013002D14FF0FF3070474FF000007047F6
:100BE0004FEA4102B2F1E04324BFB3F5001CDCF14F
:100BF000FE5C0DD901F0004C4FEAC0024CEA507087
:100C0000B2F1004F40EB830008BF20F001007047B5
:100C100011F0804F21D113F13872BCBF01F00040B8
:100C2000704741F480114FEA5252C2F11802C2F1EA
:100C3000200C10FA0CF320FA02F018BF40F001006B
:100C40004FEAC1234FEAD32303FA0CFC40EA0C001D
:100C500023FA02F34FEA4303CCE77FEA625307D15A
:100C600050EA01331EBF4FF0FE4040F44000704791
:100C700001F0004040F0FE4040F40000704700BF2B
:100C80007BB972B90029BEBF00204FF0004106E0D9
:100C900008BF00281CBF6FF000414FF0FF3000F08C
:100CA000EBB9ADF1080C6DE904CE002909DB002B8E
:100CB0001ADB00F07FF8DDF804E0DDE9022304B080
:100CC0007047404261EB4101002B1BDB00F072F8E2
:100CD000DDF804E0DDE9022304B0404261EB4101AC
:100CE000524263EB43037047524263EB430300F00D
:100CF00061F8DDF804E0DDE9022304B0404261EB75
:100D000041017047524263EB430300F053F8DDF8B2
:100D100004E0DDE9022304B0524263EB4303704771
:100D200053B94AB9002908BF00281CBF4FF0FF3152
:100D30004FF0FF3000F0A0B9ADF1080C6DE904CE22
:100D400000F038F8DDF804E0DDE9022304B0704774
:100D5000430803F05533C01A830803F0333300F01F
:100D60003330184400EB101000F00F3000EB00207F
:100D700000EB0040000E7047D0B50C4B0022064639
:100D80000F46FFF735FCFFF70BFF0446FFF7B6FBF6
:100D9000074B0022FFF72CFC02460B463046394633
:100DA000FFF76EFAFFF7FCFE2146D0BD0000F03DD4
:100DB0000000F0412DE9F047089D04468C46002BC9
:100DC00040F083808A42174647D9B2FA82F242B194
:100DD000C2F1200024FA00F09140974040EA010C53
:100DE00094404FEA1748230CBCFBF8F61FFA87FE25
:100DF00008FB16C143EA014306FB0EF1994209D9EB
:100E0000FB1806F1FF3080F01981994240F21681FB
:100E1000023E3B445B1AA4B2B3FBF8F008FB10336C
:100E200044EA034400FB0EFEA64509D93C1900F133
:100E3000FF3380F00581A64540F2028102383C4430
:100E400040EA0640A4EB0E0400261DB1D440002366
:100E5000C5E900433146BDE8F08702B9FFDEB2FACA
:100E600082F2002A50D1CB1B4FEA174E1FFA87F8A7
:100E70000126B3FBFEFC210C0EFB1C3341EA0341AF
:100E800008FB0CF38B4207D979180CF1FF3002D222
:100E90008B4200F2E9808446C91AA3B2B1FBFEF08E
:100EA0000EFB101143EA014408FB00F8A04507D9E6
:100EB0003C1900F1FF3302D2A04500F2D980184658
:100EC000A4EB080440EA0C40BFE78B4209D9002D8F
:100ED00000F0B1800026C5E9000130463146BDE88A
:100EE000F087B3FA83F6002E4AD18B4202D38242B6
:100EF00000F2B880841A61EB030101208C46002DBA
:100F0000A8D0C5E9004CA5E7C2F1200320FA03F6FA
:100F1000974001FA02F04FEA174ED9403043030CD4
:100F2000B1FBFEF61FFA87F80EFB161143EA0143E8
:100F300006FB08F1994204FA02F409D9FB1806F1FC
:100F4000FF3C80F08D80994240F28A80023E3B4413
:100F50005B1A81B2B3FBFEF00EFB103341EA034192
:100F600000FB08F38B4207D9791800F1FF3C73D2DC
:100F70008B4271D902383944CB1A40EA064678E7E9
:100F8000C6F1200C03FA06F422FA0CF31C4320FAF3
:100F90000CF701FA06F34FEA144E21FA0CF11F4345
:100FA0003B0CB1FBFEF91FFA84F80EFB191143EA62
:100FB000014109FB08FA8A4502FA06F200FA06F333
:100FC00008D9611809F1FF3048D28A4546D9A9F1FC
:100FD00002092144A1EB0A01BFB2B1FBFEF00EFBF6
:100FE000101147EA014700FB08F8B84507D9E7198F
:100FF00000F1FF312ED2B8452CD90238274440EAFF
:101000000940A7EB0807A0FB02894F45C6464946A1
:101010001AD317D05DB1B3EB0E0267EB010707FAE5
:101020000CFCF2404CEA0202F740C5E9002700261A
:101030003146BDE8F0872E4628460BE70646E9E62E
:101040001846FDE64345E5D2B8EB020E69EB040114
:101050000138DFE70846D2E760468DE78146B9E709
:10106000664675E730464AE7ACF1020C394413E7AF
:1010700002383C4424E700BF704700BF0000000076
:1010800001F0FF01102A2BDB10F0070F08D010F839
:10109000013B013A8B422DD010F0070F42B3F6D13D
:1010A000F0B441EA012141EA014122F007047FF056
:1010B00000070023F0E80256083C85EA010586EAAD
:1010C000010685FA47F5A3FA87F586FA47F6A5FAE9
:1010D00087F68EB9EED1F0BC01F0FF0102F00702F5
:1010E00032B110F8013B013A83EA010313B1F8D1A0
:1010F0000020704701387047002D06BF3546033881
:10110000073815F0010F07D1013015F4807F02BFB9
:10111000013015F4C03F0130F0BC0138704700BF0A
:1011200010F8012B11F8013B012A28BF9A42F7D091
:10113000D01A7047034613F8012B002AFBD1181A66
:101140000138704700B1807B704708B1C07B7047A1
:10115000FF20704708B1408970474FF6FF70704715
:1011600008B1808970474FF6FF7070474268006889
:10117000101A704700B50D4B5B68C3F308038BB0C2
:1011800083B100212023CDE90231094B009302AA4B
:101190000B463C202DF076FF064A00210E202DF054
:1011A0005FFAFEE70BB05DF804FB00BF00ED00E066
:1011B00000EF0900556D040007B50191FFF7DAFF54
:1011C000019803B05DF804EB0AF0B8BF07B50191D0
:1011D000FFF7D0FF019803B05DF804EB0AF090BE72
:1011E00038B502FB01F5FFF7C5FF28460AF0A6FF58
:1011F000044618B12A46002169F008FB204638BD94
:1012000070B515460C46FFF7B5FF2DB920460AF01C
:1012100077FE2E46304670BD28460AF08FFF064600
:101220000028F7D0002CF5D02A46214669F0C6FAEE
:1012300020460AF065FEEDE7F8B50D460646FFF7D5
:1012400099FF284606F0A6FC0AF0F4FE0C4C20603C
:101250000AF0E4FE27682062381AE0610AF0E4FE32
:10126000381A6061284606F0C3FC0FCC35460FC51E
:101270000FCC0FC594E8030085E803003046F8BDA5
:10128000D86600207047037C13F008031EBFC36AB2
:10129000406A1B1A002BACBF18466FF00040704725
:1012A00030B5124D2C68D4F804355B0103F4FF52BD
:1012B00094F808351343B4F80025A2F2BC7243EA4F
:1012C000422303802868D0F80C35D0F81025DB02C3
:1012D000520102F4FF5203F4FF231343D0F8142504
:1012E000C2F3460213430B8030BD00BF0C670020E1
:1012F000704710B51021044667F0BEFE204610BDB1
:1013000010B53421044667F0B7FE204610BD1030FA
:1013100002F0C4BA07B501220DF10701103001F047
:10132000BDFF01280CBF9DF807004FF0FF3003B050
:101330005DF804FB103002F041B9103002F05CB8E7
:1013400007B501228DF8071010300DF1070102F0EA
:10135000A5FA03B05DF804FB0EB403B503AB00219E
:1013600053F8042B019305F06AF902B05DF804EB21
:1013700003B0704773B5044608462279A36832B1BA
:10138000A3B90B4902B0BDE8704005F02AB8094A7C
:10139000267B094D0949647B012E18BF2946CDE9FA
:1013A00000140749FFF7D8FF02B070BD054AEFE708
:1013B00028EF09002FD20A0024EF090020EF0900CE
:1013C0003EEF090017EF09000368C9B29B68184790
:1013D0000EB410B58DB00FAA016852F8044B0392F9
:1013E00000232020CDE90403CDE900421E2004AAF9
:1013F0002DF014FE0DB0BDE8104003B070470EB4E0
:1014000010B58DB00FAA016852F8044B0392002367
:101410002020CDE90403CDE90042282004AA2DF0C4
:10142000FDFD0DB0BDE8104003B0704700B58BB0B6
:101430000A460023014601A8ADF8043002F0FBF88B
:101440000BB05DF804FB000040B1037813F07003AB
:1014500003D0034B1860012070471846704700BF47
:101460000C710020F0B58BB00023ADF804300B7880
:101470002F2B0446164600F23C4715D14B789BB9FA
:10148000384602F0D1F82146384601F0EEFE18B990
:10149000002630460BB0F0BD0EB90126F9E73846FC
:1014A000FFF7D2FF0646F4E70A460023394601A8B3
:1014B00002F0C1F80028EBD09DF8043013F0700F53
:1014C000E6D001AC0FCC3D460FC50FCC0FC523684D
:1014D0002B60002EE1D03846FFF7B6FFD9E700B504
:1014E0008BB013460022ADF804200A4600F23C41BE
:1014F00001A802F081F90BB05DF804FB37B540F2AA
:1015000005736422038080F864240923384A8370B9
:10151000C0F8742400230122364DC372A0F8403471
:1015200080F86E3480F87824C0F87C34A0F88034D9
:101530002978BFF35B8F114004460BD128460191F7
:1015400015F01EF8019928B12B4805F0F7F8284648
:1015500015F078F8284BC4F8703404F5916001F068
:1015600010FB41F20533A4F89434244904F29C4062
:1015700005F081FA224904F2AC4005F07CFA002122
:1015800004F2BC4001F04AFC1E4B04F2C24203F1DB
:10159000100153F8040B42F8040B8B42F9D11922C5
:1015A000C4F8D82404F2E44200231749C4F8D43420
:1015B000C4F8DC34A4F8E034116004F59D621349EA
:1015C0001160134904F59E620020C2E9000104F590
:1015D0009F6200200021C2E9000184F818352046EE
:1015E00084F81935C4F81C350523237003B030BDC9
:1015F00054F2090000670020046700202FD20A007F
:101600005BEF090054ED09003333534000004842BA
:101610000000F87F13B5044605F0E2FC05F0B8FCC5
:101620000028F9D00334204601F0A7FC68B905F082
:10163000D7FC1B4904F0E8FE05F0D2FC0368DB6927
:1016400098470A2003F0FAF9FBE7204601F097FCDF
:1016500068B905F0C5FC134904F0D6FE1249134AD7
:10166000684601F023FC6946204601F0A9FC2046AB
:1016700001F083FC05F0B4FC0D4904F0B2FE05F066
:10168000AFFC0A221021044604F0CAFE204604F0F2
:10169000AFFE05F0A5FC074904F0B6FE02B010BD90
:1016A0006FEF090081EF0900B6EF0900ADEF090007
:1016B000C2EF0900CDEF0900F0B52DED028B054614
:1016C0009FB00021007833F0C7FF05F089FC724914
:1016D00004F087FE052003F0B1F9704B11932C46FE
:1016E000002305F264468DF848306D4B13930127B3
:1016F00014F8042BADF8507011AB05F58E6130462F
:1017000002F08AFF002800F0A9806E6005F5886667
:10171000304601F089FF3946204602F02BFE014693
:10172000002800F095802146304601F09EFD0028FB
:1017300000F094803046FFF787FE002800F08E808E
:10174000012033F0B3FF04F0C0FF47F25D7004F0F6
:10175000A7FF002702465349009704466846ADF8A4
:10176000047069F04DFE2046FEF7D8FE41EC100BE8
:1017700068F012F94C49B0EE408AF0EE608A3046CB
:1017800001F0A8FF4FF47A73ADF820700597069327
:10179000464F454A049744F20223314608A801F017
:1017A0004AFF9DF82030CBB1002C6ADA2D2104A825
:1017B00004F01BFE61420A2204A804F031FE04A8D2
:1017C00004F016FE3A4904A804F01EFE394904A8A4
:1017D00004F01AFE384904A804F016FE08A801F027
:1017E00023FF00244FF47A7313932F4A0294234665
:1017F000314615A8ADF80C40ADF85440129411973D
:1018000001F019FF9DF85430002B3CD0B0EE480A8F
:10181000F0EE680A68F040F8284B51EC100B0022FB
:10182000FEF730FDFFF794F902AF0646024639464F
:1018300015A801F033FD013E0123A64223DD395DE9
:101840001DF80420914218BF85F8DC340134F4E718
:10185000204602F08FFD00287FF465AF1849194833
:10186000FFF7CDFD012385F8DC3495F8DF3473B143
:1018700005F0B6FB144904F0C7FD1FB0BDEC028BA8
:10188000F0BD214697E715A801F0CEFEEDE705F083
:10189000A7FB0E49EFE700BFDAEF090054F2090099
:1018A00080F0FA02260D0A00DFEF090068F2090055
:1018B000F3EF09001BF0090041F009000000F03FC0
:1018C000EAEF09003071002072F1090078F1090097
:1018D00030B585B000F5916433F018FF67210246FA
:1018E000204601F062F928B905F07AFB564904F068
:1018F0008BFDFEE705F074FB544904F085FD0021E3
:10190000204601F093F905F06BFB514904F069FDA5
:10191000204601F099F9032808D8DFE800F00220FA
:10192000242805F05DFB4B4904F05BFD05F058FBF6
:10193000494904F069FD0221204601F0AAF905F0A9
:101940004FFB464904F04DFD204601F08BF9072876
:1019500016D8DFE800F0105D6165696D717505F0FE
:101960003FFB3F49E0E705F03BFB3E49DCE705F084
:1019700037FB3D49D8E705F033FB3C4904F031FD26
:1019800005F02EFB3A4904F03FFD0321204601F00B
:10199000AEF905F025FB374904F023FD05F020FBE7
:1019A0000546204601F08CF90A220146284604F03B
:1019B00037FD284604F01CFDB3EE0E0A0121204637
:1019C00001F0CCF905F00CFB2B4904F00AFD05F001
:1019D00007FB01210546204601F0A0F90221284617
:1019E00004F01EFE0023CDE90133009301231946C4
:1019F0001A46204601F0D6F90121204601F0C4F82C
:101A000005F0EEFA1D4905B0BDE8304004F006BD12
:101A100005F0E6FA1A49B1E705F0E2FA1949ADE72F
:101A200005F0DEFA1849A9E705F0DAFA1749A5E743
:101A300005F0D6FA1649A1E705F0D2FA15499DE757
:101A400005F0CEFA144999E759F0090089F0090028
:101A500098F00900AFF00900BBF00900C1F00900DF
:101A6000B2F00900B5F00900B8F00900495D0A00BC
:101A7000D0770A00DDF00900FFF009001CF1090031
:101A8000DBF009006B040A00E8D60A0063040B00CF
:101A9000EED60A00B6CF0A00AC2E0A0010B50446F6
:101AA0004FF4FA6002F0CAFF6078012133F0E5FDDF
:101AB00041F2883002F0C2FF60780021BDE810409A
:101AC00033F0DBBDF0B597B009AD064628460C46AD
:101AD00001F0F3FA95E803000346C4F8BC04A4F847
:101AE000C014C2B2C1F30720C9B20291190E01910C
:101AF000C3F3074102F5FA62C3F307230390009191
:101B00002846184969F07CFC04F2AC47294605A830
:101B100004F0B1FF05A9384605F003F805A804F064
:101B20005FFF94F8BC3403F5FA63C4F8003594F809
:101B3000BD34C4F8043594F8BE34C4F8083594F8BC
:101B4000BF34C4F80C3594F8C034C4F8103594F898
:101B5000C134C4F814353946304604F0D7FF304656
:101B600017B0F0BD3BF109007FB5044605F038FA27
:101B7000274904F036FC33F0C9FD682103F06EF804
:101B800033F0C4FDFF21FFF71FFC33F0BFFD0F2131
:101B9000FFF71AFC33F0BAFD03F067F80546B0B959
:101BA00021466846FFF78EFF684604F019FF40F2B1
:101BB0004C4094F8C16402F041FF684601F07DFAA0
:101BC0009DF80530B34204BF012384F8DC3494F857
:101BD000BC343BB9012384F8DE3405F001FA0D4929
:101BE00004F012FC4DB105F0FBF90B4904F00CFCBC
:101BF000012384F8DC3404B070BD94F8DE34002B8B
:101C0000F9D105F0EDF9054904F0FEFBF3E700BF5B
:101C100059F1090061F1090071F1090077F109003A
:101C200008B5212033F042FDFEF778FC04A3D3E988
:101C30000023FEF7DDFCFEF7D3FF00EE100A08BD1F
:101C40009402C1D2AF63523F38B50446FFF7E8FFB4
:101C500004F2E443D3ED007AB4EEE70AF1EE10FAB1
:101C600044BF012384F8E03405F0BAF9094904F0CF
:101C7000B8FB05F0B5F905462046FFF7D1FF022174
:101C8000284604F0B3FC05F0ABF9BDE83840024942
:101C900004F0A7BB7DF1090084F1090070B504468A
:101CA00088B00D46FFF7B6FCE01C01F066F9684607
:101CB00022F00CFE009BC4F8983430493048FFF7FE
:101CC00087FB642002F0BAFE214604A8FFF7FAFE63
:101CD00004A804F085FE2B4904A804F0CCFE04F20D
:101CE000AC4104A804F089FF01682548FFF770FBA8
:101CF00004F29C4604A804F073FE2946304604F022
:101D0000F6FED4F89C141E48FFF762FB0223002263
:101D1000314604A804F0BCFF1B4904A804F08EFF60
:101D2000054604A804F05CFE0DB32046FFF7D0FD85
:101D300005F056F9154904F067FB154802F07EFEE0
:101D4000144B20461C60FFF7B7FC2046FFF70CFF42
:101D5000114B124A1A602046FFF776FF2046FFF724
:101D60009DFE684604F03CFE012008B070BD05F001
:101D700037F90B4904F048FBE2E700BF87F109009F
:101D8000307100209BF109007EEF0900A9F10900E4
:101D9000E09304000C67002008710020A1120300EA
:101DA000B5F1090070B58AB0044608460191FFF705
:101DB00037FF01998DED000A01F2AC4506A8FFF747
:101DC00081FE06A9284604F0ACFE134E06A804F0D6
:101DD00007FE294602A804F099FE314602A804F045
:101DE00018FF9DED000A0546062106A804F0B3FE83
:101DF00006A9284604F001FF314604F00AFF014617
:101E0000204604F083FE06A804F0EAFD02A804F0D0
:101E1000E7FD20460AB070BDDDF1090000000000BA
:101E200007B588B20021019033F016FC019833F019
:101E30003DFCFEF773FB06A3D3E90023FEF7D8FBB6
:101E400041EC100B03B05DF804FB00BFAFF3008062
:101E50006666666666664A3F70B52DED068B92B083
:101E60000446084613210190FFF7DAFF0198B0EE0F
:101E700040AAF0EE60AA1221FFF7D2FF0198B0EE5F
:101E8000409AF0EE609A1121FFF7CAFF234EB0EEA0
:101E9000408AF0EE608A0621B0EE4A0AF0EE6A0A45
:101EA00002A804F072FE02A906A804F02FFE314633
:101EB00006A804F0AEFEB0EE490AF0EE690A054647
:101EC00006210AA804F061FE0AA9284604F095FE3E
:101ED000314604F09EFEB0EE480AF0EE680A054670
:101EE00006210EA804F051FE0EA9284604F085FE36
:101EF0000146204604F00AFE0EA804F071FD0AA86F
:101F000004F06EFD06A804F06BFD02A804F068FD65
:101F1000204612B0BDEC068B70BD00BFDDF109009C
:101F2000F8B500F5886718490446051D3846FFF7DF
:101F30007DFA064630BB144901222846FFF7CFFA46
:101F4000324611492846FFF78DFAD4F898143846DE
:101F5000FFF76CFA0646A8B9D4F89814012228466F
:101F6000FFF7BDFAD4F8981432462846FFF77AFAFC
:101F700006493846FFF75AFA20B904490122284693
:101F8000FFF7ADFAF8BD00BFDFF1090012F209005A
:101F900070B50546041D8EB0002220460E461A4933
:101FA000FFF760FAD5F8981400222046FFF75AFA96
:101FB000164900222046FFF755FA4FF47A7303932F
:101FC000134B0193002444F2022305F5A46205F5A6
:101FD000886105A8ADF81440029401F02CFB9DF82F
:101FE00014304BB1316801A804F00EFA05A801F0D5
:101FF0001BFB20460EB070BD04F0F2FF054904F053
:1020000003FA4FF0FF30F5E7DFF1090012F20900A3
:1020100068F20900E8F1090030B58DB004460D46BC
:1020200068461B4904F027FD08A8A84708A9684688
:1020300004F077FD08A804F0D3FC214604A8FFF7BC
:10204000B1FE04A908A804F061FD694608A804F0DF
:10205000D4FD0146684604F04AFD08A804F0C0FC1F
:1020600004A804F0BDFC694608A804F04FFD08A9C7
:102070002046FFF78DFF08A804F0B2FC04F0B0FF83
:10208000044904F0C1F9684604F0AAFC0DB030BD63
:102090002FD20A00F4F109002DE9F043044693B071
:1020A000251DFFF73DFF5849DFF87081574F00228B
:1020B0002846FFF7D7F9D4F8981400222846FFF7EE
:1020C000D1F9002252492846FFF7CCF904F088FFE5
:1020D000504904F099F9504902A804F0CCFC0122BF
:1020E0004E49684669F08CF902A90EA804F00EFD6D
:1020F00069460AA804F0BFFC0AA90EA804F07DFDF9
:1021000004F5A465414904F084FD00230D2229460D
:1021100004F0A6FD0AA804F063FC0EA804F060FC1D
:10212000012604F5886929464846FFF77FF900B380
:10213000013632464146684669F062F902A90EA8A6
:1021400004F0E4FC69460AA804F095FC0AA90EA86C
:1021500004F053FD394604F05CFD00230D222946AE
:1021600004F07EFD0AA804F03BFC0EA804F038FC45
:10217000D9E704F035FF2A4904F033F904F030FFC1
:10218000294604F041F927490EA804F074FC0AA876
:1021900022F09CFB0AA90EA804F02FFD014606A818
:1021A00004F0B4FC0AA804F01BFC0EA804F018FC10
:1021B00006A90EA804F0AAFC0EA92046FFF7E8FE27
:1021C0000EA804F00DFC18490AA804F054FC04F20F
:1021D0009C410AA804F011FD01460EA804F096FCEB
:1021E0000EA92046FFF7D4FE0EA804F0F9FB0AA8BA
:1021F00004F0F6FB06A804F0F3FB02A804F0F0FBE1
:1022000013B0BDE8F08300BFDFF10900E5EF09007E
:1022100012F2090000F2090017F209001BF209008E
:1022200020F209002CF2090033F209007047006A1D
:102230000368DB68184700000A4B10B504460360CA
:1022400003F038F9214603F036FB04F0C9FE04F030
:1022500099FE2046044B40F8043B03F019FA20464F
:1022600010BD00BFE0F20900C8F2090010B5044635
:10227000FFF7E2FF2046242166F0FEFE204610BD57
:102280001FB50F4C0F49204604F053FC21460E4C5D
:10229000684604F03BFC69462046FFF7FFFC6846B1
:1022A00004F09EFB04F09CFE084904F0ADF82046C3
:1022B000FFF7F2FE0021092033F0CEF904B010BD83
:1022C0001067002088F209002067002090F20900C2
:1022D00038B5154D154904462846FFF79DFE42F2D4
:1022E000107002F0ABFB11492846FFF795FE42F251
:1022F000107002F0A3FB0D492846FFF78DFE42F255
:10230000107002F09BFB04F06BFE094904F07CF8AE
:102310004EF6602303FB04F0A0F5EA40BDE8384028
:10232000303802F08BBB00BF206700208123030000
:10233000A7F209000A20FFF7CBBF00000000000051
:1023400010B50D4B0022044618681A60FEF7D6F847
:1023500007A3D3E90023FEF74BF9FEF741FC062162
:1023600000EE100A204604F0F6FB204610BD00BF28
:102370009A99999999992040E070002000000000F6
:1023800030B58DB0324902230022044608A804F07B
:102390007FFC304908A804F051FC054608A804F069
:1023A0001FFB45B19FED280B0621204604F0EDFBF5
:1023B00020460DB030BD2849684604F05CFB264934
:1023C00004A804F058FB08A82449FFF745FD08A914
:1023D00004A804F0A6FB08A804F002FB2049214849
:1023E000FEF7F6FF04F0FCFD049904F00DF808A8D0
:1023F000FFF7A6FF08A9684604F093FB08A804F0BD
:10240000EFFA19491748FEF7E3FF04F0E9FD0099D8
:1024100003F0FAFF04A908A804F078FB134908A800
:1024200004F0F7FB694604F0E8FB0146204604F09F
:102430006DFB08A804F0D4FA04A804F0D1FA6846A9
:1024400004F0CEFAB4E700BF000000000000F03F47
:10245000106700207EEF09002FD20A0020670020BD
:10246000B1F2090030710020B8F20900DDF1090075
:1024700070B5D0E900531426044606FB0356AE425D
:1024800004D0284604F0ACFA1435F8E7206868F068
:102490006DF9204670BD8842F8B504460D461646D3
:1024A00016D9904215D2A2F11406751AA1F114079B
:1024B0002C44B7421CD02CB13146204604F00CFB12
:1024C000337C2374304604F08BFA143E143CF0E75E
:1024D0000ED0B5420CD02CB12946204604F0FCFAAF
:1024E0002B7C2374284604F07BFA14351434F0E76F
:1024F000F8BD2DE9F0410023C0E9003383604F6847
:102500009F4204460E4623DD4FF0140808FB07F0F7
:1025100068F024F90546D8B1D4E9001208FB02128C
:10252000FFF7B9FF206868F021F92560A760D6E9B8
:10253000007308FB0378B84508D03946284604F0F4
:10254000E5FA3B7C2B7414371435F4E77368636049
:102550002046BDE8F081000070B53C4B3C4A9A60D3
:1025600000248EB01C609C809C71032026F0AEF984
:102570002146012026F0CEF9CDE90244049404F06E
:102580002FFD02A9064605A8324DFFF7B2FF05A9A7
:1025900008A8FFF7AEFF304B2B6008A90BA8FFF788
:1025A000A8FF0BAA1E21281D03F0DFFA0BA8FFF7D6
:1025B0005FFF08A8FFF75CFF284B2B602E6205A881
:1025C000FFF756FF264B2B6004F00AFD4FF416511F
:1025D00004F0D4FC02F06EFF294603F058FA02A87A
:1025E000FFF746FF01211F481F4DFEF787FF1F4BD6
:1025F000642283F860241E4AC3F870240122DC712F
:10260000A3F83C4483F86A44C3F87844A3F87C44B4
:1026100083F874242978BFF35B8F11401C460BD1DB
:102620002846019113F0ACFF019928B1114804F03C
:1026300085F8284614F006F80E4B0F49C4F86C34A0
:102640000E4804F018FA0EB070BD00BFD470002020
:102650000000FFFFE4700020C8F2090014F4090034
:10266000E0F209002067002000670020506C002085
:1026700054F20900046700202FD20A0010670020DE
:1026800030B50025C0E9001542819DF810109DF875
:102690000C20456141738273037330BD7FB50446DE
:1026A0004089ADF80C00C3B220680D46164640B113
:1026B000637B019303AB0093012300F0DFF804B0C8
:1026C00070BD60680028FAD0227A22B903F07F0337
:1026D0008DF80C3003E0022A09D0012A0AD0637B6E
:1026E0000093324603AB294600F0E5F9E7E763F0D3
:1026F0007F03EDE703F07F0343F04003E8E7F0B426
:102700000B4602B9027B042A14D800F10F0543617D
:1027100084182946844209D0877BDEB227B92E70FF
:102720001B0A0135013CF5E7A673F9E72046F0BC2A
:10273000FFF7B4BF0020F0BC704730B50B4685B042
:102740004189ADF80C1005460068CCB240B10021BB
:10275000CDE900216A7B03A900F0E2F805B030BDA5
:1027600068680028FAD0297A21B964F07F048DF8CE
:102770000C4003E0022909D001290AD0FF21CDE94C
:1027800000216A7B03A900F0C8F9E7E704F07F04A1
:10279000EDE764F03F04EAE738B500F10F05027B8E
:1027A00029460446FFF7C9FF78B1227B2946224417
:1027B0000020A2420BD00302A07B20B9907B1843DB
:1027C000013A0131F5E70878F9E74FF0FF3038BDFD
:1027D00010B501600271437110BD10B50446006868
:1027E000FFF7DAFF2279012393406279013BD04061
:1027F000184010BD70B5044600680E46FFF7CCFFC8
:10280000237901229A40531E627903FA02F520EAE5
:10281000050503EA0601206891402943027BBDE8D3
:102820007040FFF76CBF42600022027220220170EC
:10283000C260704710B5037A044653B121786068CE
:1028400002F008FA606802F010FAB0FA80F040096D
:1028500010BD012100F003F80028EFD1F8E738B5EA
:10286000044640680D4602F0C3F90120207225B1EC
:102870002046BDE83840FFF7DDBF38BD2DE9F843FD
:10288000DDE908961F46C368154632449A4204465D
:10289000884602D90020BDE8F8830178406802F03C
:1028A000D9F97EB9606803682A46DB6841469847D3
:1028B0008542EFD16068394602F0D3F9B0FA80F072
:1028C0004009E8E7B9F1000FECD0606803683246D0
:1028D000DB6849469847B042DCD1E3E72DE9F04197
:1028E0001546C268954204460E4614D801784068E1
:1028F000EAB202F09AF985420DD100271FFA87F853
:10290000454507F1010709D9606803685B69984785
:1029100006F80800F2E70020BDE8F0810120FBE79F
:1029200073B51D460023CDE900339DF81C30069E8B
:102930000446FFF7A3FF40B1012332462946204653
:1029400002B0BDE87040FFF7C9BF02B070BD000023
:102950002DE9F04F0446006885B00D4640B10023D4
:10296000009313460A4603F091FF05B0BDE8F08FCF
:10297000237BA068484FB7FBF0F7002B0B780CBF08
:102980004FF0010B4FF0800B1BEA030F01EB02032A
:102990000CBF4FF001094FF00009FFB20393039BF6
:1029A000AB42E2D095F800A05E464FF0000817B1A8
:1029B000384614F0CFF9637B13F0FD0F41D194F941
:1029C00010305A1C0FD01AEA060114BF012300234D
:1029D0004B4508D06369606A1A6800292CD002430D
:1029E0001A604FF00109A169E36A0A6813430B609A
:1029F00017B1384614F0AEF994F91130013306D00E
:102A0000E3691A68A36A1A4218BF46EA0808A1696E
:102A1000E36A0A6822EA03030B6094F91130013378
:102A200018BF85F80080237B002B32D17600F6B2E8
:102A3000002EBCD10135B2E722EA00021A608946B5
:102A4000D1E7A169E36A0A6813430B6017B13846FE
:102A500014F080F994F91030013308D06369616A89
:102A60001A681AEA060F14BF0A438A431A60A1695A
:102A7000E36A0A6822EA03030B6094F91130013318
:102A8000CBD0E3691A68A36A1A4218BF46EA08085D
:102A9000C3E77608CCE700BF20A1070007B50122F5
:102AA0008DF807100DF10701FFF752FF9DF80700A1
:102AB00003B05DF804FB2DE9F041044600680E46C2
:102AC00017461D4610B1616803F06CFE94F90E00C4
:102AD000002180B232F0D1FD069B05EB030845458D
:102AE00008D13744B7420BD016F8011B2046FFF738
:102AF000D5FFF7E715F8011B2046FFF7CFFFEEE7FC
:102B000094F90E00012180B232F0B7FD206808B1BF
:102B100003F02FFE0120BDE8F0812DE9F0410446CD
:102B200000689DF81C800E4617461D4610B161686E
:102B300003F038FE94F90E00002180B232F09DFDC2
:102B40003744BE420AD1069BEE18AE420CD0414635
:102B50002046FFF7A3FF05F8010BF6E716F8011B67
:102B60002046FFF79BFFECE794F90E00012180B2AD
:102B700032F083FD206808B103F0FBFD0120BDE8C1
:102B8000F08140230370704713B500230C460222E6
:102B900081686846FFF71CFE2CB901216846FFF7E3
:102BA00029FE02B010BD0021F8E7F0B504468BB055
:102BB0001020CDE9022115F091FA054618B1DDE9A2
:102BC0000221FFF730FE656028460021FFF747FE2F
:102BD000054618B9002528460BB0F0BD0127022391
:102BE00061682022CDE9007704A8FFF749FD04A819
:102BF000FFF7D2FD2378B3EB102FEBD1182015F09F
:102C00006DFA064638B100230093616801973B4690
:102C10000622FFF735FDA660002280213046FFF72F
:102C20006EFD01212046FFF7AFFFD4E713B5052362
:102C30000C46022281686846FFF7CAFD21466846B5
:102C4000FFF7D8FD02B010BD07B505238168022249
:102C50006846FFF7BDFD6846FFF7BFFDC0B203B091
:102C60005DF804FB00B501238BB0CDE900330522EC
:102C7000416804A8FFF704FD0423032204A902A865
:102C8000FFF7A6FD02A8FFF7A8FDC0B20BB05DF8E4
:102C900004FB10B501238AB0CDE900330C460522B0
:102CA000416804A8FFF7ECFC0423032204A902A84E
:102CB000FFF78EFD214602A8FFF79CFD0AB010BD6C
:102CC00000B501238BB0CDE900330522416804A88B
:102CD000FFF7D6FC0023032204A902A8FFF778FD22
:102CE00002A8FFF77AFDC0B20BB05DF804FB10B587
:102CF00001238AB0CDE900330C460522416804A8BF
:102D0000FFF7BEFC0023032204A902A8FFF760FD21
:102D1000214602A8FFF76EFD0AB010BD00B54B1E9C
:102D2000032B89B014D80123CDE9003301F10F0240
:102D30000223416802A8FFF7A3FC02A8FFF72CFDBD
:102D400003B200EE103ABAEECE0A09B05DF804FB09
:102D50009FED010AF9E700BF0000C07F10B54B1ED0
:102D6000032B10EE104A88B017D80123CDE90033A9
:102D700001F10F020223416802A8FFF781FC2046FF
:102D8000FDF7DEFB0022064BFDF732FCFDF7E0FE0F
:102D9000002201B202A8FFF7B2FC08B010BD00BFCC
:102DA000000030402DE9D0431E4688B04B1E032B57
:102DB0009DF838709DF83C809DF8409014461CD8D2
:102DC0000123CDE90033CA1D416802A8FFF758FC72
:102DD0002146B9F1000F01D044F00201B8F1000F13
:102DE00001D041F004010EB141F008010FB141F0F2
:102DF0001001002202A8FFF782FC08B0BDE8D083D2
:102E000003784078303BDBB20A2B28BF002303EB6A
:102E10008303303800EB4300C0B27047214A3C23A3
:102E20000A44F0B5B2FBF3F4B4FBF3F103FB142254
:102E3000427103FB114318220371B1FBF2F302FB51
:102E40001312C27000229BB2027040F26D164FF650
:102E50009364027812F003050BBF37464FF4B67740
:102E6000012100219F4205DA611A0B4401329BB215
:102E70000270EEE701220C4E42704178721812F88F
:102E8000012C1DB9022904BF0132D2B29A4294B278
:102E900004D81B1B01319BB24170EEE701338370F4
:102EA000F0BD00BF80BC92C7F0F2090030B50D46FE
:102EB00085B004460868496801AB03C32889A97A2C
:102EC000188099700DF10D00FFF79AFF9DF80430FE
:102ED0002070413B122B16D8DFE803F0321515465F
:102EE00015301515150A15153944421515154000EC
:102EF0009DF80530612B1FD09DF806306E2B0CBF5E
:102F000006230723637002A8FFF77AFFA0701068FA
:102F1000516801AB03C301A8FFF772FFE0700DF128
:102F20000700FFF76DFF20710DF10A00FFF768FF42
:102F30006071204605B030BD0123E3E70223E1E7DD
:102F40009DF80630722B0CBF04230823DAE79DF8A6
:102F50000630722B0CBF03230523D3E70923D1E7E7
:102F60000A23CFE70B23CDE70C23CBE708B532F0DC
:102F7000CDFB01F03DFE012008BDFFF7F7BF08B50E
:102F800032F0C4FB682101F069FE32F0BFFB036838
:102F900002219B68984732F0B9FB01F066FE32F0DF
:102FA000B5FB0122682101F052FE32F0AFFB03684D
:102FB0005B69984700F0E000E03818BF012008BDC9
:102FC00038B50D4632F0A2FB682101F047FE32F021
:102FD0009DFB036803219B68984732F097FB697952
:102FE0000A24B1FBF4F303EB430301EB4301036851
:102FF000C9B29B68984732F089FB2979B1FBF4F399
:1030000003EB430301EB43010368C9B29B68984794
:1030100032F07CFBE978B1FBF4F303EB430301EB03
:1030200043010368C9B29B68984732F06FFBA978E7
:10303000B1FBF4F303EB430301EB43010368C9B2B3
:103040009B68984732F062FB036800219B689847B1
:1030500032F05CFB6978B1FBF4F303EB430301EB63
:1030600043010368C9B29B68984732F04FFB297847
:103070000368B1FBF4F404EB440401EB44019B68E6
:10308000C9B2984732F042FB01F0EFFD32F03EFB4F
:10309000682101F0E3FD32F039FB036802219B68EF
:1030A000984732F033FB036800219B68984732F061
:1030B0002DFBBDE8384001F0D8BD2DE9F8430446AA
:1030C00032F024FB682101F0C9FD32F01FFB0368D8
:1030D00003219B68984732F019FB01F0C6FD32F0DE
:1030E00015FB0722682101F0B2FD32F00FFB0368E7
:1030F0005B69984700F07F09C0F30210A0EB8000E5
:1031000009EB40005FFA80F932F000FB03685B696D
:103110009847C0F30315A5EB850500EB4500C5B244
:1031200032F0F4FA03685B699847C0F30316A6EB24
:10313000860600EB4600C6B232F0E8FA03685B6927
:103140009847C0F30317A7EB870700EB4700C7B208
:1031500032F0DCFA03685B69984732F0D7FA03680B
:103160005B699847C0F30318A8EB880800EB480098
:103170005FFA80F832F0CAFA03685B699847C0F3D7
:103180000313A3EB830300EB4300207084F801805A
:10319000A770E670257184F805902046BDE8F88395
:1031A00010B50446243000F0D5FF28B104F50C70AA
:1031B000BDE8104000F0CEBF10BD8378016943F038
:1031C0000403837000F11002806801F079B80000F8
:1031D0002DE9F041017811F02005044603D00026C6
:1031E0003046BDE8F0814269174B9A42F7D2FFF7AB
:1031F000E4FF06460028F2D02169A06800F0F5FF40
:103200000746A06805223946243000F0CBFF8046EF
:103210000028E4D029464FF4007267F0F7FA012540
:10322000A3681A79AA4209D918684246E91901F037
:1032300024FB0028D3D00135EDB2F1E7636903EB3D
:1032400042236361CCE700BF00FE1F0010B50446B7
:1032500080680A462430A16900F0A4FF20B1A38849
:1032600003F00F0300EB431010BD70B50478054662
:103270000E464CB92422214667F0C8FAAE60F379B5
:10328000102B03D0202B07D0002004E020230124A2
:103290002B70AC70204670BD4023F8E72DE9F74F46
:1032A0000378044688461546002B5DD08278D10706
:1032B0005AD51A072DD5C36942699B1A9D4228BF6A
:1032C0001D462E464FF0000904F1100B002E00F0B1
:1032D0008F8022786369A0689706C3F3080A4FEAD3
:1032E00053211FD5006A0144A068BAF1000F42D1F2
:1032F000B6F5007F3FD3C36A99423CD0B6F5806FE4
:1033000052D20068424601F02FFA68B34FF40077BA
:1033100044E09B06D5D583681A894369C3EB421301
:103320009BB2CBE790F8059009EA0109BAF1000FCA
:1033300008D1B9F1000F05D15BB951064CBF036A42
:10334000236A23612169A06800F04FFF09EB0001A7
:10335000CAE721695A4600F04EFF002804DBF1D18C
:10336000237813F0700F43D1637843F00203637046
:103370004FF0FF303DE0CAF50077B7424FF0000252
:1033800000F1240028BF374600F00CFF0028EBD0E6
:1033900000EB0A013A46404667F010FA63693B4485
:1033A000B8446361F61B91E7227892064FEA562AE9
:1033B00006D40279A2EB0902D2B2924528BF924606
:1033C00099424FEA4A2708D2A0685346006842460D
:1033D00001F012FA0028E1D1C6E753448B42F3D939
:1033E0002430019100F0B6FE01990028ECD1BBE732
:1033F000A81B03B0BDE8F08F73B501220DF10701E2
:10340000D0E904560446FFF749FF01280ABF9DF89A
:1034100007004FF0FF30C4E9045602B070BD37B565
:10342000436913F4F07F0446C3F3431500D099B900
:1034300001220DF107012046FFF730FF40B20128BD
:1034400002D0002003B030BD63691F33A068636100
:10345000303000EB4510F5E72033F7E72DE9F04178
:103460000278076904460D4662B14069884202D07D
:1034700019B921616561012006E0160706D5E369E7
:103480008B420BD227610020BDE8F081910605D563
:10349000A3681B89B5EB431FECD9F3E7D4F808C048
:1034A0009CF80660431E06F109016E1ECB40CE401B
:1034B000B34200D898B953064CBFDCF82030236AD9
:1034C000236104F11008002ED4D02169A06842467F
:1034D00000F091FE002806F1FF36F4DCD2E7F61A80
:1034E000EFE7F8B50F4616460021242204461D4694
:1034F00067F08CF9B868A060A68000F1300206F091
:103500000F063B6AE360710102EB4616F37A1F0770
:1035100046D4431893F83B3003F017032370F27A34
:1035200012F0180F04BF43F0080323709DF8183001
:10353000E37005F00303012B2CD0022B28D07BBBBA
:103540006A052DD40123A370A278930704D52378AC
:10355000DF0625D4DE0723D4AB1123F07F0305F06B
:10356000080633431343A370C36AA3614318B3F837
:103570004420B3F84A1041EA02416A0513D559B90B
:10358000A37843F00403A3706B0410D40120F8BDAA
:103590000323D8E70223D6E700F0CDFE0028EFD1C1
:1035A00000202070F3E72162DB6CE361ECE7E16966
:1035B0002046FFF753FF0028E8D1F1E738B503783C
:1035C00004460BB9012038BD83785A0723D5012161
:1035D000FFF73CFE054628B9637843F001036370AA
:1035E0000020F0E70378E52BF6D023781B0744BFD3
:1035F000E369C361238C4383638C8382094B1B681B
:103600002BB100F11601183098472B8B6B82A378F1
:1036100023F00403A370A068FFF7C2FD0028DBD0ED
:10362000D0E700BF0871002010B50446FFF7C6FFC1
:103630000023237010BDF0B593B01F460023ADF8F2
:1036400024300378019206460C4613B1002013B0D3
:10365000F0BD0029FAD00B7813F0700FF6D0137874
:103660002F2B12D1019A13782F2B02D10132019204
:10367000F8E7A1681BB93046FFF7F7FDE7E709A8AF
:10368000FFF7F3FD0028E1D009AC019801AA03A9D6
:1036900000F0F0F90028D9D0019B1B789BB10023E2
:1036A00003AA2146304600F07BFB0028CED03546E9
:1036B0000FCD09AC0FC40FCD0FC42B68236030466B
:1036C000FFF7B2FFE0E73B4603AA2146304600F091
:1036D00067FBBCE700B58BB000230A46ADF80430A9
:1036E0000146012301A8FFF7A6FF10B101A800F0D1
:1036F000A1FA0BB05DF804FB2DE9F041044688B057
:103700000E4619B9002008B0BDE8F0810B7813F01F
:10371000700FF7D040F6022300F042FB0028F1D0F2
:1037200001271025A77025702046FFF751FD0028BE
:10373000E8D02369236200212046FFF78FFE204650
:10374000FFF73CFF0028DDD039462046FFF77EFD1D
:1037500003460028D6D06F46C572024600F1200EFF
:103760003D4610685168BC46ACE80300083272451B
:103770006746F6D1B3F814805F8B20220123EA5408
:1037800001330B2BFBD1216AA06800F02EFD01460E
:10379000A0680122243000F005FD03460028B1D0C6
:1037A0002E22ADF81A708DF80020ADF81480AC46CA
:1037B00007460DF1200E624603CA724538607960F3
:1037C000944607F10807F6D12E228DF80120326ABF
:1037D000ADF81A20110CADF81410203308AE2A46AB
:1037E00003CAB24218605960154603F10803F6D1C6
:1037F000A068FFF7D5FC86E7F0B593B01F4600231D
:10380000ADF824300378019206460C4613B100202F
:1038100013B0F0BD0029FAD00B7813F0700FF6D07A
:1038200013782F2B0DD1019A13782F2B02D101324F
:103830000192F8E7A16809A8FFF717FD0028E6D074
:1038400009AC019801AA03A900F014F90028DED000
:10385000019B1B78E3B1002303AA2146304600F008
:103860009FFA58B135460FCD09AC0FC40FCD0FC428
:103870002B6823603046FFF7D7FEE1E7002FC6D064
:1038800003AA21463046FFF737FF0028EAD1BEE7FA
:1038900003AA21463046FFF72FFFB9E72DE9F0478D
:1038A000037889461907044617465BD583789A073B
:1038B00058D51B0751D46369DB43BB4252D3B8468A
:1038C00004F1100A6669B8F1000F00F09180A06859
:1038D0004379C6F3080513EA56260ED16DB921695E
:1038E000002946D0524600F086FC00283ADB04D17D
:1038F0002046FFF762FC002834D02169A06800F060
:1039000074FC3118A06815B9B8F5007F3FD2C5F531
:103910000076464528BF4646002D36D16269E369E8
:103920009A4234BF01220522243000F03BFCC8B18A
:10393000284432464946354466F040FFB5F5007FDD
:1039400004D1A068243000F005FC58B16369334409
:103950006361B144A8EB0608B4E7C169FFF77EFDD7
:103960000028A8D1637843F0010363704FF0FF3063
:1039700050E0236A3BB92046FFF71FFC0028F1D036
:1039800023692362B9E72361B7E70122CCE7B8F5E1
:10399000806FC26A1BD390F804C0ACEB0606F3B28A
:1039A0004FEA582E734528BF734691424FEA43268B
:1039B00007D31A448A4282BF4FF0FF3280F8245066
:1039C000C262A5684A46286800F0CDFFBDE7914273
:1039D00002BF4FF0FF3380F82450C362A3684A4609
:1039E000186800F04AFF0028BCD04FF40076ADE71D
:1039F000E269A378B24204D2E66143F00403A37003
:103A000003E0084A1268002AF7D194F90230002B2B
:103A100002DB3846BDE8F0872046FFF7CFFD0028DF
:103A2000F7D19FE708710020411E00F10A03002032
:103A3000420842EAC01011F8012F52FA80F08B427E
:103A4000C0B2F5D1704738B5CB6804460D4623B9EE
:103A5000BDE838408968FFF708BC2422002166F0E1
:103A6000D5FE102301202370A070AB68A360EB6823
:103A7000236238BD2DE9F047064610F8013B202BA4
:103A8000FAD06B4D8E600024335DC3B12F2B16D05E
:103A90005C2B02D10020BDE8F087A3F12200C0B268
:103AA0001D2803D825FA00F0C007F3D403F0BF00A7
:103AB0003C28EFD0203B5E2BECD80134E4E73319EF
:103AC0001846074610F8015B202DFAD02F2DF8D0AC
:103AD00017604CB113F8012D2E2A01D0202A01D1F4
:103AE000013CF6E7FF2CD5DC4C6001F10D0301F140
:103AF0001802202003F8010B9342FBD14FF000087D
:103B000016F808302E2B01D0202B02D108F1010825
:103B1000F6E7B8FA88F04009651E6B1C02D0735DA9
:103B20002E2B14D14FF0000907274A46CA464FF002
:103B3000080EA04569DA16F80830202B03D02E2B8A
:103B400007D1A84512D0002008F10108F1E7013D96
:103B5000E3E7222B08D07C2B06D0A3F12A0CBCF182
:103B6000050F0BD82D2B13D0A8455CD10A2F4BD0B5
:103B7000A8460A2708224FF0100EE5E7A3F13A0CF9
:103B8000BCF1050FF0D9A3F15B0CBCF1020FEBD92E
:103B9000A3F1210CBCF15D0FE6D8A845E6D0BA42EE
:103BA00030D8A3F1610CBCF1190F1AD8203B4EEAB2
:103BB0000909DBB25FFA89F902F1010C5FFA8CFCAA
:103BC0000A44BCF1060F537301D881F80CC0624659
:103BD000BAE7A84518DCA8460A2708224FF0100EBD
:103BE000B1E7A3F1410CBCF1190F98BF4EEA0A0AE4
:103BF000E2E70B7B0120087019447E234B733123CD
:103C00008B7348E70A2FE4D100204B7B202B3FF435
:103C100041AF0028EDD01AEA090F18BF4FF0020992
:103C200081F8009037E7BA42ECD85F230020C3E761
:103C3000010100312DE9F0418AB00023ADF80430D4
:103C40000378190704460AD583789A0707D5016ACD
:103C500039B901212046FFF7F9FA054638B90020A5
:103C600048E0806800F067FB0028F2D1F7E7FFF733
:103C7000DBFEE5262E70002307462370A068FFF7C1
:103C80008FFA0028EBD0E378002B33D0214601A82F
:103C9000FFF7D9FE0028E2D00125E3785FFA85F826
:103CA0004345DCD3A188491B490101A8FFF7D6FB96
:103CB0000028D4D0002101A8FFF7B1FB0028CED006
:103CC000C37A0F2BCBD1027802F01F034345C6D134
:103CD000437BBB42C3D10670A16891F8243043F006
:103CE000010381F82430530605F10105D5D5A068FC
:103CF000FFF756FA0AB0BDE8F0812DE9F84391F8D4
:103D00000C9006460C4602257E2701F10D086168DD
:103D1000A2686B189BB21144914206D012F8010BB5
:103D200003EB431343409BB2F6E7B9F1030F28BFFF
:103D30004FF0030909F10402D2B203F00F01A018F9
:103D4000013A0929D2B294BF3031373191454173DC
:103D50004FEA1313F1D104EB090300215F733046DE
:103D6000FFF77CFB01213046FFF759FB014628B9DC
:103D70007078B0FA80F04009BDE8F88303786BB141
:103D8000C37A1B07EED40B22404666F009FD0028DB
:103D9000E8D10135ADB2642DB9D1EDE70120EBE7F3
:103DA0002DE9F04F2DED028B89B0904606900593DA
:103DB0000C4629B9002009B0BDEC028BBDE8F08F9C
:103DC0000B7813F0700FF5D0069B1B78002BF1D108
:103DD00053680493137899071CBF049B03F10C07E5
:103DE0004FF0000118BF0D2320461DBFB7FBF3F7AE
:103DF0000137FFB20127FFF731FB08F10D02002365
:103E000008EE102A9B461D461E4603939A46626999
:103E1000079301212046C2F34F19FFF700FB079BD0
:103E200000286ED16378002BC4D1059B9A05C1D5BB
:103E300003F00303013B012BBCD8039B002D08BFFB
:103E40004B460393BD42C0F00381BAF1000F40F02E
:103E50001B81039B20465901FFF700FB0028A9D0D6
:103E6000013F5FFA87FA56464FF000090F27002EF0
:103E700000F0218100212046FFF7D1FA05460028F5
:103E800098D0A26892F82430564543F001030CBF45
:103E900046F0400BB34682F8243080F800B0C77279
:103EA00080F80C9008F10D00FFF7BEFD0BF01F0B22
:103EB000687385F81A9085F81B900BF1FF3B0D2273
:103EC000D8F808C002FB0BF200230499914240F29B
:103ED000E3801CF80210042B5FFA83FE03F101005B
:103EE00000F2E08005EB4303A3F801100D2802F176
:103EF00001020346E9D1013EF6B2B8E74FF0010AEC
:103F000085E70278E52A00D07AB90399002D08BF29
:103F10004946BD4238BF0135039138BFEDB2002A92
:103F200083D0E52A04D1002671E7BD4238BF0025C1
:103F30002E2AF8D0C17A0F295DD13EBB12F040067F
:103F40003FF465AF02F01F06437BB3460BF1FF322F
:103F50004FF00D0E0EFB02FE049A7245E3D9A2EB60
:103F60000E0207924FF0000CBCF1040F0CEB0E098F
:103F70005FFA8CF214D800EB4C02B2F801200799DA
:103F80008C451BD1002A18BF002640E70BF1FF3BF0
:103F90005FFA8BFB5A45C6D1427B9A42D6D0C2E724
:103FA0000A2A95BF0CF1FF320CF1010200EB42022C
:103FB00000EB420294BFD2889288E0E7FF2AB2D891
:103FC000D2B2A2F141011929D8F8081011F809104C
:103FD00098BF2032A1F1410998BFD2B2B9F1190FAF
:103FE0009CBF2031C9B291429DD10CF1010CBCF1B2
:103FF0000D0FB9D10BE70A0795D466B1BBF1010FDC
:1040000003937FF4D7AEFFF70FFD039B98427FF435
:10401000D1AEB2460FE018EE101A0B22079366F0ED
:10402000BFFB079B00287FF4F2AE98F800A01AF0BF
:10403000010A7FF463AF059B19053FF5BBAE059BF5
:104040000698CDF800A04A462146FFF74AFAB2E6A4
:1040500000212046FFF7E3F998B96378002B7FF43D
:10406000A9AE2046FFF7B4F800283FF4A3AEA3683A
:104070001B79012B3FF6E9AE1035EDB2AF42F0D817
:10408000E3E60135EDB2DDE641462046FFF735FEB9
:1040900000287FF4DEAE8DE614BF4FF0FF31002123
:1040A00089B218E7BEF10A0F94BF05EB430305EB95
:1040B000400399801AE7314620466769FFF7AFF958
:1040C000054600283FF476AE2022314666F09EFB7E
:1040D000434653F80D2F2A605A686A601A892A816C
:1040E0009B7AAB7298F8003003F018032B730F4BD8
:1040F0001B689BB105F10E0105F1100098472B8A52
:104100006B822B83EB89EB82A26892F8243043F018
:104110000103C7F34F1982F8243090E721232B7451
:1041200028236B740823AE73EB73E8E70871002053
:1041300013B50446084659B10191FCF7FBFF23680B
:104140000199DB680246204602B0BDE810401847DE
:1041500002B010BD37B50378DA07044620D54368AE
:10416000816800F10C021868019200F086FB019A48
:10417000054618B90025284603B030BD23789B07B3
:1041800004D4237823F001032370F4E7D4E9013049
:1041900019690144186800F070FB0028F1D1E9E7C3
:1041A0000125E8E770B583688B4204460E46154644
:1041B00009D0FFF7CFFF08B9002070BD6B070AD503
:1041C00000232370A660227805F0030520461543DE
:1041D00000F80C5BF1E7636804F10C0218683146E3
:1041E00000F0C2FA0028EBD1E6E783794069023992
:1041F000994008447047012970B505460C4616469B
:1042000002D84FF0FF3070BDC3698B42F9D3C37938
:10421000202B16D18169022201EBD41100F50C701C
:10422000FFF7C0FF0028ECD004F07F0450F82430E2
:1042300023F07043EA699A4226BF336001200020D0
:10424000E1E7102BDDD18369C1F307210222194474
:1042500000F50C70FFF7A6FF0028D2D0E4B230F8CA
:104260001430E7E7012938B50C46154601D800207F
:1042700038BDC3698B42FAD3C379202B0FD1816932
:10428000032201EBD41100F50C70FFF78BFF00281F
:10429000EDD004F07F0440F824500120E8E7102B13
:1042A000E5D18369C1F307210322194400F50C709D
:1042B000FFF778FF0028DAD0E4B220F81450ECE7DA
:1042C0002DE9F341C4688C4205460E46904601D361
:1042D000012701E00C460027EB690134A34202D21A
:1042E000C7B9EC68F4E7A64214D001AA21462846D3
:1042F000FFF781FF00280DDBEED0019B002BEBD1F7
:1043000007B1EC606FF0704221462846FFF7AAFF24
:10431000074620B90027384602B0BDE8F08116B93B
:10432000C8F80040F7E7224631462846FFF79AFFD3
:104330000028F5D1EEE773B5002305460C4601933E
:1043400001AA21462846FFF756FF061E10DB002271
:1043500021462846FFF786FF50B1EB68A34224BFF1
:1043600004F1FF34EC60019C002EE9D102B070BD75
:104370000020FBE7012370B50022C3604FF0FF333C
:104380000446C27100F12406806280F82420C362D2
:10439000C0F8340280F83022C0F838320D46B9B186
:1043A000042901D9002070BD11463046FFF7FAFEFE
:1043B0000028F7D000EB051393F8AE315B06F1D17E
:1043C00005F11B0100EB0111D1F80650002DE9D0D9
:1043D000002229463046FFF7E5FE0028E2D0B0F87B
:1043E0000B30B3F5007FDDD1037C022BDAD1C3891A
:1043F000002BD7D0417B21714B1E63710023A37129
:1044000009260123994207D0013ECBD0A2795B0057
:104410000132DBB2A271F5E7C18A01B9416A2161BB
:10442000C3892B44A361B0F81120228103EB41031F
:104430002362B0F81110490101F2FF1103EB51237F
:104440006361B0F8132002B9026AE91AA379114432
:10445000D9404B1CE36140F6F473994202D80C2317
:10446000E3719FE74FF6F473994285BFC36A2362F5
:1044700010232023E371012095E7000070B50E4E54
:104480000D46144617F0C2FA3368C01A0B4B984217
:1044900008D917F0C0FA0A4B186020F001FA17F09B
:1044A000B5FA306017F0B7FA80B2401BA042D4BF13
:1044B0000020012070BD00BF10710020A086010007
:1044C00068A5002038B5057A04464DB9406800F06B
:1044D0006BFA63682946187D31F0CFF80123237207
:1044E00038BD10B5037A04466BB143680121187DCD
:1044F00031F0C3F86068FF2100F088FA606800F0CE
:1045000067FA0023237210BDF8B504460D4616461F
:1045100017F081FA87B2606800F05DFAFF286072D8
:104520000ED14FF47A7239462046FFF7A7FF0028D4
:10453000F1D0552320462370FFF7D3FF0020F8BDAC
:10454000FE2801D05023F5E760683246294600F086
:1045500047FA607208B16023ECE7606800F03BFA4C
:10456000606800F038FA0120E9E770B504460E46AD
:1045700017F051FA85B2324629462046FFF77EFFF2
:1045800030B9606800F027FAFF28F4D1012070BD2F
:104590000020FCE7F7B5037A019204460D460BB9FB
:1045A000FFF790FF25B14FF496712046FFF7DDFF2E
:1045B000606845F0400100F029FA032601AFB95DBB
:1045C000606800F023FA013EF9D2002D60680CBF4C
:1045D0009521872100F01AFA606800F0FCF90B259C
:1045E000606800F0F8F90306607203D5013D15F02C
:1045F000FF05F5D103B0F0BD70B504460D46164673
:1046000037210022FFF7C6FF324629462046BDE883
:104610007040FFF7BFBF00002DE9F0410025057293
:10462000057085724160044690461E4617F0F3F906
:1046300041460746606800F0BBF96368494A1D724D
:104640000125DA601D822046FFF73CFF636829469A
:10465000187D31F012F80A256068FF21013D00F055
:10466000D5F915F0FF05F7D163682946187D31F0BB
:1046700004F80A25002211462046FFF78BFF012887
:10468000804618D0013D15F0FF0507D120232046B4
:104690002370FFF726FF0020BDE8F0816068FD2150
:1046A00000F0B4F94FF40278606800F094F9B8F1C2
:1046B0000108F9D1DEE74FF4D57208212046FFF753
:1046C00069FF052814D184F80A800025BFB22A4664
:1046D00029212046FFF790FF0246D8B14FF4FA6235
:1046E00039462046FFF7CAFE0028F0D04323CEE724
:1046F0000425606800F06FF9013D15F0FF05607258
:10470000F7D1AA2804D10223A3724FF08045DDE738
:104710002523BCE7A37A022B18D13A212046FFF7C4
:1047200039FF08B13723B2E7606800F054F900F0B0
:10473000C000C02804BF0323A372606800F04BF9D7
:10474000606800F048F9606800F045F92046FFF71E
:10475000C8FE63683079B168B2891A821872D9606C
:10476000012099E790D0030038B5837A032B18BF56
:10477000490215460A4611210446FFF70BFF30B1E6
:10478000302323702046FFF7ACFE00250BE02946BE
:104790004FF400722046FFF7B7FE05460028F1D01F
:1047A0002046FFF79EFE284638BD10B5837A032BBE
:1047B0000A4618BF4A0212210446FFF7EBFE30B149
:1047C000312320462370FFF78CFE002010BD01200E
:1047D000FCE710B500220C210446FFF7DBFE30B1E8
:1047E000282320462370FFF77CFE002010BD2046C2
:1047F000FFF777FE0120F9E7F8B5044616461F4695
:10480000FFF7D3FF68B10025ABB29F4206EB45210D
:1048100009D94FF400722046FFF776FE01350028D3
:10482000F2D10020F8BD2046BDE8F840FFF7D1BF27
:1048300038B504461546406800F0E8F84FF40072B9
:104840006068294600F0E6F86068FF2100F0DEF8B5
:104850006068FF2100F0DAF8606800F0BCF8607270
:1048600000F01F00052806D0572320462370FFF7CD
:1048700038FE002038BD0120FCE770B5837A032B99
:1048800018BF490215460A4618210446FFF782FE62
:10489000064630B1322323702046FFF722FE002562
:1048A0001FE02A46FE212046FFF7C2FF0028F3D072
:1048B0004FF4FA612046FFF758FE054608B95A231F
:1048C000E9E732460D212046FFF764FE08B12923AF
:1048D000E1E7606800F07FF80028F8D12046FFF794
:1048E00000FE284670BD13B501914FF4FA610446ED
:1048F000FFF73BFE019A30B95B2323702046FFF798
:10490000F0FD002005E0FC212046FFF791FF002884
:10491000F4D002B010BD10B5837A032B0A4618BF3D
:104920004A0219210446FFF735FE30B133232046F1
:104930002370FFF7D6FD002010BD0120FCE738B53D
:104940004FF4FA610446FFF710FE054630B95623CE
:1049500023702046FFF7C5FD284638BD6068FD215D
:1049600000F054F8F5E7F8B5044616461F46FFF781
:10497000D2FF70B10025BD4206EB4521204604D090
:10498000FFF7B1FF28B10135F5E7BDE8F840FFF7C3
:10499000D6BF2046FFF7A5FD0020F8BD014B012240
:1049A0001A70704714710020011D006801F0FABEF2
:1049B00010B504460175006801F0CAFE207D012192
:1049C00030F04AFE207D0121BDE8104030F055BE98
:1049D000006801F0CEBE0068FF2101F051BF000069
:1049E00037B51346074A00920025074C006825702A
:1049F0000A46294601F04AFF2378002BFCD000200C
:104A000003B030BD9D49030014710020006801F01F
:104A100037BF000037B51346064A00920025064C02
:104A2000006825702A4601F031FF2378002BFCD066
:104A300003B030BD9D49030014710020002126F011
:104A4000FFBF10B5036804469B689847A368013B05
:104A5000A3602BB923682046DB68BDE810401847E7
:104A600010BD0B68036013B15A6801325A60704779
:104A700010B50446006828B14368013B43600BB998
:104A8000FFF7DFFF204610BD02480023036011F04E
:104A9000FCBB00BF1871002010B58368044613B139
:104AA000032201469847204610BD0B88082B30B5DD
:104AB0000ED90B7A003B18BF0123CA788D784C6859
:104AC0004372003A18BF0122C0E90054027230BD9F
:104AD0000023F2E713B50B460246D0E900016C460D
:104AE00084E8030093E8030082E8030094E80300ED
:104AF00083E8030002B010BD00224068114625F093
:104B0000B2BA00224068114625F0ABBA40680022D4
:104B100025F0A6BA4068002281F0010125F0BABB59
:104B2000002340681A46194625F064BB00234068FC
:104B30001A46194625F03ABB00224068114625F076
:104B4000F5B900224068114625F038BA40680022C5
:104B5000022125F0CDBA002340681A4625F050BC4A
:104B6000024B03225A60024A1A6070471C710020EF
:104B700004F309007047F8B5064615460C468F1831
:104B8000BC4206D0336814F8011B9B683046984736
:104B9000F6E72846F8BD007C002212F04FBD007CED
:104BA000002112F073BD007C002112F089BD007C51
:104BB000002112F0A7BD007C002112F0C3BD10B58A
:104BC0001421044664F058FA204610BD10B54FF485
:104BD0007A73044608460021C4E90113034B23609D
:104BE0002074114612F0C6FD204610BD40F30900A6
:104BF0000023007C1A46194612F04ABE7FB50022F7
:104C00001423CDE90122ADF804300B788DF808307B
:104C10004B680393CB680493007C0B7A059301A93E
:104C200013F022F807B05DF804FB1FB5003B8DF8C8
:104C300000104FF06401039118BF012369460192EF
:104C40008DF80830FFF7DAFF05B05DF804FB0123AB
:104C5000FFF7EBBF007C002212F0B0BCC9B2FFF737
:104C6000F9BF007C002212F097BF0121FFF7F9BFC6
:104C700038B5002383608B6804460D462BB10222B1
:104C80009847EB68E360AB68A360204638BD704787
:104C900010B51821044664F0EFF9204610BDF0B5B8
:104CA000037D062B8DB00E4600F104074FF0000483
:104CB00012D000F1080515F8011D0A22304601F056
:104CC000AFFBAF42044419D0002CF4D02E21304663
:104CD00001F08BFB0444EEE72F236A4639460A2095
:104CE0008DF8004019F091FE6846FCF723FA33680E
:104CF0000246DB68694630469847044620460DB0B8
:104D0000F0BD000010B5054B0446112240F8043BED
:104D1000002165F07BFD204610BD00BF68F309004F
:104D20000346074A10B543F8042B01F1100251F86D
:104D3000044B43F8044B9142F9D10A781A7010BD24
:104D400068F3090010B59DF8084044EA032343EADC
:104D5000024242EA016104234160037510BD13B5AC
:104D6000CB7800938B784A780978FFF7EBFF02B095
:104D700010BD00F11003012213F8101C0129184680
:104D800008D153F8041C02EB4102013A03F110036D
:104D9000F2D17047022904BF53F8041C5218F4E7FB
:104DA0000EB4F0B588B000AF07F13405102155F806
:104DB000042B7A6004462B467818FD6067F058FD96
:104DC0000F287A681AD900F1080323F007036E460A
:104DD000ADEB030D411C2B466846FD6067F048FDB6
:104DE000021E04DD236869469B6820469847B54645
:104DF0002037BD46BDE8F04003B070470028F7D02B
:104E0000236802469B6807F1100120469847EFE7A8
:104E100010B5036804469B689847A368013BA360EC
:104E20002BB923682046DB68BDE81040184710BD49
:104E300007B503688DF807109B6801220DF1070183
:104E4000984703B05DF804FB38B50B6803604D6804
:104E500043689D4204460CD015B16B6801336B600A
:104E6000606828B14368013B43600BB9FFF7D0FF8E
:104E70006560204638BD0B461146002210B5C0E9DA
:104E80000022044683600BB9204610BDFFF7DCFF0B
:104E9000FAE78368EBB11A78032A1AD8DFE802F040
:104EA0000417021B0520704702685B685268D05CDB
:104EB0002D2812D0A0F13003092B0ED974280ED062
:104EC00066280CD0A0F16E03584258417047062066
:104ED000704700207047042070470320704702206D
:104EE000704710B50446FFF7D4FF02280ED0C31E4A
:104EF000DBB2012B14D82268A36850685B68BDE858
:104F000010400A220021184467F0ACB92268A36857
:104F100052685B68D05CA0F174035842584110BDE0
:104F20000020FCE738B50023C0E9003304460E48F2
:104F3000C4E90203A9B10B78032B06D08BB913681F
:104F400058684B68C35C6E2B07D013684D6858686F
:104F50008B6828445B1BA060E36011462046FFF786
:104F600073FF204638BD00BF2FD20A0038B5002598
:104F70000B46C0E90055C0E90255C0E90455044696
:104F800011464BB11A78012A06D103F11002DB68F1
:104F900082604361FFF758FF204638BD10B5436972
:104FA000044663B18068E060013B1030A06020617E
:104FB000636113B1FFF7DDFEA060012000E0184639
:104FC00010BD10B55D210446FFF732FF01232371A8
:104FD000204610BD10B57D210446FFF729FF0123AF
:104FE0002371204610BD08B50379012B02D0022B96
:104FF00004D008BD2C21FFF71BFFFAE73A21FAE79E
:1050000010B50446FFF7EFFF20465B21FFF710FFC6
:1050100000232371204610BD10B50446FFF7E3FFBF
:1050200020467B21FFF704FF00232371204610BD9B
:1050300013B504460191FFF7D6FF2368019ADB6898
:1050400003492046984701232046237102B010BD32
:10505000260D0A0013B504460191FFF7C4FF23682B
:10506000019ADB68034920469847012320462371B3
:1050700002B010BD343D0A0013B504460191FFF79C
:10508000B2FF2368019ADB68034920469847012351
:105090002046237102B010BD01300A0013B504464A
:1050A0000191FFF7A0FF2368019ADB6803492046BE
:1050B000984701232046237102B010BD4E640A00B8
:1050C0002DE9F0410D4617462221DFF8A080044665
:1050D0002F44FFF7ADFE2946BD422A4638D015F8C9
:1050E000016B222E03D05C2E01D01F2EF4D8236832
:1050F000521A9B68204698475C212046FFF798FE8D
:105100000D2E0AD8072E1CD9A6F10803052B18D896
:10511000DFE803F00D0F11171315222E01D05C2EBE
:105120000FD131462046FFF783FE2946D4E762219E
:10513000F8E77421F6E76E21F4E76621F2E77221C1
:10514000F0E723683246DB68414620469847ECE7A3
:105150008D4204D023686A1A9B6820469847222112
:105160002046FFF765FEBDE8F08100BF74F309003B
:1051700013B50446CDE90021FFF735FF2046DDE9F0
:105180000021FFF79DFF02232046237102B010BDCE
:1051900013B50446CDE90021FFF725FF2046DDE9E0
:1051A0000021FFF78DFF01232046237102B010BDBF
:1051B00070470A680B46926801461846104700007F
:1051C00010B5054B00220446114640F8043B29F077
:1051D000BBFD204610BD00BF84F3090010B5044696
:1051E000FFF7EEFF2046202163F046FF204610BD6A
:1051F00070B50E4C046000251C24C0E901459DF8E3
:1052000014409DF81060C56004F0030444EA86046D
:10521000E4B20474427485744161427C0F2A0ABF6F
:10522000034B0383C0E9063070BD00BF84F309005F
:10523000B351030080680368DB681847704708466D
:1052400011B10B685B68184770477047704770472B
:10525000704738B504460D4600682E2166F06EF999
:105260002368C31A2B6023B1037803B1013023688C
:105270002060184638BD10B50C21044663F0FCFED2
:10528000204610BD10B50421044663F0F5FE20460B
:1052900010BD10B50421044663F0EEFE204610BD9B
:1052A00008B5FBF73DFFB0FA80F0400908BD704734
:1052B00010B50C4601F094FE844210D001F0E6FDDA
:1052C000844205D101F0E2FDBDE8104001F0DBBDF4
:1052D0002CB1236820465B68BDE81040184710BD1C
:1052E00013B5044608460191FBF724FF01990246D5
:1052F000204602B0BDE81040FFF74ABF13B5044690
:1053000008460191FBF716FF23680199DB68024606
:10531000204602B0BDE81040184707B503688DF875
:105320000710DB6801220DF10701984703B05DF813
:1053300004FB0EB403B503AB002153F8042B006A41
:10534000019301F07CF902B05DF804EB03B0704703
:105350002DE9F74FD0E900954FF0140808FB05F54B
:105360000093AB10184D17465D434C46002D23DDCE
:105370006E1008FB06F004EB000A3A46BAF804B0D7
:10538000205801915F4528BF5A4666F075FE019985
:10539000012378B95F4503D1009A13703546E5E7DC
:1053A0008CBF012000200028F8D0AE1B0AF11404A5
:1053B000013EF3E7C00FF6E7A4EB09040248A4108E
:1053C000604303B0BDE8F08FCDCCCCCC7FB5036992
:1053D000067E01910BB301B3002500F10C04039587
:1053E00003A901A8FFF735FF0146B0B10DF10B038A
:1053F000039A8DF80B502046FFF7AAFF9DF80B305B
:105400005BB12468142303FB004000F10804B0F9E9
:105410000630002BA8BFDEB2E2E7304604B070BD14
:1054200010B5094C2378BFF35B8FDB0709D4204606
:1054300011F0A6F828B1204611F004F9034864F0F1
:10544000E2FD034810BD00BF287100204B5203004D
:10545000005E002010B5094C2378BFF35B8FDB079B
:1054600009D4204611F08CF828B1204611F0EAF852
:10547000034864F0C8FD034810BD00BF2C71002034
:10548000AF520300045E002038B500250446C0E991
:105490000055C0E904558560856140F8245F10F02F
:1054A000F4FEFFF7BDFFE061FFF7D4FF2573206234
:1054B000204638BD10B50A4C2378BFF35B8FDB075D
:1054C0000CD4204611F05CF840B10648FFF7DCFF31
:1054D000204611F0B7F8044864F095FD014810BD6E
:1054E000247100203471002095590300024A0349B9
:1054F0000348002329F084BD1D580300A957030069
:105500002957030000231A461946184629F078BD8A
:1055100037B50D6951F8043B0093044601A8FFF725
:10552000A0FA6A4629462046FFF7A5FC01A8FFF726
:105530009FFA204603B030BD37B58D6851F8043B63
:105540000093044601A8FFF78CFA6A4629462046D4
:10555000FFF70CFD01A8FFF78BFA204603B030BD22
:1055600037B5CD6851F8043B0093044601A8FFF716
:1055700078FA6A4629462046FFF7D4FC01A8FFF7CF
:1055800077FA204603B030BD70B58AB00D460146AB
:1055900004A8FFF7D1FF144E04A8FFF7FFFCE8B101
:1055A00004A96846FFF7DCFF02983146FFF778FE52
:1055B000044610B12C1E18BF012401A8FFF758FAA9
:1055C000002CE9D004A96846FFF7A2FF6846FFF760
:1055D00088FC286001A8FFF74BFADDE705A8FFF774
:1055E00047FA0AB070BD00BF90F3090037B50C460A
:1055F000204612491546FBF793FD48B901F0F0FC2F
:105600004FF4165101F0BAFC01F0EAFC03B030BDD2
:105610000B492046FBF784FD70B94FF4165301A9DE
:1056200028460193FFF7B0FF01F030FC019901F02B
:1056300027FC01F02BFCE9E70020E7E795F30900E0
:105640009CF3090070B5D0E900531426044606FB0C
:105650000356AE4205D005F10800FFF7F3FF1435FD
:10566000F7E7206865F082F8204670BD70B5D0E994
:105670000053044605EB0316AE4204D0284601F061
:10568000AFF91035F8E7206865F070F8204670BD76
:1056900010B504460C30FFF7D5FF2046FFF7E6FFB4
:1056A000204610BD10B5044B044640F8043BFFF7FC
:1056B000EFFF204610BD00BFC8F2090010B5044638
:1056C000FFF7F0FF2046242163F0D6FC204610BDF2
:1056D00010B5034B03600446FFF7E4FF204610BDFE
:1056E0002CF4090010B50446FFF7F2FF20462421F0
:1056F00063F0C2FC204610BD0022C0E9002210B5B4
:1057000082600C6804604C6844608C680A604A607F
:1057100084608A6010BD10B503680446186810F0F4
:10572000D2FD204610BD00002DE9F04F87B0804625
:1057300003931C4B5B68C3F30803894616466BB999
:10574000FFF7B8FE044600F12403406A059310F009
:10575000ABFD237B2BB105A8FFF7DDFF07B0BDE84C
:10576000F08F01232373D4E900535FFA89F905EB25
:10577000830AAA4512D055F8047B3146381DFFF73D
:1057800025FE8145F5D33B68039A0092D3F808B013
:105790004A46334641463846D847EAE70023237352
:1057A000D9E700BF00ED00E02DE9F74F9B461A4B0B
:1057B0005B68C3F308038046894616466BB9FFF75A
:1057C00079FE044600F12403406A019310F06CFD59
:1057D000237B2BB101A8FFF79EFF03B0BDE8F08F3C
:1057E00001232373D4E90053F6B205EB830A554530
:1057F0000ED055F8047B5946381DFFF7E7FD864269
:10580000F5D33B684A46DB68414638469847EEE7A1
:1058100000232373DEE700BF00ED00E02DE9F34134
:10582000164B5B68C3F3080305460F461BBBFFF727
:1058300041FE00F124030446406A019310F034FD58
:10584000D4E90063462406EB8308B04509D101A8DA
:10585000FFF761FFA542B4BF0020012002B0BDE800
:10586000F08156F8040B39460430FFF7AFFD84424F
:10587000A8BF0446E9E70020F0E700BF00ED00E024
:1058800070B50446D0E900020B4600EB820282426A
:1058900007D001461D6851F8046BAE4203D008469C
:1058A000F5E7002070BD521A64F096FF6368013B73
:1058B00063600120F6E71FB500F124030446406A47
:1058C0000191039310F0F0FC01A92046FFF7D8FFE7
:1058D00018B163680BB9FFF715FE03A8FFF71BFFAC
:1058E00004B010BD70B5D0E904561823044603FB7C
:1058F0000656AE4215D005F110012046FFF7C0FF55
:1059000063680BB9FFF7FEFDE06929690368DB688E
:105910009847696919B1206A0368DB6898471835A8
:10592000E7E7D4E90453182606FB0356AE4204D039
:10593000284601F055F81835F8E70023636170BD7B
:1059400073B50446FFF7DEFD04F12403606A01939A
:1059500010F0AAFC2046FFF7C5FF01A8FFF7DBFE09
:10596000606A08B110F09BFCD4E90453182606FBCA
:105970000356AE4204D0284601F032F81835F8E755
:10598000206964F0F3FE206864F0F0FE204602B067
:1059900070BD00000148FFF7D3BF00BF3471002085
:1059A0008842F8B506460C46154627D9904226D2BD
:1059B000A2F114056C1AA1F1140704440026AF42A9
:1059C0003DD0A4B12B682360AB88A380B5F9063025
:1059D000E380C4E902662661AB68A360AE60E36859
:1059E000EA68E260EB6023692A6922612B6105F1B4
:1059F0000800FFF727FE143D143CE0E71FD0002706
:105A0000AC421CD0A6B123683360A388B380B4F93C
:105A10000630F380C6E902773761A368B360A760F8
:105A2000F368E268F260E3603369226932612361FE
:105A300004F10800FFF706FE14341436E0E7F8BD61
:105A4000F8B5D0E901539D4204460E4617460DDBDA
:105A50000135002D006804DDA90065F0E7FB18B9E9
:105A6000F8BD64F083FE00202060A56025686268B0
:105A700005EB86019200A2EB8602081D64F0ACFEE5
:105A800045F826706368013363600120E8E737B5A5
:105A900000F124030446406A01930D4610F004FC13
:105AA000D4E9003103EB810083421A460BD012681F
:105AB000AA4203F10403F7D101A8FFF72CFE002549
:105AC000284603B030BD2A462046FFF7B9FF0546F9
:105AD0000028F1D06368012B01D1FFF707FD01A871
