:020000023000CC
:1000000000F003202102030065020300993C030075
:1000100069020300453D0300893D03000000000024
:10002000000000000000000000000000E1030800E4
:100030007102030000000000010408001905080017
:10004000558107007702030049D4070019D3070040
:1000500065D30700797A0700A1760700559307005A
:1000600029A807003DA8070051A807007702030050
:10007000770203000992070077020300770203006A
:100080003DD207004592070015880700FDD3070001
:1000900041A6070047A607003DE5070077020300D9
:1000A000770203007702030065A8070079A807001C
:1000B000D5870700717C07000000000000000000E9
:1000C00077020300E5870700F5870700B1D3070033
:1000D000F9780400497807007702030051CD070042
:1000E00045860400A58F07001927090000000000BD
:1000F000000000000588070000000000959A070036
:1001000000000000000000000000000000000000EF
:1001100000000000000000000000000000000000DF
:1001200000000000000000000000000000000000CF
:1001300000000000000000000000000000000000BF
:1001400000000000000000000000000000000000AF
:10015000000000000000000000000000000000009F
:10016000000000000000000000000000000000008F
:10017000000000000000000000000000000000007F
:10018000000000000000000000000000000000006F
:10019000000000000000000000000000000000005F
:1001A000000000000000000000000000000000004F
:1001B000000000000000000000000000000000003F
:1001C000000000000000000000000000000000002F
:1001D000000000000000000000000000000000001F
:1001E000000000000000000000000000000000000F
:1001F00000000000000000000000000000000000FF
:100200000000030058A70A00000006000C000501CA
:080210000401DB0700000000FF
:100220000C490D4A0D4B9B1A03DD043BC858D050B6
:10023000FBDC0A490A4A0020521A02DD043A8850BF
:10024000FCDC4DF0A9F903F045FE12F0DFFA03F0F3
:10025000ADFF0000349D0A00005E0020D066002043
:10026000D4810120FEE7FEE7FEE7FEE7FEE7FEE7BA
:10027000FEE7FEE7FEE7FEE781F0004102E000BF97
:1002800083F0004330B54FEA41044FEA430594EA56
:10029000050F08BF90EA020F1FBF54EA000C55EA91
:1002A000020C7FEA645C7FEA655C00F0E2804FEA62
:1002B0005454D4EB5555B8BF6D420CDD2C4480EA44
:1002C000020281EA030382EA000083EA010180EA74
:1002D000020281EA0303362D88BF30BD11F0004FC2
:1002E0004FEA01314FF4801C4CEA113102D04042F8
:1002F00061EB410113F0004F4FEA03334CEA133333
:1003000002D0524263EB430394EA050F00F0A7804A
:10031000A4F10104D5F1200E0DDB02FA0EFC22FA45
:1003200005F2801841F1000103FA0EF2801843FA39
:1003300005F359410EE0A5F120050EF1200E012A2A
:1003400003FA0EFC28BF4CF0020C43FA05F3C01868
:1003500051EBE37101F0004507D54FF0000EDCF1E1
:10036000000C7EEB00006EEB0101B1F5801F1BD38A
:10037000B1F5001F0CD349085FEA30004FEA3C0C8E
:1003800004F101044FEA445212F5800F80F09A8084
:10039000BCF1004F08BF5FEA500C50F1000041EB88
:1003A000045141EA050130BD5FEA4C0C404141EB8C
:1003B0000101013C28BFB1F5801FE9D291F0000F87
:1003C00004BF01460020B1FA81F308BF2033A3F136
:1003D0000B03B3F120020CDA0C3208DD02F1140C2D
:1003E000C2F10C0201FA0CF021FA02F10CE002F168
:1003F0001402D8BFC2F1200C01FA02F120FA0CFC61
:10040000DCBF41EA0C019040E41AA2BF01EB0451A9
:10041000294330BD6FEA04041F3C1CDA0C340EDCA7
:1004200004F11404C4F1200220FA04F001FA02F3EA
:1004300040EA030021FA04F345EA030130BDC4F1A8
:100440000C04C4F1200220FA02F001FA04F340EA9D
:100450000300294630BD21FA04F0294630BD94F04E
:10046000000F83F4801306BF81F480110134013D35
:100470004EE77FEA645C18BF7FEA655C29D094EAA6
:10048000050F08BF90EA020F05D054EA000C04BF24
:100490001946104630BD91EA030F1EBF002100200F
:1004A00030BD5FEA545C05D14000494128BF41F0AE
:1004B000004130BD14F580043CBF01F5801130BD12
:1004C00001F0004545F0FE4141F470014FF000009D
:1004D00030BD7FEA645C1ABF194610467FEA655C4E
:1004E0001CBF0B46024650EA013406BF52EA0335F0
:1004F00091EA030F41F4002130BD00BF90F0000FDE
:1005000004BF0021704730B54FF4806404F1320419
:100510004FF000054FF0000150E700BF90F0000FD2
:1005200004BF0021704730B54FF4806404F13204F9
:1005300010F0004548BF40424FF000013EE700BFC9
:1005400042004FEAE2014FEA31014FEA02701FBF59
:1005500012F07F4393F07F4F81F06051704732F08B
:100560007F4208BF704793F07F4F04BF41F40021E2
:10057000704730B54FF4607401F0004521F0004140
:100580001CE700BF50EA010208BF704730B54FF0CA
:1005900000050AE050EA010208BF704730B511F0CB
:1005A000004502D5404261EB41014FF4806404F103
:1005B00032045FEA915C3FF4D8AE4FF003025FEA89
:1005C000DC0C18BF03325FEADC0C18BF033202EB0D
:1005D000DC02C2F1200300FA03FC20FA02F001FA67
:1005E00003FE40EA0E0021FA02F11444BDE600BF0A
:1005F00070B54FF0FF0C4CF4E06C1CEA11541DBFB9
:100600001CEA135594EA0C0F95EA0C0F00F0DEF883
:100610002C4481EA030621EA4C5123EA4C5350EA68
:10062000013518BF52EA033541F4801143F48013B9
:1006300038D0A0FB02CE4FF00005E1FB02E506F04A
:100640000042E0FB03E54FF00006E1FB03569CF09F
:10065000000F18BF4EF0010EA4F1FF04B6F5007FA5
:1006600064F5407404D25FEA4E0E6D4146EB060617
:1006700042EAC62141EA55514FEAC52040EA5E50A0
:100680004FEACE2EB4F1FD0C88BFBCF5E06F1ED84A
:10069000BEF1004F08BF5FEA500E50F1000041EB81
:1006A000045170BD06F0004646EA010140EA02002E
:1006B00081EA0301B4EB5C04C2BFD4EB0C0541EA50
:1006C000045170BD41F480114FF0000E013C00F365
:1006D000AB8014F1360FDEBF002001F0004170BD89
:1006E000C4F10004203C35DA0C341BDC04F11404A2
:1006F000C4F1200500FA05F320FA04F001FA05F22E
:1007000040EA020001F0004221F0004110EBD370FA
:1007100021FA04F642EB06015EEA430E08BF20EA26
:10072000D37070BDC4F10C04C4F1200500FA04F3C9
:1007300020FA05F001FA04F240EA020001F000415B
:1007400010EBD37041F100015EEA430E08BF20EACE
:10075000D37070BDC4F1200500FA05F24EEA020E16
:1007600020FA04F301FA05F243EA020321FA04F045
:1007700001F0004121FA04F220EA020000EBD370FC
:100780005EEA430E08BF20EAD37070BD94F0000FFC
:100790000FD101F00046400041EB010111F4801F30
:1007A00008BF013CF7D041EA060195F0000F18BFE1
:1007B000704703F00046520043EB030313F4801F1D
:1007C00008BF013DF7D043EA0603704794EA0C0FD7
:1007D0000CEA135518BF95EA0C0F0CD050EA4106ED
:1007E00018BF52EA4306D1D181EA030101F000416A
:1007F0004FF0000070BD50EA410606BF1046194692
:1008000052EA430619D094EA0C0F02D150EA01369D
:1008100013D195EA0C0F05D152EA03361CBF1046DE
:1008200019460AD181EA030101F0004141F0FE417D
:1008300041F470014FF0000070BD41F0FE4141F401
:10084000780170BD70B54FF0FF0C4CF4E06C1CEA01
:1008500011541DBF1CEA135594EA0C0F95EA0C0FB6
:1008600000F0A7F8A4EB050481EA030E52EA033571
:100870004FEA013100F088804FEA03334FF0805592
:1008800045EA131343EA12634FEA022245EA1115BF
:1008900045EA10654FEA00260EF000419D4208BF70
:1008A000964244F1FD0404F5407402D25B084FEA1D
:1008B0003202B61A65EB03055B084FEA32024FF4C9
:1008C00080104FF4002CB6EB020E75EB030E22BF26
:1008D000B61A754640EA0C005B084FEA3202B6EBE6
:1008E000020E75EB030E22BFB61A754640EA5C0095
:1008F0005B084FEA3202B6EB020E75EB030E22BF25
:10090000B61A754640EA9C005B084FEA3202B6EB25
:10091000020E75EB030E22BFB61A754640EADC00E4
:1009200055EA060E18D04FEA051545EA16754FEA46
:1009300006164FEAC30343EA52734FEAC2025FEA64
:100940001C1CC0D111F4801F0BD141EA00014FF0F3
:1009500000004FF0004CB6E711F4801F04BF0143C4
:100960000020B4F1FD0C88BFBCF5E06F3FF6AFAEE0
:10097000B5EB030C04BFB6EB020C5FEA500C50F170
:10098000000041EB045170BD0EF0004E4EEA1131F3
:1009900014EB5C04C2BFD4EB0C0541EA045170BDFA
:1009A00041F480114FF0000E013C90E645EA060E3E
:1009B0008DE60CEA135594EA0C0F08BF95EA0C0F6C
:1009C0003FF43BAF94EA0C0F0AD150EA01347FF4B4
:1009D00034AF95EA0C0F7FF425AF104619462CE78B
:1009E00095EA0C0F06D152EA03353FF4FDAE1046EE
:1009F000194622E750EA410618BF52EA43067FF43F
:100A0000C5AE50EA41047FF40DAF52EA43057FF4CE
:100A1000EBAE12E74FF0FF3C06E000BF4FF0010CD9
:100A200002E000BF4FF0010C4DF804CD4FEA410C3D
:100A30007FEA6C5C4FEA430C18BF7FEA6C5C1BD00A
:100A400001B050EA410C0CBF52EA430C91EA030F8B
:100A500002BF90EA020F0020704710F1000F91EAE8
:100A6000030F58BF994208BF90422CBFD8176FEAB6
:100A7000E37040F0010070474FEA410C7FEA6C5C84
:100A800002D150EA013C07D14FEA430C7FEA6C5C8B
:100A9000D6D152EA033CD3D05DF8040B704700BFB7
:100AA0008446104662468C461946634600E000BF05
:100AB00001B5FFF7B7FF002848BF10F1000F01BDD7
:100AC0004DF808EDFFF7F4FF0CBF012000205DF8A2
:100AD00008FB00BF4DF808EDFFF7EAFF34BF012027
:100AE00000205DF808FB00BF4DF808EDFFF7E0FFC0
:100AF00094BF012000205DF808FB00BF4DF808ED11
:100B0000FFF7CEFF94BF012000205DF808FB00BF77
:100B10004DF808EDFFF7C4FF34BF012000205DF859
:100B200008FB00BF4FEA410C7FEA6C5C02D150EA3F
:100B3000013C0AD14FEA430C7FEA6C5C02D152EAD5
:100B4000033C02D14FF0000070474FF001007047A6
:100B50004FEA410212F5001215D211D56FF47873E5
:100B6000B3EB625212D94FEAC12343F0004343EA88
:100B7000505311F0004F23FA02F018BF4042704763
:100B80004FF00000704750EA013005D111F00040ED
:100B900008BF6FF0004070474FF00000704700BF83
:100BA0004A0011D212F5001211D20DD56FF47873EC
:100BB000B3EB62520ED44FEAC12343F0004343EA41
:100BC000505323FA02F070474FF00000704750EA8C
:100BD000013002D14FF0FF3070474FF000007047F6
:100BE00053B94AB9002908BF00281CBF4FF0FF3194
:100BF0004FF0FF3000F082B9ADF1080C6DE904CE82
:100C000000F01AF8DDF804E0DDE9022304B07047D3
:100C1000430803F05533C01A830803F0333300F060
:100C20003330184400EB101000F00F3000EB0020C0
:100C300000EB0040000E70472DE9F047089D044688
:100C40008C46002B40F083808A42174647D9B2FA7F
:100C500082F242B1C2F1200024FA00F091409740A4
:100C600040EA010C94404FEA1748230CBCFBF8F60D
:100C70001FFA87FE08FB16C143EA014306FB0EF18B
:100C8000994209D9FB1806F1FF3080F01981994289
:100C900040F21681023E3B445B1AA4B2B3FBF8F06B
:100CA00008FB103344EA034400FB0EFEA64509D9B5
:100CB0003C1900F1FF3380F00581A64540F2028126
:100CC00002383C4440EA0640A4EB0E0400261DB165
:100CD000D4400023C5E900433146BDE8F08702B99E
:100CE000FFDEB2FA82F2002A50D1CB1B4FEA174E38
:100CF0001FFA87F80126B3FBFEFC210C0EFB1C3308
:100D000041EA034108FB0CF38B4207D979180CF137
:100D1000FF3002D28B4200F2E9808446C91AA3B2A6
:100D2000B1FBFEF00EFB101143EA014408FB00F892
:100D3000A04507D93C1900F1FF3302D2A04500F2CB
:100D4000D9801846A4EB080440EA0C40BFE78B4268
:100D500009D9002D00F0B1800026C5E90001304618
:100D60003146BDE8F087B3FA83F6002E4AD18B42B4
:100D700002D3824200F2B880841A61EB03010120A1
:100D80008C46002DA8D0C5E9004CA5E7C2F1200390
:100D900020FA03F6974001FA02F04FEA174ED940C5
:100DA0003043030CB1FBFEF61FFA87F80EFB161159
:100DB00043EA014306FB08F1994204FA02F409D917
:100DC000FB1806F1FF3C80F08D80994240F28A804A
:100DD000023E3B445B1A81B2B3FBFEF00EFB1033C4
:100DE00041EA034100FB08F38B4207D9791800F16F
:100DF000FF3C73D28B4271D902383944CB1A40EA96
:100E0000064678E7C6F1200C03FA06F422FA0CF342
:100E10001C4320FA0CF701FA06F34FEA144E21FAAC
:100E20000CF11F433B0CB1FBFEF91FFA84F80EFBDB
:100E3000191143EA014109FB08FA8A4502FA06F250
:100E400000FA06F308D9611809F1FF3048D28A4543
:100E500046D9A9F102092144A1EB0A01BFB2B1FBB5
:100E6000FEF00EFB101147EA014700FB08F8B845F9
:100E700007D9E71900F1FF312ED2B8452CD9023835
:100E8000274440EA0940A7EB0807A0FB02894F4529
:100E9000C64649461AD317D05DB1B3EB0E0267EBD5
:100EA000010707FA0CFCF2404CEA0202F740C5E9E0
:100EB000002700263146BDE8F0872E4628460BE77E
:100EC0000646E9E61846FDE64345E5D2B8EB020ED4
:100ED00069EB04010138DFE70846D2E760468DE799
:100EE0008146B9E7664675E730464AE7ACF1020C41
:100EF000394413E702383C4424E700BF704700BF81
:100F000001F0FF01102A2BDB10F0070F08D010F8BA
:100F1000013B013A8B422DD010F0070F42B3F6D1BE
:100F2000F0B441EA012141EA014122F007047FF0D7
:100F300000070023F0E80256083C85EA010586EA2E
:100F4000010685FA47F5A3FA87F586FA47F6A5FA6A
:100F500087F68EB9EED1F0BC01F0FF0102F0070276
:100F600032B110F8013B013A83EA010313B1F8D121
:100F70000020704701387047002D06BF3546033802
:100F8000073815F0010F07D1013015F4807F02BF3B
:100F9000013015F4C03F0130F0BC0138704700BF8C
:100FA00010F8012B11F8013B012A28BF9A42F7D013
:100FB000D01A7047034613F8012B002AFBD1181AE8
:100FC000013870477BB972B90029BEBF00204FF0CD
:100FD000004106E008BF00281CBF6FF000414FF041
:100FE000FF30FFF78BBFADF1080C6DE904CE00298F
:100FF00009DB002B1ADBFFF71FFEDDF804E0DDE95B
:10100000022304B07047404261EB4101002B1BDB1F
:10101000FFF712FEDDF804E0DDE9022304B04042F0
:1010200061EB4101524263EB43037047524263EB71
:101030004303FFF701FEDDF804E0DDE9022304B01D
:10104000404261EB41017047524263EB4303FFF7BB
:10105000F3FDDDF804E0DDE9022304B0524263EB66
:101060004303704700B1807B704708B1C07B704775
:10107000FF20704708B1408970474FF6FF707047F6
:1010800008B1808970474FF6FF707047426800686A
:10109000101A704700B50D4B5B68C3F308038BB0A3
:1010A00083B100212023CDE90231094B009302AA2C
:1010B0000B463C2029F060FE064A00210E2029F054
:1010C00049F9FEE70BB05DF804FB00BF00ED00E05E
:1010D0004C8E0900352E040007B50191FFF7DAFFA9
:1010E000019803B05DF804EB07F09CBA07B50191D5
:1010F000FFF7D0FF019803B05DF804EB07F074B977
:1011000038B502FB01F5FFF7C5FF284607F08AFA5C
:10111000044618B12A46002163F07AFA204638BD09
:1011200070B515460C46FFF7B5FF2DB9204607F000
:101130005BF92E46304670BD284607F073FA064626
:101140000028F7D0002CF5D02A46214663F038FA63
:10115000204607F049F9EDE7F8B50D460646FFF7DA
:1011600099FF284602F0A6FF07F0D8F90C4C206042
:1011700007F0C8F927682062381AE06107F0C8F95B
:10118000381A6061284602F0C3FF0FCC35460FC500
:101190000FCC0FC594E8030085E803003046F8BD86
:1011A000D0660020704710B51021044662F021FA85
:1011B000204610BD0EB403B503AB002153F8042B39
:1011C000019301F0A9FE02B05DF804EB03B0704793
:1011D00073B5044608462279A36832B1A3B90B4916
:1011E00002B0BDE8704001F05CBE094A267B094DA3
:1011F0000949647B012E18BF2946CDE9001407492F
:10120000FFF7D8FF02B070BD054AEFE7748E090002
:101210007B670A00708E09006C8E09008A8E0900B7
:10122000638E090073B5642280F8642440F205736C
:10123000234A0380C0F8742400230122214DC37285
:10124000A0F8403480F86E3480F87824C0F87C34FC
:10125000A0F880342978BFF35B8F114004460BD18E
:101260002846019111F0E6F9019928B1164801F0DC
:10127000D7FE284611F040FA134BC4F8703400250D
:101280000526124984F88864C4F88C5404F59260E9
:1012900001F054FF0E4904F5946001F04FFF04F58E
:1012A00097630C4AC4F8B054A4F8B4541A600A4ABC
:1012B00004F2BC4320461A60267002B070BD00BF25
:1012C000C48E0900F8660020FC6600207B670A00D7
:1012D000A78E090033335340000048427047006A2C
:1012E0000368DB68184710B5044600F5946001F008
:1012F000DAFE04F5926001F0D6FE204610BD10B56E
:101300000446006808B163F033F9204610BD0000C0
:101310000A4B10B50446036000F036FE214601F08A
:1013200038F802F029F902F0FFF82046044B40F8A3
:10133000043B00F01BFF204610BD00BF108F0900CA
:10134000F88E090010B50446FFF7E2FF204624217D
:1013500062F04FF9204610BD0149024801F044BF38
:10136000D08E09000467002070B502F005F9144919
:10137000144E01F0A9FD002441F2883000F030F94C
:1013800002F0FAF8314601F08CFD02F0F5F80A227D
:101390002146054601F0A2FD2846A5B201F088FDD0
:1013A000012128462FF01AFB4FF4FA6000F018F9DB
:1013B0000134002128462FF011FB152CDCD170BD23
:1013C000D88E0900E28E090070B5D0E900531426CA
:1013D000044606FB0356AE4204D0284601F063FEE5
:1013E0001435F8E7206863F0C3F8204670BD8842E2
:1013F000F8B504460D46164616D9904215D2A2F10C
:101400001406751AA1F114072C44B7421CD02CB154
:101410003146204601F0C3FE337C2374304601F090
:1014200042FE143E143CF0E70ED0B5420CD02CB175
:101430002946204601F0B3FE2B7C2374284601F098
:1014400032FE14351434F0E7F8BD2DE9F0410023E5
:10145000C0E9003383604F689F4204460E4623DD97
:101460004FF0140808FB07F063F07AF80546D8B18E
:10147000D4E9001208FB0212FFF7B9FF206863F0FD
:1014800077F82560A760D6E9007308FB0378B845B4
:1014900008D03946284601F09CFE3B7C2B7414375B
:1014A0001435F4E7736863602046BDE8F0810000FE
:1014B000F0B5344D344B354EAB6000248DB02C600C
:1014C000AC80AC71032022F029FD32463049284619
:1014D00062F08AF82146012022F044FDCDE9004463
:1014E000029402F049F82B4C0546694603A8FFF721
:1014F000ACFF274603A906A8FFF7A7FF264B47F82E
:10150000043B06A909A8FFF7A0FF09AA1E21384637
:1015100001F092F809A8FFF757FF06A8FFF754FF5C
:101520001E4B2360256203A8FFF74EFF1C4B236070
:1015300002F022F84FF4165101F0F2FF00F024FD02
:10154000214601F00BF86846FFF73EFF2046154C98
:101550001549324662F048F801212046FFF762FE45
:101560002046124C1249324662F03EF8114920469C
:1015700001F0E4FD10493246204662F035F80DB026
:10158000F0BD00BFE06B00200000FFFF34710020C1
:10159000FF120300EC6B0020F88E09003490090064
:1015A000108F090014670020111303000467002046
:1015B000E71203007B670A00A730030013B5044657
:1015C000084659B10191FFF7F5FC23680199DB68E2
:1015D0000246204602B0BDE81040184702B010BDD8
:1015E000002125F061BC10B5036804469B6898474C
:1015F000A368013BA3602BB923682046DB68BDE8E4
:101600001040184710BD10B50446006808B110F02E
:101610008EFE204610BD0B68036013B15A6801327C
:101620005A60704710B50446006828B14368013B12
:1016300043600BB9FFF7D7FF204610BD10B5064C2D
:1016400000232046236010F068FE2046034A044928
:10165000BDE8104061F0C8BF106C0020347100205C
:101660000716030010B58368044613B10322014630
:101670009847204610BD30B5CA788D784C68003A3E
:1016800018BF0122C0E90054027230BD13B50B46E9
:101690000246D0E900016C4684E8030093E80300A9
:1016A00082E8030094E8030083E8030002B010BD61
:1016B00000224068114623F022BF002240681146F4
:1016C00023F01BBF4068002223F016BF40680022B1
:1016D00081F0010124F02AB8002340681A46194617
:1016E00023F0D4BF002340681A46194623F0AABF4E
:1016F00000224068114623F08FBE00224068114648
:1017000023F0D2BE40680022022123F03DBF002317
:1017100040681A4624F0C0B8024B03225A60024ABD
:101720001A607047146C0020288F09007047F8B5C4
:10173000064615460C468F18BC4206D0336814F88E
:10174000011B9B6830469847F6E72846F8BD007CA9
:10175000002212F005B8007C002112F029B8007CAC
:10176000002112F03FB8007C002112F05DB8007C2F
:10177000002112F079B810B51421044661F039FF48
:10178000204610BD10B54FF47A7304460846002178
:10179000C4E90113034B23602074114612F07CF856
:1017A000204610BD5C8F090038B5002383608B682C
:1017B00004460D462BB102229847EB68E360AB6804
:1017C000A360204638BD704710B51821044661F06B
:1017D00010FF204610BDF0B5037D062B8DB00E46E0
:1017E00000F104074FF0000412D000F1080515F8CD
:1017F000011D0A22304601F071FBAF42044419D0AA
:10180000002CF4D02E21304601F04FFB0444EEE7CB
:101810002F236A4639460A208DF8004019F0CDF88A
:101820006846FFF7C7FB33680246DB686946304607
:101830009847044620460DB0F0BD000010B5054B9A
:101840000446112240F8043B002162F0E1FE2046EC
:1018500010BD00BF848F09000346074A10B543F846
:10186000042B01F1100251F8044B43F8044B914250
:10187000F9D10A781A7010BD848F090010B59DF84F
:10188000084044EA032343EA024242EA0161042396
:101890004160037510BD13B5CB7800938B784A78FF
:1018A0000978FFF7EBFF02B010BD00F11003012231
:1018B00013F8101C0129184608D153F8041C02EB38
:1018C0004102013A03F11003F2D17047022904BF2B
:1018D00053F8041C5218F4E70EB4F0B588B000AF0A
:1018E00007F13405102155F8042B7A6004462B4685
:1018F0007818FD6064F09EFE0F287A681AD900F10E
:10190000080323F007036E46ADEB030D411C2B4685
:101910006846FD6064F08EFE021E04DD23686946A1
:101920009B6820469847B5462037BD46BDE8F04045
:1019300003B070470028F7D0236802469B6807F180
:10194000100120469847EFE710B5036804469B68EE
:101950009847A368013BA3602BB923682046DB6846
:10196000BDE81040184710BD07B503688DF8071093
:101970009B6801220DF10701984703B05DF804FB55
:1019800038B50B6803604D6843689D4204460CD02F
:1019900015B16B6801336B60606828B14368013B27
:1019A00043600BB9FFF7D0FF6560204638BD0B469A
:1019B0001146002210B5C0E90022044683600BB92D
:1019C000204610BDFFF7DCFFFAE78368EBB11A7819
:1019D000032A1AD8DFE802F00417021B052070471B
:1019E00002685B685268D05C2D2812D0A0F13003E9
:1019F000092B0ED974280ED066280CD0A0F16E03E6
:101A00005842584170470620704700207047042014
:101A10007047032070470220704710B50446FFF757
:101A2000D4FF02280ED0C31EDBB2012B14D82268CB
:101A3000A36850685B68BDE810400A220021184482
:101A400064F0F2BA2268A36852685B68D05CA0F1C7
:101A500074035842584110BD0020FCE738B50023FC
:101A6000C0E9003304460E48C4E90203A9B10B786B
:101A7000032B06D08BB9136858684B68C35C6E2B78
:101A800007D013684D6858688B6828445B1BA060BA
:101A9000E36011462046FFF773FF204638BD00BFC4
:101AA0007B670A0038B500250B46C0E90055C0E940
:101AB0000255C0E90455044611464BB11A78012A73
:101AC00006D103F11002DB6882604361FFF758FF23
:101AD000204638BD10B54369044663B18068E060B4
:101AE000013B1030A0602061636113B1FFF7DDFEA0
:101AF000A060012000E0184610BD10B57D2104460D
:101B0000FFF732FF01232371204610BD08B503798A
:101B1000012B02D0022B04D008BD2C21FFF724FF9B
:101B2000FAE73A21FAE710B50446FFF7EFFF20463F
:101B30007B21FFF719FF00232371204610BD000011
:101B400013B504460191FFF7E1FF2368019ADB68B2
:101B500003492046984701232046237102B010BD57
:101B6000BAA7090013B504460191FFF7CFFF236818
:101B7000019ADB68034920469847012320462371D8
:101B800002B010BD52D709002DE9F0410D461746AD
:101B90002221DFF8A08004462F44FFF7E5FE294606
:101BA000BD422A4638D015F8016B222E03D05C2E98
:101BB00001D01F2EF4D82368521A9B6820469847FC
:101BC0005C212046FFF7D0FE0D2E0AD8072E1CD927
:101BD000A6F10803052B18D8DFE803F00D0F111745
:101BE0001315222E01D05C2E0FD131462046FFF76F
:101BF000BBFE2946D4E76221F8E77421F6E76E219F
:101C0000F4E76621F2E77221F0E723683246DB68E9
:101C1000414620469847ECE78D4204D023686A1A73
:101C20009B682046984722212046FFF79DFEBDE88D
:101C3000F08100BF908F090013B50446CDE9002163
:101C4000FFF764FF2046DDE90021FFF79DFF022337
:101C50002046237102B010BD13B50446CDE9002122
:101C6000FFF754FF2046DDE90021FFF78DFF012338
:101C70002046237102B010BD70470A680B46926877
:101C8000014618461047000010B5054B00220446D7
:101C9000114640F8043B28F0D1FE204610BD00BF9D
:101CA000A08F090010B50446FFF7EEFF2046202163
:101CB00061F09FFC204610BD70B50E4C04600025FD
:101CC0001C24C0E901459DF814409DF81060C560D2
:101CD00004F0030444EA8604E4B204744274857494
:101CE0004161427C0F2A0ABF034B0383C0E90630DF
:101CF00070BD00BFA08F09007B1C030080680368D3
:101D0000DB6818477047084611B10B685B681847D5
:101D1000704770477047704738B504460D460068F5
:101D20002E2163F0EDFA2368C31A2B6023B10378E8
:101D300003B1013023682060184638BD10B50C216E
:101D4000044661F056FC204610BD10B5042104463F
:101D500061F04FFC204610BD10B50421044661F02F
:101D600048FC204610BD08B5FFF71AF9B0FA80F01C
:101D7000400908BD10B50C4601F0FEFB844210D0AE
:101D800001F052FB844205D101F04EFBBDE810404A
:101D900001F047BB2CB1236820465B68BDE81040CA
:101DA000184710BD13B5044608460191FFF702F924
:101DB00001990246204602B0BDE81040FFF74CBF33
:101DC00013B5044608460191FFF7F4F8236801991A
:101DD000DB680246204602B0BDE81040184707B550
:101DE00003688DF80710DB6801220DF107019847A1
:101DF00003B05DF804FB0EB403B503AB002153F848
:101E0000042B006A019301F087F802B05DF804EB3F
:101E100003B070472DE9F74FD0E900954FF0140853
:101E200008FB05F50093AB10184D17465D434C4673
:101E3000002D23DD6E1008FB06F004EB000A3A4685
:101E4000BAF804B0205801915F4528BF5A4663F0A4
:101E5000F5FF0199012378B95F4503D1009A13700A
:101E60003546E5E78CBF012000200028F8D0AE1BE6
:101E70000AF11404013EF3E7C00FF6E7A4EB0904EE
:101E80000248A410604303B0BDE8F08FCDCCCCCCA9
:101E90007FB50369067E01910BB301B3002500F104
:101EA0000C04039503A901A8FFF736FF0146B0B162
:101EB0000DF10B03039A8DF80B502046FFF7AAFF94
:101EC0009DF80B305BB12468142303FB004000F144
:101ED0000804B0F90630002BA8BFDEB2E2E73046B6
:101EE00004B070BD10B50A4C2378BFF35B8FDB07DD
:101EF0000BD4204610F09EFB38B1204610F0FCFBBE
:101F0000044A0549054861F06FFB044810BD00BF55
:101F1000206C002034710020151D0300005E00209D
:101F200010B50A4C2378BFF35B8FDB070BD4204638
:101F300010F080FB38B1204610F0DEFB044A054962
:101F4000054861F051FB044810BD00BF246C00201F
:101F500034710020131D0300045E002038B50025F5
:101F60000446C0E90055C0E904558560856140F824
:101F7000245F10F0D2F9FFF7B5FFE061FFF7D0FF63
:101F800025732062204638BD10B50B4C2378BFF373
:101F90005B8FDB070ED4204610F04CFB50B1074896
:101FA000FFF7DCFF204610F0A7FB054A0549034870
:101FB00061F01AFB014810BD1C6C00202C6C002045
:101FC000347100201D240300024A03490348002302
:101FD00028F090BEF92203008522030005220300A9
:101FE00000231A461946184628F084BE37B50D69F5
:101FF00051F8043B0093044601A8FFF70CFB6A4626
:1020000029462046FFF7D3FC01A8FFF70BFB20462B
:1020100003B030BD37B58D6851F8043B00930446DA
:1020200001A8FFF7F8FA6A4629462046FFF73AFD6D
:1020300001A8FFF7F7FA204603B030BD37B5CD68E9
:1020400051F8043B0093044601A8FFF7E4FA6A46FE
:1020500029462046FFF702FD01A8FFF7E3FA2046D4
:1020600003B030BD70B58AB00D46014604A8FFF735
:10207000D1FF144E04A8FFF72DFDE8B104A968466E
:10208000FFF7DCFF02983146FFF76DFE044610B102
:102090002C1E18BF012401A8FFF7C4FA002CE9D0B8
:1020A00004A96846FFF7A2FF6846FFF7B6FC286060
:1020B00001A8FFF7B7FADDE705A8FFF7B3FA0AB002
:1020C00070BD00BFAC8F090037B50C4620461249E1
:1020D0001546FEF765FF48B901F04EFA4FF4165168
:1020E00001F01EFA01F048FA03B030BD0B4920465A
:1020F000FEF756FF70B94FF4165301A92846019315
:10210000FFF7B0FF01F090F9019901F087F901F0B4
:102110008BF9E9E70020E7E7B18F0900B88F0900E4
:1021200070B5D0E900531426044606FB0356AE42B0
:1021300005D005F10800FFF7F3FF1435F7E7206835
:1021400062F016FA204670BD70B5D0E9005304461F
:1021500005EB0316AE4204D0284600F0A4FF10356C
:10216000F8E7206862F004FA204670BD10B5044616
:102170000C30FFF7D5FF2046FFF7E6FF204610BDE5
:1021800010B5044B044640F8043BFFF7EFFF204630
:1021900010BD00BFF88E090010B50446FFF7F0FF30
:1021A0002046242161F025FA204610BD10B5034BCE
:1021B00003600446FFF7E4FF204610BD4C90090081
:1021C00010B50446FFF7F2FF2046242161F011FA12
:1021D000204610BD0022C0E9002210B582600C68C4
:1021E00004604C6844608C680A604A6084608A605D
:1021F00010BD10B503680446186810F0ACF820460E
:1022000010BD00002DE9F04F87B0804603931C4BB2
:102210005B68C3F30803894616466BB9FFF7B4FE43
:10222000044600F12403406A059310F085F8237BEF
:102230002BB105A8FFF7DDFF07B0BDE8F08F012344
:102240002373D4E900535FFA89F905EB830AAA45A1
:1022500012D055F8047B3146381DFFF719FE814531
:10226000F5D33B68039A0092D3F808B04A46334648
:1022700041463846D847EAE700232373D9E700BF31
:1022800000ED00E02DE9F74F9B461A4B5B68C3F366
:1022900008038046894616466BB9FFF775FE04466B
:1022A00000F12403406A019310F046F8237B2BB120
:1022B00001A8FFF79EFF03B0BDE8F08F0123237351
:1022C000D4E90053F6B205EB830A55450ED055F814
:1022D000047B5946381DFFF7DBFD8642F5D33B688A
:1022E0004A46DB68414638469847EEE700232373A9
:1022F000DEE700BF00ED00E02DE9F341164B5B681F
:10230000C3F3080305460F461BBBFFF73DFE00F174
:1023100024030446406A019310F00EF8D4E90063E8
:10232000462406EB8308B04509D101A8FFF761FFF9
:10233000A542B4BF0020012002B0BDE8F08156F8EC
:10234000040B39460430FFF7A3FD8442A8BF0446BE
:10235000E9E70020F0E700BF00ED00E070B50446BB
:10236000D0E900020B4600EB8202824207D0014610
:102370001D6851F8046BAE4203D00846F5E7002013
:1023800070BD521A62F02AF96368013B6360012054
:10239000F6E71FB500F124030446406A0191039358
:1023A0000FF0CAFF01A92046FFF7D8FF18B16368F4
:1023B0000BB9FFF715FE03A8FFF71BFF04B010BD14
:1023C00070B5D0E904561823044603FB0656AE4206
:1023D00015D005F110012046FFF7C0FF63680BB967
:1023E000FFF7FEFDE06929690368DB6898476969C2
:1023F00019B1206A0368DB6898471835E7E7D4E924
:102400000453182606FB0356AE4204D0284600F0BB
:102410004AFE1835F8E70023636170BD73B50446C2
:10242000FFF7DEFD04F12403606A01930FF084FFDF
:102430002046FFF7C5FF01A8FFF7DBFE606A08B181
:102440000FF075FFD4E90453182606FB0356AE427D
:1024500004D0284600F027FE1835F8E7206962F01E
:1024600087F8206862F084F8204602B070BD884288
:10247000F8B506460C46154627D9904226D2A2F159
:1024800014056C1AA1F1140704440026AF423DD094
:10249000A4B12B682360AB88A380B5F90630E38034
:1024A000C4E902662661AB68A360AE60E368EA68CF
:1024B000E260EB6023692A6922612B6105F1080063
:1024C000FFF72EFE143D143CE0E71FD00027AC427E
:1024D0001CD0A6B123683360A388B380B4F906305A
:1024E000F380C6E902773761A368B360A760F36839
:1024F000E268F260E360336922693261236104F1CA
:102500000800FFF70DFE14341436E0E7F8BDF8B507
:10251000D0E901539D4204460E4617460DDB0135B6
:10252000002D006804DDA90062F082FD18B9F8BD35
:1025300062F01EF800202060A5602568626805EB47
:1025400086019200A2EB8602081D62F047F845F86A
:1025500026706368013363600120E8E737B500F156
:1025600024030446406A01930D460FF0E5FED4E9CA
:10257000003103EB810083421A460BD01268AA4255
:1025800003F10403F7D101A8FFF733FE0025284625
:1025900003B030BD2A462046FFF7B9FF05460028A4
:1025A000F1D06368012B01D1FFF70EFD01A8FFF701
:1025B00020FEECE78842F8B504460D46164614D9CD
:1025C000904213D2A2F11006751AA1F110072C4403
:1025D000B74218D01CB13146204600F0E0FD30462D
:1025E00000F061FD103E103CF2E70CD0B5420AD07D
:1025F0001CB12946204600F0D2FD284600F053FDCC
:1026000010351034F2E7F8BD70B50E1E054611DD29
:10261000300161F0A5FF044658B1D5E9001201EB85
:102620000212FFF7C7FF286861F0A2FF2C60AE60BE
:10263000012070BD0024F6E72DE9F04F914697B0D8
:1026400000230391D9F804100C9346229942C0E963
:102650000033C0E90233C0E90433CDE90A3304464C
:10266000027623DCD9E90057142303FB0757AF4256
:102670003BD029460DA800F092FD0DA911A80B9E94
:1026800000F08DFDDDE90B1399421BDA0A9B0B9AD2
:1026900003EB061603EB0212314606F11000FFF7BA
:1026A00089FFEEB90B9B01330B9311E00AA8FFF7EA
:1026B000ABFF0028D6D10AA8FFF746FD204617B089
:1026C000BDE8F08F01310AA8FFF79EFF0028DDD199
:1026D00011A800F0E8FC0DA800F0E5FC1435C6E7F1
:1026E00011A9304600F05BFDDCE70026CDE90D6660
:1026F0000F9637464FF0140ADDE90A239E4280F216
:1027000097803301D35808930BB90136F4E70AFBDD
:1027100006F3099702930DAD09A908A8FFF7FCFA83
:1027200083460028F1D00146099A8DF81F700DF1FB
:102730001F032846FFF76EFB9DF81F800190B8F13C
:10274000000F66D1BDF82430ADF84830CDE91388CC
:102750004FF6FF73CDF844B0ADF84A30CDF8548051
:10276000D5E9013293421ADB03F1010BBBF1000FF3
:102770004ADD0AFB0BF061F0F3FE0490002845D01F
:10278000D5E900120AFB0212FFF771FE049B2868CC
:10279000049361F0EDFE049B2B60C5F808B0019B2B
:1027A000D5F800B06A680AFB03F30BEB030101F1F3
:1027B00014000AFB02B204910593FFF758FE049936
:1027C000A9B1059B119A4BF80320BDF848308B80C6
:1027D000BDF94A30CB80C1E902770F61139B8B6052
:1027E000149B1397CB60159B14970B6115976B681F
:1027F00001336B6013A8FFF793FCB8F1000F08D00A
:102800000DA8FFF78DFC56E74346C0E74FF00108DF
:10281000F0E7019B2D680AFB0355089B1B782BB939
:10282000D9F80030029A13441B7CEB80083573E71B
:102830002168226062686360A3680B920C9A0C9313
:10284000E368A2600D9A0D932369E2600E9A0E93DD
:10285000636922610F9A0F93039B0A916261237649
:10286000CEE700007FB50546094B45F8043B04461A
:102870000E4601A81146FEF7E8FD01AA314628469A
:10288000FFF7DAFE01A8FEF79FFD204604B070BDF9
:10289000F88E0900F0B50F4687B026490C9C3846E3
:1028A00016461D46FEF77CFB00BBE4B12946684690
:1028B000FFF790FC2049242060F09DFE054670B192
:1028C000694603A8FEF7C1FD03AA31462846FFF773
:1028D000C9FF03A8FEF778FD184B2C622B606846F1
:1028E000FEF772FD2C46204607B0F0BD144938466D
:1028F000FEF756FBE0B9002CF5D029466846FFF7F5
:1029000069FC0D49242060F076FE05460028E6D0DB
:10291000694603A8FEF799FD03AA31462846FFF74A
:10292000A1FF03A8FEF750FD064B2B602C62D6E7F3
:102930000024D8E7C08F0900CC930A004C9009000E
:10294000C48F090034900900014B024A1A60704795
:10295000286C0020D58F09002DE9F047089DD0F89C
:10296000209004460E461746984600F005FE814525
:102970004CD02B79190704D56A6954492046FFF7D2
:102980003AFAB8F1000F0DD05B212046FFF727FA85
:1029900041462046FFF714FA23684D49DB680222BE
:1029A000204698472B79DA0723D5D5F808802F21C0
:1029B000404663F099FA08B100F10108414620460B
:1029C000FFF7FEF92B799B0708D53A212046FFF740
:1029D00006FAEA683F492046FFF70DFA2A7923688C
:1029E00012F0040FDB6814BF3B493C490222204629
:1029F00098472B7958071DD529690B461A4613F8B5
:102A0000010B60B1202808D11946F7E7344800F0DF
:102A10005EF90028ADD0BDE8F0872828EED1236804
:102A2000521ADB682046984723682E49DB68042247
:102A3000204698470021384628F014FA01462046DF
:102A4000FFF7BEF923682549DB6802222046984734
:102A50001EB131462046FFF7B3F92B7913F0300F42
:102A60002CD023682049DB680222204698472B7926
:102A7000D9060AD523681D49DB68072220469847F6
:102A8000AA691B492046FFF7B6F92B799A0611D59A
:102A9000DB0605D523681049DB68022220469847EB
:102AA00023681449DB6820460A229847E9692046D2
:102AB000FFF786F95D212046FFF791F923680E495B
:102AC000DB6820460222BDE8F0471847D98F09008D
:102AD000E08F0900BAA70900E38F0900E88F090019
:102AE000546C0020E68F0900EB8F0900EE8F09007F
:102AF000F68F0900F98F0900CFEC09002DE9F043AA
:102B000085B0D0F820900C9C05460F4690461E4696
:102B100000F032FD814505D1494800F0D8F8002881
:102B200040F08A802B6A474A01924FF0000901A8C1
:102B300003938DF80890FEF7F6FF4946404628F0CB
:102B400091F941498046012201A8FFF775F84146F5
:102B5000FFF728F93FB13D49012201A8FFF76CF8C2
:102B60003946FFF71FF93EB13949012201A8FFF7A5
:102B700063F83146FFF716F92379DF070ED5A6680B
:102B80002F21304663F0B0F900B1461C31490122D3
:102B900001A8FFF751F83146FFF704F923799E07A2
:102BA00007D52D49022201A8FFF746F8E168FEF794
:102BB000C7FF2379580714D5266933461F4613F8F3
:102BC000012B2AB1202A01D11E46F7E7282AF5D188
:102BD0002249022201A8FFF72FF8BA1B3146FFF75E
:102BE0003BF82379190707D51D49012201A8FFF7F2
:102BF00023F86169FEF7B6FF2379DA0608D50422C7
:102C000018490DEB0200FFF717F8A169FEF798FFCE
:102C100023799B0607D51449062201A8FFF70CF873
:102C2000E169FFF7BFF801A8FEF767FF286A0F49BF
:102C300003680222DB68984705B0BDE8F08300BF57
:102C4000546C00201C900900C691090047DB090064
:102C500044310A0008980A0004900900079009000E
:102C600045C6090025E409000A900900CFEC0900D7
:102C7000002340681A4622F00FBE4068002202215D
:102C800022F082BC00224068114622F00DBC0022D6
:102C90004068114622F0C0BB002340681A4619461E
:102CA00022F0D0BC002340681A46194622F0EEBC40
:102CB0004068002281F0010122F038BD4068002206
:102CC00022F01ABC00224068114622F016BC0022F5
:102CD0004068114622F013BC2DE9F043002495B062
:102CE00016460D460746FEF7A9FD214618220EA8F6
:102CF000009461F08DFC4023CDE90C3421466B46F5
:102D00000CAA304617F0C4FE0446002846D10246FD
:102D10000121686822F080FB022180462246686813
:102D200022F07AFB009E81462146002E36D00029F3
:102D300034D17368022B03D00A2B0BD0F669F4E769
:102D4000B8F1000F04D0716938460431FEF7A3FDD5
:102D50004146F3E7B9F1000F01D14946EEE7746946
:102D6000102201A861F054FC06238DF8143001AD47
:102D700004F108031834186859682A4603C2083356
:102D8000A3421546F7D101A906A807ADFEF764FDD9
:102D90000FCD3C1D0FC42B682370DEE7009817F0A1
:102DA00075FE384615B0BDE8F0830000024B034ABB
:102DB0001A6000225A607047546C002094900900F9
:102DC00010B50446006861F0D3FB204610BD38B54D
:102DD0000D1E0446006803DD62F02AF918B938BDFB
:102DE00061F0C6FB00202060A5600120F7E72DE917
:102DF000F0410F4641681D461944836899420446D4
:102E0000904612DC266862683E44D21B3146701937
:102E100061F0E4FB2A464146304661F0D1FB63682D
:102E20002B4463600120BDE8F081FFF7D0FF00284C
:102E3000E8D1F8E708B513460A464168FFF7D7FF1F
:102E400008BDF8B5D0E901539D4204460E460CDAA0
:102E5000276862687919521B481C61F0BFFB7E55D8
:102E60006368013363600120F8BD691CFFF7AFFFA1
:102E70000028EDD1F8E7F8B506460D468F18002476
:102E8000BD420CD0336815F8011B9B68304698474B
:102E9000031E01DB1C44F3E7002C08BF1C46204640
:102EA000F8BD08B5FEF78AFB08BD03689B681847A4
:102EB00038B50D210546FFF7F8FF0A2104462846DC
:102EC000FFF7F3FF204438BD38B50546FEF776FB23
:102ED00004462846FFF7ECFF204438BD30B58BB0E0
:102EE00000238DF82430012A98BF0A2209AC0D4630
:102EF000B1FBF2F101FB125303F0FF03092B94BF66
:102F000030333733DBB2AA4204F8013DEFD9214612
:102F1000FEF754FB0BB030BD2DE9F04186B000AF99
:102F200005460E46381D142114463B6063F082FBB3
:102F300013280ED8391D2846FEF740FB04461EB163
:102F40002846FFF7B5FF044420461837BD46BDE8C4
:102F5000F08100F1080323F00703E846ADEB030D11
:102F60002246411C3B68684663F064FB694628467C
:102F7000FEF724FB0446C546E1E710B5044628B138
:102F800061F0FEFF90FBF4F303FB1404204610BD38
:102F9000884210B5044603DA081AFFF7EEFF04442E
:102FA000204610BD10B50446FEF75CFB204610BD60
:102FB00010B5044627F062FB844208D01CB1BDE87E
:102FC000104027F041BBBDE8104027F079BA10BD92
:102FD00070B505460E46144627F050FB50B144EA42
:102FE000062040EA054027F065FABDE87040E7207A
:102FF00027F0C0BA70BDC2B2C0F30721C0F30740CA
:10300000FFF7E6BF0348044A04490023836060F0E9
:10301000EBBA00BF5C6C002034710020A52F0300C8
:1030200010B504460846217014F05EFA0023636070
:10303000204610BD2DE9F84306460C4691461F4632
:1030400014F0D1FC002580469FB9336830461B69D7
:1030500098470028F8DD336830465B6998474D454E
:10306000C1B203D00D2901D00A290AD1002323704F
:1030700005E014F0B8FCA0EB0800B842E5D9BDE8C3
:10308000F883082901D07F2909D1002DDCD0013C2B
:10309000013D336830469B68EDB29847D4E704F8A9
:1030A000011B0135F5E710B50446006861F060FAD0
:1030B000204610BD10B50446006808B161F058FA0A
:1030C0000023C4E90133236010BD38B504460D4622
:1030D0000068013161F0ACFF10B1C4E900050120C6
:1030E00038BD10B50368044623B143688B4201D351
:1030F000012010BD2046FFF7E8FF0028F9D0A368A3
:10310000002BF5D122681370F2E737B50D46114652
:1031100001920446FFF7E5FF019A28B92046FFF720
:10312000C9FF204603B030BDA2602946206861F087
:1031300047FA2268A3680021D154F2E7002313B5AF
:10314000C0E9003304468360037341B1084601912E
:10315000FDF730FF019902462046FFF7D6FF2046D3
:1031600002B010BD38B5054600680C4668B16A6803
:103170008B689A4207D3096862F0CCF8A368AB6009
:103180000023A36038BD61F0F3F923682B60636806
:103190006B60A368AB600023C4E90033F1E710B5AE
:1031A0000023C0E90033044683600373FFF7DAFFAE
:1031B000204610BD884210B5044605D00B682BB1DF
:1031C0008A681946FFF7A1FF204610BDFFF772FF7E
:1031D000FAE710B500230446C0E9003383600373A7
:1031E000FFF7E8FF204610BD13B5044659B1084665
:1031F0000191FDF7DFFE019902462046FFF785FFAA
:10320000204602B010BDFFF755FFF9E770B505463F
:103210000E4609B9002070BD6AB184681444214685
:10322000FFF75FFF0028F5D02868AB6831461844E7
:1032300062F070F8AC600120EDE707B500238DF86F
:103240000410012201A98DF80530FFF7DFFF03B05C
:103250005DF804FB0EB470B587B00BAD044655F8AD
:10326000042B01922B46052104A8039563F0E2F993
:103270000B4906462046FFF761FF31462046FFF71F
:1032800030FF206830B1019A03952B46711C63F022
:10329000D1F9A060204607B0BDE8704003B0704788
:1032A0007B670A0007B500220346009211460420FE
:1032B00020F064FE03B05DF804FB07B5002203466E
:1032C00000921146022020F059FE03B05DF804FB85
:1032D00008B1024B1868FFF7F0BF00BF786C002000
:1032E00007B50B4600210246009101208C2120F0F9
:1032F00045FE03B05DF804FB01460020FFF7F0BF78
:103300000020FFF7F9BF07B50022034600921146DF
:10331000032020F033FE03B05DF804FB10B5094B29
:10332000094C022200201A60084B2060A080A07186
:10333000A36020F0F3FD2046054A0649BDE8104091
:1033400060F052B9786C00206C6C00200000FFFF28
:1033500034710020FF120300024B1A68024B1A60FE
:10336000704700BF085E00207C6C002070474174ED
:10337000704708B5007C15F0FDFA20EAE07008BD42
:1033800008B5007C15F0AFF920EAE07008BD08B57B
:10339000007C15F0BFFA40EAE07008BD08B5007C7B
:1033A00015F04EFA40EAE07008BD007C14F030BD24
:1033B00037B5457C04462DB1207C03B0BDE83040D4
:1033C00015F0ACBB007C019115F0D4FA00280199EE
:1033D000F2DC284603B030BD10B51421044660F07D
:1033E00008F9204610BD000010B54FF0000C04464F
:1033F000084611464FF47A72C4E901C2044A2260B9
:103400000122207462741A4614F096FD204610BD05
:10341000E4900900007C002315F056B80022FFF765
:10342000F9BF007C14F044BD13B50E4C2178BFF3F6
:103430005B8F11F0010112D1204601910FF0FAF8D3
:10344000019960B1084A094B0948FFF7CDFF2046B2
:103450000FF052F9074A0849054860F0C5F80448DA
:1034600002B010BD806C0020846C0020086D00202C
:103470008C6D0020347100206D330300417470475F
:10348000704708B50021007C15F0B2FB40EAE070FF
:1034900008BD08B50121007C15F0AAFB40EAE070E8
:1034A00008BD08B5007C15F0A1FB20EAE07008BD5E
:1034B00008B5007C15F098FB20EAE07008BD13B554
:1034C0000446007C019115F091FB0028019901DC74
:1034D000607C20B1207C15F09BFB20EAE07002B0FC
:1034E00010BD007C15F09FBB10B51421044660F0A0
:1034F00080F8204610BD000010B54FF47A730446E2
:1035000008460021C4E90113044B23600123207401
:103510006374114615F030FB204610BD149109006C
:10352000007C002215F052BB007C15F059BB007CDA
:1035300015F058BB10B514220446002161F068F85C
:10354000204610BD10B500224FF47A73C0E9012364
:10355000084B036086B004464FF48073038201A8D1
:10356000FFF7E8FF207C01A915F006FB204606B016
:1035700010BD00BF1491090010B5104C88B003A80D
:10358000FFF7D8FF2178BFF35B8F11F0010111D154
:10359000204601910FF04EF8019958B103AA08484E
:1035A000FFF7AAFF20460FF0A7F8064A064904488D
:1035B00060F01AF8024808B010BD00BFA06D0020EE
:1035C000A46D002034710020813403007047012075
:1035D000704700224068114621F01EBF10B524211B
:1035E000044660F006F8204610BD002240681146EF
:1035F00021F085BF00224068114621F07EBF40685F
:10360000002221F079BF4068002281F0010122F000
:103610008DB8002340681A46194622F037B80023B7
:1036200040681A46194622F00DB80022406811463B
:1036300021F03ABF40680022022121F0A5BF0023FB
:1036400040681A4622F028B983897BB14369002B70
:103650000CDB07EE903A9FED077AF8EEE77A87EEFB
:10366000870ADFED057A20EE270A7047BFEE000AD1
:10367000704700BF00FF7F470000C842838963B1E5
:103680000369B3F1004F08D007EE903A9FED047A3A
:10369000F8EEE77A87EE870A70479FED020A7047D7
:1036A0000000C8420000000083897BB1036A002B40
:1036B0000CDB07EE903A9FED077AF8EEE77A87EE9B
:1036C000870ADFED057A20EE270A7047BFEE000A71
:1036D000704700BF00FF7F470000C842838963B185
:1036E0008369B3F1004F08D007EE903A9FED047A5A
:1036F000F8EEE77A87EE870A70479FED020A704777
:103700000000C8420000000070B50C46064600F1FB
:103710000C050FCC0FC594E8030085E8030033695E
:10372000B3F1004F0EBF0223642293FBF2F37360E8
:10373000B369B3F1004F0CBF002364224FF00100C6
:1037400018BF93FBF2F3B36070BD00002DE9F041A8
:10375000164B036000250F464FF002081826C0E9FB
:10376000018586B03246294604460C3060F050FF91
:1037700078682A46294621F04FFE80B13246294614
:10378000684660F045FF2A4669462846ADF8006065
:1037900005F054FA38B969462046FFF7B5FF2046D0
:1037A00006B0BDE8F081C4F80480F8E7789109001C
:1037B000024B04225A60024A1A607047B86D00201A
:1037C0004491090010B50446FDF7F4FB01382318B5
:1037D0002046834206D90278197800F8011B03F8C5
:1037E0000129F6E710BD70B50C46911E2229054649
:1037F00022D820466DB1B5FBF2F602FB1655E9B2B0
:10380000092D94BF30315731C9B200F8011B35463C
:10381000F0E7024623443021934202D902F8011B0B
:10382000FAE71A1A834238BF002200238354204645
:10383000FFF7C8FF204670BD0020FCE738B5031E27
:103840000C4615460EDAB3F1004F4FF02D0214BFAF
:103850005842184601230A702A461944FFF7C3FF4D
:10386000204638BD0123F9E7014B1860704700BFBF
:103870009C64002008B50B4B43B1FFF77DFE036845
:103880001B699847002801DDAFF30080064B43B168
:10389000FFF7CAFD03681B699847002801DDAFF3F5
:1038A000008008BD000000000000000008B5FFF720
:1038B000E1FF14F098F8014B186008BD28A0002023
:1038C0000248034A0349121A60F07ABE00F403204A
:1038D00004F4032004A60A0007B5002300931A4647
:1038E0006FF077011FF0D0FE03B05DF804FB00001D
:1038F00007B543880A2B08D0502B0BD1094B1B6806
:103900004BB103B05DF804EB1847FFF7E5FF03B0D8
:103910005DF804FB002300931A466FF077011FF057
:10392000B3FEF4E7C46D002038B5124C1248134DB5
:10393000002119F08FFA2368AB42114B0CBF012212
:1039400000221A7002D0FFF7BBFF256011F0C8FEFD
:10395000044661F0F1FA0B4B13B12046AFF300803F
:10396000002108481CF0F4FEBDE83840064800215C
:103970001FF080BE00F40320693803001E1C279A44
:10398000C06D002000000000F138030000487047BF
:103990000C5E00201FB5024600230520ADF80D3057
:1039A0008DF80C008DF80F3002FA00F0084B012959
:1039B000185A03EB421407D103AB0093A3780549CF
:1039C00010F088F904B010BD10F032FAFAE700BF29
:1039D0004C600020193A030007B50D4B03EB401271
:1039E00000219180DA783AB993F8233003F0FF028E
:1039F00013B9084B1A705A60C0B2002101901BF035
:103A0000F3FF0198012103B05DF804EBFFF7C2BF9B
:103A10004C600020C86D0020084BC0B203EB40137F
:103A200010B5002101249980DC70FFF7B3FF044B2F
:103A30001A7812B90A221C705A6010BD4C6000201E
:103A4000C86D002008B54001024B185A0FF02BFD3D
:103A5000C0B208BD4C60002010B52D4B1A78002A6A
:103A600050D05A68002A4DD05A68013A5A605868B6
:103A7000002847D1274C0A225A60E3780BB3FFF79E
:103A8000E1FFF0B9A3889BB233B9A3880A339BB294
:103A90000121A3801BF0A8FFA3880A339BB2A38057
:103AA000238CFF2B2ED094F8233093B994F8233035
:103AB00043B3002384F823300120BDE81040FFF712
:103AC0008BBFE378002BEBD00020E070FFF784FF82
:103AD000E6E70120FFF7B6FF94F822305A1E534262
:103AE000534183420FD1A38C9BB23BB9A38C0121DC
:103AF0000A339BB20846A3841BF076FFA38C0A33DB
:103B00009BB2A38410BD238CFF2BCFD1FAE700BF5B
:103B1000C86D00204C6000202DE9F0411A4C22783D
:103B200005460F4602F0FF030AB923706360174E83
:103B300006EB45134FEA45189B7836F80800012B31
:103B40000CBF032102210FF071FC012F03D1394674
:103B50002846FFF71FFF36F80830FF2B06EB080753
:103B60000FD02846FFF76EFFBB785A1E53425341D1
:103B7000834206D10123FB70227812B923700A23F5
:103B80006360BDE8F08100BFC86D00204C6000207C
:103B9000024B03EB4010808880B270474C600020DD
:103BA000BFF34F8F0549064BCA6802F4E062134326
:103BB000CB60BFF34F8F00BFFDE700BF00ED00E01B
:103BC0000400FA0534DF704735DF704718DF7047AF
:103BD00013DF704708B54CF09FFCBDE808401BF0B0
:103BE00063BF000037B5144B5B68C3F3080304469A
:103BF0000D46F3B904220DEB020140F2DA600193A5
:103C00000EF048FF88B9019B23420CBF012200221D
:103C1000AA420AD05DB123EA0403042240F2DA6129
:103C20000DEB020001930EF06BFF03B030BD234398
:103C3000F3E74FF0FF30F8E700ED00E037B50D4B4C
:103C40005B68C3F3080305460C4683B904220DEBF9
:103C5000020140F2DA6001930EF01CFF28B9019BCB
:103C60001D420CBF01230023237003B030BD4FF071
:103C7000FF30FAE700ED00E013B500240DF1070175
:103C800004208DF80740FFF7D9FF18B99DF8070009
:103C900002B010BD2046FBE71EF0040F0CBFEFF38F
:103CA0000880EFF309808169004A1047CD3D030089
:103CB00000B58FB0039004910592039B049B059B74
:103CC00020220023CDE90623094B7BB1AFF300800E
:103CD0000146084B009306AA3C20002327F04CF82D
:103CE000054A0021012026F035FBFEE70349F0E7F5
:103CF00000000000C8910900352E0400C49109009D
:103D000000B500238BB02022CDE90223094B7BB103
:103D1000AFF300800146084B009302AA3C20002329
:103D200027F02AF8054A0021012026F013FBFEE7C0
:103D30000349F0E700000000C8910900352E040097
:103D4000C491090000B500238BB02022CDE90223E5
:103D5000094B7BB1AFF300800146084B009302AAE8
:103D60003C20002327F008F8054A0021042026F013
:103D7000F1FAFEE70349F0E700000000D2910900E4
:103D8000352E0400C491090000B500238BB0202219
:103D9000CDE90223094B7BB1AFF300800146084B0C
:103DA000009302AA3C20002326F0E6FF054A0021EA
:103DB000052026F0CFFAFEE70349F0E700000000F7
:103DC000DB910900352E0400C491090000B593B0C1
:103DD000036802934368039383680493C36805935D
:103DE000036906934369079383690893C369099339
:103DF0000E4B9B6A13F0007301D0FFF7C5FF202222
:103E0000CDE90A230A4B7BB1AFF300800146094B91
:103E100000930AAA3C20002326F0AEFF064A0021A8
:103E2000012026F097FAFEE70449F0E700ED00E0F4
:103E300000000000C8910900352E0400C49109005B
:103E4000014B024ADA637047005C0020D53B030057
:103E500010B54FF00053194A1A604FF0FF325A6004
:103E6000174B8EB000249C6002A80223CDE90344C6
:103E700005940293FFF7AAFE98B12023CDE90634FA
:103E8000104BCBB1AFF3008001460F4B009306AA55
:103E90003C20002326F070FF0C4A00210A2026F067
:103EA00059FA0648FFF794FE4AF0B0FA4AF02CFBA4
:103EB0000028FBD00EB010BD0549E6E7005C0020ED
:103EC00000ED00E000000000E6910900352E04003E
:103ED000C49109001FB5042013F042FB1B4B1C4981
:103EE00001221A701B4B1C4A1846D21A60F068FB5C
:103EF0001A4A90602CF0FEF9002013F02BFCFFF71B
:103F0000A7FF11F0D3FB2CF0D3FAFFF7B5FEA0B159
:103F1000E72026F053FB03230E22CDE901320022D5
:103F20004FF4442300934FF091514FF44033104627
:103F30002CF0BBFB05B05DF804FB6FF07F4026F072
:103F4000B3FAE72026F016FBE5E700BF3ACA0020E7
:103F500000000300005C0020005E002000ED00E097
:103F600008B50EF0B1F808B1FFF71AFE11F0B8FB72
:103F700060F0E2FF11F0E6FBBDE80840FFF7D4BCBB
:103F800038B505460020FFF703FE04460120FFF781
:103F9000FFFDA84204D2AC4234BF0020012038BD4E
:103FA0000120FCE708B5024BC3E90101FFF7F8FD6A
:103FB00080F3032008B5074B6FF055021A735A734C
:103FC0002CF092FA044B64210022C3E90112FFF79E
:103FD000E7FD00BFC0F3032080F3032008B5054BC5
:103FE0006E2245F6FE21C3E9001200229A60FFF717
:103FF000D7FD00BF80F3032008B50B4C78B14FF616
:10400000FF736362094B4FF0FF321A725A722CF041
:104010006BFA78220023C4E90123FFF7C1FD4EF6B5
:10402000FA532360F5E700BF80F30320C0F30320B9
:1040300013B5174B5B6901930133044602D101A804
:10404000FFF7C0FD601E05281FD8DFE800F0030A57
:104050000D1019190198012814BF0020012002B089
:1040600010BD01980428F7E701980228F4E70198A9
:10407000B0F5803F02D0B0F5003FEDE70120EEE75C
:104080000198B0FA80F04009E9E70020E7E700BFB7
:10409000C0F3032010B1044B1B68036011B1024B45
:1040A0005B680B6000207047D46D002000222CF06C
:1040B0002DBA704700B5114B18688BB0D8B14EF6C9
:1040C000602140F0F3F9B0B92023CDE902300C4B68
:1040D0007BB1AFF3008001460A4B009302AA3C205B
:1040E000002326F049FE084A00210E2026F032F96E
:1040F000FEE70649F0E70BB05DF804FBDC6D00203D
:10410000000000000A920900352E0400C491090045
:10411000024B186808B140F03BB87047DC6D0020D6
:1041200038B51E4B1E4C01251D70FFF719FF0220EC
:10413000FFF77EFF78B11B4B5A6822609A68626075
:104140000022C3E901224FF0FF30FFF73DFDBDE83B
:1041500038401BF0B7BE0320FFF76AFF20B13C23B5
:10416000236000236360EEE70420FFF761FF08B1DE
:104170001E23F5E70520FFF75BFF08B12823EFE7D3
:104180000620FFF755FF08B13223E9E72846FFF77D
:104190004FFF08B11423E3E70A23E1E7E06D0020B5
:1041A000D46D002080F30320FFF7BABF07B50420C9
:1041B00040F002F80A4B0B4918600B4B01930223A5
:1041C00000934FF4C0620023084840F07BFBFFF7E8
:1041D00053FD08B126F038FA40F09EFCFEE700BF20
:1041E000DC6D002021920900D06D0020A941030060
:1041F00007B50338042819D8DFE800F007031814BE
:1042000016000120FFF7EEFC09E049428DF8071087
:10421000012240F6A1310DF107000EF071FC03B050
:104220005DF804FB0220EDE70420EBE74FF0FF30E0
:10423000F5E7062813B50BD006D8033801288CBF44
:104240000020012002B010BD07280ED00020F9E7A1
:1042500000240DF1070102208DF80740FFF7EEFC66
:104260000028F3D19DF80700ECE7FFF705FDE9E72B
:10427000013809289CBF024B43F82010704700BF4B
:1042800080F30320013809289ABF034B53F820001C
:104290004FF0FF30704700BF80F3032010B58AB0A5
:1042A0000446684660F0BCF9089B636023880F2BC6
:1042B00017D90D480D49132BA0EB0101E16010D96E
:1042C000009A2261172B0CD9059A62611B2B08D921
:1042D000074A1F2BA2EB0002A26102D904F080F969
:1042E000E06100200AB010BD00E80320D481012065
:1042F00000E8032018B1012804D000207047034BC8
:1043000098887047014B987C704700BFC0F303202A
:1043100072B600207047000010B5044630B9E42A98
:1043200004D1044860F04CF9204610BD4FF0FF3036
:10433000FBE700BF00F0032038B50D46044658B92E
:10434000E32A09D906490A88E42A05D11A602846D1
:1043500060F036F9204638BD4FF0FF30FBE700BF74
:1043600000F00320044B00221A60044A012111606E
:104370001A68002AFCD07047009102400090024069
:1043800010B503682F2B8AB0044614D900232022CD
:10439000CDE902230E4BCBB1AFF3008001460D4BAC
:1043A000009302AA3C20002326F0E6FC0A4A0021E2
:1043B0000A2025F0CFFF23681F2B85BF074803F095
:1043C0001F034FF0A04023600AB010BD0449E6E788
:1043D000000000002C920900352E0400000300505C
:1043E000C49109000B4611460246184644F09EBC93
:1043F00010B5FFF7B7FF002108460DF0B3FFFFF738
:10440000B1FF44F039FC0021044601200DF0AAFF61
:10441000112CF0D0204610BD38B504460D46FFF7EC
:10442000A1FF002108460DF09DFFFFF79BFF002232
:104430002946204644F052FB0021044601200DF09D
:1044400091FF204638BD07B500238DF800008DF898
:10445000011068461146ADF80230ADF80430FFF7A0
:10446000DBFF03B05DF804FB13B50EF037FE11243B
:1044700044F01EFC01A80194FFF782FF019B03F5A5
:10448000E073032240F8232068460094FFF778FF8A
:10449000009A01239340C0F80835152301A8019321
:1044A000FFF76EFF019B03F5E073042240F8232021
:1044B000064B4FF40072C3F88421054B00241C7096
:1044C0000EF040FE204602B010BD00BF00E100E04B
:1044D000E16D00201FB50446CDE902210EF0FEFD7E
:1044E000074B0093DDE90221064B20460EF063FEE8
:1044F0000446FFF77DFF0EF025FE204604B010BDF8
:10450000A9310400E54303002DE9F3470E4606F107
:10451000030929F003091546A9EB060704460EF026
:10452000DDFDAF4294BFEF1B6F1B37F0030719D0BF
:1045300024F0030A52463946484644F07DFC804642
:1045400028BB4E4501D1544509D0AAEB04010F44C4
:10455000A4EB0A013A464944304660F03FF83C4437
:104560003E44ED1BCDB1611924F003070331C91B93
:104570003A4621F00301684644F05EFC804630B9BB
:10458000E41B2A460DEB0401304660F019F80EF0EA
:10459000D9FD404602B0BDE8F087A846F7E7F8B578
:1045A00004460F460EF09AFD24F47F6424F00F04B5
:1045B0000026BE4204EB063104D100250EF0C2FDF8
:1045C0002846F8BD002044F0BDFC05460028F5D182
:1045D000FFF70EFF0136ECE70128F8B506460C465A
:1045E00017461D461DD1CB18B3F5007F1CD80EF021
:1045F00075FD00223146B120FFF725FF70B9204636
:104600002A463946FFF780FF044600220121C120D7
:10461000FFF719FF0EF096FD2046F8BD6FF002047B
:10462000F3E74FF0FF34F7E76FF00104F4E730B53C
:10463000044685B00D460EF051FD002C3BD1012300
:104640008DF80930022D40F20113ADF80A30ADF8B3
:104650000C3024D1B923002102A88DF80830FFF7CF
:10466000DBFE0446B0B9052D14D19923014602A8FA
:104670008DF80830FFF7D0FE044658B940238DF876
:10468000043001A940F2012302A8ADF80830FFF779
:10469000C3FE04460EF056FD204605B030BD032D86
:1046A00001D1AB23D7E7042D01D1B023D3E7052DEA
:1046B0000DD16623CFE7012C09D1012D07D102AA24
:1046C00002212F208DF80850FFF7BDFEE1E74FF0E3
:1046D000FF34DFE730B593B011240AA80A94FFF73E
:1046E0004FFE0A9B394D03F5E073032240F8232067
:1046F00003A80394FFF744FE039A01239340C0F8F4
:104700000835152304A80493FFF73AFE049B03F52C
:10471000E073042240F823200EF0E0FC0FCD05AC3E
:104720000FC400222B682360114605A844F0F8F856
:104730000D28274D21D020210023CDE90A13002D7B
:104740003FD12449244B00930AAA0023012026F0DC
:1047500013FB224B01221A70002300931A460321F7
:104760001846FFF764FF044600BB0090034602466C
:104770000521FFF75CFF044618E020220023CDE965
:104780000A23E5B1AFF300800146154B00930AAA56
:104790000023012026F0F0FA002300931A4604219A
:1047A0001846FFF744FF04460028C4D00EF0CAFCA8
:1047B000002C0CBF20466FF0F90013B030BD054946
:1047C000E3E7AFF300800146BCE700BF548A09006D
:1047D00000000000C49109007D920900E16D0020F5
:1047E0005092090037B5204D04460EF077FC2B7827
:1047F00094B3012B06D00EF0A5FC6FF0D104204637
:1048000003B030BD002300931A4602211846FFF77B
:104810000EFFC8B100231A46009304211846FFF783
:1048200006FF00231A46009305211846FFF7FFFEF6
:10483000002300931A4602211846FFF7F8FE0446AB
:1048400010B10EF07FFCDAE7FFF70EFE02232B70AB
:104850000EF078FC0024D2E7022BCCD1FFF73AFF10
:1048600004460028F4D0ECE7E16D002013B50F4CAE
:1048700013462278BAB90122227000940A460146F2
:104880000B4849F0ACFA58B92378012BFCD02078BA
:10489000003818BF012040420023237002B010BD31
:1048A0004FF0FF30F8E74FF0FF30F7E7E26D002000
:1048B0008C60002010B543688EB004461BB3002303
:1048C0002022CDE90623114BDBB1AFF30080217824
:1048D0000F4A104B012918BF134622690492A2689F
:1048E00003926268CDE901320B4B009306AA0023C4
:1048F0000146322026F040FA636902221A700EB097
:1049000010BD0648E3E742691370F8E700000000B5
:104910008F920900CEB9090095920900C49109004F
:1049200030B58DB00DF000FE1F492048204D00220B
:1049300049F047FA20210023CDE904130446002D55
:104940002ED0AFF300800146184B5A6812680392CC
:104950001A690292DB680193164B009304AA0023A4
:10496000012026F009FA20220023CDE90423CDB14D
:10497000AFF300800146104A104B002C18BF1346BD
:1049800001930F4B009304AA0023012026F0F4F9B1
:104990000DF0EEFD201E18BF012040420DB030BDCD
:1049A0000849D1E70749E6E744580A008C6000202F
:1049B00000000000D5920900CD920900CA920900BA
:1049C000FE920900C49109007FB5CDE9041003925D
:1049D0000DF0AAFD074B0093DDE90321064B059876
:1049E0000EF0E9FB03900DF0C3FD039807B05DF8EE
:1049F00004FB00BFA93104006D480300F7B5174C54
:104A0000019106460DF090FD2378254603F0FF073F
:104A100003BB012326F47F612370019A10482346CB
:104A200021F00F0149F009FA38B127706FF0010445
:104A30000DF09EFD204603B0F0BD2B78012BFCD07D
:104A40002B7803F0FF04002BF2D000232B706FF0C3
:104A50000204EDE74FF0FF34EAE700BFE26D00200B
:104A60008C60002013B50446CDE900210DF05CFDFB
:104A7000009A019821465FF0A3FD0DF079FD00201A
:104A800002B010BDEFF31180402383F3118870470B
:104A900080F311887047EFF311830370A02383F331
:104AA0001188704780F311887047232870B5044639
:104AB0000E460CD8FEF76AFF00EB0415EB78B34204
:104AC00004D0062B02D1204610F0D2FBEE7070BD50
:104AD00008B5054B588B10F05EFC012303FA00F07B
:104AE000013880B208BD00BFA060002038B518238F
:104AF0000C4A58430C46135C012B02EB00050FD106
:104B00002B79D9070CD5FFF7E3FF2A7903469207E3
:104B10002146688848BF191BBDE8384010F0CABC60
:104B200038BD00BFA060002070B50D4606460146A6
:104B300001201446FFF7DAFF29460220FFF7D6FFCF
:104B400021460320FFF7D2FF31460520FFF7CEFFB5
:104B500029460620FFF7CAFF21460720BDE870401E
:104B6000FFF7C4BF70B5184D0646FFF7B1FF2B7FA6
:104B700013F0020F0446688B1CD010F007FC201ABB
:104B800080B2308095F83430688E13F0020F14D064
:104B900010F0FCFB201A80B2708095F84C30B5F80C
:104BA0004A0013F0020F0BD010F0F0FB241AA0B251
:104BB000B08070BD10F0EAFBE3E710F0E7FBEBE735
:104BC00010F0E4FBF4E700BFA0600020064B1A7968
:104BD00002F0020210B91AB9002102E0002AFBD14A
:104BE000012158880EF034BCA060002010B5064B9F
:104BF0005C8820460EF057FCB0FA80F14909204647
:104C0000BDE810400EF024BCA060002038B5182389
:104C10000B4A58431518145C012C0FD168882146A3
:104C20000EF004FC2B79688813F0020FC3F34001E7
:104C300018BF2146BDE838400EF00ABC38BD00BFA1
:104C4000A060002001F0070170B5C1F10704CD1C80
:104C5000032C28BF0324062D8CBF043900214FF0FC
:104C6000FF3520FA01F605FA04F405FA01F126EA07
:104C7000040420EA01001460186070BD10B5094CEE
:104C8000002304F1140084F83030E36284F8253006
:104C9000A36284F8313049F0F8FD201DBDE81040D2
:104CA00049F0F3BD386F00200028ABBF00F1604031
:104CB00000F00F0000F56140034BACBF90F800031B
:104CC000185C4009704700BF14ED00E0044B5978B0
:104CD000814204D09A6B58700AB1D96B1047704763
:104CE000386F00202DE9F04F1C4C94F830308BB019
:104CF00003F0FF079BB1E2682169E36A0B449B1A4A
:104D00002289934228D8DFF85C80DFF85CA0DFF8C6
:104D10005CB0002504F10409E36A9D4203D33846E0
:104D20000BB0BDE8F08F18F8011B484649F079FD3B
:104D300080B100262023CDE9023602AA59463C2044
:104D4000CDF800A0334626F017F8054A31460A2070
:104D500025F000FB0135DFE70027E0E7386F002092
:104D6000352E0400786E0020989309008C9309007A
:104D700010B50C480C4C4BF0D8FA0122E06284F8D4
:104D80003020002284F83120E26A2AB9002384F816
:104D900030300120E36210BDFFF7A4FF0028FAD0F5
:104DA000F4E700BF90940900386F0020F8B5124C6A
:104DB00094F82430D3B194F83130BBB994F8303042
:104DC00003F0FF0793B90D4D0D492E8C0D4846F0A9
:104DD000010380222B844BF0ADFA922807D10123E6
:104DE000E76284F8307084F831302E84F8BD0028F2
:104DF000FBD1FFF7BDFFF8E7386F0020F06D002012
:104E0000786E00209094090008B50C4B93F824208C
:104E1000824212D083F8240060B103F1140049F0FB
:104E200034FD074A138C43F001031384BDE80840A6
:104E3000FFF7BCBF986283F8250008BD386F0020DB
:104E4000F06D00202DE9F743294C2A4D94F82430C9
:104E50002F8CE3B194F82530CBB1A36A5A1CA2621F
:104E600040F6C312934212D90026812047F022FF58
:104E7000304684F82560FFF7C7FF2B8C1E491F487A
:104E800043F0010332462B844BF02EFA2F8494F822
:104E900024304BB394F8253003F0FF0623BBE269BE
:104EA000236A9A4220D0DFF85080DFF854900DF149
:104EB0000701484649F0C7FC30B901369DF8073074
:104EC00008F8013B402EF2D10023A3622B8C0A4943
:104ED0000A4843F0010332462B844BF005FA10B91F
:104EE000012384F825302F8403B0BDE8F08300BF90
:104EF000386F0020F06D0020F86E002090940900BB
:104F00004C6F00200F2810B50BD80F280BD8DFE806
:104F100000F00B7411310A0A0A0A5A62790A0A432C
:104F20004D45812848D010BDFFF740FFBDE8104037
:104F3000FFF788BF0820FFF7C9FE0020FFF764FFD6
:104F4000812047F0B7FE012047F0B4FE324B00222B
:104F500083F8252083F83120304BC3E91E22C3E9B2
:104F600020225A62DA6203F134025A67BDE8104027
:104F700049F0C8BE4AF090FC052896BF284B002097
:104F8000185CFFF7A3FE254B1B8CDB07CBD501205C
:104F9000BDE81040FFF738BFFFF770FE4AF07CFC19
:104FA000052896BF1E4B0020185C06E049F08EFED7
:104FB000194B93F8403023B10220BDE81040FFF7B1
:104FC00085BE0120F9E747F005F80028ABD1BDE820
:104FD000104049F079BE46F0FDFF0F4C28B149F072
:104FE00087FE002084F83100D2E794F84030002B8F
:104FF000F7D00220FFF76AFEF3E7074B002083F8A3
:105000003100C5E7044B93F84030002B8BD0BDE84E
:10501000104049F05DBE00BF386F0020F06D0020E9
:105020008A94090030B587B0EFF31183EFF3108253
:1050300012B1002007B030BD5A092DD1194B9B6821
:10504000002BF6D1184A5368C3F3080313B353680F
:10505000C3F30803372BA3F11004EAD0D16827204B
:10506000C1F302210191FFF71FFE054660B2FFF771
:105070001BFE0199044603AB02AA2846FFF7E2FD96
:1050800005AB04AA01992046FFF7DCFD029A049BB8
:105090009A42CED20120CDE72720FFF705FE8242BB
:1050A000CCD8C6E7E46D002000ED00E0F0B5334E4B
:1050B00034788FB0002C48D148F07AFB852810D086
:1050C00078B12023CDE906342D4B2E49009306AA52
:1050D0003C20234625F050FE2B4A21460A2025F08D
:1050E00039F9002048F080FB48F0F8FB0028FBD09D
:1050F00003AF00240C213846CDE9034405940DF09C
:1051000045FF05461922EDB2204821465FF080FA9E
:10511000182D1E4A28BF1825A54219D81C4849F049
:105120004FFD80B100242023CDE90634144B1549EE
:10513000009306AA3C20234625F01EFE124A214673
:105140000A2025F007F90123337000200FB0F0BDCD
:105150003B5D180900F13001392988BF00F1570182
:1051600003F00F0302F8021B03F13001392988BF55
:1051700003F1570102F8011C0134CDE7386F00201C
:10518000E69109008C930900352E040090810120DE
:10519000B494090070B5284C1E46A378012B8AB040
:1051A00015463FD00A460146201D49F02BFB00283A
:1051B0003BD12946324604F1140049F023FB054651
:1051C000002835D11D4849F0A7FD78B12023CDE94D
:1051D00002351B4B1B49009302AA3C202B4625F0AD
:1051E000CBFD194A29460A2025F0B4F8134849F0A6
:1051F000E1FD002013F0E8FE49F04EFD80B10025EE
:105200002023CDE902350E4B0E49009302AA3C2023
:105210002B4625F0B1FD0C4A29460A2025F09AF8C4
:105220000123A37000200AB070BD4FF0FF30FAE7F1
:105230006FF00100F7E700BF386F0020909409007D
:10524000E69109008C930900352E04002DE9F04702
:105250001F4C6378072B8AB007460E4602D194F89C
:1052600024306BBB4FF0FF3027E094F82430002B44
:10527000F8D0FFF7D7FE0028F4D0E269236A9B1A22
:10528000228B9342F1D8795D404649F0CAFA80B149
:1052900000232022CDE90223514602AA3C20CDF86A
:1052A000009025F069FD00230A4A19460A2025F0DE
:1052B00051F80135AE423046DFDC0AB0BDE8F08778
:1052C000DFF81490DFF814A0002504F11408F1E7CA
:1052D000386F0020352E0400EE9309008C930900EE
:1052E000014B9861704700BFF06D0020014B986939
:1052F000704700BFF06D002010B504292CD8DFE8FE
:1053000001F021150B100300144B5A6B22B3FFF769
:10531000EDFFBDE8104010470120BDE81040FFF749
:1053200073BD0E4B002083F83100F6E70B4B0022D3
:10533000012083F825209A62FFF766FDBDE8104042
:10534000FFF780BD0120FFF75FFDFFF711FD18B1EA
:10535000BDE81040FFF72ABD10BD00BF386F002028
:1053600010B50D4B93F8402002F0FF049AB90122CA
:10537000022083F84020FFF7A9FCFFF77FFC2046BE
:10538000FFF742FD46F026FE08B949F09DFCBDE856
:10539000104049F09DBC10BD386F002008B50E4B81
:1053A00093F84020B2B1002283F8402046F012FE6C
:1053B00008B149F09DFC46F00DFE08B149F086FCAD
:1053C0000120FFF783FCFFF759FCBDE808400020EF
:1053D000FFF71ABD08BD00BF386F0020034AD06830
:1053E0001169D36A0B44181A704700BF386F002048
:1053F00010B58CB0FFF776FC134B18B10022DA62BF
:1054000083F83020DA681B6900249A428DF80F4037
:1054100015D00E480DF10F0149F015FA78B120238F
:10542000CDE904340A4B0B49009304AA3C202346DF
:1054300025F0A2FC084A21460A2024F08BFF9DF8A3
:105440000F000CB010BD00BF386F00203C6F002073
:105450003D9409008C930900352E040013B50146D4
:10546000002407488DF807400DF1070249F0FCF9C8
:1054700018B99DF8070002B010BD2046FBE700BF39
:105480003C6F002008B5FFF7CDFD58B1064B93F8EF
:1054900024203AB1D9691A6A914203D093F82520A1
:1054A000002AF4D108BD00BF386F0020064B93F8E6
:1054B000242032B1DA69188B196A531C1844401A37
:1054C00070474FF0FF307047386F0020014B586332
:1054D000704700BF386F0020034B1B781BB1034B94
:1054E000187847F0BDBE70477D6F00207C6F0020AC
:1054F0003FF05EBB08B54AF0EFFF012008BD4AF05F
:10550000FDBF000010B5044650B9134B13491448B1
:10551000D3225FF0F9FC20465EF060FD5EF074FC83
:1055200004203EF049FE0F4A206038B9B2F81A3123
:105530000133A2F81A314FF0FF3010BDB2F8163126
:10554000B2F8181101339BB29942A2F8163138BF54
:10555000A2F818310020F0E7C0940900DD9409009A
:10556000EB9409005C7A012008B50848FFF7CAFFF0
:1055700050B1074B074908487A225FF0C5FC00206C
:105580005EF02CFD5EF040FC08BD00BF806F002087
:10559000C094090013950900EB94090010B550B9A7
:1055A0000E4B0F49E2220F485FF0AEFC00205EF088
:1055B00015FD5EF029FC04681CB9084B0A49E3227A
:1055C000F1E74FF0FF3120463EF070FF012803D095
:1055D000024B0649E622E6E710BD00BFC094090071
:1055E000DD940900EB9409003A9509004D950900F6
:1055F00010B550B90D4B0E49F0220E485FF084FCF7
:1056000000205EF0EBFC5EF0FFFB04681CB9074B6A
:105610000949F122F1E720463EF0BAFD012803D006
:10562000024B0649F422E8E710BD00BFC094090010
:10563000DD940900EB9409003A950900669509008C
:1056400038B50D46044658B91F4B20494FF48572B2
:105650001F485FF059FC00205EF0C0FC5EF0D4FBF8
:10566000012904D9184B1B4940F20B12F0E7032221
:10567000002101203EF0CCFC174A206038B9B2F876
:1056800014310133A2F814314FF0FF3038BDB2F8B5
:105690001031B2F8121101339BB2994238BFA2F80F
:1056A0001231012DA2F810310CD1002320681A46C6
:1056B00019463EF0D1FC012804D0034B074940F2C3
:1056C0001712C5E70020E1E7C0940900C89509005A
:1056D000EB9409007F9509005C7A0120A2950900EE
:1056E00010B558B9104B114940F2251210485FF01F
:1056F0000BFC00205EF072FC5EF086FB046824B9AF
:10570000094B0C494FF49372F0E700231A461946EF
:1057100020463EF0A1FC012804D9034B06494FF472
:105720009572E3E710BD00BFC0940900C895090059
:10573000EB940900C3950900D495090038B558B910
:10574000174B18494FF49B7217485FF0DDFB0020A0
:105750005EF044FC5EF058FB046824B9104B13491A
:1057600040F23712F0E759B94FF0FF3120463EF0D2
:1057700007FE01280ED00A4B4FF49E720C49E3E756
:1057800020463EF0FDFD38B1012803D0044B4FF414
:10579000A272F3E7012038BD4FF0FF30FBE700BFF6
:1057A000C0940900C8950900EB940900C39509004D
:1057B000F695090038B5044658B9114B11491248FD
:1057C0004FF4A8725FF0A0FB20465EF007FC5EF08D
:1057D0001BFB056845B90A4B0C490B4840F25112B6
:1057E0005FF092FB2846F0E7094AB2F81031013B1E
:1057F000A2F8103100683EF0A0FE0023236038BDFF
:10580000C0940900C8950900EB940900C3950900EC
:105810005C7A012010B50B46044658B9184B19495B
:1058200040F25B1218485FF06FFB00205EF0D6FB81
:105830005EF0EAFA002904DC114B14494FF4AE7211
:10584000F0E70022042118463EF0E2FB104A2060F7
:1058500038B9B2F820310133A2F820314FF0FF30CF
:1058600010BDB2F81C31B2F81E1101339BB299423F
:10587000A2F81C3138BFA2F81E310020F0E700BFAB
:10588000C09409000E960900EB9409001B960900CC
:105890005C7A012013B5019158B9164B16494FF4A3
:1058A000BD7216485FF030FB00205EF097FB5EF0A3
:1058B000ABFA046824B90F4B114940F27B12F0E7B0
:1058C00000231A4601A920463EF0C6FB01280FD04E
:1058D00020B1084B0B4940F28112E2E70A4AB2F8C4
:1058E00020310133A2F820314FF0FF3002B010BD5B
:1058F0000020FBE7C09409000E960900EB94090014
:1059000024960900479609005C7A012073B50C467D
:10591000154658B91A4B1B4940F2A1121A485FF0BC
:10592000F3FA00205EF05AFB5EF06EFA066826B9C4
:10593000134B16494FF4D172F0E701B901AC65B9C8
:105940004FF0FF32214630463EF0A0FC012815D032
:105950000B4B40F2AB120E49E0E72A462146304697
:105960003EF094FC20B920604FF0FF3002B070BDD3
:10597000012803D0024B4FF4DA72ECE70120F5E77F
:10598000C09409000E960900EB94090024960900C2
:105990005B96090037B50C4658B9134B13494FF4C1
:1059A000E17213485FF0B0FA00205EF017FB5EF082
:1059B0002BFA056825B90C4B0E4940F2C312F0E7EB
:1059C00001B901AC0022214628463EF05FFC20B917
:1059D00020604FF0FF3003B030BD0128FBD0024BF8
:1059E00005494FF4E772DCE7C09409000E96090000
:1059F000EB940900249609005B96090010B5044653
:105A000058B90E4B0E4940F2D9120E485FF07CFA9D
:105A100020465EF0E3FA5EF0F7F9046824B9074B1C
:105A200009494FF4ED72F0E720463EF086FD074A43
:105A3000B2F81C31013BA2F81C3110BDC094090022
:105A40000E960900EB940900249609005C7A012067
:105A500030B51C1E054685B008460BDC0F4B1049BF
:105A60004FF4FA720F485FF04FFA00205EF0B6FA7A
:105A70005EF0CAF903AB0193089B009329461346D5
:105A8000C4F38F023EF01EFF012804D0034B0649E9
:105A90004FF4FF72E6E7039805B030BDC0940900EB
:105AA0006D960900EB9409007F96090000230222FD
:105AB00019463FF001BC000010B5074C0748FFF73E
:105AC0006DFD23781BB93FF0C1FA054B18602378B0
:105AD0000133237010BD00BF846F0020806F002051
