:02000002B0004C
:1040000000400B007AD30B00000006000C000502F4
:0840100004015014000000003F
:044018009CC80B0035
:1040200081F0004102E000BF83F0004330B54FEA69
:1040300041044FEA430594EA050F08BF90EA020FD6
:104040001FBF54EA000C55EA020C7FEA645C7FEA69
:10405000655C00F0E2804FEA5454D4EB5555B8BF8C
:104060006D420CDD2C4480EA020281EA030382EAFD
:10407000000083EA010180EA020281EA0303362D8F
:1040800088BF30BD11F0004F4FEA01314FF4801C62
:104090004CEA113102D0404261EB410113F0004F74
:1040A0004FEA03334CEA133302D0524263EB43032B
:1040B00094EA050F00F0A780A4F10104D5F1200EC9
:1040C0000DDB02FA0EFC22FA05F2801841F1000124
:1040D00003FA0EF2801843FA05F359410EE0A5F1F8
:1040E00020050EF1200E012A03FA0EFC28BF4CF029
:1040F000020C43FA05F3C01851EBE37101F00045DF
:1041000007D54FF0000EDCF1000C7EEB00006EEBEB
:104110000101B1F5801F1BD3B1F5001F0CD3490875
:104120005FEA30004FEA3C0C04F101044FEA4452CC
:1041300012F5800F80F09A80BCF1004F08BF5FEA53
:10414000500C50F1000041EB045141EA050130BD33
:104150005FEA4C0C404141EB0101013C28BFB1F545
:10416000801FE9D291F0000F04BF01460020B1FA90
:1041700081F308BF2033A3F10B03B3F120020CDA63
:104180000C3208DD02F1140CC2F10C0201FA0CF041
:1041900021FA02F10CE002F11402D8BFC2F1200CA6
:1041A00001FA02F120FA0CFCDCBF41EA0C0190405C
:1041B000E41AA2BF01EB0451294330BD6FEA0404A5
:1041C0001F3C1CDA0C340EDC04F11404C4F1200290
:1041D00020FA04F001FA02F340EA030021FA04F3A2
:1041E00045EA030130BDC4F10C04C4F1200220FAF9
:1041F00002F001FA04F340EA0300294630BD21FA37
:1042000004F0294630BD94F0000F83F4801306BFFC
:1042100081F480110134013D4EE77FEA645C18BFF0
:104220007FEA655C29D094EA050F08BF90EA020F87
:1042300005D054EA000C04BF1946104630BD91EA7F
:10424000030F1EBF0021002030BD5FEA545C05D182
:104250004000494128BF41F0004130BD14F58004C1
:104260003CBF01F5801130BD01F0004545F0FE4135
:1042700041F470014FF0000030BD7FEA645C1ABF6A
:10428000194610467FEA655C1CBF0B46024650EAA1
:10429000013406BF52EA033591EA030F41F40021CD
:1042A00030BD00BF90F0000F04BF0021704730B553
:1042B0004FF4806404F132044FF000054FF0000128
:1042C00050E700BF90F0000F04BF0021704730B5E9
:1042D0004FF4806404F1320410F0004548BF4042BE
:1042E0004FF000013EE700BF42004FEAE2014FEA13
:1042F00031014FEA02701FBF12F07F4393F07F4FEE
:1043000081F06051704732F07F4208BF704793F0F0
:104310007F4F04BF41F40021704730B54FF4607403
:1043200001F0004521F000411CE700BF50EA010206
:1043300008BF704730B54FF000050AE050EA0102AF
:1043400008BF704730B511F0004502D5404261EB1F
:1043500041014FF4806404F132045FEA915C3FF460
:10436000D8AE4FF003025FEADC0C18BF03325FEAFD
:10437000DC0C18BF033202EBDC02C2F1200300FAAE
:1043800003FC20FA02F001FA03FE40EA0E0021FAD3
:1043900002F11444BDE600BF70B54FF0FF0C4CF4C1
:1043A000E06C1CEA11541DBF1CEA135594EA0C0F73
:1043B00095EA0C0F00F0DEF82C4481EA030621EAAE
:1043C0004C5123EA4C5350EA013518BF52EA0335E9
:1043D00041F4801143F4801338D0A0FB02CE4FF09B
:1043E0000005E1FB02E506F00042E0FB03E54FF0CB
:1043F0000006E1FB03569CF0000F18BF4EF0010EC3
:10440000A4F1FF04B6F5007F64F5407404D25FEABE
:104410004E0E6D4146EB060642EAC62141EA555171
:104420004FEAC52040EA5E504FEACE2EB4F1FD0CB3
:1044300088BFBCF5E06F1ED8BEF1004F08BF5FEA31
:10444000500E50F1000041EB045170BD06F00046E3
:1044500046EA010140EA020081EA0301B4EB5C0490
:10446000C2BFD4EB0C0541EA045170BD41F4801188
:104470004FF0000E013C00F3AB8014F1360FDEBFAD
:10448000002001F0004170BDC4F10004203C35DA89
:104490000C341BDC04F11404C4F1200500FA05F30C
:1044A00020FA04F001FA05F240EA020001F00042AD
:1044B00021F0004110EBD37021FA04F642EB060123
:1044C0005EEA430E08BF20EAD37070BDC4F10C044D
:1044D000C4F1200500FA04F320FA05F001FA04F211
:1044E00040EA020001F0004110EBD37041F10001FD
:1044F0005EEA430E08BF20EAD37070BDC4F1200508
:1045000000FA05F24EEA020E20FA04F301FA05F26F
:1045100043EA020321FA04F001F0004121FA04F217
:1045200020EA020000EBD3705EEA430E08BF20EAE7
:10453000D37070BD94F0000F0FD101F00046400021
:1045400041EB010111F4801F08BF013CF7D041EAA3
:10455000060195F0000F18BF704703F000465200A7
:1045600043EB030313F4801F08BF013DF7D043EA78
:104570000603704794EA0C0F0CEA135518BF95EA2E
:104580000C0F0CD050EA410618BF52EA4306D1D1B5
:1045900081EA030101F000414FF0000070BD50EAD4
:1045A000410606BF1046194652EA430619D094EA5E
:1045B0000C0F02D150EA013613D195EA0C0F05D148
:1045C00052EA03361CBF104619460AD181EA03019C
:1045D00001F0004141F0FE4141F470014FF0000054
:1045E00070BD41F0FE4141F4780170BD70B54FF0EF
:1045F000FF0C4CF4E06C1CEA11541DBF1CEA13556F
:1046000094EA0C0F95EA0C0F00F0A7F8A4EB050450
:1046100081EA030E52EA03354FEA013100F0888047
:104620004FEA03334FF0805545EA131343EA126310
:104630004FEA022245EA111545EA10654FEA0026C5
:104640000EF000419D4208BF964244F1FD0404F57E
:10465000407402D25B084FEA3202B61A65EB0305DA
:104660005B084FEA32024FF480104FF4002CB6EB97
:10467000020E75EB030E22BFB61A754640EA0C0017
:104680005B084FEA3202B6EB020E75EB030E22BF57
:10469000B61A754640EA5C005B084FEA3202B6EB98
:1046A000020E75EB030E22BFB61A754640EA9C0057
:1046B0005B084FEA3202B6EB020E75EB030E22BF27
:1046C000B61A754640EADC0055EA060E18D04FEAE5
:1046D000051545EA16754FEA06164FEAC30343EA85
:1046E00052734FEAC2025FEA1C1CC0D111F4801F52
:1046F0000BD141EA00014FF000004FF0004CB6E74B
:1047000011F4801F04BF01430020B4F1FD0C88BFE9
:10471000BCF5E06F3FF6AFAEB5EB030C04BFB6EBF4
:10472000020C5FEA500C50F1000041EB045170BDE7
:104730000EF0004E4EEA113114EB5C04C2BFD4EB14
:104740000C0541EA045170BD41F480114FF0000E98
:10475000013C90E645EA060E8DE60CEA135594EA14
:104760000C0F08BF95EA0C0F3FF43BAF94EA0C0F17
:104770000AD150EA01347FF434AF95EA0C0F7FF48C
:1047800025AF104619462CE795EA0C0F06D152EAE0
:1047900003353FF4FDAE1046194622E750EA4106C4
:1047A00018BF52EA43067FF4C5AE50EA41047FF4D5
:1047B0000DAF52EA43057FF4EBAE12E74FF0FF3C3A
:1047C00006E000BF4FF0010C02E000BF4FF0010C0B
:1047D0004DF804CD4FEA410C7FEA6C5C4FEA430C84
:1047E00018BF7FEA6C5C1BD001B050EA410C0CBFD3
:1047F00052EA430C91EA030F02BF90EA020F002035
:10480000704710F1000F91EA030F58BF994208BF9B
:1048100090422CBFD8176FEAE37040F00100704758
:104820004FEA410C7FEA6C5C02D150EA013C07D1AF
:104830004FEA430C7FEA6C5CD6D152EA033CD3D0FA
:104840005DF8040B704700BF8446104662468C46F4
:104850001946634600E000BF01B5FFF7B7FF002827
:1048600048BF10F1000F01BD4DF808EDFFF7F4FF50
:104870000CBF012000205DF808FB00BF4DF808EDDB
:10488000FFF7EAFF34BF012000205DF808FB00BFFE
:104890004DF808EDFFF7E0FF94BF012000205DF820
:1048A00008FB00BF4DF808EDFFF7CEFF94BF0120D5
:1048B00000205DF808FB00BF4DF808EDFFF7C4FFCE
:1048C00034BF012000205DF808FB00BF4FEA410C17
:1048D0007FEA6C5C02D150EA013C0AD14FEA430CFA
:1048E0007FEA6C5C02D152EA033C02D14FF0000037
:1048F00070474FF0010070474FEA410212F5001275
:1049000015D211D56FF47873B3EB625212D94FEA16
:10491000C12343F0004343EA505311F0004F23FA00
:1049200002F018BF404270474FF00000704750EA55
:10493000013005D111F0004008BF6FF00040704712
:104940004FF00000704700BF4A0011D212F500126C
:1049500011D20DD56FF47873B3EB62520ED44FEAD7
:10496000C12343F0004343EA505323FA02F0704757
:104970004FF00000704750EA013002D14FF0FF3095
:1049800070474FF0000070474FEA4102B2F1E04338
:1049900024BFB3F5001CDCF1FE5C0DD901F0004C26
:1049A0004FEAC0024CEA5070B2F1004F40EB830076
:1049B00008BF20F00100704711F0804F21D113F1A2
:1049C0003872BCBF01F00040704741F480114FEADB
:1049D0005252C2F11802C2F1200C10FA0CF320FA64
:1049E00002F018BF40F001004FEAC1234FEAD32381
:1049F00003FA0CFC40EA0C0023FA02F34FEA4303EB
:104A0000CCE77FEA625307D150EA01331EBF4FF073
:104A1000FE4040F44000704701F0004040F0FE408E
:104A200040F40000704700BF53B94AB9002908BFDD
:104A300000281CBF4FF0FF314FF0FF3000F092B95B
:104A4000ADF1080C6DE904CE00F024F8DDF804E0C7
:104A5000DDE9022304B07047D0B50C4B00220646B6
:104A60000F46FFF799FCFFF76FFF0446FFF71AFCAC
:104A7000074B0022FFF790FC02460B4630463946B2
:104A8000FFF7D2FAFFF760FF2146D0BD0000F03DEE
:104A90000000F0412DE9F047089D04468E46002BAA
:104AA0004DD18A42944669D9B2FA82F252B101FAE2
:104AB00002F3C2F1200120FA01F10CFA02FC41EAF2
:104AC000030E94404FEA1C48210CBEFBF8F61FFA77
:104AD0008CF708FB16E341EA034306FB07F1994212
:104AE0000AD91CEB030306F1FF3080F01F819942C5
:104AF00040F21C81023E63445B1AA4B2B3FBF8F09F
:104B000008FB103344EA034400FB07F7A7420AD925
:104B10001CEB040400F1FF3380F00A81A74240F24D
:104B200007816444023840EA0640E41B00261DB1B8
:104B3000D4400023C5E900433146BDE8F0878B42ED
:104B400009D9002D00F0EF800026C5E900013046AC
:104B50003146BDE8F087B3FA83F6002E4AD18B4286
:104B600002D3824200F2F980841A61EB0303012030
:104B70009E46002DE0D0C5E9004EDDE702B9FFDE1C
:104B8000B2FA82F2002A40F09280A1EB0C014FEAC7
:104B90001C471FFA8CFE0126200CB1FBF7F307FB24
:104BA000131140EA01410EFB03F0884208D91CEBC7
:104BB000010103F1FF3802D2884200F2CB80434664
:104BC000091AA4B2B1FBF7F007FB101144EA014443
:104BD0000EFB00FEA64508D91CEB040400F1FF31D2
:104BE00002D2A64500F2BB800846A4EB0E0440EAC0
:104BF00003409CE7C6F12007B34022FA07FC4CEAC9
:104C0000030C20FA07F401FA06F31C43F9404FEABB
:104C10001C4900FA06F3B1FBF9F8200C1FFA8CFED0
:104C200009FB181140EA014108FB0EF0884202FA24
:104C300006F20BD91CEB010108F1FF3A80F08880E5
:104C4000884240F28580A8F102086144091AA4B2A2
:104C5000B1FBF9F009FB101144EA014100FB0EFE23
:104C60008E4508D91CEB010100F1FF346CD28E4552
:104C70006AD90238614440EA0840A0FB0294A1EBE3
:104C80000E01A142C846A64656D353D05DB1B3EB40
:104C9000080261EB0E0101FA07F722FA06F3F14070
:104CA0001F43C5E9007100263146BDE8F087C2F117
:104CB0002003D8400CFA02FC21FA03F3914001438F
:104CC0004FEA1C471FFA8CFEB3FBF7F007FB1036C8
:104CD0000B0C43EA064300FB0EF69E4204FA02F474
:104CE00008D91CEB030300F1FF382FD29E422DD9C7
:104CF000023863449B1B89B2B3FBF7F607FB1633FC
:104D000041EA034106FB0EF38B4208D91CEB01017B
:104D100006F1FF3816D28B4214D9023E6144C91AFB
:104D200046EA004638E72E46284605E70646E3E60B
:104D30001846F8E64B45A9D2B9EB020864EB0C0E15
:104D40000138A3E74646EAE7204694E74046D1E724
:104D5000D0467BE7023B614432E7304609E76444D2
:104D6000023842E7704700BF10F8012B11F8013BF1
:104D7000012A28BF9A42F7D0D01A7047034613F889
:104D8000012B002AFBD1181A0138704709480A493B
:104D9000884208B505D0094A824202D0121A07F0AB
:104DA0008DFB0748074A0021121A07F0AFFB0148A4
:104DB00008BD00BFC0DB0320D0D20B003CDC0320C9
:104DC00040DC0320F4E7032070B5074E074C06F0E3
:104DD00087FDA41BA4080025AC4200D170BD56F885
:104DE000043B98470135F7E780D20B00A4D20B00B3
:104DF00001F014B908B501F05BF8BDE8084006F011
:104E000027BD03F047BF03F045BF03F04BBF0000D1
:104E100008B5034A03490C2003F04AFEFEE700BF31
:104E200071870B00B0C80B000078B0FA80F0400921
:104E300070470123037070477047037C13F0080329
:104E40001EBFC36A406A1B1A002BACBF18466FF026
:104E50000040704730B5114D2C68D4F81C355B010B
:104E600003F4FF5294F820351343B4F81825A2F246
:104E7000BC7243EA422303802868D0F82435D0F876
:104E80002825DB02520102F4FF5203F4FF231343EF
:104E900090F82C2543EA52030B8030BD4CDC0320F4
:104EA000704710B510210446FFF7AFFF204610BD34
:104EB00010B534210446FFF7A8FF204610BD10307E
:104EC00002F034BB07B501220DF10701103002F0EA
:104ED0003AF801280CBF9DF807004FF0FF3003B0EF
:104EE0005DF804FB103002F0BBB9103002F0D9B805
:104EF00070B50C1E064615460BDA0A2A09D12D217B
:104F000005F07EFE6142EAB23046BDE8704005F031
:104F100092BE2146F7E700B58BB0134600220192FE
:104F20000A4600F23C4101A802F0AEFA0BB05DF86F
:104F300004FB07B501228DF8071010300DF10701B1
:104F400002F0F4FA03B05DF804FB0EB403B503AB52
:104F5000002153F8042B019305F07DFF02B05DF8AA
:104F600004EB03B07047000073B50446084622798D
:104F7000A36832B1A3B90B4902B0BDE8704005F097
:104F80003BBE094A267B094D0949647B012E18BFA7
:104F90002946CDE900140749FFF7D7FF02B070BDDD
:104FA000054AEFE7D6C80B00E6CA0B00D2C80B00D3
:104FB000CEC80B00ECC80B00C5C80B000EB400B582
:104FC0008CB00DAA4FF0200C52F8041B0392CDE9CF
:104FD00000120023016804AA1E20CDE904C303F0D7
:104FE00077FD0CB05DF804EB03B070470EB400B56C
:104FF0008CB00DAA4FF0200C52F8041B0392CDE99F
:1050000000120023016804AA2820CDE904C303F09C
:105010005FFD0CB05DF804EB03B0704700B58BB0DA
:105020000A460023014601A8019302F056F90BB08D
:105030005DF804FB40B1037813F0700303D0034B19
:105040001860012070471846704700BF80E60320B3
:10505000F0B58BB0002301930B782F2B0446174635
:1050600000F23C460FD14B786BB9304602F02EF976
:105070002146304601F061FF18B117B13046FFF705
:10508000D9FF0BB0F0BD0A460023314601A802F05B
:1050900024F90028F5D09DF8043013F0700FF0D0FB
:1050A00001AC0FCC35460FC50FCC0FC523682B6064
:1050B000E3E7000037B540F2057303806422022362
:1050C000837080F868240823404A8380C0F87824DD
:1050D000002301223E4DC373A0F8443480F872349B
:1050E00080F87C24C0F88034A0F884342978BFF399
:1050F0005B8F114004460BD128460191FFF794FEC7
:10510000019928B1334805F0F1FE2846FFF791FEDA
:10511000304BC4F8743404F28C4001F048FC102584
:1051200004F29C402A460021C4F8980407F0EEF9E6
:10513000012384F8AC340323A4F89E3441F21323F2
:10514000A4F8B034112384F8B2342349A4F89C5451
:1051500004F5976006F035F8204904F5996006F0EB
:1051600030F8002104F59B6001F0A6FD1C4B04F211
:10517000DE42591953F8040B42F8040B8B42F9D163
:105180001922C4F8F42404F5A06200231549C4F8D8
:10519000F034C4F8F834A4F8FC34116004F204527A
:1051A00011491160114904F5A262002042E902018F
:1051B00000200021C2E90001204684F8303584F83F
:1051C0003135C4F8343503B030BD00BFC8CB0B0057
:1051D00040DC032044DC0320E6CA0B0009C90B00B5
:1051E0008CC80B0033335340000048420000F87F66
:1051F00030B585B0044606F06FFA5E4905F00FFD44
:1052000006F03AFC04F28C4402466721204601F085
:10521000E2FB20B906F060FA574905F000FD06F000
:105220005BFA564905F0FBFC0021204601F042FCE8
:1052300006F052FA524905F0DFFC204601F048FC26
:10524000032808D8DFE800F00220242806F044FAFA
:105250004C4905F0D1FC06F03FFA4B4905F0DFFC64
:105260000221204601F06EFC06F036FA474905F0AF
:10527000C3FC204601F04FFC072816D8DFE800F0F9
:10528000105D6165696D717506F026FA4049E0E7C9
:1052900006F022FA3F49DCE706F01EFA3E49D8E75D
:1052A00006F01AFA3D4905F0A7FC06F015FA3C494C
:1052B00005F0B5FC0321204601F072FC06F00CFA63
:1052C000384905F099FC06F007FA0546204601F03A
:1052D00050FC0A220146284605F0ADFC284605F0A0
:1052E00092FCB3EE0E0A0121204601F091FC06F07B
:1052F000F3F92D4905F080FC06F0EEF90121054691
:10530000204601F065FC0221284605F095FD0023AA
:10531000CDE901330093012319461A46204601F0D6
:105320009BFC0121204601F045FB06F0D5F91F4901
:1053300005B0BDE8304005F07CBC06F0CDF91C4955
:10534000B1E706F0C9F91B49ADE706F0C5F91A49FE
:10535000A9E706F0C1F91949A5E706F0BDF9184912
:10536000A1E706F0B9F917499DE706F0B5F9164926
:1053700099E700BF1DC90B0029C90B0059C90B00D3
:1053800068C90B007FC90B008BC90B0091C90B00CA
:1053900082C90B0085C90B0088C90B00ABC90B0083
:1053A000B5C90B00BBC90B00DDC90B00FAC90B0066
:1053B000ADC90B00AFC90B00B1C90B0059CA0B0036
:1053C0004DCA0B00D4C80B00B3C90B00808806F08F
:1053D00008BB10B504464FF4FA6003F0A3FC6078F4
:1053E000012106F0FEFA41F2883003F09BFC607860
:1053F0000021BDE8104006F0F4BA000070B596B088
:1054000009AD064628460C4601F0A7FC95E80300C6
:105410000346C4F8D804A4F8DC14C2B2C1F30720D0
:10542000C9B20291190E0191C3F3074102F5FA6264
:10543000C3F30723039000912846184903F042FC68
:10544000294605A804F5996505F0BBFE05A928467F
:1054500005F00DFF05A805F069FE94F8D83403F5B2
:10546000FA63C4F8183594F8D934C4F81C3594F8A4
:10547000DA34C4F8203594F8DB34C4F8243594F8D1
:10548000DC34C4F8283594F8DD34C4F82C352946CA
:10549000304605F0E1FE304616B070BD19CA0B006B
:1054A0007FB5044606F018F9294905F0A5FB06F07A
:1054B000E3FA682104F098F806F0DEFA0368FF21A9
:1054C0009B68984706F0D8FA03680F219B689847B5
:1054D00006F0D2FA04F08FF80546B0B921466846C6
:1054E000FFF78CFF684605F021FE40F24C4094F82F
:1054F000DD6403F017FC684601F02FFC9DF80530D1
:10550000B34204BF012384F8F83494F8D8343BB98B
:10551000012384F8FA3406F0DFF80E4905F07FFB2A
:105520004DB106F0D9F80C4905F079FB012384F858
:10553000F83404B070BD94F8FA34002BF9D106F0B9
:10554000CBF8064904B0BDE8704005F068BB00BF69
:1055500037CA0B003FCA0B004FCA0B0055CA0B00DD
:10556000F0B52DED028B9FB00446014611A8FFF760
:1055700045FF11A805F0DAFD724B734A1A6000214D
:10558000207806F01DFA06F0A7F8704905F034FB04
:10559000052003F0C7FB6E4B11932546002304F54D
:1055A0008D668DF848306B4B1393012715F8082B47
:1055B000ADF8507011AB04F27441304602F07AFE3F
:1055C000002800F0A380A66004F24446304601F0B3
:1055D0007DFE3946284602F017FD0146002800F0FE
:1055E0008F802946304601F0A8FC002800F08E800C
:1055F0003046FFF71FFD002800F08880012006F0EC
:1056000009FA05F064FC47F25D7005F055FC0027CF
:1056100002465149009705466846ADF8047003F00C
:1056200051FB2846FEF74EFE41EC100B06F024FC21
:105630004A49B0EE408AF0EE608A304601F09BFEA7
:105640004FF47A7305970693089744F20223444F68
:10565000424A0497314608A801F03FFE9DF82030E9
:105660009BB10A22294604A8FFF742FC04A805F0D2
:10567000CAFA3C4904A805F0D2FA3B4904A805F04F
:10568000CEFA3A4904A805F0CAFA08A801F01EFEAD
:1056900000254FF47A731393304A02952B46314616
:1056A00015A8ADF80C5012951595119701F015FE3F
:1056B0009DF85430002B3DD0B0EE480AF0EE680A59
:1056C00006F05AFB2A4B51EC100B0022FEF7AEFC01
:1056D000FFF712F902A90246064615A801F033FCAD
:1056E000013E02AA6B460121AE4223DD12F8017B86
:1056F00013F8010B874218BF84F8F8140135F3E75B
:10570000284602F081FC00287FF46BAF19491A4843
:10571000FFF76CFC012384F8F83494F8FB346BB188
:1057200005F0DAFF15491FB0BDEC028BBDE8F04073
:1057300005F075BA15A801F0C9FDEEE705F0CCFF3C
:105740000F49F0E77CE60320554E0B005BCA0B00C7
:10575000C8CB0B0080F0FA0260CA0B0063CA0B00D2
:10576000DCCB0B0077CA0B009FCA0B00C5CA0B002D
:105770000000F03F6ECA0B00ACE6032050CA0B00DD
:1057800056CA0B000000000008B5212006F042F9BF
:10579000FEF798FD04A3D3E90023FEF7FDFDFFF714
:1057A000F3F800EE100A08BD9402C1D2AF63523F75
:1057B00038B50446FFF7E8FF04F5A063D3ED007A9F
:1057C000B4EEE70AF1EE10FA44BF012384F8FC348A
:1057D00005F082FF094905F00FFA05F07DFF054647
:1057E0002046FFF7D1FF0221284605F00BFB05F00C
:1057F00073FFBDE83840024905F0FEB9DDCA0B0071
:10580000E4CA0B0070B505468AB008460C46FFF79F
:10581000BBFF214606A804F599648DED010AFFF748
:10582000EDFD06A9204605F022FD134E06A805F061
:105830007DFC214602A805F00FFD314602A805F0C7
:1058400081FD9DED010A0446062106A805F029FD0B
:1058500006A9204605F06AFD314605F073FD0146B4
:10586000284605F0F9FC06A805F060FC02A805F042
:105870005DFC28460AB070BDE7CA0B0070B504464F
:1058800005F02AFF124905F0B7F905F025FF04F2EB
:105890008C450646284601F029F90A224100304687
:1058A000FFF726FB05F018FF0A4905F0B8F928466E
:1058B00001F0E2F8284601F019F94000FEF702FD78
:1058C00004F5A26444E9020141EC100B70BD00BF75
:1058D000E9CA0B00EFCA0B0010B50446002190F88E
:1058E000B00406F06DF894F8B104002106F068F8F1
:1058F00094F8B2040021BDE8104006F061B8000041
:1059000070B5044688B00D463F484049FFF756FB46
:105910000121072006F054F8002204A8CDE9042252
:10592000ADF8182003F088FD3948002213461146CF
:10593000406803F077F903F013FB03F0D6FBA01DDA
:1059400001F009FA684603F02DF9009BC4F8B4345D
:1059500030492D48FFF732FB642003F0E3F921467C
:1059600004A8FFF74BFD04A805F0E0FB2A4904A8B2
:1059700005F027FC04F5996104A805F0D7FC01683F
:105980002148FFF71BFB04F5976604A805F0CEFB42
:105990002946304605F051FCD4F8B8141A48FFF7F0
:1059A0000DFB02230022314604A805F00BFD1B4924
:1059B00004A805F0DCFC054604A805F0B7FBD5B14A
:1059C0002046FFF715FCA088012105F0F9FF144BD4
:1059D00020461C60FFF7C4FD2046FFF761FD20460E
:1059E000FFF7E6FE2046FFF7F4FC684605F09EFB55
:1059F000012008B070BD05F06FFE0A4905F00FF9EF
:105A00002046FFF769FFE2E7ACE60320F3CA0B008C
:105A10001CE7032013CB0B0027CB0B0035CB0B006F
:105A20004CDC032038CB0B002DE9F041054690B04B
:105A300091F8B0040C4605F0EDFF804694F8B104EF
:105A400005F0E8FF074694F8B20405F0E3FF0646C8
:105A50004046FEF737FC30A3D3E90023FEF79CFC59
:105A60002F4BDFF8C0800022FEF796FC41EC100BB4
:105A70000621684605F02FFC694604A805F0ECFBFA
:105A8000414604A805F05EFC04463846FEF71AFCC1
:105A900021A3D3E90023FEF77FFC214B0022FEF770
:105AA0007BFC41EC100B062108A805F014FC08A9AA
:105AB000204605F03BFC414605F044FC04463046D8
:105AC000FEF700FC14A3D3E90023FEF765FC144B9A
:105AD0000022FEF761FC41EC100B06210CA805F03A
:105AE000FAFB0CA9204605F021FC0146284605F0EA
:105AF000B3FB0CA805F01AFB08A805F017FB04A8D7
:105B000005F014FB684605F011FB284610B0BDE80F
:105B1000F08100BFAFF300806666666666664A3F46
:105B200000408F40E7CA0B00F8B500F2444719491E
:105B3000044600F108053846FFF770FA064640BBF8
:105B4000144901222846FFF7E6F932461149284652
:105B5000FFF77EFAD4F8B4143846FFF75FFA06462A
:105B6000B8B9D4F8B41401222846FFF7D4F9D4F810
:105B7000B41428463246FFF76BFA07493846FFF758
:105B80004DFA30B928460449BDE8F8400122FFF734
:105B9000C2B9F8BD60CB0B0087CB0B0070B50546D2
:105BA00090B0083000220E461A490190FFF750FAD3
:105BB000D5F8B41401980022FFF74AFA1649019863
:105BC0000022FFF745FA00244FF47A73CDE904432D
:105BD000124B039305F5A76244F2022305F24441F8
:105BE00007A8079401F079FB9DF81C304BB1316890
:105BF00003A805F014F807A801F068FB204610B0D0
:105C000070BD05F069FD064905F009F84FF0FF3059
:105C1000F5E700BF60CB0B0087CB0B00DCCB0B00A4
:105C200069CB0B0030B58DB004460D4668461B4964
:105C300005F0C7FA08A8A84708A9684605F017FBA9
:105C400008A805F073FA214604A8FFF7DBFD04A9B4
:105C500008A805F001FB694608A805F067FB0146A6
:105C6000684605F0EAFA08A805F060FA04A805F00D
:105C70005DFA694608A805F0EFFA08A92046FFF783
:105C80008DFF08A805F052FA05F026FD009904F0F2
:105C9000C6FF684605F04AFA0DB030BDE6CA0B00F3
:105CA0002DE9F043044695B0FFF73EFF04F10800EC
:105CB000574901900022FFF7CBF9D4F8B4140198AA
:105CC000DFF86081534F0022FFF7C2F900225249EA
:105CD0000198FFF7BDF905F0FFFC504904F09FFF64
:105CE0004F4904A805F06DFA01224E4902A802F0BE
:105CF000E9FF04A910A805F0AFFA02A90CA805F065
:105D000060FA0CA910A805F011FB04F5A76541493C
:105D100005F018FB00230D22294605F03AFB0CA8DC
:105D200005F004FA10A805F001FA012604F244492E
:105D300029464846FFF772F900B30136324641461C
:105D400002A802F0BFFF04A910A805F085FA02A975
:105D50000CA805F036FA0CA910A805F0E7FA3946A8
:105D600005F0F0FA00230D22294605F012FB0CA8DD
:105D700005F0DCF910A805F0D9F9D9E705F0ACFC7D
:105D8000294904F039FF05F0A7FC294604F047FF34
:105D9000264910A805F015FA0CA802F003FF0CA97B
:105DA00010A805F0C3FA014608A805F055FA0CA89A
:105DB00005F0BCF910A805F0B9F908A910A805F07C
:105DC0004BFA10A92046FFF7E9FE10A805F0AEF93E
:105DD00017490CA805F0F5F904F597610CA805F032
:105DE000A5FA014610A805F037FA10A92046FFF7DA
:105DF000D5FE10A805F09AF90CA805F097F908A8A7
:105E000005F094F904A805F091F915B0BDE8F08308
:105E100060CB0B0069CA0B0087CB0B0075CB0B0066
:105E20008CCB0B0090CB0B0095CB0B00A1CB0B00C8
:105E3000A8CB0B007047000010B5084C02F0A8FC7E
:105E40002368C01A064B1B68984281BF054A136835
:105E50000133136002F09CFC206010BD3CE603207F
:105E6000C0DB032038E603200A4B10B5044603606C
:105E700003F0C6FF214604F0FEF905F02DFC05F005
:105E80001FFC2046044B40F8043B04F08FF82046EA
:105E900010BD00BF74CC0B005CCC0B0010B50446E9
:105EA000FFF7E2FF20462421FEF7AFFF204610BD9A
:105EB0007FB5494902230022684605F083FA474925
:105EC000684605F054FA0446684605F02FF9002CA0
:105ED00040D0434802F026FF42480121FFF776FAFE
:105EE0000121072005F07DFD40F6B83002F01AFFD1
:105EF0003D493C48FFF796FE0021072005F071FD63
:105F000000213848FFF762FA46F6781002F00AFFDF
:105F100034480121FFF75AFA0121072005F061FDFD
:105F200040F6B83002F0FEFE2F492E48FFF77AFE09
:105F30000021072005F055FD00212A48FFF746FA09
:105F400046F6781002F0EEFE284804B0BDE8704036
:105F500002F0E8BE05F0C0FB044602F019FC0A227C
:105F60000146204604F067FE204604F04CFE1D4822
:105F70001D4E1C4D0121FFF729FA0121072005F0D4
:105F800030FD0A2440F6B83002F0CCFE31462846F7
:105F9000FFF748FE013CF5D12146072005F021FD21
:105FA00021461048FFF712FA05F096FB044602F06E
:105FB000EFFB0A220146204604F03DFE204604F095
:105FC00022FE68460A4905F04DFA009808B102F031
:105FD00069FE04B070BD00BF50DC032035CB0B0060
:105FE000804F120060DC03206D610B00C0270900A8
:105FF00040E6032007B500230222009306494FF034
:10600000FF33104603F0FCFA0221084603B05DF8A6
:1060100004EB05F0D5BC00BF395E0B0030B53B4941
:106020003B483C4C85B005F02AF93949684605F0F3
:1060300013F969463848FFF763FC684605F076F8BF
:1060400005F04AFB354904F0EAFD3348FFF728FE26
:106050000021022005F0B4FC2F496846FFF7CEF975
:10606000684605F063F8FFF7C5FF237D002B45D098
:10607000012323722368DB68C3B19A88012A06D002
:106080009B68F9E79B688BB19A88012AFAD19A89B3
:10609000022AF7D19A73237D002B2FD02368DB6867
:1060A000CBB19A88042A2BD09B68F9E71C491020B1
:1060B00005F046FD054630B31022002106F026FA11
:1060C000184B2B600123AB802369AB600223AB81AB
:1060D000AB732561DFE71249102005F031FD05465D
:1060E00088B11022002106F011FA0E4B2B60042318
:1060F000AB802369AB600C4BEB60256105B030BD14
:10610000094ADA60FAE72575F8E700BFFCCB0B0017
:1061100050DC032040E6032060DC032038CC0B0079
:1061200014D00B001000030000974901000000008C
:1061300010B50D4B0022044618681A60FEF7B2F83D
:1061400007A3D3E90023FEF727F9FEF71DFC06217C
:1061500000EE100A204605F0A4F8204610BD00BF4E
:106160007B14AE47E17A843F38E6032030B58DB02A
:10617000384902230022044608A805F023F93649CD
:1061800008A805F0F4F8054608A804F0CFFF4DB1C3
:106190003248FFF773FB0621204605F09CF82046A5
:1061A0000DB030BD2A4604232A4908A805F00AF993
:1061B0002B4908A805F0DBF8054608A804F0B6FF4F
:1061C0002849A5B104A804F0FCFF08A8FFF7B0FF18
:1061D00008A904A805F04BF808A804F0A7FF04A933
:1061E000204605F01FF804A804F0A0FFD7E7684692
:1061F00004F0E7FF1B4904A804F0E3FF174908A8CF
:10620000FFF712FC08A904A805F031F808A804F06B
:106210008DFF08A8FFF78CFF08A9684605F027F84E
:1062200008A804F083FF04A908A805F015F80E4992
:1062300008A805F087F8694605F078F80146204679
:1062400005F00AF808A804F071FF04A804F06EFF36
:106250006846C9E750DC032035CB0B0060DC032027
:106260004FCC0B00E6CA0B00E7CA0B0070B5D0E9B3
:1062700000531426044606FB0356AE4204D02846BB
:1062800004F054FF1435F8E7206802F00BFD2046B7
:1062900070BD8842F8B504460D46164616D99042A0
:1062A00015D2A2F11406751AA1F114072C44B742B5
:1062B0001CD02CB13146204604F0B4FF337C23744B
:1062C000304604F033FF143E143CF0E70ED0B542E4
:1062D0000CD02CB12946204604F0A4FF2B7C23745B
:1062E000284604F023FF14351434F0E7F8BD2DE9F7
:1062F000F0410023C0E9003383604F689F420446A9
:106300000E4623DD4FF0140808FB07F002F0C2FC34
:106310000546D8B1D4E9001208FB0212FFF7B9FF15
:10632000206802F0BFFC2560A760D6E9007308FB77
:106330000378B84508D03946284604F08DFF3B7CE9
:106340002B7414371435F4E7736863602046BDE896
:10635000F081000070B5424B424A9A6000248EB032
:10636000C3E90044032002F0CBFB2146012002F0E8
:10637000D7FBCDE90244049405F0AEF902A9064624
:1063800005A8394DFFF7B3FF05A908A8FFF7AFFF30
:10639000364B2B6008A90BA8FFF7A9FF0BAA1E21FB
:1063A000281D04F04BF80BA8FFF760FF08A8FFF7C3
:1063B0005DFF2F4B2B602E6205A8FFF757FF2D4B7B
:1063C0002B6005F089F94FF4165105F075F903F0CB
:1063D00017FD294603F008FF02A8FFF747FF264BE9
:1063E000264D1C611A1D01261A60254A5A60C3E910
:1063F00002441E7531462348FEF75CFE64236C6040
:10640000C5F83C44C5F86034C5F86844C5F878441C
:10641000A5F87C441C4B1D4CC5F8703485F8746499
:106420002178BFF35B8F31400BD120460191FEF7FD
:10643000FBFC019928B1164804F058FD2046FEF7F0
:10644000F8FC134BC5F86C3402F0A2F9114B124959
:10645000186012480EB0BDE8704004F0B2BE00BF34
:106460002CE603200000FFFF58E603205CCC0B0065
:1064700084CE0B0074CC0B0040E60320A8E103207F
:106480001000030060DC0320C8CB0B0040DC0320BD
:1064900044DC03203CE60320E6CA0B0050DC03206A
:1064A00030B50025C0E9001542819DF810109DF817
:1064B0000C20456141738273037330BD7FB5044680
:1064C0004089A37A8DF80C30000A8DF80D00206801
:1064D0000D46164640B1637B019303AB0093012345
:1064E00000F0E2F804B070BD60680028FAD0227AAB
:1064F00022B903F07F038DF80C3003E0022A09D0A3
:10650000012A0AD0637B0093324603AB294600F090
:10651000E8F9E7E763F07F03EDE703F07F0343F07B
:106520004003E8E7F0B40B4602B9027B042A14D812
:1065300000F10F05436184182946844209D0877B06
:10654000DEB227B92E701B0A0135013CF5E7A673B0
:10655000F9E72046F0BCFFF7B1BF0020F0BC704760
:1065600030B50B464189847A85B0054600688DF8C0
:106570000C40090A8DF80D1040B10021CDE9002131
:106580006A7B03A900F0E2F805B030BD6868002816
:10659000FAD0297A21B964F07F048DF80C4003E029
:1065A000022909D001290AD0FF21CDE900216A7B07
:1065B00003A900F0C8F9E7E704F07F04EDE764F011
:1065C0003F04EAE738B500F10F05027B294604468F
:1065D000FFF7C6FF78B1227B294622440020A24261
:1065E0000BD00302A07B20B9907B1843013A013104
:1065F000F5E70878F9E74FF0FF3038BD10B50160D6
:106600000271437110BD10B504460068FFF7DAFF50
:106610002279012393406279013BD040184010BD9C
:1066200070B5044600680E46FFF7CCFF2379617908
:1066300001229A40531E03FA01F520EA0505334072
:10664000206803FA01F12943027BBDE87040FFF79F
:1066500069BF42600022027220220170C26070474E
:1066600010B5037A044653B12178606802F0B8FF90
:10667000606802F0C0FFB0FA80F0400910BD01214F
:1066800000F003F80028EFD1F8E738B50446406879
:106690000D4602F073FF0120207225B12046BDE8AF
:1066A0003840FFF7DDBF38BD2DE9F843DDE9089636
:1066B0001F46C368154632449A420446884602D9AA
:1066C0000020BDE8F8830178406802F089FF7EB9B8
:1066D000606803682A46DB68414698478542EFD1E7
:1066E0006068394602F083FFB0FA80F04009E8E7BD
:1066F000B9F1000FECD0606803683246DB684946A8
:1067000098478642DCD1E3E72DE9F0411546C2689F
:10671000AA4204460E4614D301784068EAB202F059
:106720004AFF85420DD100271FFA87F8454507F13A
:10673000010709D9606803685B69984706F8080093
:10674000F2E70020BDE8F0810120FBE773B51D46AC
:106750000023CDE900339DF81C30069E0446FFF768
:10676000A3FF40B1012332462946204602B0BDE8CE
:106770007040FFF7C9BF02B070BD00002DE9F04FB7
:106780000446006885B00D4640B1002300931346CF
:106790000A4604F057FC05B0BDE8F08F237BA068E3
:1067A000484FB7FBF0F7002B0B780CBF4FF0010BF5
:1067B0004FF0800B1BEA030F01EB02030CBF4FF0FD
:1067C00001094FF00009FFB20393039BAB42E2D0F3
:1067D00095F800A05E464FF0000817B1384601F06A
:1067E000C7FF637B13F0FD0F41D194F910305A1CA1
:1067F0000FD01AEA060114BF012300234B4508D02D
:106800006369606A1A6800292CD002431A604FF04D
:106810000109A169E36A0A6813430B6017B138469E
:1068200001F0A6FF94F91130013306D0E3691A682C
:10683000A36A1A4218BF46EA0808A169E36A0A680F
:1068400022EA03030B6094F91130013318BF85F875
:106850000080237B002B32D17600F6B2002EBCD113
:106860000135B2E722EA00021A608946D1E7A16940
:10687000E36A0A6813430B6017B1384601F078FFEA
:1068800094F91030013308D06369616A1A681AEA12
:10689000060F14BF0A438A431A60A169E36A0A68B3
:1068A00022EA03030B6094F911300133CBD0E36982
:1068B0001A68A36A1A4218BF46EA0808C3E77608AE
:1068C000CCE700BF20A1070007B501228DF8071013
:1068D0000DF10701FFF752FF9DF8070003B05DF8C7
:1068E00004FB2DE9F041044600680E4617461D469C
:1068F00010B1616804F032FB94F90E00002180B2FF
:1069000005F06FF8069B05EB0308454508D13744B1
:10691000B7420BD016F8011B2046FFF7D5FFF7E76B
:1069200015F8011B2046FFF7CFFFEEE794F90E00A4
:10693000012180B205F055F8206808B104F0F4FA9E
:106940000120BDE8F0812DE9F041044600689DF882
:106950001C800E4617461D4610B1616804F0FEFA11
:1069600094F90E00002180B205F03BF83744BE4296
:106970000AD1069BEE18AE420CD041462046FFF7E6
:10698000A3FF05F8010BF6E716F8011B2046FFF7F9
:106990009BFFECE794F90E00012180B205F021F88D
:1069A000206808B104F0C0FA0120BDE8F08140235E
:1069B0000370704713B500230C46022281686846B5
:1069C000FFF71CFE2CB901216846FFF729FE02B033
:1069D00010BD0021F8E7F0B504468BB01020CDE9DA
:1069E0000221FEF70EFA054618B1DDE90221FFF794
:1069F00030FE656028460021FFF747FE054630B3AC
:106A00000127022361682022CDE9007704A8FFF75F
:106A100047FD04A8FFF7D6FD2378B3EB102F19D15B
:106A20001820FEF7EEF9064638B10023009361689E
:106A300001973B460622FFF733FD8021A660002226
:106A40003046FFF76FFD01212046FFF7B3FF2846D0
:106A50000BB0F0BD0025FAE707B5002381680222DC
:106A60006846FFF7CBFD6846FFF7CDFDB0FA80F032
:106A7000400903B05DF804FB10B588B00446FFF789
:106A8000EBFF90B10123CDE90033616802230022BE
:106A900002A8FFF705FD02A8FFF794FD03B200EE80
:106AA000103ABAEECE0A08B010BD9FED010AFAE71F
:106AB0000000C07F13B505230C460222816868469A
:106AC000FFF79CFD21466846FFF7AAFD02B010BD06
:106AD00007B50523816802226846FFF78FFD6846E7
:106AE000FFF791FDC0B203B05DF804FB00B50123D0
:106AF00089B0CDE90033032341681A4602A8FFF7A5
:106B0000CFFC02A8FFF75EFD030248BF40F07F40C4
:106B100009B05DF804FB00B501238BB0CDE900336B
:106B20000522416804A8FFF7BBFC0423032204A943
:106B300002A8FFF763FD02A8FFF765FDC0B20BB026
:106B40005DF804FB10B501238AB0CDE900330C4693
:106B50000522416804A8FFF7A3FC0423032204A92B
:106B600002A8FFF74BFD214602A8FFF759FD0AB026
:106B700010BD00B501238BB0CDE90033052241687B
:106B800004A8FFF78DFC0023032204A902A8FFF745
:106B900035FD02A8FFF737FDC0B20BB05DF804FB6E
:106BA00010B501238AB0CDE900330C4605224168B7
:106BB00004A8FFF775FC0023032204A902A8FFF72D
:106BC0001DFD214602A8FFF72BFD0AB010BD0000F5
:106BD00000B54B1E032B89B014D80123CDE9003337
:106BE0000F310223CAB2416802A8FFF759FC02A87C
:106BF000FFF7E8FC03B200EE103ABAEECE0A09B095
:106C00005DF804FB9FED010AF9E700BF0000C07FBB
:106C100010B54B1E032B10EE104A88B017D8012375
:106C2000CDE900330F31CAB20223416802A8FFF751
:106C300037FC2046FDF758FB0022064BFDF7ACFB66
:106C4000FDF75AFE002201B202A8FFF76BFC08B064
:106C500010BD00BF000030402DE9F0431E4689B052
:106C60004B1E032B9DF840709DF844809DF8489082
:106C700014461DD80123CDE90033CA1DD2B24168A4
:106C800002A8FFF70DFC2146B9F1000F01D044F036
:106C90000201B8F1000F01D041F004010EB141F042
:106CA00008010FB141F01001002202A8FFF73AFCE1
:106CB00009B0BDE8F0830000214BF0B50B443C2443
:106CC000B3FBF4F104FB1133B1FBF4F204FB12113A
:106CD000017118214371B2FBF1F301FB1322C27061
:106CE00000229BB2027040F26D164FF69364027858
:106CF00012F003050BBF37464FF4B6770121002190
:106D00009F4205DA611A0B4401329BB20270EEE732
:106D100001220C4E42704178721812F8012C1DB9F4
:106D2000022904BF0132D2B29A4294B204D81B1B8A
:106D300001319BB24170EEE701338370F0BD00BFBB
:106D400080BC92C784CC0B0008B504F095FE02F01D
:106D500015FC012008BDFFF7F7BF2DE9F8430446F5
:106D600004F08AFE682102F03FFC04F085FE03680F
:106D700003219B68984704F07FFE02F03CFC04F07E
:106D80007BFE0722682102F028FC04F075FE0368F0
:106D90005B69984700F07F09C0F30210A0EB800008
:106DA00009EB40005FFA80F904F066FE03685B6956
:106DB0009847C0F30315A5EB850500EB450000F0EF
:106DC000FF0504F059FE03685B699847C0F303169A
:106DD000A6EB860600EB460000F0FF0604F04CFE32
:106DE00003685B699847C0F30317A7EB870700EBBD
:106DF000470000F0FF0704F03FFE03685B69984717
:106E000004F03AFE03685B699847C0F30318A8EBE7
:106E1000880800EB480000F0FF0804F02DFE03682E
:106E20005B699847C0F30313A3EB830300EB4300B4
:106E3000207084F80180A770E670257184F80590B1
:106E40002046BDE8F88338B504460D4624220021CB
:106E500005F05CFBA560EB79102B03D0202B06D04E
:106E6000002038BD202301202370A070F9E74023C3
:106E7000F9E710B50446243000F0B6FF28B104F558
:106E80000C70BDE8104000F0AFBF10BD8378016901
:106E900043F00403837000F11002806801F05AB8D7
:106EA0002DE9F041017811F02005044603D00026B9
:106EB0003046BDE8F0814269174B9A42F7D2FFF79E
:106EC000E5FF06460028F2D02169A06800F0D7FF50
:106ED0000746A06805223946243000F0ADFF804601
:106EE0000028E4D029464FF4007205F00FFB01257D
:106EF000A3681A79AA4209D918684246E91901F02B
:106F00000AFB0028D3D00135EDB2F1E7636903EB4A
:106F100042236361CCE700BF00FE1F0010B50446AA
:106F200080680A462430A16900F086FF20B1A3885A
:106F300003F00F0300EB431010BD03780BB9FFF70C
:106F400082BF002070472DE9F74F0378044688463A
:106F50001546002B5DD08278D1075AD51A072DD55A
:106F6000C36942699B1A9D4228BF1D462E464FF0B9
:106F7000000904F1100B002E00F08F802278636965
:106F8000A0689706C3F3080A4FEA53211FD5006A89
:106F90000144A068BAF1000F42D1B6F5007F3FD39B
:106FA000C36A99423CD0B6F5806F52D2006842461F
:106FB00001F028FA68B34FF4007744E09B06D5D57A
:106FC00083681A894369C3EB42139BB2CBE790F8FD
:106FD000059009EA0109BAF1000F08D1B9F1000FD3
:106FE00005D15BB951064CBF036A236A236121694D
:106FF000A06800F044FF09EB0001CAE721695A4686
:1070000000F043FF002804DBF1D1237813F0700F68
:1070100043D1637843F0020363704FF0FF303DE0EB
:10702000CAF50077B7424FF0000200F1240028BFF4
:10703000374600F001FF0028EBD000EB0A013A468A
:10704000404605F03BFA63693B44B8446361F61B74
:1070500091E7227892064FEA562A06D40279A2EBEB
:107060000902D2B2924528BF924699424FEA4A2776
:1070700008D2A06853460068424601F00BFA002887
:10708000E1D1C6E753448B42F3D92430019100F09B
:10709000ABFE01990028ECD1BBE7A81B03B0BDE80B
:1070A000F08F73B501220DF10701D0E904560446B3
:1070B000FFF749FF01280ABF9DF807004FF0FF3096
:1070C000C4E9045602B070BD37B5436913F4F07FCC
:1070D0000446C3F3431500D099B901220DF107010D
:1070E0002046FFF730FF40B2012802D0002003B055
:1070F00030BD63691F33A0686361303000EB451019
:10710000F5E72033F7E72DE9F041027807690446F7
:107110000D4662B14069884202D019B921616561AA
:10712000012006E0160706D5E3698B420BD22761E2
:107130000020BDE8F081910605D5A3681B89B5EB59
:10714000431FECD9F3E7D4F808C09CF80660431E4F
:1071500006F109016E1ECB40CE40B34200D898B96B
:1071600053064CBFDCF82030236A236104F1100879
:10717000002ED4D02169A068424600F086FE002887
:1071800006F1FF36F4DCD2E7F61AEFE7F8B50F4662
:1071900004461546002124221E4605F0B7F9B868BA
:1071A000A060A58005F00F053B6AE3606A0100EB73
:1071B000451595F83B301F0744D403F0170323709F
:1071C00095F83B1011F0180F04BF43F0080323702B
:1071D0009DF81830E37006F00303012B2CD0022B2E
:1071E00028D07BBB71052DD40123A370A1788B0718
:1071F00004D52378DF0625D4DD0723D4B31123F08B
:107200007F0306F008052B430B43A370C36AA361F9
:107210008318B3F84420B3F84A1041EA02417205DA
:1072200013D559B9A37843F00403A370730410D4A1
:107230000120F8BD0323D8E70223D6E700F0C5FEFE
:107240000028EFD100202070F3E72162DB6CE361BE
:10725000ECE7E1692046FFF756FF0028E8D1F1E7A7
:1072600038B5037804460BB9012038BD83785A0736
:1072700023D50121FFF752FE054628B9637843F074
:10728000010363700020F0E70378E52BF6D0237844
:107290001B0744BFE369C361236A4383638C838212
:1072A000094B1B682BB100F11601183098472B8B46
:1072B0006B82A37823F00403A370A068FFF7D9FDC5
:1072C0000028DBD0D0E700BF7CE6032010B50446E1
:1072D000FFF7C6FF0023237010BDF0B593B01F4623
:1072E000002309930378019206460C4613B100204F
:1072F00013B0F0BD0029FAD00B7813F0700FF6D060
:1073000013782F2B12D1019A13782F2B02D101322F
:107310000192F8E7A1681BB93046FFF70EFEE7E7D8
:1073200009A8FFF790FD0028E1D009AC019801AA57
:1073300003A900F0FBF90028D9D0019B1B789BB171
:10734000002303AA2146304600F084FB0028CED05B
:1073500035460FCD09AC0FC40FCD0FC42B68236089
:107360003046FFF7B3FFE0E73B4603AA214630462D
:1073700000F070FBBCE700B58BB000230A46019318
:107380000146012301A8FFF7A8FF10B101A800F0F2
:10739000ABFA0BB05DF804FBF0B5044689B00E46BD
:1073A00011B9002009B0F0BD0B7813F0700FF8D0C0
:1073B00040F6022300F04EFB0028F2D001271025F2
:1073C000A77025702046FFF76BFD0028E9D02369E0
:1073D000236200212046FFF796FE2046FFF740FF7C
:1073E0000028DED039462046FFF798FD0028D8D087
:1073F0006A46C572034600F1200C154618685968A4
:10740000174603C7083363453A46F7D14FF0203398
:10741000216AA068CDF80130CDF80530ADF809300B
:1074200000F02DFD0146A0680122243000F004FD8B
:1074300003460028B5D02E228DF80020AC46074622
:107440000DF1200E624603CA724538607960944699
:1074500007F10807F6D12E228DF80120326AADF827
:107460001A20110CADF814102A46203308AE154628
:1074700003CDB542186059602A4603F10803F6D1DE
:10748000A068FFF7F6FC8DE7F0B593B01F46002328
:1074900009930378019206460C4613B1002013B0FD
:1074A000F0BD0029FAD00B7813F0700FF6D01378E6
:1074B0002F2B0DD1019A13782F2B02D1013201927B
:1074C000F8E7A16809A8FFF7BEFC0028E6D009ACE0
:1074D000019801AA03A900F029F90028DED0019B38
:1074E0001B78E3B1002303AA2146304600F0B2FA2C
:1074F00058B135460FCD09AC0FC40FCD0FC42B6862
:1075000023603046FFF7E2FEE1E7002FC6D003AA72
:1075100021463046FFF740FF0028EAD1BEE703AA24
:1075200021463046FFF738FFB9E700002DE9F04764
:10753000037889461907044617465BD583789A076E
:1075400058D51B0751D46369DB43BB4252D3B846BD
:1075500004F1100A6669B8F1000F00F09180A0688C
:107560004379C6F3080513EA56260ED16DB9216991
:10757000002946D0524600F088FC00283ADB04D1AE
:107580002046FFF783FC002834D02169A06800F072
:1075900076FC3118A06815B9B8F5007F3FD2C5F563
:1075A0000076464528BF4646002D36D16269E3691C
:1075B0009A4234BF01220522243000F03DFCC8B1BC
:1075C000284432464946354404F078FFB5F5007F3B
:1075D00004D1A068243000F007FC58B1636933443B
:1075E0006361B144A8EB0608B4E7C169FFF78BFDFE
:1075F0000028A8D1637843F0010363704FF0FF3097
:1076000050E0236A3BB92046FFF740FC0028F1D048
:1076100023692362B9E72361B7E70122CCE7B8F514
:10762000806FC26A1BD390F804C0ACEB0606F3B2BD
:107630004FEA582E734528BF734691424FEA4326BE
:1076400007D31A448A4282BF4FF0FF3280F8245099
:10765000C262A5684A46286800F0D3FFBDE79142A0
:1076600002BF4FF0FF3380F82450C362A3684A463C
:10767000186800F050FF0028BCD04FF40076ADE74A
:10768000E269A378B24204D2E66143F00403A37036
:1076900003E0084A1268002AF7D194F90230002B5F
:1076A00002DB3846BDE8F0872046FFF7D9FD002809
:1076B000F7D19FE77CE60320042904D800EB4100C2
:1076C000B0F8010070470A299BBF01F1FF3100EBC0
:1076D00041000131C08884BF00EB410080887047C1
:1076E000411E00F10A030020420842EAC01011F8CE
:1076F000012F52FA80F08B42C0B2F5D1704738B5F5
:10770000CB6804460D4623B9BDE838408968FFF7C9
:1077100014BC2422002104F0F9FE10230120237060
:10772000A070AB68A360EB68236238BD2DE9F04719
:10773000064610F8013B202BFAD06A4D8E600024DB
:10774000335DC3B12F2B16D05C2B02D10020BDE8D6
:10775000F087A3F12200C0B21D2803D825FA00F05B
:10776000C007F3D403F0BF003C28EFD0203B5E2BD2
:10777000ECD80134E4E733191846074610F8015BEA
:10778000202DFAD02F2DF8D017604CB113F8012D11
:107790002E2A01D0202A01D1013CF6E7FF2CD5DCAE
:1077A0004FF02033C1F811304C60C1F80D304B61FF
:1077B0004FF0000816F808302E2B01D0202B02D1F4
:1077C00008F10108F6E7B8FA88F04009651E6B1C5D
:1077D00002D0735D2E2B14D14FF0000907274A46C3
:1077E000CA464FF0080EA04568DA16F80830202B7C
:1077F00003D02E2B07D1A84512D0002008F1010894
:10780000F1E7013DE3E7222B08D07C2B06D0A3F162
:107810002A0CBCF1050F0AD82D2B12D0A8455BD13C
:107820000A2F4AD00A2708224FF0100EE6E7A3F1EC
:107830003A0CBCF1050FF1D9A3F15B0CBCF1020FBE
:10784000ECD9A3F1210CBCF15D0FE7D8A845E7D036
:10785000BA4230D8A3F1610CBCF1190F1AD8203B01
:107860004EEA0909DBB25FFA89F902F1010C5FFA0D
:107870008CFC0A44BCF1060F537301D881F80CC08C
:107880006246BBE7A84518DCA8460A2708224FF045
:10789000100EB2E7A3F1410CBCF1190F98BF4EEAEC
:1078A0000A0AE2E70B7B0120087019447E234B7320
:1078B00031238B734BE70A2FE4D100204B7B202B25
:1078C0003FF444AF0028EDD01AEA090F18BF4FF07B
:1078D000020981F800903AE7BA42ECD800205F2311
:1078E000C3E700BF010100312DE9F0418AB0002358
:1078F00001930378190704460AD583789A0707D5B8
:10790000016A39B901212046FFF708FB054638B95D
:10791000002048E0806800F058FB0028F2D1F7E72B
:10792000FFF7DEFEE5272F70002306462370A068D0
:10793000FFF79FFA0028EBD0E378002B33D02146E5
:1079400001A8FFF7DCFE0028E2D00125E3785FFA0A
:1079500085F84345DCD3A188491B490101A8FFF7FD
:10796000D2FB0028D4D0002101A8FFF7ADFB0028EE
:10797000CED0C37A0F2BCBD1027802F01F03434540
:10798000C6D1437BB342C3D10770A16891F82430BC
:1079900043F0010381F82430530605F10105D5D5E4
:1079A000A068FFF766FA0AB0BDE8F0812DE9F84358
:1079B00091F80C9006460C4602257E2701F10D0831
:1079C0006168A2686B189BB21144914206D012F80C
:1079D000010B03EB431343409BB2F6E7B9F1030FEE
:1079E00028BF4FF0030909F10402D2B203F00F01DE
:1079F000A018013A0929D2B294BF303137319145EC
:107A000041734FEA1313F1D104EB090300215F73B3
:107A10003046FFF778FB01213046FFF755FB014662
:107A200028B97078B0FA80F04009BDE8F88303788F
:107A30006BB1C37A1B07EED40B22404604F02EFD37
:107A40000028E8D10135ADB2642DB9D1EDE70120B0
:107A5000EBE700002DE9F04F2DED028B8BB01746C0
:107A6000079006930C4629B900200BB0BDEC028BA1
:107A7000BDE8F08F0B7813F0700FF5D0079B1B78E3
:107A8000002BF1D15368059313789D071FBF059B09
:107A90000C330D22B3FBF2F31ABF0133DBB2012327
:107AA000002120460393FFF72EFB07F10D034FF053
:107AB000000B08EE103ADA465D465E46CDF810B08F
:107AC000D946636901212046C3F34F18FFF7FCFA3A
:107AD0000346002871D16378002BC5D1069B9A0517
:107AE000C2D503F00303013B012BBDD8049B002D3D
:107AF00008BF43460493039B9D42C0F0F180B9F157
:107B0000000F40F00A81049B20465901FFF7FBFA61
:107B10000028A9D0039B03F1FF395FFA89F94E468B
:107B20004FF0000A4FF00F08002E00F00D810021E9
:107B30002046FFF7C9FA0546002895D0A26892F8BA
:107B400024304E4543F001030CBF46F0400BB346D2
:107B500082F8243080F800B080F80B8080F80CA008
:107B600007F10D00FFF7BCFD85F81AA0687385F8D2
:107B70001BA00BF01F030D22013BD7F808C0534395
:107B800000220599994240F2D0801CF80310042A83
:107B90005FFA82FE02F1010000F2CD8005EB4202A5
:107BA000A2F801100D2803F101030246E9D1013EBC
:107BB000F6B2B9E74FF0010983E70278E52A00D071
:107BC0007AB90499002D08BF4146049103998D426A
:107BD0003CBF0135EDB2002A80D0E52A05D1002650
:107BE0006FE703998D4238BF00252E2AF7D0D97A46
:107BF0000F294AD116BB12F040063FF462AF02F0E3
:107C00001F0693F80DB0B2460D220AF1FF3802FBB1
:107C100008F8059A4245E2D9A2EB08020892002230
:107C200002EB080109911846D1B2FFF745FD08990A
:107C30008A420DD1002818BF002642E70AF1FF3A18
:107C40005FFA8AFA5245CAD15A7B5A45DCD0C6E758
:107C5000FF28C4D85FFA80FEAEF141011929B96846
:107C60009CBF0EF120005FFA80FE08460999415C36
:107C7000A1F1410CBCF1190F9CBF2031C9B2714573
:107C8000ADD101320D2ACBD11BE70807A7D45EB1D5
:107C9000BAF1010F7FF4E8AE1846FFF721FD584511
:107CA0007FF4E2AEB1460EE018EE101A0B22184631
:107CB00004F0F4FB00287FF404AF97F8009019F06B
:107CC00001097FF477AF069B19053FF5CDAE069B02
:107CD0000798CDF8009042462146FFF757FAC4E6D0
:107CE00000212046FFF7F0F9A0B96378002B7FF45C
:107CF000BBAE2046FFF7D4F800283FF4B5AEA3682A
:107D00001B79012B3FF6FBAE039B1035EDB2AB4266
:107D1000EFD8F4E60135EDB2EDE639462046FFF73F
:107D200045FE00287FF4EFAE9EE614BF4FF0FF3112
:107D3000002189B22BE7BEF10A0F94BF05EB420286
:107D400005EB400291802DE731462046D4F814809F
:107D5000FFF7BAF9054600283FF486AE20223146E7
:107D600004F0D4FBD7F80D302B60D7F811306B60DE
:107D7000B7F815302B81FB7DAB723B7803F018030D
:107D80002B730F4B1B689BB105F10E0105F1100021
:107D900098472B8A6B822B83EB89EB82A26892F83F
:107DA000243043F00103C8F34F1882F824308EE7E3
:107DB00021232B7428236B740823AE73EB73E8E73D
:107DC0007CE6032013B50446084659B10191FCF73F
:107DD000D5FF23680199DB680246204602B0BDE862
:107DE0001040184702B010BD37B50378DA070446D3
:107DF00020D54368816800F10C021868019200F0F8
:107E00008AFB019A054618B90025284603B030BD03
:107E100023789B0704D4237823F001032370F4E72D
:107E2000D4E9013019690144186800F074FB002896
:107E3000F1D1E9E70125E8E770B583688B42044694
:107E40000E46154609D0FFF7CFFF08B9002070BDD8
:107E50006B070AD500232370A660227805F003057E
:107E60002046154300F80C5BF1E7636804F10C024F
:107E70001868314600F0C6FA0028EBD1E6E78379AE
:107E800040690239994008447047012970B5054698
:107E90000C46164602D84FF0FF3070BDC3698B42C6
:107EA000F9D3C379202B16D18169022201EBD411B9
:107EB00000F50C70FFF7C0FF0028ECD004F07F0441
:107EC00050F8243023F07043EA699A4226BF3360A9
:107ED00001200020E1E7102BDDD1C1F307238169E8
:107EE0000222194400F50C70FFF7A6FF0028D2D03B
:107EF000E4B230F81430E7E7012938B50C461546EE
:107F000001D8002038BDC3698B42FAD3C379202B36
:107F10000FD18169032201EBD41100F50C70FFF73A
:107F20008BFF0028EDD004F07F0440F8245001209E
:107F3000E8E7102BE5D1C1F3072381690322194437
:107F400000F50C70FFF778FF0028DAD0E4B220F8D3
:107F50001450ECE72DE9F341C4688C4205460E4607
:107F6000904601D3012701E00C460027EB6901345C
:107F7000A34202D2C7B9EC68F4E7A64214D001AA22
:107F800021462846FFF781FF00280DDBEED0019B3C
:107F9000002BEBD107B1EC606FF070422146284610
:107FA000FFF7AAFF074620B90027384602B0BDE810
:107FB000F08116B9C8F80040F7E722463146284656
:107FC000FFF79AFF0028F5D1EEE773B500230546C9
:107FD0000C46019301AA21462846FFF756FF061ECC
:107FE00010DB002221462846FFF786FF50B1EB68E0
:107FF000A34224BF04F1FF34EC60019C002EE9D1C0
:1080000002B070BD0020FBE7012370B50022C36001
:108010004FF0FF330446C27100F12406806280F8FD
:108020002420C362C0F8340280F83022C0F838320D
:108030000D46B9B1042901D9002070BD1146304662
:10804000FFF7FAFE0028F7D000EB051393F8AE31E6
:108050005B06F1D105F11B0100EB0110D0F80650D1
:10806000002DE9D0002229463046FFF7E5FE002822
:10807000E2D0B0F80B30B3F5007FDDD1037C022BEA
:10808000DAD1C389002BD7D0417B21714B1E63719C
:108090000023A37109260123994207D0013ECBD0CA
:1080A000A2795B000132DBB2A271F5E7C18A01B9A6
:1080B000416A2161C3892B44A361B0F81120228158
:1080C00003EB41032362B0F81110490101F2FF11E3
:1080D00003EB51236361B0F8132002B9026AE91A75
:1080E000A3791144D9404B1CE36140F6F4739942E3
:1080F00002D80C23E3719FE74FF6F473994285BFD2
:10810000C36A236210232023E371012095E700F066
:10811000CBBA00F0AEBA000070B50E4E0D46144654
:1081200000F02EFB3368C01A0B4B984208D900F0C0
:108130002FFB0A4B186000F02DFD00F021FB306092
:1081400000F026FB80B2401BA042D4BF00200120DB
:1081500070BD00BF84E60320A08601002CE7032049
:1081600038B5057A04464DB9406800F06BFA63688B
:108170002946187D03F035FC0123237238BD10B564
:10818000037A04466BB143680121187D03F029FC92
:108190006068FF21FFF7BBFF606800F067FA00230B
:1081A000237210BDF8B504460D46164600F0F0FAED
:1081B00087B26068FFF7ADFFFF2860720ED14FF401
:1081C0007A7239462046FFF7A7FF0028F1D05523E1
:1081D00020462370FFF7D3FF0020F8BDFE2801D012
:1081E0005023F5E760683246294600F047FA60728E
:1081F00008B16023ECE76068FFF78BFF6068FFF76A
:1082000088FF0120E9E770B504460E4600F0C0FA89
:1082100085B2324629462046FFF77EFF30B96068B6
:10822000FFF777FFFF28F4D1012070BD0020FCE7A5
:10823000F7B5037A019204460D460BB9FFF790FF9C
:1082400025B14FF496712046FFF7DDFF606845F0D9
:108250004001FFF75CFF032601AFB95D6068FFF7DF
:1082600056FF013EF9D2002D60680CBF9521872191
:10827000FFF74DFF6068FFF74CFF0B256068FFF7C5
:1082800048FF0306607203D5013D15F0FF05F5D1E7
:1082900003B0F0BD70B504460D46164637210022E6
:1082A000FFF7C6FF324629462046BDE87040FFF77B
:1082B000BFBF00002DE9F0410025057205708572F1
:1082C0004160044690461E4600F062FA4146074669
:1082D000606800F0BBF96368494A1D720125DA60E5
:1082E0001D822046FFF73CFF63682946187D03F096
:1082F00078FB0A256068FF21013DFFF708FF15F0B4
:10830000FF05F7D163682946187D03F06AFB0A254B
:10831000002211462046FFF78BFF0128804618D027
:10832000013D15F0FF0507D1202320462370FFF7FC
:1083300026FF0020BDE8F0816068FD21FFF7E7FE21
:108340004FF402786068FFF7E4FEB8F10108F9D154
:10835000DEE74FF4D57208212046FFF769FF0528B4
:1083600014D184F80A800025BFB22A46292120466C
:10837000FFF790FF0246D8B14FF4FA623946204623
:10838000FFF7CAFE0028F0D04323CEE7042560683B
:10839000FFF7BFFE013D15F0FF056072F7D1AA2877
:1083A00004D10223A3724FF08045DDE72523BCE70B
:1083B000A37A022B18D13A212046FFF739FF08B1E2
:1083C0003723B2E76068FFF7A4FE00F0C000C028C2
:1083D00004BF0323A3726068FFF79BFE6068FFF78A
:1083E00098FE6068FFF795FE2046FFF7C8FE6368B9
:1083F0003079B168B2891A821872D960012099E780
:1084000090D0030038B5837A032B18BF4902154674
:108410000A4611210446FFF70BFF30B130232370C9
:108420002046FFF7ACFE00250BE029464FF4007212
:108430002046FFF7B7FE05460028F1D02046FFF79B
:108440009EFE284638BD10B5837A032B0A4618BF16
:108450004A0212210446FFF7EBFE30B131232046D9
:108460002370FFF78CFE002010BD0120FCE710B543
:1084700000220C210446FFF7DBFE30B12823204602
:108480002370FFF77CFE002010BD2046FFF777FE2B
:108490000120F9E7F8B5044616461F46FFF7D3FF5B
:1084A00068B10025ABB29F4206EB452109D94FF4D4
:1084B00000722046FFF776FE01350028F2D1002039
:1084C000F8BD2046BDE8F840FFF7D1BF38B50446F7
:1084D00015464068FFF71BFE4FF40072606829469E
:1084E00000F0E6F86068FF21FFF711FE6068FF21E9
:1084F000FFF70DFE6068FFF70CFE607200F01F00D2
:10850000052806D0572320462370FFF738FE0020A9
:1085100038BD0120FCE770B5837A032B18BF4902F0
:1085200015460A4618210446FFF782FE064630B17A
:10853000322323702046FFF722FE00251FE02A4643
:10854000FE212046FFF7C2FF0028F3D04FF4FA6166
:108550002046FFF758FE054608B95A23E9E7324698
:108560000D212046FFF764FE08B12923E1E760688A
:10857000FFF7CFFD0028F8D12046FFF700FE284680
:1085800070BD13B501914FF4FA610446FFF73BFE4D
:10859000019A30B95B2323702046FFF7F0FD0020DD
:1085A00005E0FC212046FFF791FF0028F4D002B03F
:1085B00010BD10B5837A032B0A4618BF4A02192151
:1085C0000446FFF735FE30B1332320462370FFF712
:1085D000D6FD002010BD0120FCE738B54FF4FA614C
:1085E0000446FFF710FE054630B956232370204697
:1085F000FFF7C5FD284638BD6068FD21FFF787FD00
:10860000F5E7F8B5044616461F46FFF7D2FF70B1EE
:108610000025BD4206EB4521204604D0FFF7B1FFFF
:1086200028B10135F5E7BDE8F840FFF7D6BF204691
:10863000FFF7A5FD0020F8BD014B01221A7070471D
:1086400088E60320011D006802F088BC10B50446CE
:108650000175006802F054FC207D012103F0B0F99F
:10866000207D0121BDE8104003F0BBB9006802F095
:108670005BBC0068FF2102F0DFBC000037B5134689
:10868000074A00920025074C006825700A462946D3
:1086900002F0D8FC2378002BFCD0002003B030BDC2
:1086A00039860B0088E60320006802F0C5BC000094
:1086B00037B51346064A00920025064C006825701F
:1086C0002A4602F0BFFC2378002BFCD003B030BD5B
:1086D00039860B0088E6032008B5024B1B689B68AF
:1086E000019308BD7802030008B5024B1B68DB68E4
:1086F000019308BD7802030008B5034B1B68D3F84B
:108700009830019308BD00007802030008B5034BC0
:108710001B68D3F8F030019308BD00007802030015
:1087200008B5024B1B685B6C019308BD480203004F
:1087300008B5024B1B689B6C019308BD48020300FF
:1087400008B5024B1B68DB6C019308BD48020300AF
:1087500008B5024B1B685B6D019308BD480203001E
:1087600008B5024B1B685B68019308BD1802030043
:1087700008B5024B1B68DB68019308BD18020300B3
:1087800008B5024B1B681B69019308BD1802030062
:1087900008B5024B1B685B69019308BD1802030012
:1087A00008B5024B1B685B68019308BD2C020300EF
:1087B00008B5024B1B689B68019308BD2C0203009F
:1087C00008B5024B1B68DB68019308BD2C0203004F
:1087D00008B5024B1B681B69019308BD2C020300FE
:1087E00008B5024B1B689B69019308BD2C0203006E
:1087F00008B5024B1B68DB69019308BD2C0203001E
:1088000008B5024B1B681B6B019308BD2C020300CB
:1088100008B5024B1B68DB68019308BD2802030002
:1088200008B5024B1B689B69019308BD2802030031
:1088300008B5024B1B68DB69019308BD28020300E1
:1088400008B5024B1B681B6A019308BD2802030090
:1088500008B5024B1B685B6A019308BD2802030040
:1088600008B5024B1B689B6A019308BD28020300F0
:1088700008B5024B1B68DB6A019308BD28020300A0
:1088800008B5024B1B681B6B019308BD280203004F
:1088900008B5024B1B685B6B019308BD28020300FF
:1088A00008B5024B1B681B6C019308BD280203002E
:1088B00008B5024B1B681B6D019308BD280203001D
:1088C00008B5024B1B685B69019308BD6402030095
:1088D00008B5024B1B689B68019308BD6802030042
:1088E00008B5024B1B68DB68019308BD68020300F2
:1088F00008B5024B1B681B68019308BD30020300DA
:1089000008B5024B1B685B69019308BD3002030088
:1089100008B5024B1B68DB69019308BD30020300F8
:1089200008B5024B1B681B6A019308BD30020300A7
:1089300008B5024B1B685B6A019308BD3002030057
:1089400008B5024B1B689B6A019308BD3002030007
:1089500008B5024B1B689B6B019308BD30020300F6
:1089600008B5024B1B68DB6B019308BD30020300A6
:1089700008B5024B1B681B6C019308BD3002030055
:1089800008B5024B1B685B6C019308BD3002030005
:1089900008B5024B1B689B68019308BD3C020300AD
:1089A00008B5024B1B68DB68019308BD3C0203005D
:1089B00008B5024B1B681B69019308BD3C0203000C
:1089C00008B5024B1B685B69019308BD3C020300BC
:1089D00008B5024B1B689B69019308BD3C0203006C
:1089E00008B5024B1B68DB69019308BD3C0203001C
:1089F00008B5024B1B681B6A019308BD3C020300CB
:108A000008B5024B1B689B6A019308BD3C0203003A
:108A100008B5024B1B68DB6A019308BD3C020300EA
:108A200008B5024B1B681B6C019308BD3C02030098
:108A300008B5024B1B681B68019308BD4C0203007C
:108A400008B5024B1B685B68019308BD4C0203002C
:108A500008B5024B1B689B68019308BD4C020300DC
:108A600008B5024B1B681B69019308BD4C0203004B
:108A700008B5024B1B685B69019308BD4C020300FB
:108A800008B5024B1B689B69019308BD4C020300AB
:108A900008B5024B1B68DB69019308BD4C0203005B
:108AA00008B5024B1B681B6A019308BD4C0203000A
:108AB00008B5024B1B685B6B019308BD60020300A5
:108AC00008B5024B1B681B6D019308BD60020300D3
:108AD00008B5024B1B685B6D019308BD6002030083
:108AE00008B5024B1B68DB6E019308BD60020300F2
:108AF00008B5024B1B681B6F019308BD60020300A1
:108B000008B5024B1B685B68019308BD2002030097
:108B100008B5024B1B685B69019308BD2002030086
:108B200008B5024B1B68DB6A019308BD20020300F5
:108B300008B5034B1B68D3F88830019308BD0000CB
:108B40002002030008B5034B1B68D3F8943001934F
:108B500008BD00002002030008B5034B1B68D3F8D2
:108B6000A830019308BD00002002030008B5034BA4
:108B70001B68D3F8BC30019308BD0000200203003D
:108B800008B5034B1B68D3F8C030019308BD000043
:108B90002002030008B5024B1B689B68019308BDC7
:108BA0004402030008B5024B1B68DB69019308BD52
:108BB0004402030008B5024B1B68DB6B019308BD40
:108BC0004402030008B5024B1B685B6C019308BDAF
:108BD0004402030008B5024B1B685B68019308BDA3
:108BE0004002030008B5024B1B689B68019308BD57
:108BF0004002030008B5024B1B68DB68019308BD07
:108C00004002030008B5024B1B681B69019308BDB5
:108C10004002030008B5024B1B685B69019308BD65
:108C20004002030008B5024B1B689B69019308BD15
:108C30004002030008B5024B1B68DB69019308BDC5
:108C40004002030008B5024B1B681B6A019308BD74
:108C50004002030008B5024B1B681B6B019308BD63
:108C60004002030008B5024B1B685B6B019308BD13
:108C70004002030008B5024B1B681B6C019308BD42
:108C80004002030008B5024B1B685B6C019308BDF2
:108C90004002030008B5024B1B681B68019308BD26
:108CA0001C02030008B5024B1B685B68019308BDFA
:108CB0001C02030008B5024B1B689B68019308BDAA
:108CC0001C02030008B5024B1B68DB68019308BD5A
:108CD0001C02030008B5024B1B685B6A019308BDC8
:108CE0001C02030008B5024B1B68DB6A019308BD38
:108CF0001C02030008B5024B1B68DB6B019308BD27
:108D00001C02030008B5024B1B681B6C019308BDD5
:108D10001C02030008B5024B1B685B6C019308BD85
:108D20001C0203000021FFF7F3BE7047064B994277
:108D300010B500F10C0405D0084602F009FF002828
:108D400008BF0024204610BD6CCD0B0010B53021AB
:108D50000446FCF75AF8204610BD3021FCF755B800
:108D600010B58368044613B1032201469847204694
:108D700010BD10B54368013B0446436063B9036806
:108D80009B689847A368013BA3602BB923682046E2
:108D9000DB68BDE81040184710BD000010B5002387
:108DA0000370044B04461868FFF7CAFC01232370C4
:108DB000204610BD90E6032010B5037804461BB191
:108DC000024B1868FFF7C4FC204610BD90E6032054
:108DD00082B00346086849686A4603C26A4603CA05
:108DE00018601846596002B0704708B582798B79CF
:108DF0009A4206D1062203F051FBB0FA80F04009F6
:108E000008BD0020FCE74FF0FF33036083800020A3
:108E1000704708B50246002101604160FFF7F3FF8B
:108E20009171104608BD10B5D0E9063203EBC202BD
:108E30009342184606D0046824888C4203F1080344
:108E4000F6D110BD0020FCE770B500250560064690
:108E50003020FBF7D6FF044688B10123C0E9013377
:108E6000094B03604FF6FF7383810E30FFF7D1FF8C
:108E7000C4E90655C4E90855C4E90A55A5757460E6
:108E80000C343460304670BD58CD0B0037B50D46FC
:108E9000044601A8FFF782FF2A68D2F80230236057
:108EA000D2F80630636001A8FFF786FF204603B0C2
:108EB00030BD30B5054687B00C4601A8FFF76EFF00
:108EC0002A68236812881B889A420DD1294602A875
:108ED000FFF7DCFF214604A8FFF7D8FF04A902A88A
:108EE000FFF783FF044600B9002401A8FFF764FFE1
:108EF000204607B030BD000010B504466420FBF7E3
:108F000080FF68B10023C0E90033C0E90233C0E943
:108F10000433C0E906330362C362C363C364C36539
:108F2000206020B90A4A0B490A20FFF7C1FD002042
:108F3000FFF7D2FB20B1064A07490A20FFF7B8FD28
:108F4000216806480022FFF7E1FB204610BD00BF64
:108F500071870B0090CC0B00CECC0B002D920B0038
:108F600010B50A4C2378BFF35B8FDB070CD4204687
:108F7000FBF75AFF40B10648FFF7BEFF2046FBF75C
:108F800058FF044803F07CFA014810BD8CE603202A
:108F900094E6032055900B0008460021FFF7E6BD3C
:108FA00070B5D0E90053044605EB0316AE4204D079
:108FB000284602F0BBF81035F8E72068FFF772FE8C
:108FC000204670BD0B68036013B15A6801325A60C5
:108FD000704710B551F8043B044640F8043BFFF7D6
:108FE000F1FF204610BD10B50446006808B1FFF738
:108FF000C0FE204610BD70B5D0E90053044605EB15
:10900000C306AE4204D0281DFFF7EDFF0835F8E790
:109010002068FFF747FE204670BD70B5D0E90053C9
:10902000044605EBC306AE4204D0281DFFF7DBFF64
:109030000835F8E72068FFF735FE204670BD10B50B
:1090400004462430FFF7E9FF04F11800FFF7D3FFCF
:1090500010BD000070B5174B1C6854B304F15400E8
:10906000FFF77EFE04F14400FFF77AFE04F13400BE
:10907000FFF776FE04F12400FFF772FED4E90653F1
:1090800005EBC306AE4204D0281DFFF7ACFF083540
:10909000F8E7A069FFF706FE04F10C00FFF7BDFF3B
:1090A0002046FFF7A8FF20466421BDE87040FBF78B
:1090B000ACBE70BD94E60320826810B50AB902F018
:1090C00043FDBDE81040C368184770B5D0E90053B0
:1090D000044605EBC306AE4204D0281DFFF783FF0C
:1090E0000835F8E70023636070BD13B5044600201F
:1090F000FFF7FAFA002812DB0020FFF741FD18B154
:1091000000212046FFF748FF01A8FFF747FE20682F
:109110001830FFF7DAFF01A8FFF74EFE002002B07B
:1091200010BD8842F8B504460D46164614D9904243
:1091300013D2A2F10806751AA1F108072C44B74210
:1091400018D01CB131462046FFF743FF301DFFF712
:109150004AFF083E083CF2E70CD0B5420AD01CB1E9
:1091600029462046FFF735FF281DFFF73CFF08354D
:109170000834F2E7F8BDF7B5044646686846FFF7DD
:1091800028FFD4E901739F4212DB0137002F29DD4C
:10919000F800FFF77FFD0546F0B1D4E9001201EBBE
:1091A000C202FFF7BEFF2068FFF77CFD2560A760C5
:1091B0002368626803EBC60603EBC202314606F180
:1091C0000800FFF7AEFF1EB169463046FFF701FF0A
:1091D000636801336360012501A8FFF704FF284697
:1091E00003B0F0BD0025DEE7F8B5D0E90043054641
:1091F0000F4604EBC306A64205D039462046FFF7CA
:1092000058FE08B114B9F8BD0834F4E7201DFFF783
:10921000EAFED5E9003204F1080103EBC202204660
:10922000FFF77FFF6B68013B6B60ECE72DE9F041D6
:1092300005468EB003A80C46FFF7B0FD2E68F31E5E
:109240000D2B3CD8DFE813F00E0057003B00D30095
:109250003B003B003B003B003B009D009D009D0010
:109260009D009D0004A8FFF7EFFD049BAA891A80CA
:109270006968049808310230FFF7AAFD04A906A81E
:10928000FFF7A7FE06A904F11800FFF774FF0546D3
:1092900007A8FFF7A8FEC5B92023CDE906355E4B28
:1092A0005E49009306AA2B460120FFF709FC049BA8
:1092B00029461888FFF720FA05A8FFF794FE03A8AF
:1092C000FFF77AFD0EB0BDE8F081E36A23B104A98F
:1092D00004F12400FFF7F0FE05A8FFF784FE20212B
:1092E0000023CDE906134E4A00924C4906AA0120FC
:1092F000FFF7E6FBE3E7A9892046FFF794FD064662
:109300000028DCD00568D5E906324FF6FF712980C8
:1093100003EBC2029A4203D053F8080B4180F9E7ED
:10932000D5E9037307EBC308B84504D0381DFFF730
:109330005AFE0837F8E700232B61D5E9067307EBDF
:10934000C308B84504D0381DFFF74DFE0837F8E7CD
:109350000023EB61AB72E36B23B1314604F13400BF
:10936000FFF7AAFE33684FF6FF721A80314604F108
:109370001800FFF739FF20220023CDE90623294AF0
:10938000B2E7A9892046FFF74EFD002897D0E36C8D
:10939000002B94D000230D2EADF8163001D0102EE6
:1093A00017D1002369681A4606258DF815300491F7
:1093B0008DF814200690DDE9040109AB8DF81C60DE
:1093C000089583E80300236D06A904F1440098473B
:1093D00075E70F2E01BF2B7A696803F0010208259B
:1093E0000FBFC3F340031A4619461D46DDE7A9899E
:1093F0002046FFF718FD014600283FF460AFE36DFB
:10940000002B3FF45CAF6B68069306AA236E04F151
:109410005400984753E700BF10CD0B00A7CC0B00BA
:1094200036CD0B0040CD0B00024800230360FFF750
:1094300077B900BF90E603201FB50C23ADF80430C8
:1094400003688DF80630037A8DF80730436802937D
:109450000021437AADF80D1001A88DF80F108DF89A
:109460000C30FFF7AFFB05B05DF804FB002240684D
:109470001146FFF7E7BB002240681146FFF7F2BB39
:1094800040680022FFF7E6BB4068002281F001013E
:10949000FFF7D0BB002340681A461946FFF7C2BB4E
:1094A000002340681A461946FFF7B4BB0022406803
:1094B0001146FFF7A7BB002240681146FFF792BB99
:1094C000406800220221FFF795BB002340681A463E
:1094D000FFF780BB024B03225A60024A1A607047B2
:1094E00098E603207CCD0B007047F8B5064615467C
:1094F0000C468F18BC4206D0336814F8011B9B68D9
:1095000030469847F6E72846F8BD007C0022FFF772
:1095100097B9007C0021FFF79BB9007C0021FFF781
:109520009FB9007C0021FFF7A3B9007C0021FFF761
:10953000A7B910B514210446FBF767FC204610BDFF
:1095400038B5044615464FF47A730022C4E9012366
:10955000094B2174084623602946FFF7A1F9BF3063
:1095600008D16B69DB0705D56868FFF79BFBE868E6
:10957000FFF798FB204638BDB8CD0B000023007CD8
:109580001A461946FFF744B97FB500221423CDE9E6
:109590000122ADF804300B788DF808304B68039346
:1095A000CB680493007C0B7A059301A9FFF780F93F
:1095B00007B05DF804FB1FB5003B8DF800104FF0BD
:1095C0006401039118BF0123694601928DF80830A8
:1095D000FFF7DAFF05B05DF804FB0123FFF7EBBFEF
:1095E000007C0022FFF71CB9C9B2FFF7F9BF007C6D
:1095F0000022FFF71DB90121FFF7F9BF0047000066
:109600002DE9FF4100241D460F4690460646FFF710
:10961000EFF8A5424FF00403ADF80D408DF80C3083
:109620008DF80F40A2BF9DF828308DF80E3003ACA6
:109630000749009443463A463046A8BF8DF80D507E
:10964000FFF7CEF8B0FA80F0400904B0BDE8F08131
:10965000FD950B00704710B518210446FBF7D5FBAC
:10966000204610BDF0B5037D062B8DB00E4600F1EF
:1096700004074FF0000412D000F1080515F8011D91
:109680000A22304601F0D7FAAF42044419D0002C28
:10969000F4D02E21304601F0B3FA0444EEE72F2334
:1096A0006A4639460A208DF80040FFF709F96846F6
:1096B000FBF764FB33680246DB686946304698472F
:1096C000044620460DB0F0BD10B5054B04461122EE
:1096D00040F8043B002102F019FF204610BD00BFF6
:1096E000E0CD0B000346074A10B543F8042B01F107
:1096F000100251F8044B43F8044B9142F9D10A7817
:109700001A7010BDE0CD0B0010B59DF8084044EA7A
:10971000032343EA024242EA0161042341600375E4
:1097200010BD000007B5064B0360CB7800938B7823
:109730004A780978FFF7E8FF03B05DF804FB00BF43
:10974000E0CD0B0000F11003012213F8101C0129D9
:10975000184608D153F8041C02EB4102013A03F108
:109760001003F2D17047022904BF53F8041C5218A9
:10977000F4E70EB4F0B588B000AF07F1340510215E
:1097800055F8042B7A6004462B467818FD60FFF7E5
:10979000A1FA0F287A681AD900F1080323F0070309
:1097A0006E46ADEB030D411C2B466846FD60FFF78E
:1097B00091FA021E04DD236869469B68204698479B
:1097C000B5462037BD46BDE8F04003B070470028DD
:1097D000F7D0236802469B6807F11001204698479E
:1097E000EFE738B50B6803604D6843689D42044657
:1097F00008D015B16B6801336B60606808B1FFF782
:10980000B8FA656038BD07B503688DF807109B6826
:1098100001220DF10701984703B05DF804FB0B46E8
:109820001146002210B5C0E90022044683600BB93E
:10983000204610BDFFF7D5FFFAE78368EBB11A7831
:10984000032A1AD8DFE802F00417021B052070472C
:1098500002685B685268D05C2D2812D0A0F13003FA
:10986000092B0ED974280ED066280CD0A0F16E03F7
:109870005842584170470620704700207047042026
:109880007047032070470220704710B50446FFF769
:10989000D4FF02280ED0C31EDBB2012B14D82268DD
:1098A000A36850685B68BDE810400A220021184494
:1098B00002F07CBF2268A36852685B68D05CA0F1AC
:1098C00074035842584110BD0020FCE738B500230E
:1098D000C0E9003304460E48C4E90203A9B10B787D
:1098E000032B06D08BB9136858684B68C35C6E2B8A
:1098F00007D013684D6858688B6828445B1BA060CC
:10990000E36011462046FFF76CFF204638BD00BFDC
:10991000E6CA0B0038B500250B46C0E90055C0E982
:109920000255C0E90455044611464BB11A78012A84
:1099300006D103F11002DB6882604361FFF751FF3B
:10994000204638BD10B54369044663B18068E060C5
:10995000013B1030A0602061636113B1FFF7F2FE9C
:10996000A060012000E0184610BD10B57D2104461E
:10997000FFF749FF01232371204610BD08B5037985
:10998000012B02D0022B04D008BD2C21FFF73BFF96
:10999000FAE73A21FAE710B50446FFF7EFFF204651
:1099A0007B21FFF730FF00232371204610BD00000C
:1099B00013B504460191FFF7E1FF2368019ADB68C4
:1099C00003492046984701232046237102B010BD69
:1099D00060CA0B0013B504460191FFF7CFFF23685F
:1099E000019ADB68034920469847012320462371EA
:1099F00002B010BDECCD0B002DE9F0470D46222141
:109A000090460446FFF7FFFEDFF8A490A8442F46D7
:109A10004745BA463DD017F8016B222E06D05C2E82
:109A200004D0304602F032FD0028F1D12368AAEBC1
:109A300005029B682946204698475C212046FFF78F
:109A4000E2FE0D2E0AD8072E1CD9A6F10803052B1D
:109A500018D8DFE803F00D0F11171315222E01D0CF
:109A60005C2E0FD131462046FFF7CDFE3D46CFE7B5
:109A70006221F8E77421F6E76E21F4E76621F2E748
:109A80007221F0E723683246DB6849462046984752
:109A9000ECE7BD4205D023687A1B9B682946204627
:109AA000984722212046FFF7AEFEBDE8F08700BFB1
:109AB000EFCD0B0013B50446CDE90021FFF75EFFA3
:109AC0002046DDE90021FFF797FF0223204623719E
:109AD00002B010BD13B50446CDE90021FFF74EFFDB
