:02000002B0004C
:1040000000400B00C2730B00000006000C0005020C
:0840100004018A130000000006
:04401800FC6D0B0030
:10401C0010F8012B11F8013B012A28BF9A42F7D066
:10402C00D01A7047034613F8012B002AFBD1181A3B
:10403C000138704709480A49884208B505D0094A31
:10404C00824202D0121A02F033FD0748074A0021BF
:10405C00121A02F055FD014808BD00BFE4DB032035
:10406C0020730B0058DC032058DC0320F0E70320FE
:10407C0070B5074E074C02F005FCA41BA4080025E4
:10408C00AC4200D170BD56F8043B98470135F7E7B8
:10409C00D8720B00FC720B0000F026B908B500F0CA
:1040AC0053F9BDE8084002F0A5BB00F0E1BC00F0FC
:1040BC00DFBC00F0E5BC000008B5034A03490C2046
:1040CC0000F018FCFEE700BFE1460B00106E0B0081
:1040DC000078B0FA80F040097047012303707047F4
:1040EC00704710B510210446FFF7E3FF204610BDC2
:1040FC000EB403B503AB002153F8042B019302F06B
:10410C00A8F802B05DF804EB03B0704773B5044631
:10411C0008462279A36832B1A3B90B4902B0BDE8B5
:10412C00704002F065B8094A267B094D0949647B49
:10413C00012E18BF2946CDE900140749FFF7D8FF17
:10414C0002B070BD054AEFE7366E0B00AE6F0B0088
:10415C00326E0B002E6E0B004C6E0B00256E0B009E
:10416C0037B540F20573038064220223837080F814
:10417C0068240823404A8380C0F878240023012255
:10418C003E4DC373A0F8443480F8723480F87C241C
:10419C00C0F88034A0F884342978BFF35B8F1140C9
:1041AC0004460BD128460191FFF792FF019928B1E3
:1041BC00334802F085F82846FFF78FFF304BC4F8E0
:1041CC00743404F28C4000F0FFF9102504F29C408A
:1041DC002A460021C4F8980402F092FC012384F8CA
:1041EC00AC340323A4F89E3441F21323A4F8B03466
:1041FC00112384F8B2342349A4F89C5404F5976035
:10420C0002F0B3F8204904F5996002F0AEF80021F1
:10421C0004F59B6000F0DCF91C4B04F2DE425919EA
:10422C0053F8040B42F8040B8B42F9D11922C4F851
:10423C00F42404F5A06200231549C4F8F034C4F842
:10424C00F834A4F8FC34116004F2045211491160E2
:10425C00114904F5A262002042E90201002000216C
:10426C00C2E90001204684F8303584F83135C4F8B1
:10427C00343503B030BD00BF886E0B0058DC032012
:10428C005CDC0320AE6F0B00696E0B00EC6D0B0059
:10429C0033335340000048420000F87F7047000061
:1042AC000A4B10B50446036001F0A6F8214601F054
:1042BC00DEFA02F019FA02F00BFA2046044B40F831
:1042CC00043B01F06FF9204610BD00BFB46E0B002B
:1042DC009C6E0B0010B50446FFF7E2FF204624212C
:1042EC00FFF7E7FE204610BD38B5144D2B7DEBB122
:1042FC0002232B722B68DB6823B19A88042A18D00E
:10430C009B68F9E70E49102002F0C0FB044670B11F
:10431C001022002102F0F4FB0A4B23600423A3803B
:10432C002B69A3604EF66023E3602C6138BD2875C1
:10433C00FCE74EF66022DA60F8E700BF54E6032093
:10434C0064710B00100003001FB50121072002F05F
:10435C0009FB40F6B83000F0C3FB0021072002F047
:10436C0001FB02F0C1F9044600F0BCF90A22014637
:10437C00204601F050FF204601F041FF01A80449FE
:10438C0002F078F8019808B100F07AFB04B010BD87
:10439C0054E6032070B5D0E900531426044606FBFE
:1043AC000356AE4204D0284601F094FF1435F8E7CA
:1043BC00206800F065FB204670BD8842F8B50446C5
:1043CC000D46164616D9904215D2A2F11406751A4E
:1043DC00A1F114072C44B7421CD02CB13146204615
:1043EC0001F0F4FF337C2374304601F073FF143E6C
:1043FC00143CF0E70ED0B5420CD02CB12946204627
:10440C0001F0E4FF2B7C2374284601F063FF143584
:10441C001434F0E7F8BD2DE9F0410023C0E9003376
:10442C0083604F689F4204460E4623DD4FF014080C
:10443C0008FB07F000F01CFB0546D8B1D4E90012CC
:10444C0008FB0212FFF7B9FF206800F019FB25608A
:10445C00A760D6E9007308FB0378B84508D0394645
:10446C00284601F0CDFF3B7C2B7414371435F4E750
:10447C00736863602046BDE8F081000070B5424B64
:10448C00424A9A6000248EB0C3E90044032000F035
:10449C0051FA2146012000F05DFACDE90244049462
:1044AC0002F022F902A9064605A8394DFFF7B3FF21
:1044BC0005A908A8FFF7AFFF364B2B6008A90BA87E
:1044CC00FFF7A9FF0BAA1E21281D01F0B3FA0BA8B8
:1044DC00FFF760FF08A8FFF75DFF2F4B2B602E62E4
:1044EC0005A8FFF757FF2D4B2B6002F0FDF84FF49A
:1044FC00165102F0E9F800F07FFF294601F070F93F
:10450C0002A8FFF747FF264B264D1C611A1D0126FA
:10451C001A60254A5A60C3E902441E753146234885
:10452C00FFF71EFE64236C60C5F83C44C5F860348C
:10453C00C5F86844C5F87844A5F87C441C4B1D4C60
:10454C00C5F8703485F874642178BFF35B8F314003
:10455C000BD120460191FFF7BBFD019928B11648FC
:10456C0001F0AEFE2046FFF7B8FD134BC5F86C34D6
:10457C0000F0B8F8114B1249186012480EB0BDE8A3
:10458C00704001F0F2BE00BF44E603200000FFFFC4
:10459C006CE603209C6E0B00E86F0B00B46E0B00F6
:1045AC0054E60320C0E103201000030078DC032054
:1045BC00886E0B0058DC03205CDC032050E60320E3
:1045CC00AE6F0B0064DC03204023037070470000C7
:1045DC00214BF0B50B443C24B3FBF4F104FB113339
:1045EC00B1FBF4F204FB1211017118214371B2FBFF
:1045FC00F1F301FB1322C27000229BB2027040F255
:10460C006D164FF69364027812F003050BBF374614
:10461C004FF4B677012100219F4205DA611A0B4451
:10462C0001329BB20270EEE701220C4E42704178CF
:10463C00721812F8012C1DB9022904BF0132D2B232
:10464C009A4294B204D81B1B01319BB24170EEE725
:10465C0001338370F0BD00BF80BC92C7C46E0B00E9
:10466C0013B50446084659B10191FFF7DBFC2368EA
:10467C000199DB680246204602B0BDE8104018479D
:10468C0002B010BD08B5024B1B685B6C019308BDF2
:10469C004802030008B5024B1B689B6C019308BDD4
:1046AC004802030008B5024B1B68DB6C019308BD84
:1046BC004802030008B5024B1B685B6D019308BDF3
:1046CC004802030008B5024B1B685B68019308BDE8
:1046DC001802030008B5024B1B68DB68019308BD88
:1046EC001802030008B5024B1B685B69019308BDF7
:1046FC001802030008B5024B1B68DB68019308BD68
:10470C002C02030008B5024B1B681B69019308BD02
:10471C002C02030008B5024B1B681B6A019308BDF1
:10472C002802030008B5024B1B685B6A019308BDA5
:10473C002802030008B5024B1B689B6A019308BD55
:10474C002802030008B5024B1B68DB6A019308BD05
:10475C002802030008B5024B1B681B6B019308BDB4
:10476C002802030008B5024B1B685B6B019308BD64
:10477C002802030008B5024B1B681B6C019308BD93
:10478C002802030008B5024B1B685B69019308BD46
:10479C006402030008B5024B1B689B68019308BDBB
:1047AC006802030008B5024B1B68DB68019308BD67
:1047BC006802030008B5024B1B68DB69019308BD56
:1047CC003002030008B5024B1B681B6A019308BD3D
:1047DC003002030008B5024B1B689B68019308BDAF
:1047EC003C02030008B5024B1B68DB68019308BD53
:1047FC003C02030008B5024B1B681B69019308BD02
:10480C003C02030008B5024B1B685B69019308BDB1
:10481C003C02030008B5024B1B689B69019308BD61
:10482C003C02030008B5024B1B68DB69019308BD11
:10483C003C02030008B5024B1B681B6A019308BDC0
:10484C003C02030008B5024B1B689B6A019308BD30
:10485C003C02030008B5024B1B68DB6A019308BDE0
:10486C003C02030008B5024B1B681B6C019308BD8E
:10487C003C02030008B5024B1B681B68019308BD82
:10488C004C02030008B5024B1B685B68019308BD22
:10489C004C02030008B5024B1B689B68019308BDD2
:1048AC004C02030008B5024B1B681B69019308BD41
:1048BC004C02030008B5024B1B685B69019308BDF1
:1048CC004C02030008B5024B1B689B69019308BDA1
:1048DC004C02030008B5024B1B68DB69019308BD51
:1048EC004C02030008B5024B1B681B6A019308BD00
:1048FC004C02030008B5024B1B685B6B019308BDAF
:10490C006002030008B5024B1B681B6D019308BDC8
:10491C006002030008B5024B1B68DB6E019308BDF7
:10492C006002030008B5024B1B681B6F019308BDA6
:10493C006002030008B5024B1B685B68019308BD5D
:10494C002002030008B5024B1B685B69019308BD8C
:10495C002002030008B5024B1B68DB6A019308BDFB
:10496C002002030008B5034B1B68D3F88830019371
:10497C0008BD00002002030008B5034B1B68D3F8E8
:10498C009430019308BD00002002030008B5034BCE
:10499C001B68D3F8A830019308BD00002002030067
:1049AC0008B5024B1B68DB6B019308BD4402030086
:1049BC0008B5024B1B685B68019308BD40020300FD
:1049CC0008B5024B1B689B68019308BD40020300AD
:1049DC0008B5024B1B68DB68019308BD400203005D
:1049EC0008B5024B1B681B69019308BD400203000C
:1049FC0008B5024B1B685B69019308BD40020300BC
:104A0C0008B5024B1B689B69019308BD400203006B
:104A1C0008B5024B1B68DB69019308BD400203001B
:104A2C0008B5024B1B681B6A019308BD40020300CA
:104A3C0008B5024B1B681B6B019308BD40020300B9
:104A4C0008B5024B1B685B6B019308BD4002030069
:104A5C0008B5024B1B681B6C019308BD4002030098
:104A6C0008B5024B1B685B6C019308BD4002030048
:104A7C0008B5024B1B681B68019308BD1C020300A0
:104A8C0008B5024B1B685B68019308BD1C02030050
:104A9C0008B5024B1B689B68019308BD1C02030000
:104AAC0008B5024B1B685B6A019308BD1C0203002E
:104ABC0008B5024B1B68DB6B019308BD1C0203009D
:104ACC0008B5024B1B681B6C019308BD1C0203004C
:104ADC0008B5024B1B685B6C019308BD1C020300FC
:104AEC000021FFF72FBF10B54368013B044643601C
:104AFC0063B903689B689847A368013BA3602BB913
:104B0C0023682046DB68BDE81040184710BD70B51F
:104B1C00D0E90053044605EB0316AE4204D02846F8
:104B2C0001F0D8FB1035F8E72068FFF7A9FF204605
:104B3C0070BD10B50446006808B1FFF7D4FF2046DD
:104B4C0010BD0000024800230360FFF79BBD00BFAF
:104B5C0090E60320002240681146FFF761BF002257
:104B6C0040681146FFF76CBF40680022FFF760BF3A
:104B7C004068002281F00101FFF74ABF0023406822
:104B8C001A461946FFF73CBF002340681A461946DF
:104B9C00FFF72EBF002240681146FFF721BF00220D
:104BAC0040681146FFF70CBF406800220221FFF756
:104BBC000FBF002340681A46FFF7FABE024B0322D0
:104BCC005A60024A1A60704794E60320D86E0B00B4
:104BDC007047F8B5064615460C468F18BC4206D0F1
:104BEC00336814F8011B9B6830469847F6E7284653
:104BFC00F8BD007C0022FFF78DBD007C0021FFF783
:104C0C0091BD007C0021FFF795BD007C0021FFF7D2
:104C1C0099BD007C0021FFF79DBD10B51421044601
:104C2C00FFF747FA204610BD10B54FF47A730446CF
:104C3C0008460021C4E90113034B2360207411467C
:104C4C00FFF798FD204610BD146F0B00704710B590
:104C5C0018210446FFF72DFA204610BDF0B5037D50
:104C6C00062B8DB00E4600F104074FF0000412D055
:104C7C0000F1080515F8011D0A22304601F0CBFAA7
:104C8C00AF42044419D0002CF4D02E21304601F050
:104C9C00B3FA0444EEE72F236A4639460A208DF80E
:104CAC000040FFF76FFD6846FFF7BCF9336802461A
:104CBC00DB68694630469847044620460DB0F0BD87
:104CCC0010B5054B0446112240F8043B002101F0BD
:104CDC0017FF204610BD00BF3C6F0B000346074A70
:104CEC0010B543F8042B01F1100251F8044B43F8B2
:104CFC00044B9142F9D10A781A7010BD3C6F0B002D
:104D0C0010B59DF8084044EA032343EA024242EA04
:104D1C00016104234160037510BD000007B5064B0B
:104D2C000360CB7800938B784A780978FFF7E8FF1B
:104D3C0003B05DF804FB00BF3C6F0B0000F11003E7
:104D4C00012213F8101C0129184608D153F8041C31
:104D5C0002EB4102013A03F11003F2D17047022930
:104D6C0004BF53F8041C5218F4E70EB4F0B588B025
:104D7C0000AF07F13405102155F8042B7A60044676
:104D8C002B467818FD60FFF78BFE0F287A681AD92E
:104D9C0000F1080323F007036E46ADEB030D411C35
:104DAC002B466846FD60FFF77BFE021E04DD236880
:104DBC0069469B6820469847B5462037BD46BDE8F6
:104DCC00F04003B070470028F7D0236802469B6878
:104DDC0007F1100120469847EFE738B50B680360E0
:104DEC004D6843689D42044608D015B16B68013389
:104DFC006B60606808B1FFF776FE656038BD07B57B
:104E0C0003688DF807109B6801220DF10701984784
:104E1C0003B05DF804FB0B461146002210B5C0E947
:104E2C000022044683600BB9204610BDFFF7D5FF66
:104E3C00FAE78368EBB11A78032A1AD8DFE802F094
:104E4C000417021B0520704702685B685268D05C2F
:104E5C002D2812D0A0F13003092B0ED974280ED0B6
:104E6C0066280CD0A0F16E035842584170470620BA
:104E7C0070470020704704207047032070470220C1
:104E8C00704710B50446FFF7D4FF02280ED0C31E9E
:104E9C00DBB2012B14D82268A36850685B68BDE8AC
:104EAC0010400A220021184401F02ABF2268A3688E
:104EBC0052685B68D05CA0F174035842584110BD35
:104ECC000020FCE738B50023C0E9003304460E4847
:104EDC00C4E90203A9B10B78032B06D08BB9136874
:104EEC0058684B68C35C6E2B07D013684D685868C4
:104EFC008B6828445B1BA060E36011462046FFF7DB
:104F0C006CFF204638BD00BFAE6F0B0038B50025D6
:104F1C000B46C0E90055C0E90255C0E904550446EA
:104F2C0011464BB11A78012A06D103F11002DB6845
:104F3C0082604361FFF751FF204638BD10B54369CD
:104F4C00044663B18068E060013B1030A0602061D2
:104F5C00636113B1FFF7F2FEA060012000E0184678
:104F6C0010BD10B57D210446FFF749FF01232371C5
:104F7C00204610BD08B50379012B02D0022B04D0BA
:104F8C0008BD2C21FFF73BFFFAE73A21FAE710B5F1
:104F9C000446FFF7EFFF20467B21FFF730FF00238D
:104FAC002371204610BD000013B504460191FFF794
:104FBC00E1FF2368019ADB680349204698470123E7
:104FCC002046237102B010BD486F0B0013B5044688
:104FDC000191FFF7CFFF2368019ADB680349204654
:104FEC00984701232046237102B010BD4B6F0B0074
:104FFC002DE9F0470D46222190460446FFF7FFFEAF
:10500C00DFF8A490A8442F464745BA463DD017F880
:10501C00016B222E06D05C2E04D0304601F040FDF0
:10502C000028F1D12368AAEB05029B68294620468B
:10503C0098475C212046FFF7E2FE0D2E0AD8072E7A
:10504C001CD9A6F10803052B18D8DFE803F00D0FC7
:10505C0011171315222E01D05C2E0FD1314620468C
:10506C00FFF7CDFE3D46CFE76221F8E77421F6E766
:10507C006E21F4E76621F2E77221F0E723683246ED
:10508C00DB68494620469847ECE7BD4205D02368CB
:10509C007A1B9B6829462046984722212046FFF719
:1050AC00AEFEBDE8F08700BF4E6F0B0013B5044693
:1050BC00CDE90021FFF75EFF2046DDE90021FFF777
:1050CC0097FF02232046237102B010BD13B504468E
:1050DC00CDE90021FFF74EFF2046DDE90021FFF767
:1050EC0087FF01232046237102B010BD806803683E
:1050FC00DB6818477047084611B10B685B681847A6
:10510C007047704770477047704738B504460D4676
:10511C0000682E2101F037FD2368C31A2B6023B1E0
:10512C00037803B1013023682060184638BD10B5F0
:10513C000C210446FEF7BDFF204610BD10B504211E
:10514C000446FEF7B6FF204610BD10B504210446F8
:10515C00FEF7AFFF204610BDFFF7A4BA08B5FEF767
:10516C0057FFB0FA80F0400908BD704710B50C46E7
:10517C0001F0BAFA844210D001F064FC844205D1EB
:10518C0001F060FCBDE8104001F049BA2CB1236875
:10519C0020465B68BDE81040184710BD0B680360E3
:1051AC004B68436013B15A6801325A60704713B5AB
:1051BC00044608460191FEF735FF01990246204648
:1051CC0002B0BDE81040FFF781BF13B50446084696
:1051DC000191FEF727FF23680199DB680246204600
:1051EC0002B0BDE81040184707B503688DF80710EA
:1051FC00DB6801220DF10701984703B05DF804FB51
:10520C000A6802604A6842600022C0E9022210B5B6
:10521C0002618C688460CC68C4600C698A60CA6066
:10522C0004610A6110BD00002DE9F74FD0E900843C
:10523C004FF0140A00930AFB04F4184BA410174601
:10524C005C434546002C21DD66100AFB06F005EB9D
:10525C0000093A46B9F804B0285801915F4528BFB7
:10526C005A4601F0A2FC002801994FF001030BD122
:10527C005F4503D1009A13703446E3E7FCD9A61BB3
:10528C0009F11405013EF7E7F9DBF5E7A5EB080595
:10529C000248AD10684303B0BDE8F08FCDCCCCCC48
:1052AC007FB50369057E019103B3F9B1002600F1C6
:1052BC000C04039603A901A8FFF727FF0146A8B128
:1052CC000DF10B03039A8DF80B602046FFF7ACFF32
:1052DC009DF80B3053B12368142404FB00340834BC
:1052EC0034F9023C002BA8BFDDB2E3E7284604B03A
:1052FC0070BD0EB4F0B58CB000AF07F14405044698
:10530C0055F8042B7A602B46202107F11000FD6024
:10531C00FFF7C6FB1F287A681AD900F1080323F09F
:10532C0007036E46ADEB030D411C2B466846FD6032
:10533C00FFF7B6FB021E04DD23686946DB682046D6
:10534C009847B5463037BD46BDE8F04003B07047CE
:10535C000028F7D023680246DB6807F110012046CD
:10536C009847EFE710B5094C2378BFF35B8FDB0749
:10537C0009D42046FEF7ACFE28B12046FEF7ADFE60
:10538C00034801F087FB034810BD00BFA0E60320D3
:10539C000F510B00E4DB032010B5094C2378BFF34D
:1053AC005B8FDB0709D42046FEF792FE28B120461E
:1053BC00FEF793FE034801F06DFB034810BD00BFE0
:1053CC00A4E6032077510B00E8DB032038B5002559
:1053DC000446C0E90055C0E904558560856140F874
:1053EC00245FFFF74FF9FFF7BDFFE061FFF7D4FF34
:1053FC0025732062204638BD10B50A4C2378BFF3C4
:10540C005B8FDB070CD42046FEF762FE40B10648EA
:10541C00FFF7DCFF2046FEF760FE044801F03AFB84
:10542C00014810BD9CE60320ACE6032059590B0043
:10543C00024A034903480023FFF774BA3D570B0097
:10544C00C9560B0049560B0000231A46194618463C
:10545C00FFF768BA37B58D6804466846FFF79EFEBD
:10546C006A4629462046FFF751FD01A8FFF761FB6C
:10547C00204603B030BD37B5CD6804466846FFF70B
:10548C008DFE6A4629462046FFF71CFD01A8FFF752
:10549C0050FB204603B030BD37B50D690446684655
:1054AC00FFF77CFE6A4629462046FFF7B4FC01A8AC
:1054BC00FFF73FFB204603B030BD000070B58AB04B
:1054CC000D46014604A8FFF7C5FF144E04A8FFF7CC
:1054DC0035FDE8B104A96846FFF7CDFF02983146C7
:1054EC00FFF73CFE044610B12C1E18BF012401A886
:1054FC00FFF71FFB002CE9D004A96846FFF7CCFF8F
:10550C006846FFF7BEFC286001A8FFF712FBDDE739
:10551C0005A8FFF70EFB0AB070BD00BF546F0B005F
:10552C0037B50C46204613491546FEF771FD50B9A8
:10553C0001F0DAF84FF4165101F0C6F803B0BDE8EB
:10554C00304001F0D1B80C492046FEF761FD78B926
:10555C004FF4165301A928460193FFF7AFFF01F052
:10556C0071FA019901F058F801F06CFA03B030BDF2
:10557C000020FBE7596F0B00606F0B0070B5D0E992
:10558C0000531426044606FB0356AE4205D005F123
:10559C000800FFF7F3FF1435F7E72068FFF770FA00
:1055AC00204670BD10B504460C30FFF7E7FF2046CF
:1055BC00FFF7ADFA204610BD10B5044B044640F879
:1055CC00043BFFF7EFFF204610BD00BF9C6E0B00A5
:1055DC0010B50446FFF7F0FF20462421FEF769FDC5
:1055EC00204610BD10B5034B03600446FFF7E4FFE3
:1055FC00204610BD00700B0010B50446FFF7F2FFFB
:10560C0020462421FEF755FD204610BD0022C0E99E
:10561C00002210B582600C6804604C6844608C6891
:10562C000A604A6084608A6010BD10B50368044645
:10563C001868FFF73FF8204610BD00002DE9F04F29
:10564C0087B0804603931C4B5B68C3F30803894601
:10565C0016466BB9FFF7D0FE044600F12403406AEE
:10566C000593FFF779FD237B2BB105A8FFF7DDFF31
:10567C0007B0BDE8F08F01232373D4E900535FFA20
:10568C0089F905EB830AAA4512D055F8047B3146FB
:10569C00381DFFF705FE8145F5D33B68039A009250
:1056AC00D3F808B04A46334641463846D847EAE76D
:1056BC0000232373D9E700BF00ED00E02DE9F74F7D
:1056CC009B461A4B5B68C3F3080380468946164613
:1056DC006BB9FFF791FE044600F12403406A019375
:1056EC00FFF73AFD237B2BB101A8FFF79EFF03B018
:1056FC00BDE8F08F01232373D4E90053F6B205EB18
:10570C00830A55450ED055F8047B5946381DFFF7D2
:10571C00C7FD8642F5D33B684A46DB6841463846AE
:10572C009847EEE700232373DEE700BF00ED00E0AF
:10573C002DE9F341164B5B68C3F3080305460F468E
:10574C001BBBFFF759FE00F124030446406A01938A
:10575C00FFF702FDD4E90063462406EB8308B0454D
:10576C0009D101A8FFF761FFA542B4BF00200120B9
:10577C0002B0BDE8F08156F8040B39460430FFF74F
:10578C008FFD8442A8BF0446E9E70020F0E700BF84
:10579C0000ED00E0F8B5D0E901539D4204460E46F9
:1057AC000DDB6F1C002F006804DDB900FFF770F9EA
:1057BC0018B9F8BDFFF764F900202060A7602768CE
:1057CC00626807EB85019200A2EB8502081D01F0CF
:1057DC007DF947F825606368013363600120E8E7D1
:1057EC0037B500F124030446406A01930D46FFF7D8
:1057FC00B3FCD4E9003203EB8202934219460BD07E
:10580C000968A94203F10403F7D101A8FFF70DFFC2
:10581C000025284603B030BD29462046FFF7BAFFC5
:10582C0005460028F1D06368012B01D1FFF700FE7B
:10583C0001A8FFF7FAFEECE770B50446D0E90002C8
:10584C000B4600EB820282420FD001461D6851F8D4
:10585C00046BAE4207D1521A01F038F96368013B70
:10586C006360012070BD0846EDE70020FAE71FB524
:10587C0000F124030446406A01910393FFF76CFC8A
:10588C0001A92046FFF7D8FF18B163680BB9FFF7E1
:10589C00DBFD03A8FFF7C9FE04B010BD70B5D0E95D
:1058AC0004561823044603FB0656AE4215D005F1E8
:1058BC0010012046FFF7C0FF63680BB9FFF7C4FD6A
:1058CC00E06929690368DB689847696919B1206A3E
:1058DC000368DB6898471835E7E7D4E904531826C2
:1058EC0006FB0356AE4204D0284600F0F3FC1835F4
:1058FC00F8E70023636170BD73B50446FFF7A4FDA0
:10590C0004F12403606A0193FFF726FC2046FFF79D
:10591C00C5FF01A8FFF789FE606A08B1FEF7BAFE61
:10592C00D4E90453182606FB0356AE4204D028468D
:10593C0000F0D0FC1835F8E72069FFF7A1F82068D3
:10594C00FFF79EF8204602B070BD00000148FFF73B
:10595C00D3BF00BFACE603208842F8B504460D4621
:10596C00164615D9904214D2A2F11406751AA1F15B
:10597C0014072C44B7421AD01CB131462046FFF70D
:10598C003FFC06F10800FFF7F9FD143E143CF1E76B
:10599C000DD0B5420BD01CB129462046FFF730FC88
:1059AC0005F10800FFF7EAFD14351434F1E7F8BDF2
:1059BC008842F8B504460D46164614D9904213D2C7
:1059CC00A2F11006751AA1F110072C44B74218D099
:1059DC001CB13146204600F0F9FC304600F07AFC50
:1059EC00103E103CF2E70CD0B5420AD01CB129464F
:1059FC00204600F0EBFC284600F06CFC103510340F
:105A0C00F2E7F8BD70B50E1E054611DD3001FFF74B
:105A1C002FF8044658B1D5E9001201EB0212FFF73A
:105A2C00C7FF2868FFF72CF82C60AE60012070BD12
:105A3C000024F6E72DE9F04F904695B00023039132
:105A4C00D8F804100A9346229942C0E90033C0E901
:105A5C000233C0E90433CDE908330446027623DC73
:105A6C00D8E90057142303FB0757AF423BD0294614
:105A7C000BA800F0ABFC0BA90FA8099E00F0A6FC2C
:105A8C00DDE9091399421BDA089B099A03EB061608
:105A9C0003EB0212314606F11000FFF789FFEEB955
:105AAC00099B0133099311E008A8FFF7ABFF00280D
:105ABC00D6D108A8FFF72BF8204615B0BDE8F08F1B
:105ACC00013108A8FFF79EFF0028DDD10FA800F0D8
:105ADC0001FC0BA800F0FEFB1435C6E70FA93046FD
:105AEC0000F074FCDCE70026CDE90B660D964FF058
:105AFC001409DDE908239E427CDA3301D35806935E
:105B0C000BB90136F5E70023079309FB06F3029363
:105B1C000BAD07A906A8FFF7F8FA82460028F0D0CB
:105B2C004FF000038DF817300146079A0DF117035B
:105B3C002846FFF779FB9DF817700190002F4AD18A
:105B4C00BDF81C30ADF84030CDE911774FF6FF733E
:105B5C00CDF83CA0ADF842301397D5E90132934211
:105B6C0017DB03F1010ABAF1000F30DD09FB0AF073
:105B7C00FEF77EFF834660B3D5E9001209FB0212E3
:105B8C00FFF7EAFE2868FEF77BFFC5F800B0C5F802
:105B9C0008A02B68019A09FB023A6A68514609FB76
:105BAC0002320AF11400FFF7D7FEBAF1000F03D04E
:105BBC000FA95046FFF724FB6B6801336B6011A8EB
:105BCC00FFF7DCFC3FB10BA8FFF7D8FC71E7BB4635
:105BDC00D8E70127F3E7019B2D6809FB0355069BCA
:105BEC001B782BB9D8F80030029A13441B7CEB803D
:105BFC0008358EE72168226062686360A3680992A9
:105C0C000A9A0A93E368A2600B9A0B932369E260E9
:105C1C000C9A0C93636922610D9A0D93039B089166
:105C2C0062612376CFE70000F0B5044687B00D46DD
:105C3C002646194668461746FEF7EDFB0B4B46F811
:105C4C00043B694603A8FEF7E6FB03AA3946304637
:105C5C00FFF7F0FE03A8FEF79DFB6846FEF79AFBE4
:105C6C00034B23602046256207B0F0BD9C6E0B00F1
:105C7C00E86F0B00F0B50F4685B01D490A9C3846FD
:105C8C0016461D46FEF7C4F9C0B9A4B1294601A8B1
:105C9C00FFF7BCFC1749242000F0F8FE054630B194
:105CAC0001AB32462146FFF7BFFF134B2B6001A817
:105CBC00FEF770FB2C46204605B0F0BD0F49384668
:105CCC00FEF7A6F990B9002CF5D0294601A8FFF7EC
:105CDC009DFC0849242000F0D9FE05460028E6D09A
:105CEC0001AB32462146FFF79FFFE0E70024E2E7D5
:105CFC00686F0B0064710B0000700B006C6F0B0075
:105D0C00014B024A1A607047A8E603207D6F0B0016
:105D1C002DE9F047089DD0F8209004460E46174612
:105D2C00984600F0E1FC81454CD02B79190704D53D
:105D3C006A6954492046FFF7DCFAB8F1000F0DD020
:105D4C005B212046FFF750FA41462046FFF73DFA0B
:105D5C0023684D49DB680222204698472B79DA07E5
:105D6C0023D5D5F808802F21404600F032FF08B12A
:105D7C0000F1010841462046FFF727FA2B799B07D3
:105D8C0008D53A212046FFF72FFAEA683F4920460A
:105D9C00FFF7AFFA2A79236812F0040FDB6814BFFF
:105DAC003B493C490222204698472B7958071DD580
:105DBC0029690B461A4613F8010B60B1202808D14B
:105DCC001946F7E7344800F082F90028ADD0BDE859
:105DDC00F0872828EED12368521ADB6820469847B2
:105DEC0023682E49DB680422204698470021384658
:105DFC00FEF790FD01462046FFF7E7F92368254999
:105E0C00DB680222204698471EB131462046FFF738
:105E1C00DCF92B7913F0300F2CD023682049DB6888
:105E2C000222204698472B79D9060AD523681D49AA
:105E3C00DB68072220469847AA691B492046FFF7D2
:105E4C0058FA2B799A0611D5DB0605D5236810492B
:105E5C00DB6802222046984723681449DB682046F9
:105E6C000A229847E9692046FFF7AFF95D212046E1
:105E7C00FFF7BAF923680E49DB6820460222BDE819
:105E8C00F0471847816F0B00886F0B00486F0B00B1
:105E9C008B6F0B00906F0B00D4E603208E6F0B0002
:105EAC00936F0B00966F0B009E6F0B00A16F0B0096
:105EBC00AC6F0B002DE9F0410446076A0D461646FF
:105ECC0000F012FC874207D0206A0368324629464C
:105EDC00DB68BDE8F0411847034800F0F8F80028EB
:105EEC00F2D0BDE8F08100BFD4E603202DE9F043E9
:105EFC0085B0D0F820900C9C05460F4690461E4667
:105F0C0000F0F2FB814505D1494800F0E0F800288B
:105F1C0040F08A802B6A474A01924FF0000901A891
:105F2C0003938DF80890FFF732F849464046FEF788
:105F3C00F1FC41498046012201A8FFF7B7F8414620
:105F4C00FFF735F93FB13D49012201A8FFF7AEF843
:105F5C003946FFF72CF93EB13949012201A8FFF768
:105F6C00A5F83146FFF723F92379DF070ED5A6688C
:105F7C002F21304600F02DFE00B1461C3149012284
:105F8C0001A8FFF793F83146FFF711F923799E0723
:105F9C0007D52D49022201A8FFF788F8E168FFF721
:105FAC0003F82379580714D5266933461F4613F88E
:105FBC00012B2AB1202A01D11E46F7E7282AF5D158
:105FCC002249022201A8FFF771F8BA1B3146FFF7EC
:105FDC007DF82379190707D51D49012201A8FFF780
:105FEC0065F86169FEF7F2FF2379DA0608D5042219
:105FFC0018490DEB0200FFF759F8A169FEF7D4FF21
:10600C0023799B0607D51449062201A8FFF74EF801
:10601C00E169FFF7CCF801A8FEF7A3FF286A0F4946
:10602C0003680222DB68984705B0BDE8F08300BF27
:10603C00D4E60320D06F0B005E6F0B00AF6F0B002C
:10604C00D3710B00B16F0B00B36F0B00B66F0B006D
:10605C00B96F0B00BB6F0B00C06F0B00AC6F0B006C
:10606C00002340681A46FEF7A3BC406800220221B8
:10607C00FEF7AEBC002240681146FEF7A1BC002220
:10608C0040681146FEF7ACBC002340681A4619461E
:10609C00FEF7AEBC002340681A461946FEF7B0BCAA
:1060AC0040680021FEF7D4BC40680021FEF7D8BC44
:1060BC004068002281F00101FEF7AABC4068002272
:1060CC00FEF7B6BC002240681146FEF7B9BC0022B0
:1060DC0040681146FEF7A4BC2DE9F04395B0144678
:1060EC000D460746FEF7ECFD00211C220DA8009181
:1060FC0000F006FD40230C9320466B460CAA0021B1
:10610C00FEF750FB044600284BD10246012168687B
:10611C00FEF766FC0221804622466868FEF760FCAA
:10612C00009E81462146002E3BD0002939D1736850
:10613C00022B03D00A2B11D0F669F4E7B8F1000F4B
:10614C00FAD0716906A8043107ADFEF7E7FD0FCD53
:10615C003C1D0FC42B6823704146EDE7B9F1000FCD
:10616C00EAD07469102201A800F0CAFC06238DF84D
:10617C00143001AD04F108031834186859682A4624
:10618C0003C20833A3421546F7D101A906A807ADEF
:10619C00FEF7A4FD0FCD3C1D0FC42B6823704946A0
:1061AC00CAE70098FEF7F6FA384615B0BDE8F0835A
:1061BC00024B034A1A6000225A607047D4E603204F
:1061CC0048700B00F8B506460D468F180024BD42EA
:1061DC000CD0336815F8011B9B6830469847031E9A
:1061EC0001DB1C44F3E7002C08BF1C462046F8BD1D
:1061FC0008B5FEF735FA08BD03689B68184738B533
:10620C000D210546FFF7F8FF0A2104462846FFF743
:10621C00F3FF204438BD30B58BB00023012A8DF834
:10622C00243098BF0A2209AC0D46B1FBF2F101FBF8
:10623C00125303F0FF03092B94BF30333733DBB217
:10624C00AA4204F8013DEFD92146FEF709FA0BB03A
:10625C0030BD2DE9F04186B000AF05460E46381D25
:10626C00142114463B60FEF71BFC13280ED8391D75
:10627C002846FEF7F5F904461EB12846FFF7BFFF86
:10628C00044420461837BD46BDE8F08100F10803F0
:10629C0023F00703E846ADEB030D2246411C3B6897
:1062AC006846FEF7FDFB69462846FEF7D9F9044619
:1062BC00C546E1E7014B00229A607047DCE60320FB
:1062CC0010B5044608462170FEF774FA002363608B
:1062DC00204610BD10B504460068FEF7D1FB2046E1
:1062EC0010BD10B50446006808B1FEF7C9FB0023C9
:1062FC00C4E90133236010BD38B504460D4600686F
:10630C000131FEF7C5FB10B1C4E90005012038BD11
:10631C0010B50368044623B143688B4201D30120B6
:10632C0010BD2046FFF7E8FF0028F9D0A368002B2A
:10633C00F5D122681370F2E737B50D46114601927C
:10634C000446FFF7E5FF019A28B92046FFF7C9FF7D
:10635C00204603B030BDA2602946206800F0A8FB9F
:10636C002268A3680021D154F2E7002313B5C0E9D9
:10637C00003304468360037341B108460191FDF775
:10638C0051FE019902462046FFF7D6FF204602B087
:10639C0010BD38B5054600680C4668B16A688B6854
:1063AC009A4207D3096800F0F8FBA368AB6000239E
:1063BC00A36038BDFEF764FB23682B6063686B60D9
:1063CC00A368AB600023C4E90033F1E710B50023E8
:1063DC00C0E90033044683600373FFF7DAFF2046FD
:1063EC0010BD884210B5044605D00B682BB18A68E5
:1063FC001946FFF7A1FF204610BDFFF772FFFAE721
:10640C0010B500230446C0E9003383600373FFF723
:10641C00E8FF204610BD10B50446006818B1FEF721
:10642C002FFB0023236010BD38B50C460546FFF743
:10643C00F2FF54B12088FEF71BFB286028B122889C
:10644C002146BDE8384000F033BB38BD38B5B1F952
:10645C0004308380D1F80630C0F806304B89438174
:10646C000C460546FFF7D7FF236813B12B600023BA
:10647C00236038BDF0B52B4D0B7D04468BB0084620
:10648C00AF1D002B36D00B681B79002B32D0264B5E
:10649C000493002202A90430CDE90222FEF776FA19
:1064AC00DDF80E30C5F8063000B2BDF81230ADF88C
:1064BC000C00A8800299BB802846FFF7B5FF02A804
:1064CC00FFF7A9FF00232360A380A37123814FF65C
:1064DC00FF736381B5F90430A380D5F80630C4F896
:1064EC000630BB88296863812046FFF79DFF204654
:1064FC000BB0F0BD00262023CDE902360B4B0093E8
:10650C0002AA33460A493220FEF7FCF9064B05482D
:10651C0002964FF6F26202A9CDE90323FFF796FF2C
:10652C00CDE700BFECE603200000FFFF83700B00FB
:10653C007C700B00054B02221A60054B054A9A60D1
:10654C000020C3E90000FEF7F5B900BFF8E6032010
:10655C00ECE603200000FFFF024B1A68024B1A60A6
:10656C00704700BFECDB0320FCE60320704741744E
:10657C00704708B5007CFEF765F920EAE07008BDAD
:10658C0008B5007CFEF736F920EAE07008BD08B5C6
:10659C00007CFEF73FF940EAE07008BD08B5007CCE
:1065AC00FEF730F940EAE07008BD007CFEF73AB91E
:1065BC0037B5457C04462DB1207C03B0BDE8304096
:1065CC00FEF710B9007C0191FEF73CF90028019907
:1065DC00F2DC284603B030BD10B514210446FDF79B
:1065EC0068FD204610BD000010B54FF47A730446C8
:1065FC00084611460022C4E90123044B2360012301
:10660C0020746374FEF72EF9204610BDD0700B0079
:10661C00007C0023FEF71EB90022FFF7F9BF007CB7
:10662C00FEF7D8B8417470477047704708B5002121
:10663C00007CFEF747F940EAE07008BD08B501217F
:10664C00007CFEF73FF940EAE07008BD08B5007C1D
:10665C00FEF730F920EAE07008BD08B5007CFEF7C3
:10666C0021F920EAE07008BD13B50446007C0191C5
:10667C00FEF720F90028019901DC607C20B1207C18
:10668C00FEF728F920EAE07002B010BD007CFEF79E
:10669C0029B910B514210446FDF70BFD204610BD99
:1066AC0010B54FF47A73044608460021C4E901136F
:1066BC00044B23600123207463741146FEF7DAF84F
:1066CC00204610BD00710B00007C0022FEF7DAB8EA
:1066DC00007CFEF7DFB810B514220446002100F050
:1066EC000FFA204610BD000010B50F4C88B003A85F
:1066FC00FFF7F1FF2178BFF35B8F11F001010FD190
:10670C0020460191FDF7E4FC019948B103AA074822
:10671C00FFF7C6FF2046FDF7E0FC054800F0BAF98C
:10672C00024808B010BD00BF00E7032004E70320B7
:10673C0035660B00002240681146FEF751B9002265
:10674C0040681146FEF76CB9002240681146FEF70E
:10675C0077B940680022FEF76BB94068002281F0DF
:10676C000101FEF755B9002340681A461946FEF799
:10677C0047B9002340681A461946FEF739B900227A
:10678C0040681146FEF71CB9406800220221FEF752
:10679C001FB9002340681A46FEF70AB9024B0422BF
:1067AC005A60024A1A60704718E7032030710B00D8
:1067BC00014B1860704700BFF0DB032008B50B4B92
:1067CC0043B1FFF791FF03681B699847002801DD6F
:1067DC00AFF30080064B43B100F034F903681B693A
:1067EC009847002801DDAFF3008008BD00000000D1
:1067FC000000000008B5FFF7E1FFFDF773FF014B48
:10680C00186008BD28E703200548064A064908B564
:10681C00121A00F04DF9054B054A1A6008BD00BF6D
:10682C0000F4032004F4032094730B0000F4032001
:10683C001E1C279A07B5002300931A466FF07701A8
:10684C00FEF79AF803B05DF804FB000007B5438827
:10685C000A2B08D0502B0BD1094B1B684BB103B042
:10686C005DF804EB1847FFF7E5FF03B05DF804FB98
:10687C00002300931A466FF07701FEF77DF8F4E7DA
:10688C0024E7032010B512480021FEF721F9114B23
:10689C001A68114B9A42114B0CBF012200221A703C
:1068AC0001D0FFF7B1FFFDF70DFF044600F030F902
:1068BC000B4B13B12046AFF3008000210848FEF7C4
:1068CC006FF8BDE8104007480021FEF74BB800BF39
:1068DC00BD670B0000F403201E1C279A20E7032041
:1068EC000000000059680B00232813B502D90020C2
:1068FC0002B010BDA0F10B03022B1AD8174C217853
:10690C00BFF35B8F11F001010BD120460191FDF714
:10691C00DFFB019928B11248FFF7D2FC2046FDF7A6
:10692C00DCFB0F4B1878FDF74DFF0028DFD1012061
:10693C00DEE7012809D800F045F80021007CFDF7BE
:10694C0011FF80F00100C0B2D2E709380128EED85F
:10695C0000F078F8007CFDF76DFFF2E758DC0320BF
:10696C005CDC032038B504460D46FDF7C3FEFF285A
:10697C0010D0062804D84D2323FA00F0C30709D4FD
:10698C002046FFF7B1FF28B129462046BDE8384024
:10699C00FDF7B8BE38BD704738B520251423044622
:1069AC000360856005610649284600F071F80449CA
:1069BC006060284600F06CF8E060204638BD00BFEF
:1069CC0064710B0030B50E4D2978BFF35B8F11F05D
:1069DC00010487B011D12846FDF77AFB68B101A8F4
:1069EC00FFF7DAFF01AA21460648FEF71DF92846F3
:1069FC00FDF773FB044800F04DF8024807B030BDBA
:106A0C002CE7032030E70320A3690B00704700003C
:106A1C0038B5044614252A46002100F071F825806B
:106A2C004025074925812846258200F031F8044984
:106A3C006060284600F02CF8E060204638BD00BFAE
:106A4C0064710B0030B50E4D2978BFF35B8F11F0DC
:106A5C00010487B011D12846FDF73AFB68B101A8B3
:106A6C00FFF7D6FF01AA21460648FFF7BDFD2846D1
:106A7C00FDF733FB044800F00DF8024807B030BDB9
:106A8C0044E7032048E70320196A0B00FDF70DBB10
:106A9C00FDF70DBB002301461A46184600F03AB923
:106AAC00024B1844407800F097007047D5710B00EA
:106ABC000A44914200F1FF3300D1704710B511F830
:106ACC00014B03F8014F9142F9D110BD884210B52A
:106ADC0001EB020402D98442234607D8431EA1428B
:106AEC0008D011F8012B03F8012FF8E702440146F6
:106AFC008A4200D110BD13F8014D02F8014DF7E7A1
:106B0C0002440346934200D1704703F8011BF9E796
:106B1C0038B5104B1D68AB6B0446B3B91820FDF7A4
:106B2C00A7FF0246A86320B90B4B0C484221FDF786
:106B3C00C7FF0B490B4BC0E900130B4B83600B23B6
:106B4C00838100210120C2E90401AB6B00221C618E
:106B5C005A6138BDF0DB032065710B007C710B00B2
:106B6C000E33CDAB34126DE6ECDE0500C9B2034634
:106B7C0010F8012B1AB18A42F9D118467047002936
:106B8C0018BF0023F9E710B50446FFF7EFFF18B95B
:106B9C002046FDF747FA204410BD034611F8012B9F
:106BAC0003F8012B002AF9D1704710B57AB10346CE
:106BBC000139841813F8010B11F8012F904201D1FF
:106BCC00A34201D1801A10BD0028F3D1FAE7104678
:106BDC00F9E738B503460C4669B9BDE83840FFF70C
:106BEC00C5BF431C054621461846FFF7BFFF0028CA
:106BFC00F7D1284638BD0025F5E70000012B2DE91B
:106C0C00F04701D0242B06D9FDF752FF1623036061
:106C1C000020BDE8F087DFF8E4C00D462E4615F8DD
:106C2C00014B14F80C7017F00807F7D12D2C32D14A
:106C3C002C780127B51C002B5BD0102B09D1302CE4
:106C4C0007D12C7804F0DF04582C4DD16C7810232C
:106C5C00023507F1004808F1FF384FF0000CB8FB83
:106C6C00F3F9664603FB198AA4F1300EBEF1090F45
:106C7C0016D87446A34224DDBCF1000F1EDBB145CF
:106C8C001CD301D1A24519DB06FB03464FF0010CC6
:106C9C0015F8014BE8E72B2C04BF2C78B51CCAE780
:106CAC00A4F1410EBEF1190F01D8373CE2E7A4F173
:106CBC00610EBEF1190F04D8573CDBE74FF0FF3CD7
:106CCC00E6E7BCF1000F05DA22230360464642B921
:106CDC0030469EE707B17642002AF9D0BCF1000F8E
:106CEC0000D0691E1160F3E73024002BB1D10823CA
:106CFC00AFE7302CA5D00A23ABE700BFD6710B0051
:106D0C0013460A46014602480068FFF777BF00BFEA
:106D1C00F0DB03202DE9F843DFF8B8800646D8F8FD
:106D2C0000001F460D46914600F056F8254B1C6896
:106D3C0034B9254C1C60254B13B11B68C4F8883042
:106D4C0063681F2B07DDD8F8000000F047F84FF000
:106D5C00FF30BDE8F8834EB3D4F8880088B91C4BDB
:106D6C0023B9D8F8000000F038F8F0E74FF484703D
:106D7C00FDF77EFE0028F4D00023C0E94033C4F8B0
:106D8C008800636840F8239001229A4000EB83014D
:106D9C00D0F800311343C0F80031022EC1F88070D6
:106DAC0002BFD0F804311343C0F804316368D8F83B
:106DBC0000005A1C0233626044F8235000F00EF8B5
:106DCC000020C6E7E8E703205CE703200000000092
:106DDC007D4A0B0054DC032070477047704700005D
:106DEC0030313233343536373839414243444546F5
:106DFC0041400B007D400B00A5400B00A9400B004F
:106E0C000000000043616C6C206F6E207075726521
:106E1C00207669727475616C0064656661756C745A
:106E2C0020004D5342004C5342003C535049536593
:106E3C007474696E67732064656661756C743E006A
:106E4C003C53504953657474696E677320257325E0
:106E5C0075202573204D4F444525753E0032303644
:106E6C00332F30342F30352032303A30303A303006
:106E7C0000000000000000000000000019410B00A1
:106E8C00ED400B00EF400B00000000000000000084
:106E9C000000000000000000C5400B00A9420B00E0
:106EAC000000000000000000AD420B00E1420B00AE
:106EBC001D5D0B00C15E0B001F1C1F1E1F1E1F1F24
:106ECC001E1F1E1F0000000000000000BF4B0B0027
:106EDC00B54B0B00AB4B0B00A14B0B00954B0B00B8
:106EEC00894B0B00AD600B00B5600B007D4B0B00AC
:106EFC00754B0B006B4B0B00614B0B00E5600B00F3
:106F0C000000000000000000DD4B0B00274C0B00C4
:106F1C00FF4B0B00DF4B0B00074C0B000F4C0B0017
:106F2C00174C0B001F4C0B00000000000000000071
:106F3C00694C0B00594C0B005B4C0B002564002575
:106F4C007500752530347800626175640053657284
:106F5C0069616C0053657269616C31004A534F4E24
:106F6C0053747265616D4C6F6748616E646C6572C9
:106F7C000061707000253031307520005D20002CD0
:106F8C00200028293A2000205B00636F6465203DB7
:106F9C00200025690064657461696C73203D2000D4
:106FAC000D0A006D0066006C6E00666E0074006366
:106FBC006F64650064657461696C0000000000001A
:106FCC000000000015510B003B510B00F9500B0059
:106FDC00774D0B000000000000000000C5550B00B1
:106FEC00DD550B001D5D0B00C15E0B0000000000A9
:106FFC0000000000F1550B0005560B00F95E0B006C
:10700C0001510B00000000000000000013510B00A8
:10701C0049510B00815C0B0003510B000000000078
:10702C000000000011510B0057510B002D550B00A7
:10703C0079510B0000000000000000006D600B0097
:10704C0077600B0081600B008B600B0095600B0070
:10705C00A1600B00AD600B00B5600B00BD600B00B8
:10706C00C9600B00D1600B00DB600B00E5600B000E
:10707C00776972696E670053797374656D20736CF0
:10708C0065657020636F6E66696775726174696F90
:10709C006E20697320696E76616C69642E002559C7
:1070AC002D256D2D25645425483A254D3A2553251B
:1070BC007A0061736374696D650000000000000064
:1070CC000000000079650B00E5650B00BD650B0049
:1070DC00D1610B008D650B00A9650B009B650B0046
:1070EC00B7650B007B650B007F650B000000000093
:1070FC000000000037660B009F660B0075660B00E6
:10710C00D1610B0067660B0039660B0049660B00FA
:10711C0099660B0059660B0031660B0000000000ED
:10712C00000000009F670B0095670B008B670B003E
:10713C0041670B007F670B0073670B00AD600B00A2
:10714C00B5600B0067670B005F670B0055670B00A2
:10715C004B670B00E5600B00005245454E54206D0B
:10716C00616C6C6F63207375636365656465640043
:10717C002F746D702F6A656E6B696E732D47434368
:10718C002D31302D706970656C696E652D34385FEA
:10719C0032303230313132345F3136303631383092
:1071AC003633392F7372632F6E65776C69622F6E6D
:1071BC0065776C69622F6C6962632F7374646C6998
:1071CC00622F72616E642E6300002020202020202C
:1071DC00202020282828282820202020202020207B
:1071EC00202020202020202020208810101010107B
:1071FC0010101010101010101010040404040404CB
:10720C0004040404101010101010104141414141AD
:10721C004101010101010101010101010101010112
:10722C0001010101011010101010104242424242A3
:10723C0042020202020202020202020202020202E2
:10724C0002020202021010101020000000000000C8
:10725C000000000000000000000000000000000022
:10726C000000000000000000000000000000000012
:10727C000000000000000000000000000000000002
:10728C0000000000000000000000000000000000F2
:10729C0000000000000000000000000000000000E2
:1072AC0000000000000000000000000000000000D2
:1072BC0000000000000000000000000000000000C2
:1072CC0000000000000000000000000089440B00DA
:1072DC00514B0B00C94B0B000D5D0B00BD610B003E
:1072EC00C1620B0041650B0065650B00A9670B00C3
:1072FC00040000001400000003000000474E55007D
:10730C00F573B1FBE4DC12DB30A0FBB23904BD82B7
:04731C00ECB54BD6AB
:1073200018700B0030700B00BE700B00F4DB0320F4
:10733000000000000000000000000000000000004D
:10734000000000000000000000000000000000003D
:10735000000000000000000000000000000000002D
:10736000000000000000000000000000000000001D
:10737000000000000000000000000000000000000D
:1073800000000000000000000000000000000000FD
:04739000ECE7032003
:0473940000000000F5
:10739E0000000102030405060708090A0B0C0D0E76
:1073AE000F101112131415161718191A1B1C1D1E67
:0473BE001F20280064
:0473C20078563412B3
:04000003B000401CED
:00000001FF
