:02000002B0004C
:1040000000400B00F4D20B00000006000C0005027B
:084010000401A30F00000000F1
:04401800E0C70B00F2
:1040200009480A49884208B505D0094A824202D0A7
:10403000121A08F0DBF90748074A0021121A08F0A3
:10404000FDF9014808BD00BFC0DB032050D20B00C2
:104050003CDC032040DC0320F1E7032070B5074E71
:10406000074C06F035FDA41BA4080025AC4200D186
:1040700070BD56F8043B98470135F7E7F8D10B00BF
:104080001CD20B0001F016B908B501F05DF8BDE8CF
:10409000084006F0D5BC03F049BF03F047BF03F06A
:1040A0004DBF000008B5034A03490C2003F04CFE45
:1040B000FEE700BF097A0B00F4C70B000078B0FAE6
:1040C00080F0400970470123037070477047037CFC
:1040D00013F008031EBFC36A406A1B1A002BACBF53
:1040E00018466FF00040704730B5114D2C68D4F879
:1040F0001C355B0103F4FF5294F820351343B4F8E8
:104100001825A2F2BC7243EA422303802868D0F843
:104110002435D0F82825DB02520102F4FF5203F4C3
:10412000FF23134390F82C2543EA52030B8030BD44
:104130004CDC0320704710B510210446FFF7AFFF99
:10414000204610BD10B534210446FFF7A8FF2046D5
:1041500010BD103002F036BB07B501220DF107018A
:10416000103002F03CF801280CBF9DF807004FF01A
:10417000FF3003B05DF804FB103002F0BDB9103021
:1041800002F0DBB870B50C1E064615460BDA0A2A9B
:1041900009D12D2105F02CFE6142EAB23046BDE87E
:1041A000704005F040BE2146F7E700B58BB01346DE
:1041B000002201920A4600F23C4101A802F0B0FA46
:1041C0000BB05DF804FB07B501228DF80710103025
:1041D0000DF1070102F0F6FA03B05DF804FB0EB42E
:1041E00003B503AB002153F8042B019305F02BFF1B
:1041F00002B05DF804EB03B07047000073B50446ED
:1042000008462279A36832B1A3B90B4902B0BDE8D0
:10421000704005F0E9BD094A267B094D0949647BD8
:10422000012E18BF2946CDE900140749FFF7D7FF33
:1042300002B070BD054AEFE71AC80B002ACA0B008E
:1042400016C80B0012C80B0030C80B0009C80B00C1
:104250000EB400B58CB00DAA4FF0200C52F8041B20
:104260000392CDE900120023016804AA1E20CDE9C3
:1042700004C303F079FD0CB05DF804EB03B07047A4
:104280000EB400B58CB00DAA4FF0200C52F8041BF0
:104290000392CDE900120023016804AA2820CDE989
:1042A00004C303F061FD0CB05DF804EB03B070478C
:1042B00000B58BB00A460023014601A8019302F025
:1042C00058F90BB05DF804FB40B1037813F07003AC
:1042D00003D0034B1860012070471846704700BF99
:1042E00080E60320F0B58BB0002301930B782F2BD1
:1042F0000446174600F23C460FD14B786BB9304666
:1043000002F030F92146304601F063FF18B117B1D1
:104310003046FFF7D9FF0BB0F0BD0A460023314607
:1043200001A802F026F90028F5D09DF8043013F01A
:10433000700FF0D001AC0FCC35460FC50FCC0FC5B8
:1043400023682B60E3E7000037B540F20573038074
:1043500064220223837080F868240823404A838003
:10436000C0F87824002301223E4DC373A0F84434E2
:1043700080F8723480F87C24C0F88034A0F884344B
:104380002978BFF35B8F114004460BD12846019179
:10439000FFF794FE019928B1334805F09FFE2846A7
:1043A000FFF791FE304BC4F8743404F28C4001F0F6
:1043B0004AFC102504F29C402A460021C4F89804C7
:1043C00008F03CF8012384F8AC340323A4F89E34AD
:1043D00041F21323A4F8B034112384F8B2342349F2
:1043E000A4F89C5404F5976005F0E3FF204904F518
:1043F000996005F0DEFF002104F59B6001F0A8FD47
:104400001C4B04F2DE42591953F8040B42F8040B1A
:104410008B42F9D11922C4F8F42404F5A0620023D8
:104420001549C4F8F034C4F8F834A4F8FC34116029
:1044300004F2045211491160114904F5A2620020EE
:1044400042E9020100200021C2E90001204684F86F
:10445000303584F83135C4F8343503B030BD00BF91
:104460000CCB0B0040DC032044DC03202ACA0B00E9
:104470004DC80B0040CB0B00333353400000484283
:104480000000F87F30B585B0044606F01DFA5E499D
:1044900005F0BDFC06F0E4FB04F28C440246672103
:1044A000204601F0E4FB20B906F00EFA574905F06A
:1044B000AEFC06F009FA564905F0A9FC0021204699
:1044C00001F044FC06F000FA524905F08DFC20464C
:1044D00001F04AFC032808D8DFE800F00220242875
:1044E00006F0F2F94C4905F07FFC06F0EDF94B4976
:1044F00005F08DFC0221204601F070FC06F0E4F985
:10450000474905F071FC204601F051FC072816D8F8
:10451000DFE800F0105D6165696D717506F0D4F932
:104520004049E0E706F0D0F93F49DCE706F0CCF976
:104530003E49D8E706F0C8F93D4905F055FC06F0BC
:10454000C3F93C4905F063FC0321204601F074FCEB
:1045500006F0BAF9384905F047FC06F0B5F905460A
:10456000204601F052FC0A220146284605F05BFC79
:10457000284605F040FCB3EE0E0A0121204601F06A
:1045800093FC06F0A1F92D4905F02EFC06F09CF9EC
:1045900001210546204601F067FC0221284605F06E
:1045A00043FD0023CDE901330093012319461A4648
:1045B000204601F09DFC0121204601F047FB06F05A
:1045C00083F91F4905B0BDE8304005F02ABC06F06C
:1045D0007BF91C49B1E706F077F91B49ADE706F016
:1045E00073F91A49A9E706F06FF91949A5E706F02A
:1045F0006BF91849A1E706F067F917499DE706F03E
:1046000063F9164999E700BF61C80B006DC80B003C
:104610009DC80B00ACC80B00C3C80B00CFC80B0073
:10462000D5C80B00C6C80B00C9C80B00CCC80B000E
:10463000EFC80B00F9C80B00FFC80B0021C90B0025
:104640003EC90B00F1C80B00F3C80B00F5C80B0006
:104650009DC90B0091C90B0018C80B00F7C80B00CF
:10466000808806F0B6BA10B504464FF4FA6003F03D
:10467000A5FC6078012106F0ACFA41F2883003F025
:104680009DFC60780021BDE8104006F0A2BA000051
:1046900070B596B009AD064628460C4601F0A9FC57
:1046A00095E803000346C4F8D804A4F8DC14C2B2A9
:1046B000C1F30720C9B20291190E0191C3F307415A
:1046C00002F5FA62C3F307230390009128461849C4
:1046D00003F044FC294605A804F5996505F069FE38
:1046E00005A9284605F0BBFE05A805F017FE94F8BD
:1046F000D83403F5FA63C4F8183594F8D934C4F8FB
:104700001C3594F8DA34C4F8203594F8DB34C4F856
:10471000243594F8DC34C4F8283594F8DD34C4F832
:104720002C352946304605F08FFE304616B070BD58
:104730005DC90B007FB5044606F0C6F8294905F0AF
:1047400053FB06F08DFA682104F08CF806F088FA25
:104750000368FF219B68984706F082FA03680F21DF
:104760009B68984706F07CFA04F083F80546B0B9D8
:1047700021466846FFF78CFF684605F0CFFD40F202
:104780004C4094F8DD6403F019FC684601F031FCFC
:104790009DF80530B34204BF012384F8F83494F83F
:1047A000D8343BB9012384F8FA3406F08DF80E4969
:1047B00005F02DFB4DB106F087F80C4905F027FBFD
:1047C000012384F8F83404B070BD94F8FA34002B57
:1047D000F9D106F079F8064904B0BDE8704005F05B
:1047E00016BB00BF7BC90B0083C90B0093C90B002C
:1047F00099C90B00F0B52DED028B9FB00446014620
:1048000011A8FFF745FF11A805F088FD724B734A08
:104810001A600021207806F0CBF906F055F87049AF
:1048200005F0E2FA052003F0C9FB6E4B1193254613
:10483000002304F58D668DF848306B4B13930127E8
:1048400015F8082BADF8507011AB04F274413046E6
:1048500002F07CFE002800F0A380A66004F244462B
:10486000304601F07FFE3946284602F019FD014628
:10487000002800F08F802946304601F0AAFC00286D
:1048800000F08E803046FFF71FFD002800F0888082
:10489000012006F0B7F905F012FC47F25D7005F053
:1048A00003FC002702465149009705466846ADF8CB
:1048B000047003F053FB284607F028F841EC100B76
:1048C00006F0CEFB4A49B0EE408AF0EE608A3046F0
:1048D00001F09DFE4FF47A7305970693089744F212
:1048E0000223444F424A0497314608A801F041FE92
:1048F0009DF820309BB10A22294604A8FFF742FC0C
:1049000004A805F078FA3C4904A805F080FA3B4970
:1049100004A805F07CFA3A4904A805F078FA08A83A
:1049200001F020FE00254FF47A731393304A02956C
:104930002B46314615A8ADF80C50129515951197D8
:1049400001F017FE9DF85430002B3DD0B0EE480A20
:10495000F0EE680A06F004FB2A4B51EC100B002223
:1049600006F088FE07F0ECFA02A90246064615A8F2
:1049700001F035FC013E02AA6B460121AE4223DD67
:1049800012F8017B13F8010B874218BF84F8F81462
:104990000135F3E7284602F083FC00287FF46BAF73
:1049A00019491A48FFF76CFC012384F8F83494F88D
:1049B000FB346BB105F088FF15491FB0BDEC028BCD
:1049C000BDE8F04005F023BA15A801F0CBFDEEE7F5
:1049D00005F07AFF0F49F0E77CE60320E9400B0081
:1049E0009FC90B000CCB0B0080F0FA02A4C90B008E
:1049F000A7C90B0020CB0B00BBC90B00E3C90B0000
:104A000009CA0B000000F03FB2C90B00ACE603205E
:104A100094C90B009AC90B0008B5212006F0F2F8E2
:104A200006F074FF04A3D3E9002306F0D9FF07F0D2
:104A3000CFFA00EE100A08BD9402C1D2AF63523F14
:104A400038B50446FFF7E8FF04F5A063D3ED007A1C
:104A5000B4EEE70AF1EE10FA44BF012384F8FC3407
:104A600005F032FF094905F0BFF905F02DFF0546B5
:104A70002046FFF7D1FF0221284605F0BBFA05F0DA
:104A800023FFBDE83840024905F0AEB921CA0B004A
:104A900028CA0B0070B505468AB008460C46FFF7D9
:104AA000BBFF214606A804F599648DED010AFFF7C6
:104AB000EFFD06A9204605F0D2FC134E06A805F02E
:104AC0002DFC214602A805F0BFFC314602A805F0E6
:104AD00031FD9DED010A0446062106A805F0D9FC2A
:104AE00006A9204605F01AFD314605F023FD0146D2
:104AF000284605F0A9FC06A805F010FC02A805F060
:104B00000DFC28460AB070BD2BCA0B0070B50446D8
:104B100005F0DAFE124905F067F905F0D5FE04F25A
:104B20008C450646284601F02DF90A224100304600
:104B3000FFF728FB05F0C8FE0A4905F068F928468A
:104B400001F0E6F8284601F01DF9400006F0DEFE0F
:104B500004F5A26444E9020141EC100B70BD00BFF2
:104B60002DCA0B0033CA0B0010B50446002190F883
:104B7000B00406F01DF894F8B104002106F018F80E
:104B800094F8B2040021BDE8104006F011B800000E
:104B900070B5044688B00D463F484049FFF758FBC2
:104BA0000121072006F004F8002204A8CDE9042220
:104BB000ADF8182003F08AFD39480022134611464B
:104BC000406803F07BF903F017FB03F0DAFBA01D4C
:104BD00001F00DFA684603F031F9009BC4F8B434D3
:104BE00030492D48FFF734FB642003F0E7F92146F4
:104BF00004A8FFF74DFD04A805F090FB2A4904A87E
:104C000005F0D7FB04F5996104A805F087FC01685D
:104C10002148FFF71DFB04F5976604A805F07EFB0D
:104C20002946304605F001FCD4F8B8141A48FFF7BD
:104C30000FFB02230022314604A805F0BBFC1B49F0
:104C400004A805F08CFC054604A805F067FBD5B167
:104C50002046FFF717FCA088012105F0A9FF144B9F
:104C600020461C60FFF7C6FD2046FFF763FD204687
:104C7000FFF7E6FE2046FFF7F6FC684605F04EFB20
:104C8000012008B070BD05F01FFE0A4905F0BFF80D
:104C90002046FFF769FFE2E7ACE6032037CA0B00C6
:104CA0001CE7032057CA0B006BCA0B0079CA0B0024
:104CB0004CDC03207CCA0B002DE9F041054690B086
:104CC00091F8B0040C4605F09DFF804694F8B104BD
:104CD00005F098FF074694F8B20405F093FF0646E6
:104CE000404606F013FE30A3D3E9002306F078FE19
:104CF0002F4BDFF8C080002206F072FE41EC100B53
:104D00000621684605F0DFFB694604A805F09CFB18
:104D1000414604A805F00EFC0446384606F0F6FDB0
:104D200021A3D3E9002306F05BFE214B002206F00D
:104D300057FE41EC100B062108A805F0C4FB08A99A
:104D4000204605F0EBFB414605F0F4FB04463046F7
:104D500006F0DCFD14A3D3E9002306F041FE144B5A
:104D6000002206F03DFE41EC100B06210CA805F0D8
:104D7000AAFB0CA9204605F0D1FB0146284605F008
:104D800063FB0CA805F0CAFA08A805F0C7FA04A846
:104D900005F0C4FA684605F0C1FA284610B0BDE82F
:104DA000F08100BFAFF300806666666666664A3FC4
:104DB00000408F402BCA0B00F8B500F24447194958
:104DC000044600F108053846FFF772FA064640BB74
:104DD000144901222846FFF7E8F9324611492846CE
:104DE000FFF780FAD4F8B4143846FFF761FA0646A4
:104DF000B8B9D4F8B41401222846FFF7D6F9D4F88C
:104E0000B41428463246FFF76DFA07493846FFF7D3
:104E10004FFA30B928460449BDE8F8400122FFF7AF
:104E2000C4B9F8BDA4CA0B00CBCA0B0070B50546C7
:104E300090B0083000220E461A490190FFF752FA4E
:104E4000D5F8B41401980022FFF74CFA16490198DE
:104E50000022FFF747FA00244FF47A73CDE90443A8
:104E6000124B039305F5A76244F2022305F2444175
:104E700007A8079401F07DFB9DF81C304BB1316809
:104E800003A804F0C4FF07A801F06CFB204610B093
:104E900070BD05F019FD064904F0B9FF4FF0FF3071
:104EA000F5E700BFA4CA0B00CBCA0B0020CB0B0058
:104EB000ADCA0B0030B58DB004460D4668461B499F
:104EC00005F077FA08A8A84708A9684605F0C7FAC8
:104ED00008A805F023FA214604A8FFF7DBFD04A982
:104EE00008A805F0B1FA694608A805F017FB0146C5
:104EF000684605F09AFA08A805F010FA04A805F02B
:104F00000DFA694608A805F09FFA08A92046FFF7A0
:104F10008DFF08A805F002FA05F0D6FC009904F010
:104F200076FF684605F0FAF90DB030BD2ACA0B00CD
:104F30002DE9F043044695B0FFF73EFF04F1080069
:104F4000574901900022FFF7CDF9D4F8B414019825
:104F5000DFF86081534F0022FFF7C4F90022524965
:104F60000198FFF7BFF905F0AFFC504904F04FFF7F
:104F70004F4904A805F01DFA01224E4902A802F08B
:104F8000EDFF04A910A805F05FFA02A90CA805F02E
:104F900010FA0CA910A805F0C1FA04F5A76541495B
:104FA00005F0C8FA00230D22294605F0EAFA0CA8FC
:104FB00005F0B4F910A805F0B1F9012604F244494E
:104FC00029464846FFF774F900B301363246414698
:104FD00002A802F0C3FF04A910A805F035FA02A93F
:104FE0000CA805F0E6F90CA910A805F097FA3946C7
:104FF00005F0A0FA00230D22294605F0C2FA0CA8FC
:1050000005F08CF910A805F089F9D9E705F05CFCEA
:10501000294904F0E9FE05F057FC294604F0F7FEA3
:10502000264910A805F0C5F90CA802F007FF0CA945
:1050300010A805F073FA014608A805F005FA0CA8B7
:1050400005F06CF910A805F069F908A910A805F099
:10505000FBF910A92046FFF7E9FE10A805F05EF95C
:1050600017490CA805F0A5F904F597610CA805F0FF
:1050700055FA014610A805F0E7F910A92046FFF7F8
:10508000D5FE10A805F04AF90CA805F047F908A8C4
:1050900005F044F904A805F041F915B0BDE8F08326
:1050A000A4CA0B00ADC90B00CBCA0B00B9CA0B00D8
:1050B000D0CA0B00D4CA0B00D9CA0B00E5CA0B003A
:1050C000ECCA0B007047006A0368DB6818470000F1
:1050D00010B5084C02F0A8FC2368C01A064B1B68E8
:1050E000984281BF054A13680133136002F09CFCAB
:1050F000206010BD3CE60320C0DB032038E603201F
:105100000A4B10B50446036003F08EFF214604F0FD
:10511000C6F905F0D9FB05F0CBFB2046044B40F85F
:10512000043B04F057F8204610BD00BFC8CB0B006D
:10513000B0CB0B0010B50446FFF7E2FF2046242158
:10514000FEF7ADFF204610BD7FB54949022300227E
:10515000684605F02FFA4749684605F000FA04460C
:10516000684605F0DBF8002C40D0434802F026FFEB
:1051700042480121FFF774FA0121072005F029FDBB
:1051800040F6B83002F01AFF3D493C48FFF792FE66
:105190000021072005F01DFD00213848FFF760FAC7
:1051A00046F6781002F00AFF34480121FFF758FA5A
:1051B0000121072005F00DFD40F6B83002F0FEFE9B
:1051C0002F492E48FFF776FE0021072005F001FD4C
:1051D00000212A48FFF744FA46F6781002F0EEFE66
:1051E000284804B0BDE8704002F0E8BE05F06CFB52
:1051F000044602F019FC0A220146204604F013FE80
:10520000204604F0F8FD1D481D4E1C4D0121FFF7FE
:1052100027FA0121072005F0DCFC0A2440F6B8300B
:1052200002F0CCFE31462846FFF744FE013CF5D1A2
:105230002146072005F0CDFC21461048FFF710FA63
:1052400005F042FB044602F0EFFB0A22014620462D
:1052500004F0E9FD204604F0CEFD68460A4905F059
:10526000F9F9009808B102F069FE04B070BD00BF02
:1052700050DC032079CA0B00804F120060DC032051
:1052800005540B00C027090040E6032007B50023A2
:105290000222009306494FF0FF33104603F0EEFA66
:1052A0000221084603B05DF804EB05F081BC00BFA5
:1052B000D1500B0030B53B493B483C4C85B005F024
:1052C000D6F83949684605F0BFF869463848FFF70F
:1052D0005FFC684605F022F805F0F6FA354904F05F
:1052E00096FD3348FFF724FE0021022005F060FC04
:1052F0002F496846FFF7CCF9684605F00FF8FFF72D
:10530000C5FF237D002B45D0012323722368DB6872
:10531000C3B19A88012A06D09B68F9E79B688BB1D4
:105320009A88012AFAD19A89022AF7D19A73237DA1
:10533000002B2FD02368DB68CBB19A88042A2BD0AE
:105340009B68F9E71C49102005F0EEFC054630B3D8
:105350001022002107F072F8184B2B600123AB805C
:105360002369AB600223AB81AB732561DFE7124990
:10537000102005F0D9FC054688B11022002107F065
:105380005DF80E4B2B600423AB802369AB600C4BA4
:10539000EB60256105B030BD094ADA60FAE7257592
:1053A000F8E700BF50CB0B0050DC032040E60320A1
:1053B00060DC03208CCB0B008CCF0B0010000300B3
:1053C000009749010000000010B50D4B0022044673
:1053D00018681A6006F08AFA07A3D3E9002306F0DA
:1053E000FFFA06F0F5FD062100EE100A204605F052
:1053F00050F8204610BD00BF7B14AE47E17A843FD1
:1054000038E6032030B58DB0384902230022044627
:1054100008A805F0CFF8364908A805F0A0F8054619
:1054200008A804F07BFF4DB13248FFF76FFB06215F
:10543000204605F048F820460DB030BD2A4604232A
:105440002A4908A805F0B6F82B4908A805F087F8FE
:10545000054608A804F062FF2849A5B104A804F095
:10546000A8FF08A8FFF7B0FF08A904A804F0F7FFF9
:1054700008A804F053FF04A9204604F0CBFF04A8B9
:1054800004F04CFFD7E7684604F093FF1B4904A8DB
:1054900004F08FFF174908A8FFF70EFC08A904A81D
:1054A00004F0DDFF08A804F039FF08A8FFF78CFF1F
:1054B00008A9684604F0D3FF08A804F02FFF04A948
:1054C00008A804F0C1FF0E4908A805F033F86946A2
:1054D00005F024F80146204604F0B6FF08A804F0C1
:1054E0001DFF04A804F01AFF6846C9E750DC03203A
:1054F00079CA0B0060DC0320A3CB0B002ACA0B0087
:105500002BCA0B0070B5D0E900531426044606FBE5
:105510000356AE4204D0284604F000FF1435F8E7E5
:10552000206802F00BFD204670BD8842F8B50446A5
:105530000D46164616D9904215D2A2F11406751AD8
:10554000A1F114072C44B7421CD02CB1314620469F
:1055500004F060FF337C2374304604F0DFFE143E19
:10556000143CF0E70ED0B5420CD02CB129462046B1
:1055700004F050FF2B7C2374284604F0CFFE143532
:105580001434F0E7F8BD2DE9F0410023C0E9003301
:1055900083604F689F4204460E4623DD4FF0140897
:1055A00008FB07F002F0C2FC0546D8B1D4E90012AE
:1055B00008FB0212FFF7B9FF206802F0BFFC25606C
:1055C000A760D6E9007308FB0378B84508D03946D0
:1055D000284604F039FF3B7C2B7414371435F4E76C
:1055E000736863602046BDE8F081000070B5424BEF
:1055F000424A9A6000248EB0C3E90044032002F0BE
:10560000CBFB2146012002F0D7FBCDE902440494F4
:1056100005F05AF902A9064605A8394DFFF7B3FF70
:1056200005A908A8FFF7AFFF364B2B6008A90BA808
:10563000FFF7A9FF0BAA1E21281D04F013F80BA8E1
:10564000FFF760FF08A8FFF75DFF2F4B2B602E626E
:1056500005A8FFF757FF2D4B2B6005F035F94FF4E8
:10566000165105F021F903F0DFFC294603F0D0FEC6
:1056700002A8FFF747FF264B264D1C611A1D012685
:105680001A60254A5A60C3E902441E753146234810
:10569000FEF75AFE64236C60C5F83C44C5F86034DC
:1056A000C5F86844C5F87844A5F87C441C4B1D4CEB
:1056B000C5F8703485F874642178BFF35B8F31408E
:1056C0000BD120460191FEF7F9FC019928B116484B
:1056D00004F004FD2046FEF7F6FC134BC5F86C34CD
:1056E00002F0A2F9114B1249186012480EB0BDE841
:1056F000704004F05EBE00BF2CE603200000FFFFF8
:1057000058E60320B0CB0B00FCCD0B00C8CB0B0040
:1057100040E60320A8E103201000030060DC032022
:105720000CCB0B0040DC032044DC03203CE60320D0
:105730002ACA0B0050DC032030B50025C0E9001553
:1057400042819DF810109DF80C20456141738273D1
:10575000037330BD7FB504464089A37A8DF80C30C1
:10576000000A8DF80D0020680D46164640B1637B97
:10577000019303AB0093012300F0E2F804B070BD85
:1057800060680028FAD0227A22B903F07F038DF8EE
:105790000C3003E0022A09D0012A0AD0637B00936F
:1057A000324603AB294600F0E8F9E7E763F07F03F0
:1057B000EDE703F07F0343F04003E8E7F0B40B4666
:1057C00002B9027B042A14D800F10F054361841842
:1057D0002946844209D0877BDEB227B92E701B0A86
:1057E0000135013CF5E7A673F9E72046F0BCFFF769
:1057F000B1BF0020F0BC704730B50B464189847AB8
:1058000085B0054600688DF80C40090A8DF80D102A
:1058100040B10021CDE900216A7B03A900F0E2F844
:1058200005B030BD68680028FAD0297A21B964F043
:105830007F048DF80C4003E0022909D001290AD029
:10584000FF21CDE900216A7B03A900F0C8F9E7E751
:1058500004F07F04EDE764F03F04EAE738B500F1B7
:105860000F05027B29460446FFF7C6FF78B1227B6D
:10587000294622440020A2420BD00302A07B20B97B
:10588000907B1843013A0131F5E70878F9E74FF0CA
:10589000FF3038BD10B501600271437110BD10B505
:1058A00004460068FFF7DAFF22790123934062790A
:1058B000013BD040184010BD70B5044600680E464C
:1058C000FFF7CCFF2379617901229A40531E03FA36
:1058D00001F520EA05053340206803FA01F1294368
:1058E000027BBDE87040FFF769BF42600022027290
:1058F00020220170C260704710B5037A044653B18C
:105900002178606802F0AAFF606802F0B2FFB0FA86
:1059100080F0400910BD012100F003F80028EFD10C
:10592000F8E738B5044640680D4602F065FF0120EF
:10593000207225B12046BDE83840FFF7DDBF38BDF5
:105940002DE9F843DDE908961F46C3681546324441
:105950009A420446884602D90020BDE8F8830178BF
:10596000406802F07BFF7EB9606803682A46DB6806
:10597000414698478542EFD16068394602F075FF8D
:10598000B0FA80F04009E8E7B9F1000FECD06068A8
:1059900003683246DB68494698478642DCD1E3E734
:1059A0002DE9F0411546C268AA4204460E4614D3BA
:1059B00001784068EAB202F03CFF85420DD1002731
:1059C0001FFA87F8454507F1010709D960680368A0
:1059D0005B69984706F80800F2E70020BDE8F0810F
:1059E0000120FBE773B51D460023CDE900339DF888
:1059F0001C30069E0446FFF7A3FF40B10123324648
:105A00002946204602B0BDE87040FFF7C9BF02B08A
:105A100070BD00002DE9F04F0446006885B00D46CA
:105A200040B10023009313460A4604F003FC05B07E
:105A3000BDE8F08F237BA068484FB7FBF0F7002B41
:105A40000B780CBF4FF0010B4FF0800B1BEA030FDC
:105A500001EB02030CBF4FF001094FF00009FFB248
:105A60000393039BAB42E2D095F800A05E464FF053
:105A7000000817B1384601F0C7FF637B13F0FD0F34
:105A800041D194F910305A1C0FD01AEA060114BF04
:105A9000012300234B4508D06369606A1A68002916
:105AA0002CD002431A604FF00109A169E36A0A6829
:105AB00013430B6017B1384601F0A6FF94F911307B
:105AC000013306D0E3691A68A36A1A4218BF46EA8E
:105AD0000808A169E36A0A6822EA03030B6094F9E3
:105AE0001130013318BF85F80080237B002B32D1A1
:105AF0007600F6B2002EBCD10135B2E722EA0002F0
:105B00001A608946D1E7A169E36A0A6813430B600A
:105B100017B1384601F078FF94F91030013308D0FE
:105B20006369616A1A681AEA060F14BF0A438A4356
:105B30001A60A169E36A0A6822EA03030B6094F918
:105B400011300133CBD0E3691A68A36A1A4218BF37
:105B500046EA0808C3E77608CCE700BF20A10700A3
:105B600007B501228DF807100DF10701FFF752FF6D
:105B70009DF8070003B05DF804FB2DE9F0410446F1
:105B800000680E4617461D4610B1616804F0DEFA43
:105B900094F90E00002180B205F01BF8069B05EB7E
:105BA0000308454508D13744B7420BD016F8011B0E
:105BB0002046FFF7D5FFF7E715F8011B2046FFF752
:105BC000CFFFEEE794F90E00012180B205F001F855
:105BD000206808B104F0A0FA0120BDE8F0812DE9A9
:105BE000F041044600689DF81C800E4617461D468D
:105BF00010B1616804F0AAFA94F90E00002180B295
:105C000004F0E7FF3744BE420AD1069BEE18AE42CD
:105C10000CD041462046FFF7A3FF05F8010BF6E73D
:105C200016F8011B2046FFF79BFFECE794F90E00E6
:105C3000012180B204F0CDFF206808B104F06CFAB5
:105C40000120BDE8F08140230370704713B50023A5
:105C50000C46022281686846FFF71CFE2CB9012120
:105C60006846FFF729FE02B010BD0021F8E7F0B545
:105C700004468BB01020CDE90221FEF70CFA054650
:105C800018B1DDE90221FFF730FE656028460021EA
:105C9000FFF747FE054630B3012702236168202243
:105CA000CDE9007704A8FFF747FD04A8FFF7D6FD6C
:105CB0002378B3EB102F19D11820FEF7ECF9064624
:105CC00038B100230093616801973B460622FFF735
:105CD00033FD8021A66000223046FFF76FFD0121D1
:105CE0002046FFF7B3FF28460BB0F0BD0025FAE7CA
:105CF00007B50023816802226846FFF7CBFD68469E
:105D0000FFF7CDFDB0FA80F0400903B05DF804FB69
:105D100010B588B00446FFF7EBFF90B10123CDE941
:105D2000003361680223002202A8FFF705FD02A8E4
:105D3000FFF794FD03B200EE103ABAEECE0A08B0B7
:105D400010BD9FED010AFAE70000C07F13B50523DF
:105D50000C46022281686846FFF79CFD2146684692
:105D6000FFF7AAFD02B010BD07B505238168022226
:105D70006846FFF78FFD6846FFF791FDC0B203B09C
:105D80005DF804FB00B5012389B0CDE9003303239E
:105D900041681A4602A8FFF7CFFC02A8FFF75EFD94
:105DA000030248BF40F07F4009B05DF804FB00B536
:105DB00001238BB0CDE900330522416804A8FFF729
:105DC000BBFC0423032204A902A8FFF763FD02A879
:105DD000FFF765FDC0B20BB05DF804FB10B5012301
:105DE0008AB0CDE900330C460522416804A8FFF7CC
:105DF000A3FC0423032204A902A8FFF74BFD2146BC
:105E000002A8FFF759FD0AB010BD00B501238BB001
:105E1000CDE900330522416804A8FFF78DFC00237B
:105E2000032204A902A8FFF735FD02A8FFF737FDFA
:105E3000C0B20BB05DF804FB10B501238AB0CDE908
:105E400000330C460522416804A8FFF775FC0023C7
:105E5000032204A902A8FFF71DFD214602A8FFF7AF
:105E60002BFD0AB010BD000000B54B1E032B89B0FE
:105E700014D80123CDE900330F310223CAB241689F
:105E800002A8FFF759FC02A8FFF7E8FC03B200EEF6
:105E9000103ABAEECE0A09B05DF804FB9FED010A94
:105EA000F9E700BF0000C07F10B54B1E032B10EEBA
:105EB000104A88B017D80123CDE900330F31CAB298
:105EC0000223416802A8FFF737FC204605F030FDA9
:105ED0000022064B05F084FD06F032F8002201B2E4
:105EE00002A8FFF76BFC08B010BD00BF00003040F7
:105EF0002DE9F0431E4689B04B1E032B9DF84070E0
:105F00009DF844809DF8489014461DD80123CDE9A2
:105F10000033CA1DD2B2416802A8FFF70DFC21462A
:105F2000B9F1000F01D044F00201B8F1000F01D027
:105F300041F004010EB141F008010FB141F0100130
:105F4000002202A8FFF73AFC09B0BDE8F083000088
:105F5000214BF0B50B443C24B3FBF4F104FB1133AB
:105F6000B1FBF4F204FB1211017118214371B2FB71
:105F7000F1F301FB1322C27000229BB2027040F2C7
:105F80006D164FF69364027812F003050BBF374687
:105F90004FF4B677012100219F4205DA611A0B44C4
:105FA00001329BB20270EEE701220C4E4270417842
:105FB000721812F8012C1DB9022904BF0132D2B2A5
:105FC0009A4294B204D81B1B01319BB24170EEE798
:105FD00001338370F0BD00BF80BC92C7D8CB0B00EB
:105FE00008B504F03DFE02F007FC012008BDFFF7F4
:105FF000F7BF2DE9F843044604F032FE682102F0B1
:1060000031FC04F02DFE036803219B68984704F0DF
:1060100027FE02F02EFC04F023FE0722682102F086
:106020001AFC04F01DFE03685B69984700F07F09C5
:10603000C0F30210A0EB800009EB40005FFA80F98A
:1060400004F00EFE03685B699847C0F30315A5EBE7
:10605000850500EB450000F0FF0504F001FE036834
:106060005B699847C0F30316A6EB860600EB460073
:1060700000F0FF0604F0F4FD03685B699847C0F385
:106080000317A7EB870700EB470000F0FF0704F0BA
:10609000E7FD03685B69984704F0E2FD03685B690C
:1060A0009847C0F30318A8EB880800EB480000F0FD
:1060B000FF0804F0D5FD03685B699847C0F303133C
:1060C000A3EB830300EB4300207084F80180A770EA
:1060D000E670257184F805902046BDE8F88338B550
:1060E00004460D462422002106F0A8F9A560EB79AC
:1060F000102B03D0202B06D0002038BD20230120F8
:106100002370A070F9E74023F9E710B50446243066
:1061100000F0B6FF28B104F50C70BDE8104000F0A7
:10612000AFBF10BD8378016943F00403837000F1B1
:106130001002806801F05AB82DE9F041017811F0A1
:106140002005044603D000263046BDE8F0814269B0
:10615000174B9A42F7D2FFF7E5FF06460028F2D028
:106160002169A06800F0D7FF0746A06805223946DC
:10617000243000F0ADFF80460028E4D029464FF4DB
:10618000007206F05BF90125A3681A79AA4209D9C1
:1061900018684246E91901F00AFB0028D3D00135FE
:1061A000EDB2F1E7636903EB42236361CCE700BF23
:1061B00000FE1F0010B5044680680A462430A1691D
:1061C00000F086FF20B1A38803F00F0300EB43101B
:1061D00010BD03780BB9FFF782BF002070472DE98F
:1061E000F74F0378044688461546002B5DD0827829
:1061F000D1075AD51A072DD5C36942699B1A9D420A
:1062000028BF1D462E464FF0000904F1100B002E4A
:1062100000F08F8022786369A0689706C3F3080AAC
:106220004FEA53211FD5006A0144A068BAF1000F5C
:1062300042D1B6F5007F3FD3C36A99423CD0B6F550
:10624000806F52D20068424601F028FA68B34FF4DA
:10625000007744E09B06D5D583681A894369C3EB70
:1062600042139BB2CBE790F8059009EA0109BAF115
:10627000000F08D1B9F1000F05D15BB951064CBF31
:10628000036A236A23612169A06800F044FF09EBD7
:106290000001CAE721695A4600F043FF002804DBE9
:1062A000F1D1237813F0700F43D1637843F00203E8
:1062B00063704FF0FF303DE0CAF50077B7424FF012
:1062C000000200F1240028BF374600F001FF00283B
:1062D000EBD000EB0A013A46404606F087F86369C6
:1062E0003B44B8446361F61B91E7227892064FEA7B
:1062F000562A06D40279A2EB0902D2B2924528BFEF
:10630000924699424FEA4A2708D2A068534600684D
:10631000424601F00BFA0028E1D1C6E753448B4214
:10632000F3D92430019100F0ABFE01990028ECD1A3
:10633000BBE7A81B03B0BDE8F08F73B501220DF1D8
:106340000701D0E904560446FFF749FF01280ABFB8
:106350009DF807004FF0FF30C4E9045602B070BD4D
:1063600037B5436913F4F07F0446C3F3431500D0F7
:1063700099B901220DF107012046FFF730FF40B225
:10638000012802D0002003B030BD63691F33A0682C
:106390006361303000EB4510F5E72033F7E72DE976
:1063A000F0410278076904460D4662B140698842AF
:1063B00002D019B921616561012006E0160706D5F2
:1063C000E3698B420BD227610020BDE8F081910682
:1063D00005D5A3681B89B5EB431FECD9F3E7D4F8C7
:1063E00008C09CF80660431E06F109016E1ECB40F2
:1063F000CE40B34200D898B953064CBFDCF82030E9
:10640000236A236104F11008002ED4D02169A0680A
:10641000424600F086FE002806F1FF36F4DCD2E7A3
:10642000F61AEFE7F8B50F46044615460021242278
:106430001E4606F003F8B868A060A58005F00F05B9
:106440003B6AE3606A0100EB451595F83B301F0796
:1064500044D403F01703237095F83B1011F0180F84
:1064600004BF43F0080323709DF81830E37006F072
:106470000303012B2CD0022B28D07BBB71052DD41C
:106480000123A370A1788B0704D52378DF0625D4D8
:10649000DD0723D4B31123F07F0306F008052B4357
:1064A0000B43A370C36AA3618318B3F84420B3F805
:1064B0004A1041EA0241720513D559B9A37843F055
:1064C0000403A370730410D40120F8BD0323D8E79C
:1064D0000223D6E700F0C5FE0028EFD1002020708F
:1064E000F3E72162DB6CE361ECE7E1692046FFF74B
:1064F00056FF0028E8D1F1E738B5037804460BB918
:10650000012038BD83785A0723D50121FFF752FEB9
:10651000054628B9637843F0010363700020F0E773
:106520000378E52BF6D023781B0744BFE369C361EA
:10653000236A4383638C8382094B1B682BB100F170
:106540001601183098472B8B6B82A37823F0040335
:10655000A370A068FFF7D9FD0028DBD0D0E700BF0B
:106560007CE6032010B50446FFF7C6FF0023237026
:1065700010BDF0B593B01F46002309930378019234
:1065800006460C4613B1002013B0F0BD0029FAD026
:106590000B7813F0700FF6D013782F2B12D1019ACD
:1065A00013782F2B02D101320192F8E7A1681BB9B1
:1065B0003046FFF70EFEE7E709A8FFF790FD002839
:1065C000E1D009AC019801AA03A900F0FBF9002869
:1065D000D9D0019B1B789BB1002303AA21463046EA
:1065E00000F084FB0028CED035460FCD09AC0FC497
:1065F0000FCD0FC42B6823603046FFF7B3FFE0E7F1
:106600003B4603AA2146304600F070FBBCE700B5CC
:106610008BB000230A4601930146012301A8FFF72E
:10662000A8FF10B101A800F0ABFA0BB05DF804FBB5
:10663000F0B5044689B00E4611B9002009B0F0BD8E
:106640000B7813F0700FF8D040F6022300F04EFBE9
:106650000028F2D001271025A77025702046FFF7EB
:106660006BFD0028E9D02369236200212046FFF753
:1066700096FE2046FFF740FF0028DED03946204630
:10668000FFF798FD0028D8D06A46C572034600F18E
:10669000200C154618685968174603C70833634528
:1066A0003A46F7D14FF02033216AA068CDF8013087
:1066B000CDF80530ADF8093000F02DFD0146A06899
:1066C0000122243000F004FD03460028B5D02E221C
:1066D0008DF80020AC4607460DF1200E624603CA35
:1066E000724538607960944607F10807F6D12E228A
:1066F0008DF80120326AADF81A20110CADF8141093
:106700002A46203308AE154603CDB54218605960BD
:106710002A4603F10803F6D1A068FFF7F6FC8DE7DF
:10672000F0B593B01F460023099303780192064603
:106730000C4613B1002013B0F0BD0029FAD00B783D
:1067400013F0700FF6D013782F2B0DD1019A137818
:106750002F2B02D101320192F8E7A16809A8FFF7B7
:10676000BEFC0028E6D009AC019801AA03A900F0FC
:1067700029F90028DED0019B1B78E3B1002303AA8E
:106780002146304600F0B2FA58B135460FCD09AC7B
:106790000FC40FCD0FC42B6823603046FFF7E2FE15
:1067A000E1E7002FC6D003AA21463046FFF740FF9D
:1067B0000028EAD1BEE703AA21463046FFF738FF9A
:1067C000B9E700002DE9F047037889461907044628
:1067D00017465BD583789A0758D51B0751D4636950
:1067E000DB43BB4252D3B84604F1100A6669B8F1E4
:1067F000000F00F09180A0684379C6F3080513EA02
:1068000056260ED16DB92169002946D0524600F0B6
:1068100088FC00283ADB04D12046FFF783FC0028DF
:1068200034D02169A06800F076FC3118A06815B951
:10683000B8F5007F3FD2C5F50076464528BF4646ED
:10684000002D36D16269E3699A4234BF01220522E4
:10685000243000F03DFCC8B1284432464946354456
:1068600005F0C4FDB5F5007F04D1A068243000F028
:1068700007FC58B1636933446361B144A8EB06086F
:10688000B4E7C169FFF78BFD0028A8D1637843F016
:10689000010363704FF0FF3050E0236A3BB920469C
:1068A000FFF740FC0028F1D023692362B9E7236198
:1068B000B7E70122CCE7B8F5806FC26A1BD390F826
:1068C00004C0ACEB0606F3B24FEA582E734528BF5E
:1068D000734691424FEA432607D31A448A4282BF45
:1068E0004FF0FF3280F82450C262A5684A462868FB
:1068F00000F0D3FFBDE7914202BF4FF0FF3380F8B5
:106900002450C362A3684A46186800F050FF00286C
:10691000BCD04FF40076ADE7E269A378B24204D26E
:10692000E66143F00403A37003E0084A1268002AFA
:10693000F7D194F90230002B02DB3846BDE8F0872E
:106940002046FFF7D9FD0028F7D19FE77CE603201A
:10695000042904D800EB4100B0F8010070470A296F
:106960009BBF01F1FF3100EB41000131C08884BFC2
:1069700000EB410080887047411E00F10A030020AF
:10698000420842EAC01011F8012F52FA80F08B42FF
:10699000C0B2F5D1704738B5CB6804460D4623B96F
:1069A000BDE838408968FFF714BC2422002105F0B7
:1069B00045FD102301202370A070AB68A360EB6835
:1069C000236238BD2DE9F047064610F8013B202B25
:1069D000FAD06A4D8E600024335DC3B12F2B16D0E0
:1069E0005C2B02D10020BDE8F087A3F12200C0B2E9
:1069F0001D2803D825FA00F0C007F3D403F0BF0028
:106A00003C28EFD0203B5E2BECD80134E4E733196F
:106A10001846074610F8015B202DFAD02F2DF8D02C
:106A200017604CB113F8012D2E2A01D0202A01D174
:106A3000013CF6E7FF2CD5DC4FF02033C1F81130D4
:106A40004C60C1F80D304B614FF0000816F808306B
:106A50002E2B01D0202B02D108F10108F6E7B8FA5D
:106A600088F04009651E6B1C02D0735D2E2B14D17B
:106A70004FF0000907274A46CA464FF0080EA045C6
:106A800068DA16F80830202B03D02E2B07D1A84542
:106A900012D0002008F10108F1E7013DE3E7222BC5
:106AA00008D07C2B06D0A3F12A0CBCF1050F0AD824
:106AB0002D2B12D0A8455BD10A2F4AD00A270822D5
:106AC0004FF0100EE6E7A3F13A0CBCF1050FF1D937
:106AD000A3F15B0CBCF1020FECD9A3F1210CBCF1CA
:106AE0005D0FE7D8A845E7D0BA4230D8A3F1610CD2
:106AF000BCF1190F1AD8203B4EEA0909DBB25FFA44
:106B000089F902F1010C5FFA8CFC0A44BCF1060F12
:106B1000537301D881F80CC06246BBE7A84518DC66
:106B2000A8460A2708224FF0100EB2E7A3F1410C45
:106B3000BCF1190F98BF4EEA0A0AE2E70B7B01206D
:106B4000087019447E234B7331238B734BE70A2F54
:106B5000E4D100204B7B202B3FF444AF0028EDD044
:106B60001AEA090F18BF4FF0020981F800903AE7BE
:106B7000BA42ECD800205F23C3E700BF0101003117
:106B80002DE9F0418AB000230193037819070446E8
:106B90000AD583789A0707D5016A39B901212046B9
:106BA000FFF708FB054638B9002048E0806800F090
:106BB00058FB0028F2D1F7E7FFF7DEFEE5272F703C
:106BC000002306462370A068FFF79FFA0028EBD049
:106BD000E378002B33D0214601A8FFF7DCFE002824
:106BE000E2D00125E3785FFA85F84345DCD3A1883C
:106BF000491B490101A8FFF7D2FB0028D4D000218E
:106C000001A8FFF7ADFB0028CED0C37A0F2BCBD164
:106C1000027802F01F034345C6D1437BB342C3D180
:106C20000770A16891F8243043F0010381F8243003
:106C3000530605F10105D5D5A068FFF766FA0AB03D
:106C4000BDE8F0812DE9F84391F80C9006460C461A
:106C500002257E2701F10D086168A2686B189BB2BE
:106C60001144914206D012F8010B03EB4313434049
:106C70009BB2F6E7B9F1030F28BF4FF0030909F102
:106C80000402D2B203F00F01A018013A0929D2B2CE
:106C900094BF30313731914541734FEA1313F1D12D
:106CA00004EB090300215F733046FFF778FB0121F5
:106CB0003046FFF755FB014628B97078B0FA80F0EE
:106CC0004009BDE8F88303786BB1C37A1B07EED4A3
:106CD0000B22404605F07AFB0028E8D10135ADB221
:106CE000642DB9D1EDE70120EBE700002DE9F04F6D
:106CF0002DED028B8BB01746079006930C4629B9F1
:106D000000200BB0BDEC028BBDE8F08F0B7813F0C8
:106D1000700FF5D0079B1B78002BF1D153680593BA
:106D200013789D071FBF059B0C330D22B3FBF2F3B5
:106D30001ABF0133DBB20123002120460393FFF782
:106D40002EFB07F10D034FF0000B08EE103ADA4668
:106D50005D465E46CDF810B0D946636901212046F4
:106D6000C3F34F18FFF7FCFA0346002871D163788C
:106D7000002BC5D1069B9A05C2D503F00303013B46
:106D8000012BBDD8049B002D08BF43460493039BF1
:106D90009D42C0F0F180B9F1000F40F00A81049BE0
:106DA00020465901FFF7FBFA0028A9D0039B03F105
:106DB000FF395FFA89F94E464FF0000A4FF00F088D
:106DC000002E00F00D8100212046FFF7C9FA05468C
:106DD000002895D0A26892F824304E4543F0010374
:106DE0000CBF46F0400BB34682F8243080F800B068
:106DF00080F80B8080F80CA007F10D00FFF7BCFDB8
:106E000085F81AA0687385F81BA00BF01F030D22EC
:106E1000013BD7F808C0534300220599994240F23C
:106E2000D0801CF80310042A5FFA82FE02F10100F0
:106E300000F2CD8005EB4202A2F801100D2803F10B
:106E400001030246E9D1013EF6B2B9E74FF001096C
:106E500083E70278E52A00D07AB90499002D08BFAB
:106E60004146049103998D423CBF0135EDB2002AA1
:106E700080D0E52A05D100266FE703998D4238BFFF
:106E800000252E2AF7D0D97A0F294AD116BB12F045
:106E900040063FF462AF02F01F0693F80DB0B24611
:106EA0000D220AF1FF3802FB08F8059A4245E2D9A3
:106EB000A2EB08020892002202EB08010991184691
:106EC000D1B2FFF745FD08998A420DD1002818BFBD
:106ED000002642E70AF1FF3A5FFA8AFA5245CAD120
:106EE0005A7B5A45DCD0C6E7FF28C4D85FFA80FE3B
:106EF000AEF141011929B9689CBF0EF120005FFA7B
:106F000080FE08460999415CA1F1410CBCF1190FC2
:106F10009CBF2031C9B27145ADD101320D2ACBD110
:106F20001BE70807A7D45EB1BAF1010F7FF4E8AE02
:106F30001846FFF721FD58457FF4E2AEB1460EE05A
:106F400018EE101A0B22184605F040FA00287FF4BC
:106F500004AF97F8009019F001097FF477AF069B12
:106F600019053FF5CDAE069B0798CDF80090424637
:106F70002146FFF757FAC4E600212046FFF7F0F953
:106F8000A0B96378002B7FF4BBAE2046FFF7D4F89E
:106F900000283FF4B5AEA3681B79012B3FF6FBAE8A
:106FA000039B1035EDB2AB42EFD8F4E60135EDB2FC
:106FB000EDE639462046FFF745FE00287FF4EFAEA8
:106FC0009EE614BF4FF0FF31002189B22BE7BEF1DE
:106FD0000A0F94BF05EB420205EB400291802DE7BA
:106FE00031462046D4F81480FFF7BAF90546002848
:106FF0003FF486AE2022314605F020FAD7F80D3056
:107000002B60D7F811306B60B7F815302B81FB7D02
:10701000AB723B7803F018032B730F4B1B689BB1CB
:1070200005F10E0105F1100098472B8A6B822B8326
:10703000EB89EB82A26892F8243043F00103C8F395
:107040004F1882F824308EE721232B7428236B7489
:107050000823AE73EB73E8E77CE6032013B5044620
:10706000084659B1019105F086FA23680199DB6859
:107070000246204602B0BDE81040184702B010BDDD
:1070800037B50378DA07044620D54368816800F1F4
:107090000C021868019200F08AFB019A054618B9A3
:1070A0000025284603B030BD23789B0704D42378FD
:1070B00023F001032370F4E7D4E901301969014496
:1070C000186800F074FB0028F1D1E9E70125E8E732
:1070D00070B583688B4204460E46154609D0FFF70B
:1070E000CFFF08B9002070BD6B070AD500232370BD
:1070F000A660227805F003052046154300F80C5BD6
:10710000F1E7636804F10C021868314600F0C6FA32
:107110000028EBD1E6E783794069023999400844B9
:107120007047012970B505460C46164602D84FF047
:10713000FF3070BDC3698B42F9D3C379202B16D1C0
:107140008169022201EBD41100F50C70FFF7C0FF3A
:107150000028ECD004F07F0450F8243023F0704372
:10716000EA699A4226BF336001200020E1E7102B34
:10717000DDD1C1F3072381690222194400F50C70A7
:10718000FFF7A6FF0028D2D0E4B230F81430E7E7CA
:10719000012938B50C46154601D8002038BDC36911
:1071A0008B42FAD3C379202B0FD18169032201EBE3
:1071B000D41100F50C70FFF78BFF0028EDD004F020
:1071C0007F0440F824500120E8E7102BE5D1C1F3FB
:1071D000072381690322194400F50C70FFF778FF3B
:1071E0000028DAD0E4B220F81450ECE72DE9F3419E
:1071F000C4688C4205460E46904601D3012701E043
:107200000C460027EB690134A34202D2C7B9EC68EF
:10721000F4E7A64214D001AA21462846FFF781FFD1
:1072200000280DDBEED0019B002BEBD107B1EC6009
:107230006FF0704221462846FFF7AAFF074620B9A3
:107240000027384602B0BDE8F08116B9C8F8004002
:10725000F7E7224631462846FFF79AFF0028F5D186
:10726000EEE773B5002305460C46019301AA2146BB
:107270002846FFF756FF061E10DB0022214628464F
:10728000FFF786FF50B1EB68A34224BF04F1FF343F
:10729000EC60019C002EE9D102B070BD0020FBE73C
:1072A000012370B50022C3604FF0FF330446C27162
:1072B00000F12406806280F82420C362C0F8340202
:1072C00080F83022C0F838320D46B9B1042901D90E
:1072D000002070BD11463046FFF7FAFE0028F7D0B7
:1072E00000EB051393F8AE315B06F1D105F11B01FC
:1072F00000EB0110D0F80650002DE9D000222946FD
:107300003046FFF7E5FE0028E2D0B0F80B30B3F5C9
:10731000007FDDD1037C022BDAD1C389002BD7D0CB
:10732000417B21714B1E63710023A3710926012348
:10733000994207D0013ECBD0A2795B000132DBB28B
:10734000A271F5E7C18A01B9416A2161C3892B4461
:10735000A361B0F81120228103EB41032362B0F84E
:107360001110490101F2FF1103EB51236361B0F8E1
:10737000132002B9026AE91AA3791144D9404B1CBF
:10738000E36140F6F473994202D80C23E3719FE75E
:107390004FF6F473994285BFC36A236210232023FA
:1073A000E371012095E700F0CBBA00F0AEBA00001F
:1073B00070B50E4E0D46144600F02EFB3368C01A11
:1073C0000B4B984208D900F02FFB0A4B186000F0D5
:1073D0002DFD00F021FB306000F026FB80B2401B49
:1073E000A042D4BF0020012070BD00BF84E603206E
:1073F000A08601002CE7032038B5057A04464DB974
:10740000406800F06BFA63682946187D03F0E1FBE1
:107410000123237238BD10B5037A04466BB143686B
:107420000121187D03F0D5FB6068FF21FFF7BBFF4A
:10743000606800F067FA0023237210BDF8B50446B7
:107440000D46164600F0F0FA87B26068FFF7ADFF10
:10745000FF2860720ED14FF47A7239462046FFF74A
:10746000A7FF0028F1D0552320462370FFF7D3FF54
:107470000020F8BDFE2801D05023F5E760683246B1
:10748000294600F047FA607208B16023ECE76068B3
:10749000FFF78BFF6068FFF788FF0120E9E770B511
:1074A00004460E4600F0C0FA85B232462946204610
:1074B000FFF77EFF30B96068FFF777FFFF28F4D150
:1074C000012070BD0020FCE7F7B5037A0192044665
:1074D0000D460BB9FFF790FF25B14FF4967120468A
:1074E000FFF7DDFF606845F04001FFF75CFF032612
:1074F00001AFB95D6068FFF756FF013EF9D2002D7C
:1075000060680CBF95218721FFF74DFF6068FFF78A
:107510004CFF0B256068FFF748FF0306607203D538
:10752000013D15F0FF05F5D103B0F0BD70B504467F
:107530000D46164637210022FFF7C6FF3246294680
:107540002046BDE87040FFF7BFBF00002DE9F041C5
:1075500000250572057085724160044690461E46FE
:1075600000F062FA41460746606800F0BBF96368C4
:10757000494A1D720125DA601D822046FFF73CFF53
:1075800063682946187D03F024FB0A256068FF2103
:10759000013DFFF708FF15F0FF05F7D163682946A5
:1075A000187D03F016FB0A25002211462046FFF73E
:1075B0008BFF0128804618D0013D15F0FF0507D14B
:1075C000202320462370FFF726FF0020BDE8F0812E
:1075D0006068FD21FFF7E7FE4FF402786068FFF76F
:1075E000E4FEB8F10108F9D1DEE74FF4D5720821C5
:1075F0002046FFF769FF052814D184F80A8000258A
:10760000BFB22A4629212046FFF790FF0246D8B193
:107610004FF4FA6239462046FFF7CAFE0028F0D040
:107620004323CEE704256068FFF7BFFE013D15F058
:10763000FF056072F7D1AA2804D10223A3724FF08C
:107640008045DDE72523BCE7A37A022B18D13A2138
:107650002046FFF739FF08B13723B2E76068FFF72C
:10766000A4FE00F0C000C02804BF0323A37260681A
:10767000FFF79BFE6068FFF798FE6068FFF795FED6
:107680002046FFF7C8FE63683079B168B2891A8274
:107690001872D960012099E790D0030038B5837A39
:1076A000032B18BF490215460A4611210446FFF76D
:1076B0000BFF30B1302323702046FFF7ACFE0025CE
:1076C0000BE029464FF400722046FFF7B7FE05464F
:1076D0000028F1D02046FFF79EFE284638BD10B5A1
:1076E000837A032B0A4618BF4A0212210446FFF789
:1076F000EBFE30B1312320462370FFF78CFE0020D3
:1077000010BD0120FCE710B500220C210446FFF754
:10771000DBFE30B1282320462370FFF77CFE0020DB
:1077200010BD2046FFF777FE0120F9E7F8B50446C3
:1077300016461F46FFF7D3FF68B10025ABB29F4244
:1077400006EB452109D94FF400722046FFF776FE7B
:1077500001350028F2D10020F8BD2046BDE8F840F0
:10776000FFF7D1BF38B5044615464068FFF71BFE4A
:107770004FF400726068294600F0E6F86068FF2167
:10778000FFF711FE6068FF21FFF70DFE6068FFF74D
:107790000CFE607200F01F00052806D0572320461B
:1077A0002370FFF738FE002038BD0120FCE770B5DC
:1077B000837A032B18BF490215460A46182104464E
:1077C000FFF782FE064630B1322323702046FFF7D2
:1077D00022FE00251FE02A46FE212046FFF7C2FFB9
:1077E0000028F3D04FF4FA612046FFF758FE054613
:1077F00008B95A23E9E732460D212046FFF764FE17
:1078000008B12923E1E76068FFF7CFFD0028F8D130
:107810002046FFF700FE284670BD13B501914FF4D6
:10782000FA610446FFF73BFE019A30B95B232370EF
:107830002046FFF7F0FD002005E0FC212046FFF781
:1078400091FF0028F4D002B010BD10B5837A032B4D
:107850000A4618BF4A0219210446FFF735FE30B127
:10786000332320462370FFF7D6FD002010BD0120F2
:10787000FCE738B54FF4FA610446FFF710FE054601
:1078800030B9562323702046FFF7C5FD284638BD82
:107890006068FD21FFF787FDF5E7F8B50446164659
:1078A0001F46FFF7D2FF70B10025BD4206EB452110
:1078B000204604D0FFF7B1FF28B10135F5E7BDE858
:1078C000F840FFF7D6BF2046FFF7A5FD0020F8BD22
:1078D000014B01221A70704788E60320011D0068E1
:1078E00002F034BC10B504460175006802F000FCDB
:1078F000207D012103F05CF9207D0121BDE81040CD
:1079000003F067B9006802F007BC0068FF2102F0CD
:107910008BBC000037B51346074A00920025074C80
:10792000006825700A46294602F084FC2378002B63
:10793000FCD0002003B030BDD1780B0088E60320D6
:10794000006802F071BC000037B51346064A009289
:107950000025064C006825702A4602F06BFC23784F
:10796000002BFCD003B030BDD1780B0088E603209B
:1079700008B5024B1B689B68019308BD78020300A1
:1079800008B5024B1B68DB68019308BD7802030051
:1079900008B5034B1B68D3F89830019308BD00006D
:1079A0007802030008B5034B1B68D3F8F03001934D
:1079B00008BD00007802030008B5024B1B685B6C31
:1079C000019308BD4802030008B5024B1B689B6C7D
:1079D000019308BD4802030008B5024B1B68DB6C2D
:1079E000019308BD4802030008B5024B1B685B6D9C
:1079F000019308BD4802030008B5024B1B685B6891
:107A0000019308BD1802030008B5024B1B68DB6830
:107A1000019308BD1802030008B5024B1B681B69DF
:107A2000019308BD1802030008B5024B1B685B698F
:107A3000019308BD1802030008B5024B1B685B6880
:107A4000019308BD2C02030008B5024B1B689B681C
:107A5000019308BD2C02030008B5024B1B68DB68CC
:107A6000019308BD2C02030008B5024B1B681B697B
:107A7000019308BD2C02030008B5024B1B689B69EB
:107A8000019308BD2C02030008B5024B1B68DB699B
:107A9000019308BD2C02030008B5024B1B681B6B49
:107AA000019308BD2C02030008B5024B1B68DB687C
:107AB000019308BD2802030008B5024B1B689B69AF
:107AC000019308BD2802030008B5024B1B68DB695F
:107AD000019308BD2802030008B5024B1B681B6A0E
:107AE000019308BD2802030008B5024B1B685B6ABE
:107AF000019308BD2802030008B5024B1B689B6A6E
:107B0000019308BD2802030008B5024B1B68DB6A1D
:107B1000019308BD2802030008B5024B1B681B6BCC
:107B2000019308BD2802030008B5024B1B685B6B7C
:107B3000019308BD2802030008B5024B1B681B6CAB
:107B4000019308BD2802030008B5024B1B681B6D9A
:107B5000019308BD2802030008B5024B1B685B694E
:107B6000019308BD6402030008B5024B1B689B68C3
:107B7000019308BD6802030008B5024B1B68DB686F
:107B8000019308BD6802030008B5024B1B681B681F
:107B9000019308BD3002030008B5024B1B685B6906
:107BA000019308BD3002030008B5024B1B68DB6976
:107BB000019308BD3002030008B5024B1B681B6A25
:107BC000019308BD3002030008B5024B1B685B6AD5
:107BD000019308BD3002030008B5024B1B689B6A85
:107BE000019308BD3002030008B5024B1B689B6B74
:107BF000019308BD3002030008B5024B1B68DB6B24
:107C0000019308BD3002030008B5024B1B681B6CD2
:107C1000019308BD3002030008B5024B1B685B6C82
:107C2000019308BD3002030008B5024B1B689B6836
:107C3000019308BD3C02030008B5024B1B68DB68DA
:107C4000019308BD3C02030008B5024B1B681B6989
:107C5000019308BD3C02030008B5024B1B685B6939
:107C6000019308BD3C02030008B5024B1B689B69E9
:107C7000019308BD3C02030008B5024B1B68DB6999
:107C8000019308BD3C02030008B5024B1B681B6A48
:107C9000019308BD3C02030008B5024B1B689B6AB8
:107CA000019308BD3C02030008B5024B1B68DB6A68
:107CB000019308BD3C02030008B5024B1B681B6C16
:107CC000019308BD3C02030008B5024B1B681B680A
:107CD000019308BD4C02030008B5024B1B685B68AA
:107CE000019308BD4C02030008B5024B1B689B685A
:107CF000019308BD4C02030008B5024B1B681B69C9
:107D0000019308BD4C02030008B5024B1B685B6978
:107D1000019308BD4C02030008B5024B1B689B6928
:107D2000019308BD4C02030008B5024B1B68DB69D8
:107D3000019308BD4C02030008B5024B1B681B6A87
:107D4000019308BD4C02030008B5024B1B685B6B36
:107D5000019308BD6002030008B5024B1B681B6D50
:107D6000019308BD6002030008B5024B1B685B6D00
:107D7000019308BD6002030008B5024B1B68DB6E6F
:107D8000019308BD6002030008B5024B1B681B6F1E
:107D9000019308BD6002030008B5024B1B685B68D5
:107DA000019308BD2002030008B5024B1B685B6904
:107DB000019308BD2002030008B5024B1B68DB6A73
:107DC000019308BD2002030008B5034B1B68D3F8DC
:107DD0008830019308BD00002002030008B5034B62
:107DE0001B68D3F89430019308BD00002002030003
:107DF00008B5034B1B68D3F8A830019308BD0000F9
:107E00002002030008B5034B1B68D3F8BC30019374
:107E100008BD00002002030008B5034B1B68D3F81F
:107E2000C030019308BD00002002030008B5024BDA
:107E30001B689B68019308BD4402030008B5024B10
:107E40001B68DB69019308BD4402030008B5024BBF
:107E50001B68DB6B019308BD4402030008B5024BAD
:107E60001B685B6C019308BD4402030008B5024B1C
:107E70001B685B68019308BD4002030008B5024B14
:107E80001B689B68019308BD4002030008B5024BC4
:107E90001B68DB68019308BD4002030008B5024B74
:107EA0001B681B69019308BD4002030008B5024B23
:107EB0001B685B69019308BD4002030008B5024BD3
:107EC0001B689B69019308BD4002030008B5024B83
:107ED0001B68DB69019308BD4002030008B5024B33
:107EE0001B681B6A019308BD4002030008B5024BE2
:107EF0001B681B6B019308BD4002030008B5024BD1
:107F00001B685B6B019308BD4002030008B5024B80
:107F10001B681B6C019308BD4002030008B5024BAF
:107F20001B685B6C019308BD4002030008B5024B5F
:107F30001B681B68019308BD1C02030008B5024BB7
:107F40001B685B68019308BD1C02030008B5024B67
:107F50001B689B68019308BD1C02030008B5024B17
:107F60001B68DB68019308BD1C02030008B5024BC7
:107F70001B685B6A019308BD1C02030008B5024B35
:107F80001B68DB6A019308BD1C02030008B5024BA5
:107F90001B68DB6B019308BD1C02030008B5024B94
:107FA0001B681B6C019308BD1C02030008B5024B43
:107FB0001B685B6C019308BD1C0203000021FFF7E6
:107FC000F3BE7047064B994210B500F10C0405D082
:107FD000084602F0B1FE002808BF0024204610BD6C
:107FE000E4CC0B0010B530210446FCF758F82046CD
:107FF00010BD3021FCF753B810B58368044613B1A7
:10800000032201469847204610BD10B54368013B46
:108010000446436063B903689B689847A368013BC3
:10802000A3602BB923682046DB68BDE810401847E1
:1080300010BD000010B500230370044B04461868FF
:10804000FFF7CAFC01232370204610BD90E60320F1
:1080500010B5037804461BB1024B1868FFF7C4FC47
:10806000204610BD90E6032082B0034608684968A8
:108070006A4603C26A4603CA18601846596002B0CD
:10808000704708B582798B799A4206D1062204F0AE
:108090009DF9B0FA80F0400908BD0020FCE74FF0E0
:1080A000FF33036083800020704708B5024600213B
:1080B00001604160FFF7F3FF9171104608BD10B5F4
:1080C000D0E9063203EBC2029342184606D0046898
:1080D00024888C4203F10803F6D110BD0020FCE790
:1080E00070B50025056006463020FBF7D4FF044636
:1080F00088B10123C0E90133094B03604FF6FF73D8
:1081000083810E30FFF7D1FFC4E90655C4E9085555
:10811000C4E90A55A57574600C343460304670BDEE
:10812000D0CC0B0037B50D46044601A8FFF782FFFF
:108130002A68D2F802302360D2F80630636001A8C2
:10814000FFF786FF204603B030BD30B5054687B047
:108150000C4601A8FFF76EFF2A68236812881B8867
:108160009A420DD1294602A8FFF7DCFF214604A858
:10817000FFF7D8FF04A902A8FFF783FF044600B960
:10818000002401A8FFF764FF204607B030BD0000BF
:1081900010B504466420FBF77EFF68B10023C0E9F8
:1081A0000033C0E90233C0E90433C0E90633036297
:1081B000C362C363C364C365206020B90A4A0B4924
:1081C0000A20FFF7C1FD0020FFF7D2FB20B1064ACD
:1081D00007490A20FFF7B8FD216806480022FFF78B
:1081E000E1FB204610BD00BF097A0B00E4CB0B0079
:1081F00022CC0B00C5840B0010B50A4C2378BFF3CA
:108200005B8FDB070CD42046FBF758FF40B10648D4
:10821000FFF7BEFF2046FBF756FF044804F0C8F8FE
:10822000014810BD8CE6032094E60320ED820B008C
:1082300008460021FFF7E6BD70B5D0E900530446BB
:1082400005EB0316AE4204D0284602F067F810355D
:10825000F8E72068FFF772FE204670BD0B680360E8
:1082600013B15A6801325A60704710B551F8043B97
:10827000044640F8043BFFF7F1FF204610BD10B55F
:108280000446006808B1FFF7C0FE204610BD70B577
:10829000D0E90053044605EBC306AE4204D0281DC6
:1082A000FFF7EDFF0835F8E72068FFF747FE2046A7
:1082B00070BD70B5D0E90053044605EBC306AE426D
:1082C00004D0281DFFF7DBFF0835F8E72068FFF72B
:1082D00035FE204670BD10B504462430FFF7E9FF97
:1082E00004F11800FFF7D3FF10BD000070B5174B65
:1082F0001C6854B304F15400FFF77EFE04F14400FF
:10830000FFF77AFE04F13400FFF776FE04F1240053
:10831000FFF772FED4E9065305EBC306AE4204D064
:10832000281DFFF7ACFF0835F8E7A069FFF706FE48
:1083300004F10C00FFF7BDFF2046FFF7A8FF204621
:108340006421BDE87040FBF7AABE70BD94E603202F
:10835000826810B50AB902F0EBFCBDE81040C368B2
:10836000184770B5D0E90053044605EBC306AE428A
:1083700004D0281DFFF783FF0835F8E7002363606A
:1083800070BD13B504460020FFF7FAFA002812DB8F
:108390000020FFF741FD18B100212046FFF748FFFC
:1083A00001A8FFF747FE20681830FFF7DAFF01A8A1
:1083B000FFF74EFE002002B010BD8842F8B504461B
:1083C0000D46164614D9904213D2A2F10806751A2A
:1083D000A1F108072C44B74218D01CB13146204601
:1083E000FFF743FF301DFFF74AFF083E083CF2E766
:1083F0000CD0B5420AD01CB129462046FFF735FF04
:10840000281DFFF73CFF08350834F2E7F8BDF7B543
:10841000044646686846FFF728FFD4E901739F4287
:1084200012DB0137002F29DDF800FFF77FFD05463D
:10843000F0B1D4E9001201EBC202FFF7BEFF2068E1
:10844000FFF77CFD2560A7602368626803EBC60622
:1084500003EBC202314606F10800FFF7AEFF1EB182
:1084600069463046FFF701FF636801336360012509
:1084700001A8FFF704FF284603B0F0BD0025DEE7A2
:10848000F8B5D0E9004305460F4604EBC306A64203
:1084900005D039462046FFF758FE08B114B9F8BD9B
:1084A0000834F4E7201DFFF7EAFED5E9003204F1B5
:1084B000080103EBC2022046FFF77FFF6B68013B18
:1084C0006B60ECE72DE9F04105468EB003A80C4641
:1084D000FFF7B0FD2E68F31E0D2B3CD8DFE813F03C
:1084E0000E0053003B00D1003B003B003B003B0033
:1084F0003B009B009B009B009B009B0004A8FFF798
:10850000EFFD049BAA891A8069680498083102303B
:10851000FFF7AAFD04A906A8FFF7A7FE06A904F124
:108520001800FFF774FF054607A8FFF7A8FE2023F1
:108530000693B5B95D4B5E49009332202B4606AADF
:108540000795FFF709FC049B29461888FFF720FAD6
:1085500005A8FFF794FE03A8FFF77AFD0EB0BDE86B
:10856000F081544A009200235149079306AA012042
:10857000FFF7F2FBE36A002BEAD004A904F1240020
:10858000FFF7E6FEE4E7A9892046FFF798FD0646D7
:108590000028E0D00568D5E906324FF6FF71298042
:1085A00003EBC2029A4203D053F8080B4180F9E76B
:1085B000D5E9037307EBC308B84504D0381DFFF7AE
:1085C0005EFE0837F8E700232B61D5E9067307EB59
:1085D000C308B84504D0381DFFF751FE0837F8E747
:1085E0000023EB61AB72E36B23B1314604F134003D
:1085F000FFF7AEFE00232022CDE906232E4A00928B
:108600002B4906AA0120FFF7A7FB314604F1180009
:10861000FFF736FF9FE7A9892046FFF750FD0028A6
:1086200099D0E36C002B96D000230D2EADF81630B8
:1086300001D0102E17D1002369681A4606258DF83F
:10864000153004918DF814200690DDE9040109AB82
:108650008DF81C60089583E80300236D06A904F1DA
:108660004400984777E70F2E01BF2B7A696803F023
:10867000010208250FBFC3F340031A4619461D46E1
:10868000DDE7A9892046FFF71AFD014600283FF4DF
:1086900062AFE36D002B3FF45EAF6B68069306AAF2
:1086A000236E04F15400984755E700BF64CC0B00DB
:1086B000FBCB0B008ACC0B00A7CC0B00024800239D
:1086C0000360FFF779B900BF90E603201FB50C23C4
:1086D000ADF8043003688DF80630037A8DF8073062
:1086E000436802930021437AADF80D1001A88DF87C
:1086F0000F108DF80C30FFF7B1FB05B05DF804FBEF
:10870000002240681146FFF7E9BB0022406811468D
:10871000FFF7F4BB40680022FFF7E8BB4068002287
:1087200081F00101FFF7D2BB002340681A461946C9
:10873000FFF7C4BB002340681A461946FFF7B6BBD3
:10874000002240681146FFF7A9BB0022406811468D
:10875000FFF794BB406800220221FFF797BB00237C
:1087600040681A46FFF782BB024B03225A60024A56
:108770001A60704798E60320F4CC0B007047F8B5F8
:10878000064615460C468F18BC4206D0336814F8CE
:10879000011B9B6830469847F6E72846F8BD007CE9
:1087A0000022FFF799B9007C0021FFF79DB9007CFA
:1087B0000021FFF7A1B9007C0021FFF7A5B9007CDB
:1087C0000021FFF7A9B910B514210446FBF767FC97
:1087D000204610BD10B54FF47A73044608460021B8
:1087E000C4E90113034B236020741146FFF7A4F979
:1087F000204610BD30CD0B000023007C1A461946E0
:10880000FFF752B97FB500221423CDE90122ADF85C
:1088100004300B788DF808304B680393CB680493D1
:10882000007C0B7A059301A9FFF78EF907B05DF87C
:1088300004FB1FB5003B8DF800104FF0640103915D
:1088400018BF0123694601928DF80830FFF7DAFF5F
:1088500005B05DF804FB0123FFF7EBBF007C0022AD
:10886000FFF72AB9C9B2FFF7F9BF007C0022FFF772
:108870002BB90121FFF7F9BF004700002DE9FF41A7
:1088800000241D460F4690460646FFF7FDF8A54218
:108890004FF00403ADF80D408DF80C308DF80F400B
:1088A000A2BF9DF828308DF80E3003AC0749009424
:1088B00043463A463046A8BF8DF80D50FFF7DCF826
:1088C000B0FA80F0400904B0BDE8F08179880B006F
:1088D000704710B518210446FBF7E1FB204610BD98
:1088E000F0B5037D062B8DB00E4600F104074FF066
:1088F000000412D000F1080515F8011D0A223046C7
:1089000001F091FAAF42044419D0002CF4D02E218A
:10891000304601F06DFA0444EEE72F236A463946EB
:108920000A208DF80040FFF717F9684603F023FE90
:1089300033680246DB68694630469847044620465D
:108940000DB0F0BD10B5054B0446112240F8043BB4
:10895000002103F073FD204610BD00BF58CD0B0071
:108960000346074A10B543F8042B01F1100251F8F1
:10897000044B43F8044B9142F9D10A781A7010BDA8
:1089800058CD0B0010B59DF8084044EA032343EA94
:10899000024242EA016104234160037510BD0000F8
:1089A00007B5064B0360CB7800938B784A7809783B
:1089B000FFF7E8FF03B05DF804FB00BF58CD0B00E4
:1089C00000F11003012213F8101C0129184608D1E8
:1089D00053F8041C02EB4102013A03F11003F2D1F7
:1089E0007047022904BF53F8041C5218F4E70EB470
:1089F000F0B588B000AF07F13405102155F8042B0D
:108A00007A6004462B467818FD60FFF7AFFA0F280E
:108A10007A681AD900F1080323F007036E46ADEB1C
:108A2000030D411C2B466846FD60FFF79FFA021EAE
:108A300004DD236869469B6820469847B546203781
:108A4000BD46BDE8F04003B070470028F7D023686A
:108A500002469B6807F1100120469847EFE738B5BA
:108A60000B6803604D6843689D42044608D015B109
:108A70006B6801336B60606808B1FFF7C6FA656028
:108A800038BD07B503688DF807109B6801220DF10A
:108A90000701984703B05DF804FB0B46114600221E
:108AA00010B5C0E90022044683600BB9204610BD12
:108AB000FFF7D5FFFAE78368EBB11A78032A1AD8D3
:108AC000DFE802F00417021B0520704702685B68AC
:108AD0005268D05C2D2812D0A0F13003092B0ED99A
:108AE00074280ED066280CD0A0F16E03584258416D
:108AF000704706207047002070470420704703200D
:108B000070470220704710B50446FFF7D4FF0228D3
:108B10000ED0C31EDBB2012B14D82268A3685068A4
:108B20005B68BDE810400A220021184403F0E8BD4C
:108B30002268A36852685B68D05CA0F17403584255
:108B4000584110BD0020FCE738B50023C0E90033D0
:108B500004460E48C4E90203A9B10B78032B06D0E2
:108B60008BB9136858684B68C35C6E2B07D01368C9
:108B70004D6858688B6828445B1BA060E360114611
:108B80002046FFF76CFF204638BD00BF2ACA0B0005
:108B900038B500250B46C0E90055C0E90255C0E9CB
:108BA0000455044611464BB11A78012A06D103F147
:108BB0001002DB6882604361FFF751FF204638BD39
:108BC00010B54369044663B18068E060013B103032
:108BD000A0602061636113B1FFF7F2FEA060012085
:108BE00000E0184610BD10B57D210446FFF749FF8F
:108BF00001232371204610BD08B50379012B02D053
:108C0000022B04D008BD2C21FFF73BFFFAE73A21E5
:108C1000FAE710B50446FFF7EFFF20467B21FFF788
:108C200030FF00232371204610BD000013B5044619
:108C30000191FFF7E1FF2368019ADB6803492046B1
:108C4000984701232046237102B010BDA4C90B0030
:108C500013B504460191FFF7CFFF2368019ADB6843
:108C600003492046984701232046237102B010BDD6
:108C700064CD0B002DE9F0470D46222190460446B5
:108C8000FFF7FFFEDFF8A490A8442F464745BA46F9
:108C90003DD017F8016B222E06D05C2E04D0304652
:108CA00003F08CFB0028F1D12368AAEB05029B6836
:108CB0002946204698475C212046FFF7E2FE0D2E0C
:108CC0000AD8072E1CD9A6F10803052B18D8DFE80F
:108CD00003F00D0F11171315222E01D05C2E0FD1AA
:108CE00031462046FFF7CDFE3D46CFE76221F8E74B
:108CF0007421F6E76E21F4E76621F2E77221F0E7CE
:108D000023683246DB68494620469847ECE7BD4277
:108D100005D023687A1B9B68294620469847222164
:108D20002046FFF7AEFEBDE8F08700BF67CD0B0021
:108D300013B50446CDE90021FFF75EFF2046DDE9CB
:108D40000021FFF797FF02232046237102B010BDD8
:108D500013B50446CDE90021FFF74EFF2046DDE9BB
:108D60000021FFF787FF01232046237102B010BDC9
:108D700080680368DB6818477047084611B10B68C4
:108D80005B6818477047704770477047704738B541
:108D900004460D4600682E2103F0D1FB2368C31A58
:108DA0002B6023B1037803B101302368206018469B
:108DB00038BD10B50C210446FBF771F9204610BDF3
:108DC00010B504210446FBF76AF9204610BD10B522
:108DD00004210446FBF763F9204610BDFEF7FCBDF5
:108DE00008B503F0B6FBB0FA80F0400908BD704743
:108DF00010B50C4601F068FD844210D001F070FF00
:108E0000844205D101F06CFFBDE8104001F0F7BCD1
:108E10002CB1236820465B68BDE81040184710BDA0
:108E20000B6803604B68436013B15A6801325A60A3
:108E3000704713B504460846019103F09CFB019965
:108E40000246204602B0BDE81040FFF781BF13B5CF
:108E500004460846019103F08EFB23680199DB6804
:108E60000246204602B0BDE81040184707B5036827
:108E70008DF80710DB6801220DF10701984703B058
:108E80005DF804FB0EB403B503AB002153F8042BCB
:108E9000006A019301F0D7F802B05DF804EB03B06B
:108EA00070470A6802604A6842600022C0E90222F4
:108EB00010B502618C688460CC68C4600C698A60FB
:108EC000CA6004610A6110BD2DE9F74FD0E9008442
:108ED0004FF0140A00930AFB04F4184BA410174631
:108EE0005C434546002C21DD66100AFB06F005EBCD
:108EF00000093A46B9F804B0285801915F4528BFE7
:108F00005A4603F040FB002801994FF001030BD1B2
:108F10005F4503D1009A13703446E3E7FCD9A61BE2
:108F200009F11405013EF7E7F9DBF5E7A5EB0805C4
:108F30000248AD10684303B0BDE8F08FCDCCCCCC77
:108F40007FB50369057E019103B3F9B1002600F1F5
:108F50000C04039603A901A8FFF719FF0146A8B165
:108F60000DF10B03039A8DF80B602046FFF7ACFF61
:108F70009DF80B3053B12368142404FB00340834EB
:108F800034F9023C002BA8BFDDB2E3E7284604B069
:108F900070BD000010B5094C2378BFF35B8FDB0771
:108FA00009D42046FBF78AF828B12046FBF78BF856
:108FB000034803F0FDF9034810BD00BFA4E60320F9
:108FC000878D0B00C4DB032010B5094C2378BFF359
:108FD0005B8FDB0709D42046FBF770F828B12046E9
:108FE000FBF771F8034803F0E3F9034810BD00BF35
:108FF000A8E60320EF8D0B00C8DB032038B5002561
:109000000446C0E90055C0E904558560856140F813
:10901000245FFEF7D1FCFFF7BDFFE061FFF7D4FF4F
:1090200025732062204638BD10B50A4C2378BFF363
:109030005B8FDB070CD42046FBF740F840B10648B5
:10904000FFF7DCFF2046FBF73EF8044803F0B0F9D9
:10905000014810BDA0E60320B0E603207D950B007B
:10906000024A034903480023FEF78EBE61930B00BA
:10907000ED920B006D920B0000231A46194618461C
:10908000FEF782BE37B58D6804466846FFF7C8FE16
:109090006A4629462046FFF77BFD01A8FFF7EFF857
:1090A000204603B030BD37B5CD6804466846FFF7AB
:1090B000B7FE6A4629462046FFF746FD01A8FFF79E
:1090C000DEF8204603B030BD37B50D69044668466A
:1090D000FFF7A6FE6A4629462046FFF7DEFC01A8F8
:1090E000FFF7CDF8204603B030BD000070B58AB060
:1090F0000D46014604A8FFF7C5FF144E04A8FFF76C
:109100005FFDE8B104A96846FFF7CDFF029831463C
:10911000FFF766FE044610B12C1E18BF012401A8FB
:10912000FFF7ADF8002CE9D004A96846FFF7CCFFA3
:109130006846FFF7E8FC286001A8FFF7A0F8DDE724
:1091400005A8FFF79CF80AB070BD00BF6DCD0B00FD
:1091500037B50C4620461349154603F0FAF950B9C5
:1091600001F0B2FB4FF4165101F09EFB03B0BDE8D5
:10917000304001F0A9BB0C49204603F0EAF978B968
:109180004FF4165301A928460193FFF7AFFF01F0F2
:10919000A7FD019901F030FB01F0A2FD03B030BD45
:1091A0000020FBE772CD0B0079CD0B0070B5D0E944
:1091B00000531426044606FB0356AE4205D005F1C3
:1091C0000800FFF7F3FF1435F7E72068FEF7B6FE57
:1091D000204670BD10B504460C30FFF7E7FF20466F
:1091E000FFF72AF8204610BD10B5044B044640F89E
:1091F000043BFFF7EFFF204610BD00BFB0CB0B00D4
:1092000010B50446FFF7F0FF20462421FAF747FF88
:10921000204610BD10B5034B03600446FFF7E4FF82
:10922000204610BD14CE0B0010B50446FFF7F2FF28
:1092300020462421FAF733FF204610BD0022C0E962
:10924000002210B582600C6804604C6844608C6831
:109250000A604A6084608A6010BD10B503680446E5
:109260001868FEF7C1FB204610BD00002DE9F04F45
:1092700087B0804603931C4B5B68C3F308038946A1
:1092800016466BB9FFF7D0FE044600F12403406A8E
:109290000593FFF7A3FD237B2BB105A8FFF7DDFFA7
:1092A00007B0BDE8F08F01232373D4E900535FFAC0
:1092B00089F905EB830AAA4512D055F8047B31469B
:1092C000381DFFF73DFE8145F5D33B68039A0092B8
:1092D000D3F808B04A46334641463846D847EAE70D
:1092E00000232373D9E700BF00ED00E02DE9F74F1D
:1092F0009B461A4B5B68C3F30803804689461646B3
:109300006BB9FFF791FE044600F12403406A019314
:10931000FFF764FD237B2BB101A8FFF79EFF03B08D
:10932000BDE8F08F01232373D4E90053F6B205EBB7
:10933000830A55450ED055F8047B5946381DFFF772
:10934000FFFD8642F5D33B684A46DB684146384616
:109350009847EEE700232373DEE700BF00ED00E04F
:109360002DE9F341164B5B68C3F3080305460F462E
:109370001BBBFFF759FE00F124030446406A01932A
:10938000FFF72CFDD4E90063462406EB8308B045C3
:1093900009D101A8FFF761FFA542B4BF0020012059
:1093A00002B0BDE8F08156F8040B39460430FFF7EF
:1093B000C7FD8442A8BF0446E9E70020F0E700BFEC
:1093C00000ED00E0F8B5D0E901539D4204460E4699
:1093D0000DDB6F1C002F006804DDB900FEF7B6FD41
:1093E00018B9F8BDFEF7AAFD00202060A760276825
:1093F000626807EB85019200A2EB8502081D03F06D
:1094000003F847F825606368013363600120E8E7EB
:1094100037B500F124030446406A01930D46FFF777
:10942000DDFCD4E9003203EB8202934219460BD0F3
:109430000968A94203F10403F7D101A8FFF70DFF62
:109440000025284603B030BD29462046FFF7BAFF65
:1094500005460028F1D06368012B01D1FFF700FE1B
:1094600001A8FFF7FAFEECE770B50446D0E9000268
:109470000B4600EB820282420FD001461D6851F874
:10948000046BAE4207D1521A02F0BEFF6368013B83
:109490006360012070BD0846EDE70020FAE71FB5C4
:1094A00000F124030446406A01910393FFF796FC00
:1094B00001A92046FFF7D8FF18B163680BB9FFF781
:1094C000DBFD03A8FFF7C9FE04B010BD70B5D0E9FD
:1094D00004561823044603FB0656AE4215D005F188
:1094E00010012046FFF7C0FF63680BB9FFF7C4FD0A
:1094F000E06929690368DB689847696919B1206ADE
:109500000368DB6898471835E7E7D4E90453182661
:1095100006FB0356AE4204D0284600F0FFFE183585
:10952000F8E70023636170BD73B50446FFF7A4FD3F
:1095300004F12403606A0193FFF750FC2046FFF713
:10954000C5FF01A8FFF789FE606A08B1FEF73CFA83
:10955000D4E90453182606FB0356AE4204D028462D
:1095600000F0DCFE1835F8E72069FEF7E7FC20681C
:10957000FEF7E4FC204602B070BD00000148FFF792
:10958000D3BF00BFB0E603208842F8B504460D46BD
:10959000164615D9904214D2A2F11406751AA1F1FB
:1095A00014072C44B7421AD01CB131462046FFF7AD
:1095B00078FC06F10800FFF7F9FD143E143CF1E7D2
:1095C0000DD0B5420BD01CB129462046FFF769FCEF
:1095D00005F10800FFF7EAFD14351434F1E7F8BD92
:1095E0008842F8B504460D46164614D9904213D267
:1095F000A2F11006751AA1F110072C44B74218D039
:109600001CB13146204600F005FF304600F086FED2
:10961000103E103CF2E70CD0B5420AD01CB12946EE
:10962000204600F0F7FE284600F078FE1035103492
:10963000F2E7F8BD70B50E1E054611DD3001FEF7EC
:1096400075FC044658B1D5E9001201EB0212FFF790
:10965000C7FF2868FEF772FC2C60AE60012070BD69
:109660000024F6E72DE9F04F904695B000230391D2
:10967000D8F804100A9346229942C0E90033C0E9A1
:109680000233C0E90433CDE908330446027623DC13
:10969000D8E90057142303FB0757AF423BD02946B4
:1096A0000BA800F0B7FE0BA90FA8099E00F0B2FEB0
:1096B000DDE9091399421BDA089B099A03EB0616A8
:1096C00003EB0212314606F11000FFF789FFEEB9F5
:1096D000099B0133099311E008A8FFF7ABFF0028AD
:1096E000D6D108A8FEF7A8FD204615B0BDE8F08F3A
:1096F000013108A8FFF79EFF0028DDD10FA800F078
:109700000DFE0BA800F00AFE1435C6E70FA930467F
:1097100000F080FEDCE70026CDE90B660D964FF0E9
:109720001409DDE908239E427CDA3301D3580693FD
:109730000BB90136F5E70023079309FB06F3029303
:109740000BAD07A906A8FFF722FB82460028F0D040
:109750004FF000038DF817300146079A0DF11703FB
:109760002846FFF7B1FB9DF817700190002F4AD1F2
:10977000BDF81C30ADF84030CDE911774FF6FF73DE
:10978000CDF83CA0ADF842301397D5E901329342B1
:1097900017DB03F1010ABAF1000F30DD09FB0AF013
:1097A000FEF7C4FB834660B3D5E9001209FB021241
:1097B000FFF7EAFE2868FEF7C1FBC5F800B0C5F860
:1097C00008A02B68019A09FB023A6A68514609FB16
:1097D00002320AF11400FFF7D7FEBAF1000F03D0EE
:1097E0000FA95046FFF75DFB6B6801336B6011A852
:1097F000FFF7DCFC3FB10BA8FFF7D8FC71E7BB46D5
:10980000D8E70127F3E7019B2D6809FB0355069B69
:109810001B782BB9D8F80030029A13441B7CEB80DC
:1098200008358EE72168226062686360A368099248
:109830000A9A0A93E368A2600B9A0B932369E26089
:109840000C9A0C93636922610D9A0D93039B089106
:1098500062612376CFE70000F0B5044687B00D467D
:109860002646194668461746FBF78DFE0B4B46F811
:10987000043B694603A8FBF786FE03AA3946304637
:10988000FFF7F0FE03A8FBF73DFE6846FBF73AFE44
:10989000034B23602046256207B0F0BDB0CB0B0020
:1098A000FCCD0B00F0B50F4685B01D490A9C38462B
:1098B00016461D4602F04DFEC0B9A4B1294601A8C6
:1098C000FFF7BCFC1749242001F02EFA054630B101
:1098D00001AB32462146FFF7BFFF134B2B6001A8B7
:1098E000FBF710FE2C46204605B0F0BD0F49384668
:1098F00002F02FFE90B9002CF5D0294601A8FFF701
:109900009DFC0849242001F00FFA05460028E6D006
:1099100001AB32462146FFF79FFFE0E70024E2E774
:1099200081CD0B008CCF0B0014CE0B0085CD0B002E
:10993000014B024A1A607047ACE6032096CD0B003B
:109940002DE9F047089DD0F8209004460E461746B2
:10995000984600F0B9FF81454CD02B79190704D502
:109960006A6954492046FFF78DFAB8F1000F0DD00F
:109970005B212046FFF77AFA41462046FFF767FA57
:1099800023684D49DB680222204698472B79DA0785
:1099900023D5D5F808802F21404602F01BFE08B1E0
:1099A00000F1010841462046FFF751FA2B799B0749
:1099B00008D53A212046FFF759FAEA683F49204680
:1099C000FFF760FA2A79236812F0040FDB6814BFEE
:1099D0003B493C490222204698472B7958071DD520
:1099E00029690B461A4613F8010B60B1202808D1EB
:1099F0001946F7E7344800F066F90028ADD0BDE815
:109A0000F0872828EED12368521ADB682046984751
:109A100023682E49DB6804222046984700213846F7
:109A2000FEF7AAF901462046FFF711FA23682549F7
:109A3000DB680222204698471EB131462046FFF7D8
:109A400006FA2B7913F0300F2CD023682049DB68FD
:109A50000222204698472B79D9060AD523681D494A
:109A6000DB68072220469847AA691B492046FFF772
:109A700009FA2B799A0611D5DB0605D5236810491A
:109A8000DB6802222046984723681449DB68204699
:109A90000A229847E9692046FFF7D9F95D21204657
:109AA000FFF7E4F923680E49DB6820460222BDE88F
:109AB000F04718479ACD0B00A1CD0B00A4C90B00AD
:109AC000FFCA0B00A6CD0B00D8E60320A4CD0B00E7
:109AD000A9CD0B00ACCD0B00B4CD0B00B7CD0B0066
